:020000040800F2
:1000000000C00020E94700082D4800082D480008DE
:100010002D4800082D4800082D4800080000000069
:100020000000000000000000000000002D48000853
:100030002D480008000000002D4800082D48000849
:100040002D4800082D4800082D4800082D480008BC
:100050002D4800082D4800082D4800082D480008AC
:100060002D4800082D4800082D4800082D4800089C
:100070002D4800082D4800082D4800082D4800088C
:100080002D4800082D4800082D4800082D4800087C
:100090002D4800082D4800082D4800082D4800086C
:1000A0002D4800082D4800082D4800082D4800085C
:1000B0002D4800082D4800082D4800082D4800084C
:1000C0002D4800082D4800082D4800082D4800083C
:1000D0002D4800082D4800082D4800082D4800082C
:1000E0002D4800082D4800082D4800082D4800081C
:1000F0002D4800082D4800082D4800082D4800080C
:100100002D4800082D4800082D4800082D480008FB
:100110002D4800082D4800082D4800082D480008EB
:100120002D4800082D4800082D4800082D480008DB
:100130002D4800082D4800082D4800082D480008CB
:100140002D4800082D4800082D4800082D480008BB
:1001500010B5054C237833B9044B13B10448AFF301
:1001600000800123237010BD7C00002000000000EF
:100170003465000808B5034B1BB103490348AFF3CE
:10018000008008BD000000008000002034650008E9
:1001900010F8012B11F8013B012A28BF9A42F7D031
:1001A000D01A7047034613F8012B002AFBD1181A06
:1001B000013870470000000000000000000000004F
:1001C00001F0FF01102A2BDB10F0070F08D010F808
:1001D000013B013A8B422DD010F0070F42B3F6D10C
:1001E000F0B441EA012141EA014122F007047FF025
:1001F00000070023F0E80256083C85EA010586EA7C
:10020000010685FA47F5A3FA87F586FA47F6A5FAB7
:1002100087F68EB9EED1F0BC01F0FF0102F00702C3
:1002200032B110F8013B013A83EA010313B1F8D16E
:100230000020704701387047002D06BF354603384F
:10024000073815F0010F07D1013015F4807F02BF88
:10025000013015F4C03F0130F0BC0138704700BFD9
:1002600003685A004CBF43F0004323F00043184496
:10027000704700BF61B32DE9F84F01F1FF3A904696
:100280000646D146002707EB090404EBD47464103A
:10029000E50071190846FFF7E3FFA245834605F123
:1002A0000800304409D0FFF7DBFFC34500F1FF3001
:1002B00005D8404509D2671CE5E7C34505D9A742E3
:1002C00002D004F1FF39DEE700210846BDE8F88FCF
:1002D00008467047012807D0022807D0044B0028A1
:1002E0000CBF18460020704702487047024870470C
:1002F000C1090008C5090008C909000830B5254B27
:1003000083B004468D1E4BB301A92846AFF300808D
:10031000F0B101992A46FFF7ADFF0146C0B1FFF7E2
:100320009FFF4B68A064012B2ED0002B01F104002D
:1003300026DBFFF795FF0023C4E913030368002BB6
:1003400012DBFFF78DFF00232061184603B030BD9C
:10035000002323610923184603B030BD0E490F481E
:10036000091AC9100191D5E7C3F30360FFF7B2FF83
:10037000002814BF002309232061184603B030BDB4
:100380000123C4E91303D9E7002323610523184699
:1003900003B030BD00000000B8690008186600080E
:1003A0000368DA0710B5044606D49B0700F148003D
:1003B00009D500F05FFC2368590709D51A070ED547
:1003C000DB0613D510BD00F04DFC23685907F5D4AA
:1003D00004F1D00000F056FC23681A07F0D404F5AD
:1003E000A87000F057FC2368DB06EBD404F5E87036
:1003F000BDE8104000F092BC036803B10344184606
:10040000704700BF09207047704700BF70B50446B1
:100410000D4608E02B6C63612A46236921460120C2
:100420009847082808D1296C2046FFF767FF064641
:100430000028EFD005F072FC0728FBD13046296C6C
:10044000FFF7E2FF281D00F001FC00BF2DE9F04797
:100450000C1D054617460FCCADF5727D03AE0FC6D9
:100460000FCC0FC60FCC0FC694E80F0002ACD5F826
:100470000C80D5F8189086E80F000023236021E057
:10048000236C6B614FF4F07221467AA804F0E6FA0F
:100490002B697AAA294630469847889BCDE90049BE
:1004A0008246636431462B462A460120C0470746F0
:1004B000F8B94FF4F0727AA9204604F0CFFABAF1F5
:1004C000080F1CD1216C2846FFF718FF002F08BF2A
:1004D0000926074618BF0A260028D1D0A36B46F08C
:1004E0001001CDE900492A46636401202B46C0472C
:1004F00000B1092738460DF5727DBDE8F087BAF1E5
:10050000070FF6D13846216CFFF77EFF03A800F0F5
:100510009DFB00BF406C7047F0B5CB6B0B640D1DAD
:100520000F4606460FCDF9B001AC0FC40FCD0FC476
:100530000FCD0FC495E80F004FF0FF3584E80F0092
:10054000009506E033696A46314698470828044614
:1005500008D110993046FFF7D1FE0028F2D00920CB
:1005600079B0F0BD6846FFF71BFF062CF7D139467E
:100570003046FFF74BFF00BF30B4DD6BC1608261D6
:1005800019461D64002230BC60E700BF70B5C66824
:1005900043690B64BEB903690A4604460D46014629
:1005A00002209847072807D0082803D1294620466B
:1005B000FFF72CFF05F0B2FB3046296CFFF724FF54
:1005C000281D00F043FB0122FFF740FF05F0A6FBCA
:1005D000C2681AB1CA6B0A64002237E79CE700BF01
:1005E000704700BF836813B1014601201847704768
:1005F000042907D8DFE801F00308060808000BB952
:100600000F2A03D9022070470120704700EB8202B5
:1006100018465368009A1360704700BF10B584B045
:10062000002303AC0A4600941946FFF7E1FF039844
:1006300004B010BD042907D8DFE801F0030806085C
:1006400008000BB90F2A03D9022070470120704718
:1006500000EB8200009A126842601846704700BFA3
:1006600010B584B004AC002344F8042D0A4600946D
:100670001946FFF7DFFF04B010BD00BFF0B5D36B24
:100680001364151D07460E460FCDADF50F7D17AC53
:100690000FC40FCD0FC40FCD0FC495E80F004FF05E
:1006A000FF3584E80F00169510E016A8FFF7D8FF75
:1006B000314616A8B84716AA694678B9049B08209F
:1006C0009847052804460AD0092807D02699684685
:1006D000FFF714FE6A460C210028E6D0092416A86C
:1006E000FFF75EFE20460DF50F7DF0BD2DE9F04FC2
:1006F0000D46C96C89B00C1D164600F0030B0A6844
:1007000006941F46002B68D0130CD9B212048DF842
:100710001D30022304EB810405928DF81C302B6DF3
:10072000BBF1020F08BFAC6B13F0010346D101937C
:1007300000F008030093D4F80090B9F1000F00F026
:10074000F380022F45D0B4F80090B4F8028004344E
:10075000AB6C28F0010A0F2130469A44FFF75EFF88
:10076000824534D829F001035344834294BF0020CA
:1007700001204FEA480808F0020809F0010948EA98
:100780000908B8F1010F3AD031D3B8F1020F1AD1EC
:10079000236823F0004ABBF1000F66D130B1009A04
:1007A000002A6CD0BAF1000F00F09080002B00DA24
:1007B00004340AF1010304EB8304BCE7304605A9C5
:1007C00000F046FB78B1092009B0BDE8F08F0020A9
:1007D000CFE7D4F804800834BAE712020323059265
:1007E000ADF81C309BE7082009B0BDE8F08FBBF1E5
:1007F000000F02D0002840F0B48004349BE7BBF126
:10080000000F18D1A8B1D4E90023991C4FEAD27285
:10081000D9D005F158010133049100F0B580201DB5
:10082000FFF7EAFD04AB01462846AFF3008000283D
:1008300067D108347FE70D213046D5F82080FFF7D7
:10084000EDFE8045F5D1AB6A9C42F2D12046FFF720
:1008500007FD0F2102463046FFF702FF30462A46C9
:100860000021FFF7FDFE0720AEE70D213046D5F849
:100870002080FFF7D3FE804532D0236896E7BAF197
:10088000000F23D005F1580304F10408CDF808B097
:10089000DDF800900397A3461C4602E05745B94691
:1008A00040D040460494FFF7A7FD04AB0146002268
:1008B0002846AFF3008009F1010708F10408002879
:1008C000ECD0D1455C46DDE902B7D6D130460D21EA
:1008D000FFF7A4FE049B2862C5E90934062073E7EC
:1008E000AB6A9C42C9D104224FF00008A318C5E9A5
:1008F0000AA8C5E90C23236843454DDB0123019376
:1009000057E780460D213046FFF788FEB8F1020F09
:1009100028623ED12B46049A43F82C2F6B62AC62BE
:10092000062051E75C46D1E705A9304600F090FA71
:1009300000287FF448AF019B002B3FF454AF0F21F8
:100940003046FFF76BFE0E2102463046FFF788FE69
:1009500030461A4A0F21FFF783FE072009B0BDE891
:10096000F08F2046FFF77CFC04340746AC63284632
:10097000AFF3008000283FF426AF30463A460F21FF
:10098000FFF76EFE07201FE730460D21FFF746FEFA
:100990002862049B6B62C2E70AF1010004EB80004D
:1009A000FFF75EFC0F2102463046FFF759FE304646
:1009B0002A464146FFF754FE072005E700000000E5
:1009C000002393E6012391E602238FE62DE9F0410F
:1009D0000546C4B0042906D8DFE801F04D2B050315
:1009E0000900032B5FD0022044B0BDE8F081002B4A
:1009F000F9D1102AF7D82B68DC0600F1F48022AC7C
:100A00002046019200F094F9A86B019A0023012678
:100A100006FA03F1114203D0016844F823100430B0
:100A20000133042BF4D1A863204600F077F90020AD
:100A3000DAE7012B4FEA124697B252D0052BD2D1FA
:100A400006EB0708B8F1200FCDD80F2E40F29980A1
:100A5000B846002F40F0DB80AA6BAA630F2E40F24D
:100A6000BE80B8F1000F02D002A800F00BF9002000
:100A700044B0BDE8F081002BB5D1AC6B97B2281D16
:100A8000012606FA03F1394203F1010302D021687D
:100A900001600434102B00F10400F2D112F4005074
:100AA000E5D1AC63A0E7160C97B2F319102B9AD8D6
:100AB0002B681A075DD422AC204600F00DF904EB38
:100AC000C601AB6B3FB103EBC702186841F8040BDA
:100AD00004339342F9D12046AB6300F0DBF80020E9
:100AE00082E7F219102A3FF67EAF0F2E3FF67BAF5A
:100AF0002A68D10708D5284622F0030240F8482B7F
:100B0000019300F0B3F8019B019322AC204600F062
:100B1000ADF8A96B019B002F00F095807F0004EBDE
:100B2000C6044FF00008043C01EB870251F8040BA7
:100B300044F8040F9142F9D1B8F1000F0FD002AC84
:100B4000102E314638BF102104EBC101843902EB6D
:100B5000C80452F8040B41F8040F9442F9D1012B58
:100B60007FF47BAF22AC0432AA63204600F07AF80F
:100B70007DE723F008032B6005F5A87000F0ACF8C2
:100B800099E7B8F1100F2A6843D9D007A8F11008E7
:100B90000BD5284622F0010242F0020240F8482B11
:100BA000019300F06BF82A68019B510725D40F2EA2
:100BB00004D822A8019300F061F8019B019302ACD4
:100BC000204600F063F8C6F110010029AA6B019BD2
:100BD000B6DD22AC4F0004EBC6041146A3E722A801
:100BE00000F048F83DE723F010032B6005F5E870AE
:100BF000019200F09DF8019A01E7284622F00402D4
:100C000040F8D02B019300F041F8019BCFE72A6810
:100C1000CBE7D0070AD5284622F0010242F00202B3
:100C200040F8482B019300F029F8019B019322AC76
:100C3000204600F023F8B846A96B019B002F7FF4F3
:100C40006DAF0A4609E70A468DE700BF00F134019F
:100C500091E838009C46A6464CF8045D90E8FF0FEA
:100C6000E54600BD90EC210B704700BF80EC210BE6
:100C7000704700BF90EC200B704700BF80EC200B4A
:100C8000704700BFD0EC200B704700BFC0EC200BBA
:100C9000704700BFF0EC0201F0EC0211F0EC022111
:100CA000F0EC0231F0EC0241F0EC0251F0EC0261A8
:100CB000F0EC0271F0EC0281F0EC0291F0EC02A198
:100CC000F0EC02B1F0EC02C1F0EC02D1F0EC02E188
:100CD000F0EC02F1704700BFE0EC0201E0EC021121
:100CE000E0EC0221E0EC0231E0EC0241E0EC0251E8
:100CF000E0EC0261E0EC0271E0EC0281E0EC0291D8
:100D0000E0EC02A1E0EC02B1E0EC02C1E0EC02D1C7
:100D1000E0EC02E1E0EC02F1704700BFB0FC0181C1
:100D2000B0FC0191B0FC01A1B0FC01B1704700BF63
:100D3000A0FC0181A0FC0191A0FC01A1A0FC01B1DB
:100D4000704700BFEC4600B52DE900502DE9FF1FAC
:100D50004FF000032DE90C0001A9FFF7DDFBDDF8E2
:100D600040E012B0704700BFEC4600B52DE90050DE
:100D70002DE9FF1F4FF000032DE90C0001A9FFF73B
:100D800005FCDDF840E012B0704700BFEC4600B54E
:100D90002DE900502DE9FF1F4FF000032DE90C0055
:100DA00001A9FFF715FCDDF840E012B0704700BF65
:100DB000EC4600B52DE900502DE9FF1F4FF0000370
:100DC0002DE90C0001ABFFF7D7FBDDF840E012B0D6
:100DD000704700BFEC4600B52DE900502DE9FF1F1C
:100DE0004FF000032DE90C0001AAFFF747FCDDF8E6
:100DF00040E012B0704700BF027A82B9437AABB1CB
:100E00004268013B10B4437213680321141D017240
:100E10001A02446002605DF8044B180E70470368C4
:100E2000013A02721A020260180E7047B020704731
:100E300000B585B003AA0023009219460C22FFF7E3
:100E4000D7FB039805B05DF804FB00BFF0E700BFD7
:100E50002DE9F043054685B00E464FF000083046B8
:100E6000FFF7CAFFB028044600F0B180070620D57E
:100E700000F0F003802B65D0902B36D0A02B78D0DB
:100E8000B02B47D0C02B00F08A8000F0F803D02BA5
:100E90000BD100F00702013242F4002205230121A8
:100EA0002846FFF793FD0028D9D0092005B0BDE8FA
:100EB000F0830DF10C09002319468700CDF800904E
:100EC0000D222846FFF794FBFFB2039BCDF800905C
:100ED000043760064CBFDF1BFF18002319460D22A4
:100EE00028460397FFF7A6FBB9E700F00D030D2B8B
:100EF000DBD003AF002300F00F021946009728460D
:100F0000FFF776FB0023009719460D222846FFF7CE
:100F100091FBA4E7B1285FD0B22800F0CC80B328C1
:100F20007ED000F0FC03B42BBFD000F007020132EA
:100F3000012342F4002219462846FFF747FD002806
:100F40008DD0B2E73046FFF757FF24020443B4F5D3
:100F5000004FAAD024010023A2B219462846FFF769
:100F600035FD0028A1D114F4004F18BF4FF001083F
:100F700075E7C24302F007034FF47F621A4101078D
:100F800002F47F624FF0000348BF42F480421946EA
:100F90002846FFF71BFD00283FF461AF85E7C62810
:100FA00051D0C7285AD000F0F803C02B69D0C82808
:100FB00075D0C9287FF479AF3046FFF71DFF0203D3
:100FC00000F00F0002F470220130024366E7B8F12E
:100FD000000F14D0002069E73046FFF70DFF00280E
:100FE0003FF463AF10F0F0037FF45FAF02461946A1
:100FF0002846FFF7EBFC00283FF431AF55E703AC80
:1010000043460E22414600942846FFF7F1FA009429
:10101000284643460F224146FFF70CFB404645E772
:101020003046FFF7E9FE010300F00F0001F47021E4
:10103000421C01230A4328461946FFF7C7FC002833
:101040003FF40DAF31E73046FFF7D6FE010300F065
:101050000F0001F47021421C0323EBE73046FFF739
:10106000CBFE024600283FF420AF10F0F0037FF4DF
:101070001CAF04212846FFF7A9FC00283FF4EFAE7F
:1010800013E700F00F020132032342F42022194635
:101090002846FFF79BFC00283FF4E1AE05E7304609
:1010A000FFF7AAFE00F0F00200F00F031032013348
:1010B00043EA0232F2E600230DF10C090D22194633
:1010C000CDF800902846FFF793FA3046FFF794FEDC
:1010D00002064FF002070CD5039B00F07F00B840DA
:1010E000034430460393FFF787FE030607F1070723
:1010F000F2D4039BCDF8009000F07F0403F5017259
:10110000BC400023144419460D2228460394FFF7DF
:1011100091FAA4E610B5C36C84B05A6803208DF828
:101120000C00DC798DF80D4012020833084601A945
:1011300001920293FFF78CFE04B010BD08B5FFF7D3
:1011400085FE806C08BD00BF08B5FFF77FFEC06C50
:10115000C37900EB8300083008BD00BF08B504F078
:10116000DDFD00BF08B5FFF7F9FF00BF70B586B021
:1011700006460121042000F0D7F901214FF4003088
:1011800000F0E0F905A800F02CF90425ADF81450A2
:1011900002238DF8163018238DF817301B4C05A943
:1011A000204600F0CFF80823ADF814308DF8175022
:1011B00005A9204600F0C6F80DEB050000F0ACFADA
:1011C00001960023ADF80830ADF80A30ADF80C30C8
:1011D000ADF810300C23ADF80E30A4F544440DEBFF
:1011E0000501204600F034FA012240F22551204644
:1011F00000F0AAFA012240F22771204600F0A4FA7A
:101200000121204600F093FA06B070BD00080140AD
:1012100082B00023019300932C4A136843F4803377
:1012200013602A4B1B6803F400330093019B0133C6
:101230000193009B1BB9019BB3F5A06FF1D1234B28
:101240001B6813F4003F06D001230093009B012B81
:1012500004D002B0704700230093F7E71B4B5A6895
:101260005A605A6822F460525A605A6842F4005236
:101270005A605A6822F4E0625A605A6842F4806206
:101280005A605A6822F0604222F47C125A605A680E
:1012900042F0204242F4E8125A601A6842F080722A
:1012A0001A600A4B1B6813F0007FFAD0074B5A688C
:1012B00022F003025A605A6842F002025A60034B5D
:1012C0005B6803F00C03082BF9D1C2E70010024061
:1012D00008B5FFF79DFF08BD10B5164CD4F888304F
:1012E00043F47003C4F88830134B1A6842F00102CB
:1012F0001A605968114A0A405A601A6822F08472CA
:1013000022F480321A601A6822F480221A605A6825
:1013100022F0684222F47F025A60196B084A0A40A0
:101320001A634FF41F029A60FFF7D2FF4FF0006379
:10133000A36010BD00ED00E0001002400C00FFE8CB
:1013400000FFFEFEF0B4CB7803F00F02154613F059
:10135000100F01D08D7815430B78E3B10668002398
:1013600001E042610133072B14D801229A400C8816
:1013700032EA0404F6D19C000F27A74026EA0706AC
:1013800005FA04F42643CC78282CEAD0482CE9D17D
:101390000261E7E706600B88FF2B20D9466800232F
:1013A00003E0426116E002610133072B16D803F116
:1013B00008040122A2400C8832EA0404F4D19C0003
:1013C0000F27A74026EA070605FA04F42643CC783F
:1013D000282CE6D0CC78482CE6D1E4E74660F0BC77
:1013E00070474FF6FF730380022383700423C3709A
:1013F0007047000010B4454B5B6803F00C03042BEE
:1014000044D0082B45D013B1414B036001E0404B61
:1014100003603E4A5368C3F30213526812F0800F10
:101420006ED03C4AD35CDBB2026822FA03F343601D
:1014300036494A68C2F30122496811F4806F61D0CD
:1014400034498A5CD2B223FA02F282602F494A6898
:10145000C2F3C122496811F4005F55D02D498A5C5E
:10146000D2B2D340C36029494A68C2F38132496885
:1014700011F0805F01D042F0040227498A5CD2B2A9
:10148000B3FBF2F303615DF8044B7047204B03603C
:10149000BFE71E4B5A68214C1440596801F4803153
:1014A000C4F3834343EA546312F0C04F08D102F4FB
:1014B0007012B2F5701F01D0022202E0012200E09A
:1014C0000122134469B9164A02FB03F303600F4B70
:1014D0005B68002B9DDB0268124B9A4299D903602E
:1014E00097E70A4A526812F4003F04D00C4A02FB04
:1014F00003F30360EBE7064A02FB03F30360E6E74E
:10150000002391E700229EE70022AAE70010024094
:1015100000127A000C0000200400002000003C6053
:1015200000093D0000A24A0429B9054A936923EA4B
:10153000000090617047024A9369184390617047B8
:101540000010024029B9054AD36923EA0000D0619E
:101550007047024AD3691843D061704700100240B7
:1015600003889BB21F4A904216D002F50062904257
:1015700012D0B0F1804F0FD002F5406290420BD0F4
:10158000A2F59E32904207D002F58062904203D0CD
:1015900002F58062904204D123F070034A6813433D
:1015A0009BB2114A904208D002F58062904204D06A
:1015B00023F440739BB28A89134303808B68C36210
:1015C0000B880385074B984207D003F500639842C8
:1015D00003D003F54063984201D18B7B038601233E
:1015E00083827047002C01400010004031B903880D
:1015F0009BB223F001039BB203807047038843F042
:1016000001030380704722B9838923EA01018181A4
:101610007047838919438181704731B903889BB230
:1016200023F080039BB203807047038843F080035C
:10163000038070474163704781637047C16370479F
:1016400001647047406A7047C94389B2018270479C
:1016500030B587B004460D46038A9BB2CA8823F48E
:10166000405313430382828992B28B8809890B43CA
:1016700069890B4322F4B05222F00C021343838198
:10168000838A9BB2AA8923F440731343838201A8FF
:10169000FFF7B0FE1E4B9C4224D0039BA28912F49C
:1016A000004F21D103EB830303EB830329688900F7
:1016B000B3FBF1F1174BA3FB012358090501642388
:1016C00000FB1313A28912F4004F16D11B01323311
:1016D000104AA2FB0323C3F343132B439BB2238182
:1016E00007B030BD049BD9E703EB830303EB83030F
:1016F00029684900B3FBF1F1DCE7DA003232054B2F
:10170000A3FB0232C2F3421242EA0503E6E700BF3E
:10171000003801401F85EB514FF41653036000233E
:101720008380C38003810C2242818381704731B959
:1017300083899BB223F400539BB2838170478389D2
:1017400043F400538381704710B4C1F3421401F095
:101750001F01012303FA01F19C420AD0022C0AD096
:10176000143052B9036823EA010101605DF8044BAB
:1017700070470C30F5E71030F3E703681943016058
:10178000F4E7C94389B201807047000040F0BF60B0
:1017900040F40030014BD860704700BF00ED00E01E
:1017A000C37853B9037803F01F015B1101228A400B
:1017B0002033134941F82320704710B4114BDA68E5
:1017C000D243C2F30222C2F104040F2323FA02F22D
:1017D0004178A140837813400B431B010278DBB2B0
:1017E00007490A4482F80033037803F01F005B11B5
:1017F0000122824041F823205DF8044B704700BF6E
:1018000000E100E000ED00E000F1080343604FF06C
:10181000FF328260C36003610023036070470023CE
:101820000361704743684B609A688A609A685160A8
:1018300099600861036801330360704730B40D6834
:10184000B5F1FF3F02D000F1080202E0026904E0B6
:101850001A4653681C68AC42FAD953684B609960C9
:101860008A605160086103680133036030BC7047CF
:1018700003694268816891608268416851605A6872
:10188000824205D000220261186801381860704752
:1018900082685A60F6E700000B4B1B68B3F1FF3F0C
:1018A00008D04FF0100383F31188BFF36F8FBFF39D
:1018B0004F8FFEE74FF0100383F31188BFF36F8F54
:1018C000BFF34F8FFEE700BF1400002006480068FA
:1018D000006880F3088862B661B6BFF34F8FBFF32C
:1018E0006F8F00DF00BF000008ED00E0DFF80C00A4
:1018F000016841F4700101607047000088ED00E06C
:101900004FF0807340F8043C21F0010140F8081CBE
:10191000054B40F80C3C40F8202C6FF0020340F8D7
:10192000243C4438704700BF991800084FF010035A
:1019300083F31188BFF36F8FBFF34F8F0A4A136889
:1019400001331360012B00D07047084B1B6813F064
:10195000FF0FF9D04FF0100383F31188BFF36F8F9F
:10196000BFF34F8FFEE700BF1400002004ED00E03E
:10197000094B1B6843B94FF0100383F31188BFF381
:101980006F8FBFF34F8FFEE7013B034A13600BB924
:1019900083F31188704700BF14000020034B044AF2
:1019A0001A60043B07221A60704700BF14E000E091
:1019B000FFED0200314B1A68314B9A420DD02F4B8C
:1019C0001A68304B9A4211D14FF0100383F31188FB
:1019D000BFF36F8FBFF34F8FFEE74FF0100383F31A
:1019E0001188BFF36F8FBFF34F8FFEE700B583B051
:1019F000254B1A78D2B20192FF221A701B78DBB203
:101A00008DF803309DF8033003F010031F4A137064
:101A10001F4B07221A609DF8033013F0800F0AD085
:101A20001B4A1368013B13609DF803305B00DBB277
:101A30008DF80330EFE7164A13681B0203F4E063E6
:101A40001360019BDBB2104A1370124B1A6842F408
:101A500070021A601A6842F070421A60FFF79EFF27
:101A60000D4B00221A60FFF741FF0C4A136843F048
:101A700040431360FFF72AFFFFF70EFF00ED00E081
:101A800071C20F4170C20F4100E400E09C000020D1
:101A90009800002020ED00E01400002034EF00E06A
:101AA000EFF305830F2B0FD9104A9B5CDBB2104A72
:101AB00012789A4208D94FF0100383F31188BFF3CC
:101AC0006F8FBFF34F8FFEE70A4B1B6803F4E06391
:101AD000094A1268934208D94FF0100383F3118822
:101AE000BFF36F8FBFF34F8FFEE77047F0E300E067
:101AF0009C0000200CED00E098000020124A12F03B
:101B0000070F1ED0D11D21F00701C1F5A0431344DA
:101B10000A460E480260002141601344083B23F04E
:101B200007030B48036059601960991A51601360EC
:101B3000084B1960084B1960084B4FF000421A60BF
:101B400070474FF4A043E4E7B0000020B0500020FD
:101B5000AC000020A8000020A4000020A00000206D
:101B600010B4134B1A6882421BD359685C18844224
:101B700003D1406801445960184641684418A242A4
:101B800013D10C4C2468A2420DD05268114441601C
:101B90001A6812680260984200D018605DF8044B21
:101BA00070471346DEE70460F5E70260F3E700BF25
:101BB000B0500020AC00002070B5044601F032F8AF
:101BC0003F4B1B68A3B13F4B1B681C4213D001F075
:101BD000C3F8002602F0B8FB16F0070F6ED04FF0E6
:101BE000100383F31188BFF36F8FBFF34F8FFEE7AE
:101BF000FFF784FFE7E794B1083414F0070F0ED025
:101C000024F00704083404F0070343B14FF0100335
:101C100083F31188BFF36F8FBFF34F8FFEE734B1AB
:101C2000294B1B68A34206D3284B1D6809E001F02D
:101C300093F80026CEE701F08FF80026CAE72B467E
:101C400015466A68A24202D22A68002AF7D11C4AC5
:101C50001268AA4214D01E6808362A681A606B6897
:101C60001B1B102B14D9281910F0070F0CD04FF0A4
:101C7000100383F31188BFF36F8FBFF34F8FFEE71D
:101C800001F06AF80026A5E743606C60FFF768FF83
:101C90006A680D490B689B1A0B600D4909688B42F5
:101CA00001D20B490B60074B1B6813436B60002389
:101CB0002B6001F051F8002E8ED18BE7304670BDBD
:101CC000AC000020A0000020A4000020B0500020A4
:101CD000A800002080B338B50446A0F1080550F8EC
:101CE000042C164909680A4208D14FF0100383F307
:101CF0001188BFF36F8FBFF34F8FFEE750F8080CCA
:101D000040B14FF0100383F31188BFF36F8FBFF31F
:101D10004F8FFEE722EA010244F8042C00F082FF14
:101D200054F8041C064A13680B4413602846FFF756
:101D300017FF01F011F838BD704700BFA000002068
:101D4000A400002010B50446FFF7F0FDA26BE36B82
:101D50009A4204D00024FFF70BFE204610BD012458
:101D6000F9E710B50446FFF7E1FDA36B23B10024AA
:101D7000FFF7FEFD204610BD0124F9E770B50446CB
:101D80001646856B026C5AB903681BB100200135F9
:101D9000A56370BD406801F0BBFA00236360F6E7FD
:101DA0006EB9806802F05AFE226CA3681344A360E7
:101DB0006268934219D32368A3600020E7E7C068F4
:101DC00002F04CFE226C5242E3681344E360216847
:101DD0008B4202D263681A44E260022E01D00020D6
:101DE000D5E725B1013D0020D1E70020CFE7002055
:101DF000CDE7026C72B110B5C3681344C360446888
:101E0000A34201D30368C3600C46C168204602F0B8
:101E100025FE10BD704738B50546FFF787FD95F8DC
:101E2000454064B203E001F049F9013C64B2002C82
:101E300008DD6B6A33B105F1240001F0A3F8002836
:101E4000F3D0F0E7FF2385F84530FFF791FDFFF76A
:101E50006DFD95F8444064B203E001F02FF9013CB8
:101E600064B2002C08DD2B6933B105F1100001F0DC
:101E700089F80028F3D0F0E7FF2385F84430FFF716
:101E800077FD38BD38B540B94FF0100383F31188A2
:101E9000BFF36F8FBFF34F8FFEE704460D46FFF78A
:101EA00045FD2168E26B236C03FB0210606000209B
:101EB000A063A160013A02FB0313E360FF2384F8EF
:101EC000443084F84530A5B923691BB9FFF750FDAC
:101ED000012038BD04F1100001F054F80028F5D0BD
:101EE000084B4FF080521A60BFF34F8FBFF36F8FD4
:101EF000ECE704F11000FFF787FC04F12400FFF782
:101F000083FCE3E704ED00E038B51D46049C0B4676
:101F100049B12260E063236401212046FFF7B2FF4C
:101F200084F84C5038BD2460F4E740B94FF01003FA
:101F300083F31188BFF36F8FBFF34F8FFEE7F0B5C8
:101F400083B0054611B101FB00F000E00020174608
:101F50000C465030FFF730FE064638B100903B4645
:101F600000F1500221462846FFF7CEFF304603B06D
:101F7000F0BD0000F0B585B0019260B1044699B99A
:101F8000026C8AB14FF0100383F31188BFF36F8F97
:101F9000BFF34F8FFEE74FF0100383F31188BFF3B9
:101FA0006F8FBFF34F8FFEE7022B0BD1E26B012A3D
:101FB00008D04FF0100383F31188BFF36F8FBFF386
:101FC0004F8FFEE71D460E4601F042F9074658B90D
:101FD000019B002B43D04FF0100383F31188BFF314
:101FE0006F8FBFF34F8FFEE7002738E02A46314658
:101FF0002046FFF7C3FE636A4BB9A8B13B4B4FF0D5
:1020000080521A60BFF34F8FBFF36F8F0CE004F163
:10201000240000F0B7FF38B1344B4FF080521A6003
:10202000BFF34F8FBFF36F8FFFF7A2FC012005B006
:10203000F0BDFFF79DFC0020F9E702A800F0E8FFE3
:10204000012719E0002384F8443021E0002384F8BC
:10205000453023E02046FFF7DEFE00F07DFEFFF76F
:1020600065FCA26BE36B9A42C0D3022DBED0019BEC
:10207000002BDED0002FE0D0FFF77AFC00F0D2FD7D
:10208000FFF754FC94F844305BB2B3F1FF3FD9D072
:1020900094F845305BB2B3F1FF3FD7D0FFF768FC4F
:1020A00001A902A800F0CAFFC8B92046FFF74AFEFE
:1020B0000028CFD0019904F1100000F02FFF204636
:1020C000FFF7A9FE00F048FE0028C8D1074B4FF0EB
:1020D00080521A60BFF34F8FBFF36F8FBFE7204668
:1020E000FFF799FE00F038FE0020A0E704ED00E0C5
:1020F00048B108B5002141600160C1600B460A4645
:10210000FFF738FF08BD704710B5024600210120D7
:10211000FFF70BFF0446FFF7EBFF204610BD2DE94C
:10212000F84360B1044699B9006C88B14FF01003D0
:1021300083F31188BFF36F8FBFF34F8FFEE74FF02C
:10214000100383F31188BFF36F8FBFF34F8FFEE748
:10215000022B0BD1E06B012808D04FF0100383F362
:102160001188BFF36F8FBFF34F8FFEE71F46904676
:102170008946FFF795FCEFF311864FF0100383F3C8
:102180001188BFF36F8FBFF34F8FA26BE36B9A423F
:1021900003D3022F01D000200FE094F845506DB218
:1021A0003A4649462046FFF7E9FDB5F1FF3F08D022
:1021B0006B1C5BB284F84530012086F31188BDE8C2
:1021C000F883636A5BB104F1240000F0DBFE40B1E8
:1021D000B8F1000F07D00120C8F80000EDE701209A
:1021E000EBE70120E9E70120E7E700002DE9F041F6
:1021F00084B0019260B1044699B9026C8AB14FF083
:10220000100383F31188BFF36F8FBFF34F8FFEE787
:102210004FF0100383F31188BFF36F8FBFF34F8F1D
:10222000FEE71F46884601F013F8064658B9019BA1
:10223000002B68D04FF0100383F31188BFF36F8F2A
:10224000BFF34F8FFEE700265DE0E668414620467B
:10225000FFF7CFFDDFB9013DA563236813B901F096
:102260007FF96060236963B104F1100000F08AFE19
:1022700038B1464B4FF080521A60BFF34F8FBFF317
:102280006F8FFFF775FB012004B0BDE8F081E660B9
:10229000636A002BF5D004F1240000F073FE0028DF
:1022A000EFD03A4B4FF080521A60BFF34F8FBFF31D
:1022B0006F8FE6E7FFF75CFB0020E5E702A800F080
:1022C000A7FE012629E0002384F8443031E00023F2
:1022D00084F8453033E0FFF729FB606800F0C8FF61
:1022E000FFF746FB3BE02046FFF795FD00F034FD8D
:1022F00009E02046FFF78FFD00F02EFD2046FFF796
:1023000030FD002840D1FFF711FBA56B002D9CD1BB
:10231000019B002BCED0002ED0D0FFF729FB00F080
:1023200081FCFFF703FB94F844305BB2B3F1FF3F4D
:10233000C9D094F845305BB2B3F1FF3FC7D0FFF787
:1023400017FB01A902A800F079FE0028D1D1204690
:10235000FFF707FD0028C6D02368002BBBD00199EA
:1023600004F1240000F0DAFD2046FFF754FD00F0F0
:10237000F3FC0028C7D1054B4FF080521A60BFF321
:102380004F8FBFF36F8FBEE700207DE704ED00E0C5
:102390000023072B0CD8074A52F833200AB1013327
:1023A000F7E7044A42F8331002EBC3035860704762
:1023B000704700BFB850002070B504460D46164661
:1023C000FFF7B4FA94F844305BB2B3F1FF3F0DD09D
:1023D00094F845305BB2B3F1FF3F0BD0FFF7C8FA7A
:1023E000A36B5BB12046FFF716FD70BD002384F898
:1023F0004430EDE7002384F84530EFE732462946C4
:1024000004F1240000F0A2FDECE70000074B1B687C
:102410001B68B3FA83F35B09036023B9034B1B68A2
:10242000DB68186870470020704700BF2851002003
:1024300008B5416000618A420CD3D21A83699A427E
:1024400001D3012010E0011D094B1868FFF7F6F9D0
:10245000002009E09A4201D28B4206D9011D054BAA
:102460001868FFF7EBF9002008BD0120FCE700BF6A
:102470002C5100202851002038B5FFF757FA0F4B98
:102480001B6813B1FFF774FA38BD0D4D2846FFF7EE
:10249000BBF90C4C2046FFF7B7F90B4B1D600B4BFB
:1024A0001C6000220C210A20FFF73FFD034B18603F
:1024B0000028E7D00649FFF76BFFE3E7F85000205C
:1024C0000051002014510020285100202C510020E0
:1024D000545E000800B583B0FFF7CEFF0D4B1B68BC
:1024E0005BB10D4B01930123009300234FF48272E3
:1024F0000A490B4800F0DFFA40B94FF0100383F3AC
:102500001188BFF36F8FBFF34F8FFEE703B05DF805
:1025100004FB00BFF8500020FC5000205C5E000867
:10252000ED270008C8B130B585B015460446174AF6
:10253000106840B31A4601910295039405291DDCE9
:1025400000F086FE022811D000231A4601A90F4888
:102550000068FFF70FFD05B030BD4FF0100383F3A7
:102560001188BFF36F8FBFF34F8FFEE70023089AE8
:1025700001A906480068FFF7FDFCECE7002301A96C
:10258000FFF7CDFDE7E70020E5E700BFF8500020AA
:1025900070B582B01A4B1B681A6852B3DB681E68AC
:1025A000DC68251D2846FFF763F9636A20469847D3
:1025B000E369012BEED1A3693344B34207D96360C9
:1025C000246129460E4B1868FFF738F9E2E700212D
:1025D00000910B4632462046FFF7A4FF0028D9D1D0
:1025E0004FF0100383F31188BFF36F8FBFF34F8F4A
:1025F000FEE7044A106802490860136002B070BD2B
:10260000285100202C51002038B5054600F012FB5F
:102610000446074B1B68834205D800232B60044BFC
:102620001C60204638BDFFF7B3FF01232B60F6E79F
:102630003051002070B582B005460E46144B1B6821
:10264000DB68DC68201DFFF713F9E369012B04D078
:10265000636A2046984702B070BDA1692B46324696
:1026600029442046FFF7E4FE0028F1D00021009124
:102670000B462A462046FFF755FF0028E8D14FF0C9
:10268000100383F31188BFF36F8FBFF34F8FFEE703
:102690002851002070B582B006460C4600F0C2FA00
:1026A00001A8FFF7B1FF019B1BBB05460CB9B04267
:1026B00018D22CB1114B1B681C68B4FA84F464095D
:1026C0002246711B0E4B1868FFF776FE00F044FBA4
:1026D00088B90C4B4FF080521A60BFF34F8FBFF395
:1026E0006F8F08E000F038FB29463046FFF7A2FF65
:1026F00001E000F031FB02B070BD00BF2C510020A2
:10270000F850002004ED00E030B587B000231A46F1
:1027100003A935480068FFF769FD002861D0039BD5
:10272000002BF3DB059C636913B1201DFFF7A0F8B4
:1027300002A8FFF769FF039B092BE7D801A252F813
:1027400023F000BF6D2700086D2700086D270008E3
:102750000D270008B5270008DB2700086D270008B3
:102760006D2700080D270008B52700080499A56902
:102770000B46024629442046FFF75AFE0028C5D0E2
:10278000636A20469847E369012BBFD1A269002103
:1027900000910B46049802442046FFF7C3FE002830
:1027A000B4D14FF0100383F31188BFF36F8FBFF3E1
:1027B0004F8FFEE70499A16131B1034602460144FF
:1027C0002046FFF735FEA1E74FF0100383F3118891
:1027D000BFF36F8FBFF34F8FFEE72046FFF77AFA04
:1027E00094E707B030BD00BFF850002000B583B0BB
:1027F00001A8FFF70BFE0199FFF74CFFFFF784FFDD
:10280000F6E700230278A52A02D101300133F9E767
:10281000C3F38F0070470000084B1B681B683BB177
:10282000064B1B68DB68DB685A68054B1A6070470B
:10283000034B4FF0FF321A60704700BF4C5100202D
:102840007452002010B50446006BFFF743FA20468F
:10285000FFF740FA10BD2DE9F04781460D461746B7
:102860009A46089EDDF824800A9C9200A521206BE0
:1028700002F0FFF8236B07F18042013A03EB820775
:1028800027F007070023132B07D8E95CE21882F82A
:102890003410EA5C0AB10133F5E7002384F84730CD
:1028A000092E00D90926E662266500256565201DEA
:1028B000FEF7B5FF04F11800FEF7B1FF2461C6F181
:1028C0000A06A6616462A565E56584F86050524613
:1028D00049463846FFF714F82060B8F1000F01D0E0
:1028E000C8F80040BDE8F08738B50024092C08D8A6
:1028F00004EB840293000E481844FEF785FF013470
:10290000F4E70C4D2846FEF77FFF0B4C2046FEF700
:102910007BFF0A48FEF778FF0948FEF775FF094874
:10292000FEF772FF084B1D60084B1C6038BD00BFEE
:1029300050510020185200202C52002040520020FC
:102940007C5200205C5200204C510020905200200C
:1029500010B50446FEF7EAFF214A136801331360FD
:10296000204B1B685BB1204B1B686BB91D4B1B6870
:10297000DA6AE36A9A4207D81A4B1C6004E0194BE2
:102980001C601368012B27D0184A136801331360A9
:10299000A36417480268E36A012199400A43026070
:1029A00003EB83039A00211D12481044FEF73AFFFF
:1029B000FEF7DEFF0C4B1B686BB10A4B1B68DA6A33
:1029C000E36A9A4207D20C4B4FF080521A60BFF371
:1029D0004F8FBFF36F8F10BDFFF786FFD4E700BFA7
:1029E0007852002098520020545200203851002084
:1029F000585200205051002004ED00E070B504460C
:102A00000E461D4B1D681D4B18680430FEF730FF45
:102A100050B91A4B1B68DA6A012303FA02F218490B
:102A20000B6823EA02030B60B4F1FF3F13D02C4480
:102A3000124B1B685C60AC4216D3124B18680F4BEC
:102A400019680431FEF7FAFE0F4B1B689C4212D244
:102A50000D4B1C600FE0002EE9D0084B19680431C3
:102A60000A48FEF7DFFE06E0094B1868034B1968B9
:102A70000431FEF7E3FE70BD34510020985200206F
:102A8000585200204C510020745200205C5200200B
:102A90009052002010B5044602F050F92046FDF790
:102AA00081FB122803D8202323540130F9E70023A7
:102AB0002354204410BD2DE9F04385B007468846D5
:102AC000154699469000FFF777F8F8B1064664205E
:102AD000FFF772F80446A8B10663D4B1002303934C
:102AE00002940D9B01930C9B00934B462A46414652
:102AF0003846FFF7B0FE2046FFF72AFF012005B059
:102B0000BDE8F0833046FFF7E5F8E6E74FF0FF3029
:102B1000F5E74FF0FF30F2E738B5D0B10546194B75
:102B20001B68834224D0FEF701FF6C69FEF720FF8B
:102B3000154B1B68A3421DD0144B1B68A3421BD02E
:102B4000134B9C420ED0134B9C4219D074B1012000
:102B50000FE04FF0100383F31188BFF36F8FBFF3C3
:102B60004F8FFEE7AB6A4BB9032002E0042000E080
:102B7000002038BD0220FCE70220FAE70220F8E737
:102B80000420F6E7985200204C510020905200207B
:102B90005C5200207C52002000B583B01A4B019398
:102BA00000230093822219491948FFF784FF012866
:102BB00007D0012808D0B0F1FF3F1CD003B05DF86A
:102BC00004FBFFF787FCF4E74FF0100383F3118851
:102BD000BFF36F8FBFF34F8F0E4B4FF0FF321A6072
:102BE0000D4B01221A6000230C4A13600C4A13603B
:102BF000FEF7E0FEE2E74FF0100383F31188BFF326
:102C00006F8FBFF34F8FFEE7445100208C5E0008AA
:102C1000F52E000874520020545200203451002038
:102C2000F4620020024A136801331360704700BF4A
:102C300070520020014B1868704700BF34510020CB
:102C4000F8B53A4B1B68002B64D1394B1D68013530
:102C50001D60C5B9374B1B681B6843B14FF01003AB
:102C600083F31188BFF36F8FBFF34F8FFEE7314AB5
:102C70001168314B186810601960304A13680133CD
:102C80001360FFF7C9FD2E4B1B68AB4238D90024F7
:102C90002C4B1B68DB6A03EB83039A002A4B9B587F
:102CA000012B3CD901243AE00124224B1B681B680C
:102CB00043B3204B1B68DB68DE6873689D4226D3F4
:102CC000371D3846FEF7D4FDB36A1BB106F1180074
:102CD000FEF7CEFD1D480268F36A012199400A43C0
:102CE000026003EB83039A00394617481044FEF74D
:102CF00099FDF26A134B1B68DB6A9A42D4D2D4E77F
:102D00000024D2E70E4B4FF0FF321A60C0E70C4AA6
:102D10001360BDE70E4A13680133136000240D4BA6
:102D20001B6803B101242046F8BD00BF705200208B
:102D3000345100204C510020905200204851002076
:102D40007452002098520020505100205852002008
:102D50003C5100204051002038B5334B1B6843B92B
:102D60004FF0100383F31188BFF36F8FBFF34F8FC2
:102D7000FEE7FEF7DBFD2C4B1A68013A1A601B6870
:102D8000002B4DD1294B1B6823B90024FEF7F0FD21
:102D9000204638BD0024264B1B681BB3244BDB6840
:102DA000DC6804F11800FEF763FD251D2846FEF7D8
:102DB0005FFD20480268E36A012199400A430260EE
:102DC00003EB83039A0029461B481044FEF72AFDB3
:102DD000E26A1A4B1B68DB6A9A42DCD3184B012269
:102DE0001A60D8E70CB1FFF717FD164B1C6854B1F9
:102DF000FFF726FF10B1124B01221A60013CF7D1F8
:102E0000104B00221A600E4B1B685BB10E4B4FF04B
:102E100080521A60BFF34F8FBFF36F8F0124B5E765
:102E20000024B3E70024B1E770520020785200205C
:102E3000405200205852002050510020985200204B
:102E4000405100203C51002004ED00E010B5A8B135
:102E500004460F4B1B6843B14FF0100383F31188F6
:102E6000BFF36F8FBFF34F8FFEE7FFF7DBFE00214D
:102E70002046FFF7C3FDFFF76FFF38B9054B4FF052
:102E800080521A60BFF34F8FBFF36F8F10BD00BF2A
:102E90007052002004ED00E0134B1B681BB310B50B
:102EA00002E0114B1B68EBB1FFF7BCFE0F4B1C6837
:102EB000FFF752FF002CF4D0FEF738FD0B4BDB6818
:102EC000DC68201DFEF7D4FC094A1368013B13603F
:102ED000054A1368013B1360FEF74AFD2046FFF7E1
:102EE000B1FCDEE710BD7047945200207C520020F8
:102EF0007852002008B5FFF7CFFF064B1B68012B67
:102F0000F9D9054B4FF080521A60BFF34F8FBFF3D2
:102F10006F8FF0E75051002004ED00E040B94FF012
:102F2000100383F31188BFF36F8FBFF34F8FFEE75A
:102F300010B50C46044B19681831FEF77FFC0121CF
:102F40002046FFF75BFD10BD9852002038B540B910
:102F50004FF0100383F31188BFF36F8FBFF34F8FD0
:102F6000FEE70C461546064A11681831FEF75AFC72
:102F70000DB14FF0FF3429462046FFF73FFD38BD25
:102F80009852002038B5C368DC6844B94FF010038C
:102F900083F31188BFF36F8FBFF34F8FFEE704F108
:102FA00018052846FEF764FC134B1B68E3B9251D82
:102FB0002846FEF75DFC11480268E36A012199404A
:102FC0000A43026003EB83039A0029460C4810442D
:102FD000FEF728FCE26A0B4B1B68DB6A9A4208D9B1
:102FE0000120094B186038BD29460848FEF71AFC35
:102FF000F0E70020F7E700BF705200205852002091
:103000005051002098520020405100204052002092
:1030100030B1084A12680260074A1268426070477D
:103020004FF0100383F31188BFF36F8FBFF34F8FFF
:10303000FEE700BF485100203451002038B550B1A0
:10304000044689B94FF0100383F31188BFF36F8FE3
:10305000BFF34F8FFEE74FF0100383F31188BFF3E8
:103060006F8FBFF34F8FFEE70D46FEF75FFC114BEE
:1030700019682B68B3F1FF3F18D020680E4A126818
:10308000904202D062688A4212D96268881A8342EA
:1030900004D80124FEF76CFC204638BD521A1344B4
:1030A0002B602046FFF7B4FF0024F3E70024F1E78C
:1030B0000124EFE73451002048510020014B012248
:1030C0001A607047405100202DE9F0410C46174628
:1030D0001E468046C8B10546256005F1340363608D
:1030E000EB6A23612B6BE361AB6CA360237B032B47
:1030F0000ED02B6D6361AB6DA361052E11D02673CD
:10310000A7B900232384BDE8F0810B4B1D68E3E7DA
:10311000FFF788FDAB6A0BB102232373FFF71CFE98
:10312000E7E74046FFF7F8FC2073E9E7286BFFF775
:1031300068FB2084E7E700BF985200202DE9F047A4
:103140000C683CB34B685B684B6001F108094B4568
:1031500007D090460D4607464B68D3F80CA00024D4
:1031600010E05B684B60F4E76B68DE6804EBC40357
:1031700099004346012239443046FFF7A5FF013448
:10318000B24507D06B685B686B609945ECD15B68B2
:103190006B60E9E72046BDE8F0870000F8B5074618
:1031A0000C461646FFF73EFD224B1B68A3423CD857
:1031B0000A250024013D04EBC403980005EB8502B9
:1031C000930001221C4919443844FFF7B7FF044417
:1031D000002DEFD104EBC4039800184B19680222AC
:1031E0003844FFF7ABFF044404EBC4039800144BCE
:1031F000196802223844FFF7A1FF044404EBC4031A
:10320000980004220F493844FFF798FF044404EB68
:10321000C403980003220C493844FFF78FFF04448D
:1032200026B10A4B1B68336000E00024FFF794FDD1
:103230002046F8BD78520020505100204C5100200B
:10324000905200207C5200205C520020F46200204A
:10325000054B1B6833B1054B1B680BB10020704751
:103260000220704701207047545200207052002005
:10327000002846D038B50446C26A22490968C96A9E
:103280008A4214D28169002905DB1E490968C96A8E
:10329000C1F10A018161606902EB820291001A4A60
:1032A0000A44904204D0174A1268D26AE26238BDDA
:1032B000251D2846FEF7DCFA90B1124B1B68DB6A2D
:1032C000E36212480268012199400A43026003EB5D
:1032D00083039A0029460C481044FEF7A3FAE6E758
:1032E000E36A03EB83018A0007498A58002AE4D184
:1032F00006480268012101FA03F322EA030303608E
:10330000DBE77047985200205051002058520020AF
:10331000002848D038B50446264A1268824208D0B0
:103320004FF0100383F31188BFF36F8FBFF34F8FFC
:10333000FEE7426D42B94FF0100383F31188BFF3EB
:103340006F8FBFF34F8FFEE7013A4265C06A216D70
:1033500088422AD05ABB251D2846FEF789FA68B94B
:10336000E06A142303FB00F3134AD35833B913491B
:103370000B680122824023EA02030B60236DE362A3
:10338000C3F10A02A2610D490A68012404FA03F09C
:1033900002430A602946084A142000FB0320FEF776
:1033A00041FA204638BD002070470020FAE700208F
:1033B000F8E700BF985200205051002058520020DA
:1033C000F0B585B0054600230370324B1A680392AE
:1033D0001B6803EBC3039800FEF7EEFB002856D0F2
:1033E000044603990022FFF7D9FE039000230293BD
:1033F00031E0522606E0532604E0442602E000268F
:1034000000E04226029B03EBC3039A00224451686A
:103410002846FFF73FFB0546029B03EBC3039A00D8
:1034200022441369029A02EBC202910021440F8CDC
:10343000029A02EBC202910021448A68019200972D
:103440003246154901F05AFC2846FCF7ABFE05440C
:10345000029B01330293029A039B9A4214D2029B6D
:1034600003EBC3039A002244137B013B032BC6D812
:1034700001A252F823F000BFF33300080334000820
:10348000F7330008FB3300082046FEF723FC05B0A5
:10349000F0BD00BF785200207C5E000870B584B09B
:1034A0000446002303702A4B1A6803921B6803EB3F
:1034B000C3039800FEF780FB002847D00546039918
:1034C00001AAFFF76BFE0390019B224AA2FB032394
:1034D0005B090193002B36D0002302930FE0029B7F
:1034E00003EBC3039A002A4492691B4901F006FCCE
:1034F0002046FCF757FE0444029B01330293029AD4
:10350000039B9A421FD2029B03EBC3039A002A44F7
:103510009669019BB6FBF3F6029B03EBC3039A008B
:103520002A4451682046FFF7B5FA0446002ED6D04B
:10353000029B03EBC3039A002A443346926907496E
:1035400001F0DCFBD4E72846FEF7C4FB04B070BDF5
:10355000785200201F85EB51705E0008645E000801
:10356000054B1B6823B1044B1A68536D0133536537
:10357000014B1868704700BF98520020044B9B68AD
:1035800013F0010F01D1002070470120704700BFE8
:10359000000801400B4A00239372D3726BB90A4AA8
:1035A00002EB031264211181022111710021917239
:1035B000D17211730133DBB2F0E7034B034A1A6097
:1035C000704700BFAC5200209C5200207D3500089F
:1035D00000B583B001210420FDF7A6FF02238DF87A
:1035E000063028238DF8073002A9012321F8043D75
:1035F0000248FDF7A7FE03B05DF804FB0008014098
:1036000008B5FFF7C7FFFFF7E3FF08BD032809D0A0
:1036100004280CD0022800D07047074B4FF400520A
:103620001A617047044B4FF480421A617047024B95
:103630004FF400421A61EFE70010014030B583B04B
:1036400001211020FDF770FF01211020FDF76CFF14
:1036500001211020FDF768FF0220FFF7D7FF0320AC
:10366000FFF7D4FF0420FFF7D1FF02238DF80630C7
:1036700010238DF8073002AC4FF4005324F8043DBA
:103680000B4D21462846FDF75DFE4FF48043ADF813
:10369000043021462846FDF755FE4FF40043ADF8AF
:1036A000043021462846FDF74DFE03B030BD00BF73
:1036B0000010014003280AD004280ED0022800D0B0
:1036C0007047094AD36883F40053D3607047064AB1
:1036D000D36883F48043D3607047034AD36883F48C
:1036E0000043D360ECE700BF001001402C4B984230
:1036F00034D003F50063984233D003F5C0539842A9
:1037000032D003F58063984231D003F5806398424C
:1037100030D0B0F1804F30D0A3F5A83398422ED0EE
:1037200003F5806398422CD003F5806398422AD039
:1037300003F58063984228D003F58063984226D031
:1037400003F58063984224D003F58063984222D029
:1037500003F58063984220D0002070474FF400604A
:1037600070474FF4005070474FF4002070474FF4FB
:10377000801070474FF400107047012070470220FE
:1037800070470420704708207047102070472020A1
:10379000704740207047802070474FF4807070471A
:1037A000002C0140F0B587B004460F4616461D4672
:1037B000694B984209D003F50063984205D0FFF7A2
:1037C00095FF0121FDF7BEFE05E02046FFF78EFFC5
:1037D0000121FDF7A9FE002F4AD0604B1B685A0853
:1037E000632F00F285805E4AA2FB03239B0BB3FB91
:1037F000F7F39BB2013B9BB242F20F720493ADF818
:1038000008200023ADF8143003938DF8163002A978
:103810002046FDF7A5FE01212046FDF7FEFE012210
:1038200011462046FDF7EFFE01212046FDF7DEFEA2
:10383000494B9C4272D0B4F1804F7ED0A3F59433B3
:103840009C427CD003F580639C427AD003F5806370
:103850009C4278D003F580639C4276D003F5806368
:103860009C4274D003F590339C4272D0002356E002
:1038700000212046FDF7BAFE374B9C421CD0B4F124
:10388000804F27D0A3F594339C4225D003F5806365
:103890009C4223D003F580639C4221D003F58063D2
:1038A0009C421FD003F580639C421DD003F59033EA
:1038B0009C421BD0002300E019238DF804308DF8C2
:1038C00005608DF8065000238DF8073001A8FDF73C
:1038D00067FF30E01C23F0E71D23EEE71E23ECE733
:1038E0003223EAE73623E8E73723E6E72C23E4E749
:1038F00040F6B7318F420AD81A4AA2FB03239B092C
:10390000B3FBF7F39BB2013B9BB2632276E7B2FBBA
:10391000F7F39BB2013B9BB200226FE719238DF8AE
:1039200004308DF805608DF8065001238DF80730BE
:1039300001A8FDF735FF07B0F0BD1C23EFE71D23FD
:10394000EDE71E23EBE73223E9E73623E7E73723EA
:10395000E5E72C23E3E700BF002C01400000002036
:103960005917B7D11F85EB5130B587B0012102201F
:10397000FDF7E8FD164B1B68164AA2FB0323DB0C80
:103980004FF47A720492013BADF808300024ADF890
:1039900014400394104D02A92846FDF7E1FD0121D2
:1039A0002846FDF73AFE01212846FDF71FFE1D239C
:1039B0008DF8043004238DF805308DF8064001237E
:1039C0008DF8073001A8FDF7EBFE07B030BD00BF52
:1039D0000000002083DE1B430004004070B5054654
:1039E0000C461646042900D94C1F2648FDF72AFE2E
:1039F0002118012D06D0022D14D0032D22D0042D24
:103A000030D070BD204B1E601E4C2046FDF712FECC
:103A100002212046FDF718FE012202212046FDF773
:103A2000F2FDEEE7194B1E60164C2046FDF704FE32
:103A300004212046FDF708FE012204212046FDF75F
:103A4000E2FDDEE7124B1E600E4C2046FDF7F6FD50
:103A500008212046FDF7F8FD012208212046FDF748
:103A6000D2FDCEE70B4B1E60064C2046FDF7E8FD6D
:103A700010212046FDF7E8FD012210212046FDF728
:103A8000C2FDBEE700040040BC520020C05200202E
:103A9000C4520020C85200200A4B0B4A1A600B4A3D
:103AA0005A600B4A9A604FF400629A81DA810022D0
:103AB0001A825A82DA821A835A839A82DA611A62E5
:103AC0005A627047CC62002000440040CC5A00206B
:103AD000CC52002008B54FF4E130FDF747FB402100
:103AE0000148FDF74EFE08BD0044004000B583B01C
:103AF00026238DF8043001238DF8053000228DF83F
:103B000006208DF8073001A8FDF74AFE03B05DF8E6
:103B100004FB70B504460E46FDF708FF658BADB299
:103B2000FDF726FF0DB9002070BDA268238B9BB264
:103B3000D35C3370FDF7FAFE238B01339BB22383F2
:103B4000E289934201D300232383638B013B9BB221
:103B50006383FDF70DFF0120E6E708B5FFF79CFF43
:103B6000FFF7B8FFFFF7C2FF08BD000008B9024821
:103B700070470020704700BFCC62002010B50C4693
:103B8000FFF7F4FF18B12146FFF7C3FF10BD002077
:103B9000FCE708B5FFF7EAFF18B10022C2820283F2
:103BA000428308BD08B54FF44070FDF7EFFDFFF705
:103BB000D4FFFFF743FDFFF723FDFFF7D5FE08BD58
:103BC00008B50023012244F620610248FFF7EAFD10
:103BD00008BD00BF0010004043680B7043681B0A1B
:103BE0004B70C3888B70C379CB7083680B7183680B
:103BF0001B0A4B7143898B71C37ACB7108207047C4
:103C00000B7843604A7843EA022343608A7843EAA8
:103C100002434360CA7843EA026343600B798360DE
:103C20004A7943EA022383608A7943EA0243836044
:103C3000CA7943EA026383600820704700487047EE
:103C4000B8630008004870479463000870B40B78AC
:103C500083804A7843EA02238380D1F80250062306
:103C6000AA1D9A4204D95A1ECC5C8C540133F7E742
:103C7000053500234B554B1D83608E58141D23467C
:103C800032199A4204D95A1ECD5C8D540133F7E79C
:103C9000531E0025CD54013C0C44C4608E580432A0
:103CA0001346B4189C4204D95C1ECD5C0D550133FB
:103CB000F7E7631E0025CD54013A0A4402610B5D0B
:103CC000621C8A5C43EA0223A21C8A5C43EA024328
:103CD000E21C8A5C43EA02634361201D70BC7047AA
:103CE000004870472063000800487047FC620008E5
:103CF00030B40B780371D1F8015005236A1D9A4244
:103D000004D95A1ECC5C8C540133F7E704350023E8
:103D10004B5504318160104630BC704700487047F5
:103D2000E862000800487047C46200080048704715
:103D30003C63000800487047A0620008012800D0DA
:103D400070474FF6FF739942FAD1204A204B136017
:103D5000002382F854341F49C2F86814042B07D892
:103D600003F58371194A002042F821000133F5E779
:103D70000023042B08D803F58571144A02EB810255
:103D8000002151600133F4E70023B3F5007F05D231
:103D90000E4A1A44002111760133F6E70023B3F5E9
:103DA000007F06D2094A1A44002182F81812013312
:103DB000F5E7064B002283F86C24C3F8742483F8DB
:103DC0007824C3F880245A61BAE700BF0863002052
:103DD0002060000808600008632903DD90F854346F
:103DE000002B4BD030B585B00D46044613681B68D8
:103DF00000F21F2110469847FF2384F81832FE2353
:103E000084F81932C3B284F81A32C0F3072284F856
:103E10001B221344DBB2DB4384F81C3284F81D52AE
:103E200045F3072184F81E1205230022C11D994283
:103E300005DDE11891F818120A440133F6E7534200
:103E4000D2B2DBB258BF5A420830D243214481F883
:103E50001822B0F5007F01DC05B030BD084B01939E
:103E600003238DF80830074B039323681B6801AACE
:103E70000721204698474FF0FF30EDE700207047BC
:103E8000F05F00085863000890F854047047000081
:103E900000B583B0164B01930223009300234FF427
:103EA000007214491448FEF706FE012800D0FEE710
:103EB000124B01930323009300234FF40072104927
:103EC0001048FEF7F8FD012800D0FEE70E4B0193E5
:103ED0000423009300234FF400720C490C48FEF7B2
:103EE000EAFD012800D0FEE703B05DF804FB00BF47
:103EF000F8620020546000082D4300080063002091
:103F00006060000839420008046300207060000807
:103F10002142000808B50420FFF7CCFB014800F05F
:103F2000CDFE08BD9460000808B50320FFF7C2FB72
:103F3000014800F0C3FE08BD8460000808B50120F8
:103F4000FEF7E2F8034B186000B108BD024800F02C
:103F5000B5FEFAE7FC620020306000082DE9F04170
:103F600006460C4683880B7083881B0A4B7080685A
:103F7000FCF718F90746C4F802000246B168A01D14
:103F800000F06CFD07F10608F068FCF70BF9054638
:103F900044F808000A370246F168E01900F05EFDB7
:103FA0002F443069FCF7FEF80546E051043702461D
:103FB0003169E01900F052FDE81973692354190AB8
:103FC000421CA154190C821CA1541B0EC21CA354E8
:103FD0000430BDE8F08170B506460D4603790B70DC
:103FE0008068FCF7DFF80446C5F801000246B168B6
:103FF000681D00F033FD601D70BD2DE9F0410546E0
:104000000C4603790B7000224A708A70CA70042330
:104010002979914210D9E96851F82210E1540E0A29
:10402000581C26540E0C981C2654090ED81C2154DA
:1040300004330132D2B2EBE7591C2A7CE254981CBB
:1040400000226254D91C225404336254297C9142C8
:1040500010D9A96951F82210E1540E0A581C2654AF
:104060000E0C981C2654090ED81C2154043301321E
:10407000D2B2EBE75A1C297FE154991C4FF000089B
:1040800004F80280DA1C04F801801E1D04F8028086
:104090002B7F434514D96B6A53F82800FCF782F84C
:1040A0000746A05104366B6A024653F82810A0193F
:1040B00000F0D4FC3E4408F101085FFA88F8E7E715
:1040C0003046BDE8F081F8B506460D460C78037918
:1040D000A3421AD3347100220424337993421AD9AB
:1040E0002B5D611C695C43EA0123A11C695C43EA06
:1040F0000143E11C695C43EA0163B3600434F16885
:1041000041F822300132D2B2E7E7A100C06800F0E6
:10411000DDFDF060DEE72F5D337CBB421AD3043453
:1041200037740022337C93421AD92B5D611C695C81
:1041300043EA0123A11C695C43EA0143E11C695C79
:1041400043EA016373610434B16941F822300132FA
:10415000D2B2E7E7B900B06900F0B8FDB061DEE7C0
:104160002F5D337FBB4204D3201D37774FF0000C07
:1041700012E0B900706A00F0A9FD7062F4E7431E16
:104180000022EA54013C2C443462736A43F82C4008
:104190000CF1010C5FFA8CFC337F63450AD92F5870
:1041A000041D234638199842E9D95A1EE95CA954DE
:1041B0000133F7E7F8BD08B5012383F31088FFF753
:1041C000F1FCFFF7FDFCFFF763FEFFF7B7FEFEF71C
:1041D000E3FCFEE70FB410B5B4B036AB53F8042BD4
:1041E0000093C92101A800F0DDFD0B4C00234FF026
:1041F000FF3219462068FDF7F9FF01A9074800F0D2
:10420000E9FC00231A4619462068FDF7B3FE34B0D6
:10421000BDE8104004B07047FC6200202C6000082C
:1042200008B54FF47A70FEF711FE0248FFF7D2FF8F
:10423000F7E700BF1862000810B5FEB0FF238DF845
:10424000F7312E48FFF7C6FF2D48FFF7C3FF2D4873
:10425000FFF7C0FF26E02C48FFF7BCFF2B48FFF715
:10426000B9FF6846FFF7ACF8294C69462046FFF7CE
:10427000B1FF2848FFF7AEFF2748FFF7ABFF2748FD
:10428000FFF7A8FF6846FFF709F969462046FFF7E0
:10429000A1FF9DF8F731313BDBB2022B1ED9642020
:1042A000FEF7D4FD0DF2F7110020FFF767FC9DF833
:1042B000F731322B04D0332B09D0312BE9D1CAE7A7
:1042C000174A4CF250310120FFF788FBE1E7154A0D
:1042D0004CF250310220FFF781FBDAE71248FFF77A
:1042E00079FF0748FFF776FF0648FFF773FF0020C6
:1042F000FFF74FFCFF238DF8F731D0E7A4600008EB
:10430000CC600008EC6000080C6100084461000803
:104310007C610008885E000884610008BC610008B8
:10432000293F0008153F0008F461000808B5022085
:10433000FFF7C0F94FF47A70FEF788FD0148FFF7E8
:1043400049FFF4E730620008FEE70000F0B587B0EF
:1043500004462E4B0093002500E00135042D24DC9B
:1043600005F5837354F82330002BF6D09A68ADF826
:1043700004201A680292586803689B689847039063
:1043800005F5837654F8263058680368DB6898474B
:1043900004904FF40073059354F8261023681B68AB
:1043A0006A46096920469847D7E7002500E00135AD
:1043B000042D26DC05F5857304EB8303586800287B
:1043C000F5D04368ADF804308368029303689B68B6
:1043D0009847039005F5857604EB860670680368B8
:1043E000DB68984704904FF40073059323681F68B7
:1043F000706803685B6898476A4601462046B8477C
:10440000D5E7012384F8543407B0F0BDD85F000825
:104410002DE9F04385B00446FEF70CFC0546D4F8C0
:104420005C34C31A42F6F822934202D9002384F87E
:104430005434D4F840341BB3D4F86034AB421FD2A8
:104440000023C4F840341BE0FEF7F4FB401B636913
:10445000984218D96FF0010005B0BDE8F083D4F898
:104460004C345A1CC4F84C24234400221A76D4F845
:104470004434013BC4F8443413B90823C4F840342D
:104480006369002BE0D1D4F85024D4F84034072BD2
:10449000E5D063B9FEF7CEFB401B41F2883398426A
:1044A000EED9002384F854346FF00100D4E7012BD7
:1044B00034D0022B48D0032B51D0042B53D0052BE2
:1044C00060D0062B67D0082BDAD10023C4F8403423
:1044D0009B1AD2B2DBB258BF5A42FF2AD0D1D4F8CD
:1044E0004834002B63D00A2B79D0062B00F0BC8017
:1044F0000B2B00F04E81A3F16402A63304EB83037F
:1045000059680029BCD002F5857304EB83030A685F
:10451000126804F1180158689047B1E70023C4F805
:10452000403494F85434002BAAD19C4B01930023BF
:104530000293039323681B6801AA0A212046984727
:10454000FEF778FBA0609BE70022C4F84424C4F87F
:104550004C240133C4F84034C4F8502490E70133AC
:10456000C4F840348CE75142D2B2C9B258BF4A4273
:10457000FF2A03D00023C4F8403481E70133C4F894
:1045800040347DE70022C4F848240133C4F84034A5
:10459000C4F8502474E70723C4F84034D4F84434F2
:1045A000002B7FF46DAF0823C4F8403468E77B4BE1
:1045B000019300230293039323681B6801AA0A2135
:1045C00020469847FEF736FBA0602046FFF7BEFE68
:1045D000C4F85854C4F85C544FF0FF303CE704F181
:1045E0001806FEF727FBA368C01A227E33467178AF
:1045F00042EA0122B17842EA0142F17842EA0161DD
:104600003279767942EA06229E7942EA0642DB79DD
:1046100042EA0362624EA6FB00739B0919440291B1
:104620004FF47A7808FB13035E4F07FB03230393D1
:10463000FEF700FBA6FB00239B09029AD21A013A5F
:10464000E26008FB1303039A07FB1323564A1A443C
:10465000214641F8102F04F10C0000F0AFF8FEF7EE
:10466000E9FAC4F85C040BE704F58D6804F1180757
:10467000267E98F804309E421ED888F804600022F6
:10468000042698F8043093421ED9BB5D711C795CF6
:1046900043EA0123B11C795C43EA0143F11C795CD4
:1046A00043EA0163C8F808300436D8F80C1041F822
:1046B00022300132D2B2E4E7B100D8F80C0000F0A9
:1046C00005FBC8F80C00D8E717F8069098F81030EA
:1046D00099451ED8043688F81090002298F81030BA
:1046E00093421FD9BB5D711C795C43EA0123B11C65
:1046F000795C43EA0143F11C795C43EA0163C8F841
:1047000014300436D8F8181041F822300132D2B2F1
:10471000E4E74FEA8901D8F8180000F0D7FAC8F8A2
:104720001800D7E717F8069098F81C30994505D877
:10473000321D88F81C904FF0000C17E04FEA8901F9
:10474000D8F8240000F0C2FAC8F82400F0E7531E9D
:104750000021F954731E3B44C8F82030D8F82410C7
:1047600041F82C300CF1010C5FFA8CFC98F81C30ED
:1047700063450AD9B858161D334682199A42E6D9BC
:104780005A1EF95CB9540133F7E7012384F8643405
:1047900076E6002384F8543472E600BFC05F000858
:1047A000D34D621040420F0000CA9A3B08B54FF645
:1047B000FF710120FFF7C2FA08BD000030B40C6899
:1047C000630A074AA2FB0323DA09064D05FB1242DE
:1047D000046804EBD31303600A6030BC704700BF69
:1047E000834B040000CA9A3B002103E00A4B5B584C
:1047F0004350043109480A4B42189A42F6D3094AF9
:1048000002E0002342F8043B074B9A42F9D3FCF73D
:1048100063FDFFF7D0FC7047C4690008000000206A
:104820007C0000207C000020A8670020FEE77FB508
:1048300000241023CDE902340368009415469E69D4
:104840008DF804406B461268B0479DF8043003F0C1
:104850000603062B03BF009B2B600120204604B0FB
:1048600070BD009890420CBF0620012070470000E8
:1048700010B5034B0360044600F0CDF8204610BD90
:104880000064000810B50446FFF7F2FF2046082137
:1048900000F040F8204610BD2DE9F0419846DDE9D2
:1048A0000834069E9E420746154607D1079900F038
:1048B000B5F818B165710020BDE8F0814146384671
:1048C00000F0ACF80028F6D0012326602571A37112
:1048D000F1E738B515461C4600F0A0F820B10823D2
:1048E000E36006232560237138BD2DE9F0410546BC
:1048F0000C4616461F4600F091F848B9032F07D81A
:1049000023683246294620465B69BDE8F0411847D6
:10491000BDE8F08100F098B810B5034B0360044681
:10492000FFF7A6FF204610BD6064000810B50446DE
:10493000FFF7F2FF20460C21FFF7ECFF204610BDE9
:104940002DE9F041069E96420746884615461C46CC
:104950000AD0B868036806961E6A2A46234641466E
:10496000B446BDE8F0416047194600F057F800280A
:10497000EFD00620BDE8F0812DE9F14F0E46194633
:10498000834617469946DDE90A4ADDE90C8500F0C1
:1049900045F890B1002E2C602F7109DB3444A045FE
:1049A0000CBF06240124AC71002001B0BDE8F08FDB
:1049B0000236F9D10123AB71F6E7444506D15146E1
:1049C000584600F02BF808B16F71EDE7DBF80800EE
:1049D0000368CDE90C85CDE90A4ADC693A464B46C5
:1049E0003146A44601B0BDE8F04F60472DE9F041E3
:1049F00004460D4616461F46FFF76BFF48B9A068F0
:104A000003689C6932463B462946A446BDE8F0410E
:104A10006047BDE8F081704700207047814208B5CB
:104A20000ED0406803782A2B0CD049680B782A2BCB
:104A300008BF0131FBF7ACFBB0FA80F0400908BDBC
:104A40000120FCE70020FAE700F000B8024B014625
:104A5000186800F017B800BF1800002010B5431EFA
:104A60000A44914200D110BD11F8014B03F8014FE7
:104A7000F7E702440346934200D1704703F8011B55
:104A8000F9E7000038B50546002945D051F8043C47
:104A90000C1F002BB8BFE41800F030FC1F4A13684D
:104AA000104633B9636014602846BDE8384000F012
:104AB00026BCA3420CD921686218934204BF1A682D
:104AC0005B68636004BF521822600460ECE7134621
:104AD0005A680AB1A242FAD919685818A0420BD1F3
:104AE00020680144581882421960DDD1106852686C
:104AF0005A6001441960D7E702D90C232B60D3E731
:104B0000206821188A4204BF11685268626004BF9D
:104B1000091821605C60C7E738BD00BF98670020B6
:104B200070B5CD1C25F0030508350C2D38BF0C25BC
:104B3000002D064601DBA94203D90C233360002077
:104B400070BD00F0DBFB214A1468214691B9204C6E
:104B500023681BB9304600F0C1F820602946304672
:104B600000F0BCF8431C24D10C233360304600F025
:104B7000C6FBE4E70B685B1B18D40B2B0FD90B604B
:104B8000CD50CC18304600F0BAFB04F10B00231DC9
:104B900020F00700C31AD3D05A42E250D0E78C422B
:104BA0004B6816BF636013600C46EBE70C46496820
:104BB000CCE7C41C24F00304A04205D0211A3046DF
:104BC00000F08CF80130CFD02560DBE7986700203B
:104BD0009C6700200FB40A4B13B51C6824B1A3696D
:104BE00013B9204600F09CFA05AB049AA168019322
:104BF000204600F027FD02B0BDE8104004B0704729
:104C00001800002070B50E46054618B183690BB92F
:104C100000F086FAAB69AC6813B9284600F080FA58
:104C2000234B9C4217D16C68A3891B071DD52369B0
:104C3000DBB1013EA36816F8011F013BA360E9B98F
:104C4000002B2EDA22460A21284600F0B9F801305E
:104C500011D00A2011E0174B9C4201D1AC68E3E768
:104C6000154B9C4208BFEC68DEE72146284600F061
:104C7000F9F80028DDD04FF0FF3070BD002B04DACA
:104C8000A2699A4206DC0A2904D023685A1C2260D1
:104C90001970CFE72246284600F092F80130C9D1BA
:104CA000E9E723680A205A1C22601870E5E700BF74
:104CB000C0640008E0640008A0640008024B0146DC
:104CC0001868FFF79FBF00BF18000020024B0A467C
:104CD0000146186800F014BB1800002038B5064CD7
:104CE000002305460846236001F09CF8431C02D1CE
:104CF000236803B12B6038BDA46700200EB400B553
:104D00009CB01DAB029006906FF0004109480791DE
:104D10000491094953F8042B05910068019302A9F5
:104D200000F06EFB029B00221A701CB05DF804EBD1
:104D300003B07047180000200802FFFF034611F877
:104D4000012B03F8012B002AF9D1704730B5141E4E
:104D500005469BB0184605DA8B232B604FF0FF30D9
:104D60001BB030BD4FF40273ADF80C3014BF04F12A
:104D7000FF332346029305934FF6FF73009104918E
:104D8000ADF80E3002461E9B6946284600F038FBFF
:104D9000431CBCBF8B232B60002CE1D0009B002266
:104DA0001A70DDE707B5009313460A46014603482B
:104DB0000068FFF7CBFF03B05DF804FB180000208C
:104DC000F8B50E461446054618B183690BB900F0D4
:104DD000A7F9214B9C422AD16C68A369A360A389DF
:104DE0001A072ED5236963B323692068C01A636943
:104DF000F6B28342374604DC2146284600F026F905
:104E000028BBA368013BA36023685A1C22601E7064
:104E100063690130834204D0A389DB0719D50A2EC8
:104E200017D12146284600F011F990B10FE00B4B45
:104E30009C4201D1AC68D0E7094B9C4208BFEC68AA
:104E4000CBE72146284600F00DF80028CCD04FF0E3
:104E5000FF373846F8BD00BFC0640008E0640008B2
:104E6000A0640008324B70B51D6806460C4625B19B
:104E7000AB6913B9284600F053F92E4B9C420FD171
:104E80006C68B4F90C309AB215072CD4D00611D442
:104E90000922326043F04003A3814FF0FF303EE02F
:104EA000254B9C4201D1AC68EBE7244B9C4208BFE8
:104EB000EC68E6E7510712D5616B41B104F1440398
:104EC000994202D03046FFF7DDFD00236363A389DA
:104ED00023F02403A3810023636023692360A38953
:104EE00043F00803A38123694BB9A38903F420731A
:104EF000B3F5007F03D02146304600F0BFF9A28908
:104F000012F001030CD00023A36063695B42A3612C
:104F1000236953B9B4F90C3013F08000BAD170BDD5
:104F2000920758BF6369A360F2E70020F7E700BF6C
:104F300018000020C0640008E0640008A0640008B5
:104F40008A892DE9F041054610070C4658D44B6874
:104F5000002B05DC0B6C002B02DC0020BDE8F0818F
:104F6000E66A002EF9D0002312F480522F68216ADD
:104F70002B6032D0606DA3895A0705D56368C01ACB
:104F8000636B0BB1236CC01A00230246E66A216AE8
:104F90002846B047431CA38906D129681D2948D853
:104FA000294ACA40D60744D500226260D904226942
:104FB000226004D5421C01D12B6803B96065616B86
:104FC0002F600029C9D004F14403994202D0284639
:104FD000FFF758FD00206063C0E701232846B04773
:104FE000411CC8D12B68002BC5D01D2B01D0162B1E
:104FF00001D12F60B1E7A38943F04003A381ADE75E
:105000000F69002FA9D093070E6808BF4B690F6086
:1050100018BF0023A6EB07088B60B8F1000F9CDDDA
:1050200043463A46216AA66A2846B047002806DC6D
:10503000A38943F04003A3814FF0FF308EE707447C
:10504000A8EB0008E9E700BF0100402038B50B6974
:1050500005460C46DBB118B183690BB900F060F866
:105060000C4B9C4209D16C68B4F90C307BB12146E1
:105070002846BDE83840FFF763BF074B9C4201D18B
:10508000AC68F1E7054B9C4208BFEC68ECE70020F8
:1050900038BD00BFC0640008E0640008A0640008D8
:1050A000002310B50446C0E9003383608181436664
:1050B000C281C0E904338361194608225C30FFF7DE
:1050C000D8FC054B6362054BA362054BE362054BBD
:1050D0002462236310BD00BF815B0008A35B00084E
:1050E000DB5B0008FF5B0008014900F085B800BFEA
:1050F0004D50000870B54A1E682555430E4605F10F
:105100007401FFF70DFD044640B10021C0E900160F
:105110000C30A06005F16802FFF7ABFC204670BDC3
:10512000836910B5044633BBC0E912330365124BE3
:10513000124A1B688262984204BF0123836100F017
:105140001FF86060204600F01BF8A060204600F0C9
:1051500017F80022E06004216068FFF7A1FF012238
:105160000921A068FFF79CFF02221221E068FFF7E7
:1051700097FF0123A36110BD9C640008E95000085B
:10518000F8B51B4B1E68B369074613B93046FFF7E5
:10519000C7FF4836D6E90134013B03D5336833B144
:1051A0003668F7E7B4F90C506DB16834F4E70421C0
:1051B0003846FFF79FFF30600028F1D10C233B6099
:1051C00004462046F8BD0B4B6566C4E90055A56052
:1051D000C4E90335C4E905550822294604F15C00F9
:1051E000FFF747FCC4E90D55C4E91255E9E700BFD4
:1051F0009C6400080100FFFF2DE9F84380468946C2
:1052000000F14804002614B93046BDE8F883D4E91B
:105210000175013F01D52468F5E7AB89012B07D95A
:10522000B5F90E30013303D029464046C84706433E
:105230006835EEE770B50E46B1F90E10002996B04C
:1052400014461D4607DA00232B60B3891A0610D4D2
:105250004FF480630EE06A4600F0F8FC0028F2DBB1
:10526000019A02F47042A2F500535A425A412A6050
:10527000EEE740230020236016B070BD8B8973B524
:105280009D0706460C4607D504F1470323602361BA
:105290000123636102B070BD01AB6A46FFF7CAFF2C
:1052A000009905463046FFF73BFC48B9B4F90C308D
:1052B0009A05EFD423F0030343F00203A381E3E74D
:1052C0000D4BB362A389206043F08003A381009B50
:1052D0006361019B20615BB1B4F90E10304600F0B0
:1052E000C7FC28B1A38923F0030343F00103A38182
:1052F000A3891D43A581CDE7E95000087047704799
:10530000F8B5074614460E4621B91146BDE8F840E7
:10531000FFF706BC22B9FFF7B5FB25462846F8BDC6
:1053200000F0E1FCA0420FD221463846FFF7F8FB1F
:1053300005460028F2D031462246FFF78FFB314662
:105340003846FFF79FFBE9E73546E7E72DE9F047E9
:105350008E689E4282460C469046994637D88A8986
:1053600012F4906F31D0256809696F1A65690223BC
:1053700005EB450595FBF3F509F101033B449D421F
:1053800038BF1D46530530D52946FFF7C9FB0646F1
:1053900050B90C23CAF80030A38943F04003A3811D
:1053A0004FF0FF30BDE8F0873A462169FFF756FB22
:1053B000A38923F4906343F08003A3812661656190
:1053C0003E44ED1B2660A5604E464E4500D94E4634
:1053D00032464146206800F06DFCA3689B1BA36029
:1053E00023681E4426600020DCE72A46FFF788FF7A
:1053F00006460028E2D121695046FFF743FBC8E783
:105400002DE9F04F1D468B891F069DB080460C4646
:1054100016460FD50B696BB94021FFF781FB206061
:10542000206128B90C23C8F800304FF0FF30C8E0E5
:10543000402363610023099320238DF82930302312
:105440008DF82A3003954FF0010B37463D4615F88D
:10545000013B0BB1252B3ED1B7EB060A0BD05346CF
:10546000324621464046FFF771FF013000F0A4802C
:10547000099B534409933B78002B00F09D80002347
:105480004FF0FF32CDE90523049307938DF8533095
:105490001A932F46052217F8011B5048FAF790FE81
:1054A000049BD0B9D90644BF20228DF853201A0797
:1054B00044BF2B228DF853202A782A2A15D0079A28
:1054C0002F4600200A25394611F8013B303B092BB5
:1054D0004DD9B8B10FE02F46B8E7404A801A0BFA11
:1054E00000F0184304903D46D3E7039A111D12685B
:1054F0000391002A01DB079204E0524243F00203C9
:10550000079204933B782E2B0CD17B782A2B33D136
:10551000039B1A1D1B680392002BB8BF4FF0FF338B
:10552000023705932E4D397803222846FAF748FEB4
:1055300038B14023401B03FA00F0049B03430137BA
:105540000493397827488DF8281006227E1CFAF734
:1055500037FE002838D0244B13BB039B073323F0BE
:10556000070308330393099B4B4409936DE705FB3D
:10557000023201200F46A6E70023013705931946A2
:105580000A25384610F8012B303A092A03D9002B96
:10559000C8D00591C6E705FB012101230746F0E7C6
:1055A00003AB00932246114B04A94046AFF30080A1
:1055B000B0F1FF3F8146D6D1A3895B063FF535AFF9
:1055C00009981DB0BDE8F08F03AB00932246074B4E
:1055D00004A9404600F0C2F9EAE700BF00650008F0
:1055E000066500080A650008000000004D53000829
:1055F0009368013B002B10B4936008DA9469A342CE
:1056000001DB0A2903D15DF8044BFFF7D9BB13680E
:10561000581C1060197008465DF8044B7047F8B5C7
:1056200006460F461446D518AC4201D1002007E0CB
:105630003A4614F8011B3046FFF7DAFF431CF3D15A
:10564000F8BD00002DE9F04F0C469DB017461D46F1
:10565000064618B183690BB9FFF762FD7C4B9C428B
:1056600058D17468A38918075ED52369002B5BD0D5
:105670000023099320238DF8293030238DF82A3018
:1056800003954FF0010BB846454615F8013B0BB1A9
:10569000252B54D1B8EB070A0BD053463A46214686
:1056A0003046FFF7BCFF013000F0C280099B534435
:1056B000099398F80030002B00F0BA8000234FF0D7
:1056C000FF32CDE90523049307938DF853301A93E5
:1056D000A846052218F8011B5E48FAF771FD049BE5
:1056E00078BBD90644BF20228DF853201A0744BF47
:1056F0002B228DF853202A782A2A2AD0079AA846E6
:1057000000200A25414611F8013B303B092B69D99D
:1057100060B324E0504B9C4201D1B468A2E74F4BE8
:105720009C4208BFF4689DE721463046FFF79AFB8C
:1057300000289DD04FF0FF301DB0BDE8F08FA84687
:10574000A2E7444A801A0BFA00F018430490454639
:10575000BEE7039A111D12680391002A01DB07922C
:1057600004E0524243F002030792049398F8003099
:105770002E2B0ED198F801302A2B38D1039B1A1DFD
:105780001B680392002BB8BF4FF0FF3308F10208EB
:105790000593334D98F8001003222846FAF710FDC0
:1057A00040B14023401B03FA00F0049B034308F17F
:1057B0000108049398F800102A488DF82810062252
:1057C00008F10107FAF7FCFC002837D0264B1BBB79
:1057D000039B073323F0070308330393099B4B44D0
:1057E000099350E705FB0232012088468AE700232F
:1057F00008F10108059319460A25404610F8012BC7
:10580000303A092A03D9002BC3D00591C1E705FB23
:10581000012101238046F0E703AB00932246134B9E
:1058200004A93046AFF30080B0F1FF3F8146D5D1E7
:10583000A3895B063FF57EAF09987DE703AB009334
:1058400022460A4B04A9304600F088F8ECE700BF76
:10585000C064000800650008E0640008A064000857
:10586000066500080A650008000000001F560008D1
:105870002DE9F04791461F468A680B69DDF82080C4
:105880009342B8BF1346C9F8003091F8432006464A
:105890000C4612B10133C9F800302368990642BFA3
:1058A000D9F800300233C9F80030256815F0060534
:1058B00007D104F1190AE368D9F800209B1AAB421A
:1058C00028DC94F843302268003318BF0123920685
:1058D0002DD404F1430239463046C047013020D070
:1058E0002368E568D9F8002003F00603042B08BFFD
:1058F000AD1AA36822690CBF25EAE575002593421D
:10590000C4BF9B1AED184FF000091A344D451AD147
:10591000002008E00123524639463046C047013096
:1059200003D14FF0FF30BDE8F0870135C3E7E11840
:105930005A1C302081F84300224494F8451082F824
:1059400043100233C5E70123224639463046C0479B
:105950000130E6D009F10109D8E700002DE9F04354
:1059600001F1430C0C46097E85B06E2917460646A8
:1059700098460C9A00F0B38022D8632936D00AD812
:10598000002900F0B980582900F0838004F1420515
:1059900084F8421032E0642901D06929F6D12068E8
:1059A0001368050603F104012AD51B681160002B5A
:1059B00003DA2D225B4284F843206F480A2239E043
:1059C000732900F09D8008D86F2920D07029DDD17F
:1059D000236843F02003236003E0752917D078295A
:1059E000D4D1782384F84530644855E01368191DF4
:1059F0001B68116004F1420584F8423001238CE0F9
:105A00001B68116010F0400F18BF1BB2CFE713687E
:105A10002568181D1060280601D51B6802E068067D
:105A2000FBD51B8854486F2914BF0A220822002185
:105A300084F843106568A560002DC0F29580216848
:105A400021F004012160002B3DD1002D40F08E801B
:105A50006546082A0BD12368DB0708D523696268ED
:105A60009A42DEBF302305F8013C05F1FF35ACEB6F
:105A700005032361CDF800803B4603AA214630464A
:105A8000FFF7F6FE01304DD14FF0FF3005B0BDE815
:105A9000F083394884F84510136821681D1D1B6880
:105AA00015600A060BD5CA0744BF41F020012160EA
:105AB0001BB9226822F0200222601022B7E74D06AF
:105AC00048BF9BB2EFE76546B3FBF2F102FB11332F
:105AD000C35C05F8013D0B460029F5D1B9E7136811
