:020000040800F2
:1000000000C000204D4E0008F5400008F9400008EF
:10001000214100082341000825410008000000009C
:10002000000000000000000000000000D1190008DE
:100030002741000800000000711A0008D51A0008C6
:10004000914E0008914E0008914E0008914E000814
:10005000914E0008914E0008914E0008914E000804
:10006000914E0008914E0008914E0008914E0008F4
:10007000914E0008914E0008914E0008914E0008E4
:10008000914E0008914E0008914E0008914E0008D4
:10009000914E0008914E0008914E0008914E0008C4
:1000A000914E0008914E0008914E0008914E0008B4
:1000B000914E0008853D0008914E0008914E0008C1
:1000C000914E0008914E0008914E0008914E000894
:1000D000914E0008914E0008C9400008914E00085A
:1000E000914E0008914E0008914E0008914E000874
:1000F000914E0008914E0008914E0008914E000864
:10010000914E0008914E0008914E0008914E000853
:10011000914E0008914E000841410008914E0008A0
:10012000914E0008914E0008914E0008914E000833
:10013000914E0008914E0008914E0008914E000823
:10014000914E0008914E0008914E0008914E000813
:1001500010B5054C237833B9044B13B10448AFF301
:1001600000800123237010BD7C00002000000000EF
:100170004467000808B5034B1BB103490348AFF3BC
:10018000008008BD000000008000002044670008D7
:10019000034613F8012B002AFBD1181A01387047C7
:1001A00001F0FF01102A2BDB10F0070F08D010F828
:1001B000013B013A8B422DD010F0070F42B3F6D12C
:1001C000F0B441EA012141EA014122F007047FF045
:1001D00000070023F0E80256083C85EA010586EA9C
:1001E000010685FA47F5A3FA87F586FA47F6A5FAD8
:1001F00087F68EB9EED1F0BC01F0FF0102F00702E4
:1002000032B110F8013B013A83EA010313B1F8D18E
:100210000020704701387047002D06BF354603386F
:10022000073815F0010F07D1013015F4807F02BFA8
:10023000013015F4C03F0130F0BC0138704700BFF9
:1002400003685A004CBF43F0004323F000431844B6
:10025000704700BF61B32DE9F84F01F1FF3A9046B6
:100260000646D146002707EB090404EBD47464105A
:10027000E50071190846FFF7E3FFA245834605F143
:100280000800304409D0FFF7DBFFC34500F1FF3021
:1002900005D8404509D2671CE5E7C34505D9A74203
:1002A00002D004F1FF39DEE700210846BDE8F88FEF
:1002B00008467047012807D0022807D0044B0028C1
:1002C0000CBF18460020704702487047024870472C
:1002D000A1090008A5090008A909000830B5254BA7
:1002E00083B004468D1E4BB301A92846AFF30080AE
:1002F000F0B101992A46FFF7ADFF0146C0B1FFF703
:100300009FFF4B68A064012B2ED0002B01F104004D
:1003100026DBFFF795FF0023C4E913030368002BD6
:1003200012DBFFF78DFF00232061184603B030BDBC
:10033000002323610923184603B030BD0E490F483E
:10034000091AC9100191D5E7C3F30360FFF7B2FFA3
:10035000002814BF002309232061184603B030BDD4
:100360000123C4E91303D9E70023236105231846B9
:1003700003B030BD0000000000690008C867000835
:100380000368DA0710B5044606D49B0700F148005D
:1003900009D500F05FFC2368590709D51A070ED567
:1003A000DB0613D510BD00F04DFC23685907F5D4CA
:1003B00004F1D00000F056FC23681A07F0D404F5CD
:1003C000A87000F057FC2368DB06EBD404F5E87056
:1003D000BDE8104000F092BC036803B10344184626
:1003E000704700BF09207047704700BF70B50446D2
:1003F0000D4608E02B6C63612A46236921460120E3
:100400009847082808D1296C2046FFF767FF064661
:100410000028EFD005F0D4FE0728FBD13046296C28
:10042000FFF7E2FF281D00F001FC00BF2DE9F047B7
:100430000C1D054617460FCCADF5727D03AE0FC6F9
:100440000FCC0FC60FCC0FC694E80F0002ACD5F846
:100450000C80D5F8189086E80F000023236021E077
:10046000236C6B614FF4F07221467AA804F011FD01
:100470002B697AAA294630469847889BCDE90049DE
:100480008246636431462B462A460120C047074610
:10049000F8B94FF4F0727AA9204604F0FAFCBAF1E8
:1004A000080F1CD1216C2846FFF718FF002F08BF4A
:1004B0000926074618BF0A260028D1D0A36B46F0AC
:1004C0001001CDE900492A46636401202B46C0474C
:1004D00000B1092738460DF5727DBDE8F087BAF105
:1004E000070FF6D13846216CFFF77EFF03A800F016
:1004F0009DFB00BF406C7047F0B5CB6B0B640D1DCE
:100500000F4606460FCDF9B001AC0FC40FCD0FC496
:100510000FCD0FC495E80F004FF0FF3584E80F00B2
:10052000009506E033696A46314698470828044634
:1005300008D110993046FFF7D1FE0028F2D00920EB
:1005400079B0F0BD6846FFF71BFF062CF7D139469E
:100550003046FFF74BFF00BF30B4DD6BC1608261F6
:1005600019461D64002230BC60E700BF70B5C66844
:1005700043690B64BEB903690A4604460D46014649
:1005800002209847072807D0082803D1294620468B
:10059000FFF72CFF05F014FE3046296CFFF724FF0F
:1005A000281D00F043FB0122FFF740FF05F008FE85
:1005B000C2681AB1CA6B0A64002237E79CE700BF21
:1005C000704700BF836813B1014601201847704788
:1005D000042907D8DFE801F00308060808000BB972
:1005E0000F2A03D9022070470120704700EB8202D6
:1005F00018465368009A1360704700BF10B584B066
:10060000002303AC0A4600941946FFF7E1FF039864
:1006100004B010BD042907D8DFE801F0030806087C
:1006200008000BB90F2A03D9022070470120704738
:1006300000EB8200009A126842601846704700BFC3
:1006400010B584B004AC002344F8042D0A4600948D
:100650001946FFF7DFFF04B010BD00BFF0B5D36B44
:100660001364151D07460E460FCDADF50F7D17AC73
:100670000FC40FCD0FC40FCD0FC495E80F004FF07E
:10068000FF3584E80F00169510E016A8FFF7D8FF95
:10069000314616A8B84716AA694678B9049B0820BF
:1006A0009847052804460AD0092807D026996846A5
:1006B000FFF714FE6A460C210028E6D0092416A88C
:1006C000FFF75EFE20460DF50F7DF0BD2DE9F04FE2
:1006D0000D46C96C89B00C1D164600F0030B0A6864
:1006E00006941F46002B68D0130CD9B212048DF863
:1006F0001D30022304EB810405928DF81C302B6D14
:10070000BBF1020F08BFAC6B13F0010346D101939C
:1007100000F008030093D4F80090B9F1000F00F046
:10072000F380022F45D0B4F80090B4F8028004346E
:10073000AB6C28F0010A0F2130469A44FFF75EFFA8
:10074000824534D829F001035344834294BF0020EA
:1007500001204FEA480808F0020809F0010948EAB8
:100760000908B8F1010F3AD031D3B8F1020F1AD10C
:10077000236823F0004ABBF1000F66D130B1009A24
:10078000002A6CD0BAF1000F00F09080002B00DA44
:1007900004340AF1010304EB8304BCE7304605A9E5
:1007A00000F046FB78B1092009B0BDE8F08F0020C9
:1007B000CFE7D4F804800834BAE712020323059285
:1007C000ADF81C309BE7082009B0BDE8F08FBBF105
:1007D000000F02D0002840F0B48004349BE7BBF146
:1007E000000F18D1A8B1D4E90023991C4FEAD272A6
:1007F000D9D005F158010133049100F0B580201DD6
:10080000FFF7EAFD04AB01462846AFF3008000285D
:1008100067D108347FE70D213046D5F82080FFF7F7
:10082000EDFE8045F5D1AB6A9C42F2D12046FFF740
:1008300007FD0F2102463046FFF702FF30462A46E9
:100840000021FFF7FDFE0720AEE70D213046D5F869
:100850002080FFF7D3FE804532D0236896E7BAF1B7
:10086000000F23D005F1580304F10408CDF808B0B7
:10087000DDF800900397A3461C4602E05745B946B1
:1008800040D040460494FFF7A7FD04AB0146002288
:100890002846AFF3008009F1010708F10408002899
:1008A000ECD0D1455C46DDE902B7D6D130460D210A
:1008B000FFF7A4FE049B2862C5E90934062073E70C
:1008C000AB6A9C42C9D104224FF00008A318C5E9C5
:1008D0000AA8C5E90C23236843454DDB0123019396
:1008E00057E780460D213046FFF788FEB8F1020F2A
:1008F00028623ED12B46049A43F82C2F6B62AC62DF
:10090000062051E75C46D1E705A9304600F090FA91
:1009100000287FF448AF019B002B3FF454AF0F2118
:100920003046FFF76BFE0E2102463046FFF788FE89
:1009300030461A4A0F21FFF783FE072009B0BDE8B1
:10094000F08F2046FFF77CFC04340746AC63284652
:10095000AFF3008000283FF426AF30463A460F211F
:10096000FFF76EFE07201FE730460D21FFF746FE1A
:100970002862049B6B62C2E70AF1010004EB80006D
:10098000FFF75EFC0F2102463046FFF759FE304666
:100990002A464146FFF754FE072005E70000000005
:1009A000002393E6012391E602238FE62DE9F0412F
:1009B0000546C4B0042906D8DFE801F04D2B050335
:1009C0000900032B5FD0022044B0BDE8F081002B6A
:1009D000F9D1102AF7D82B68DC0600F1F48022AC9C
:1009E0002046019200F094F9A86B019A0023012699
:1009F00006FA03F1114203D0016844F823100430D1
:100A00000133042BF4D1A863204600F077F90020CD
:100A1000DAE7012B4FEA124697B252D0052BD2D11A
:100A200006EB0708B8F1200FCDD80F2E40F29980C1
:100A3000B846002F40F0DB80AA6BAA630F2E40F26D
:100A4000BE80B8F1000F02D002A800F00BF9002020
:100A500044B0BDE8F081002BB5D1AC6B97B2281D36
:100A6000012606FA03F1394203F1010302D021689D
:100A700001600434102B00F10400F2D112F4005094
:100A8000E5D1AC63A0E7160C97B2F319102B9AD8F6
:100A90002B681A075DD422AC204600F00DF904EB58
:100AA000C601AB6B3FB103EBC702186841F8040BFA
:100AB00004339342F9D12046AB6300F0DBF8002009
:100AC00082E7F219102A3FF67EAF0F2E3FF67BAF7A
:100AD0002A68D10708D5284622F0030240F8482B9F
:100AE000019300F0B3F8019B019322AC204600F083
:100AF000ADF8A96B019B002F00F095807F0004EBFF
:100B0000C6044FF00008043C01EB870251F8040BC7
:100B100044F8040F9142F9D1B8F1000F0FD002ACA4
:100B2000102E314638BF102104EBC101843902EB8D
:100B3000C80452F8040B41F8040F9442F9D1012B78
:100B40007FF47BAF22AC0432AA63204600F07AF82F
:100B50007DE723F008032B6005F5A87000F0ACF8E2
:100B600099E7B8F1100F2A6843D9D007A8F1100807
:100B70000BD5284622F0010242F0020240F8482B31
:100B8000019300F06BF82A68019B510725D40F2EC2
:100B900004D822A8019300F061F8019B019302ACF4
:100BA000204600F063F8C6F110010029AA6B019BF2
:100BB000B6DD22AC4F0004EBC6041146A3E722A821
:100BC00000F048F83DE723F010032B6005F5E870CE
:100BD000019200F09DF8019A01E7284622F00402F4
:100BE00040F8D02B019300F041F8019BCFE72A6831
:100BF000CBE7D0070AD5284622F0010242F00202D4
:100C000040F8482B019300F029F8019B019322AC96
:100C1000204600F023F8B846A96B019B002F7FF413
:100C20006DAF0A4609E70A468DE700BF00F13401BF
:100C300091E838009C46A6464CF8045D90E8FF0F0A
:100C4000E54600BD90EC210B704700BF80EC210B06
:100C5000704700BF90EC200B704700BF80EC200B6A
:100C6000704700BFD0EC200B704700BFC0EC200BDA
:100C7000704700BFF0EC0201F0EC0211F0EC022131
:100C8000F0EC0231F0EC0241F0EC0251F0EC0261C8
:100C9000F0EC0271F0EC0281F0EC0291F0EC02A1B8
:100CA000F0EC02B1F0EC02C1F0EC02D1F0EC02E1A8
:100CB000F0EC02F1704700BFE0EC0201E0EC021141
:100CC000E0EC0221E0EC0231E0EC0241E0EC025108
:100CD000E0EC0261E0EC0271E0EC0281E0EC0291F8
:100CE000E0EC02A1E0EC02B1E0EC02C1E0EC02D1E8
:100CF000E0EC02E1E0EC02F1704700BFB0FC0181E2
:100D0000B0FC0191B0FC01A1B0FC01B1704700BF83
:100D1000A0FC0181A0FC0191A0FC01A1A0FC01B1FB
:100D2000704700BFEC4600B52DE900502DE9FF1FCC
:100D30004FF000032DE90C0001A9FFF7DDFBDDF802
:100D400040E012B0704700BFEC4600B52DE90050FE
:100D50002DE9FF1F4FF000032DE90C0001A9FFF75B
:100D600005FCDDF840E012B0704700BFEC4600B56E
:100D70002DE900502DE9FF1F4FF000032DE90C0075
:100D800001A9FFF715FCDDF840E012B0704700BF85
:100D9000EC4600B52DE900502DE9FF1F4FF0000390
:100DA0002DE90C0001ABFFF7D7FBDDF840E012B0F6
:100DB000704700BFEC4600B52DE900502DE9FF1F3C
:100DC0004FF000032DE90C0001AAFFF747FCDDF806
:100DD00040E012B0704700BF027A82B9437AABB1EB
:100DE0004268013B10B4437213680321141D017261
:100DF0001A02446002605DF8044B180E70470368E5
:100E0000013A02721A020260180E7047B020704751
:100E100000B585B003AA0023009219460C22FFF703
:100E2000D7FB039805B05DF804FB00BFF0E700BFF7
:100E30002DE9F043054685B00E464FF000083046D8
:100E4000FFF7CAFFB028044600F0B180070620D59E
:100E500000F0F003802B65D0902B36D0A02B78D0FB
:100E6000B02B47D0C02B00F08A8000F0F803D02BC5
:100E70000BD100F00702013242F4002205230121C8
:100E80002846FFF793FD0028D9D0092005B0BDE81A
:100E9000F0830DF10C09002319468700CDF800906E
:100EA0000D222846FFF794FBFFB2039BCDF800907C
:100EB000043760064CBFDF1BFF18002319460D22C4
:100EC00028460397FFF7A6FBB9E700F00D030D2BAB
:100ED000DBD003AF002300F00F021946009728462D
:100EE000FFF776FB0023009719460D222846FFF7EF
:100EF00091FBA4E7B1285FD0B22800F0CC80B328E2
:100F00007ED000F0FC03B42BBFD000F0070201320A
:100F1000012342F4002219462846FFF747FD002826
:100F20008DD0B2E73046FFF757FF24020443B4F5F3
:100F3000004FAAD024010023A2B219462846FFF789
:100F400035FD0028A1D114F4004F18BF4FF001085F
:100F500075E7C24302F007034FF47F621A410107AD
:100F600002F47F624FF0000348BF42F4804219460A
:100F70002846FFF71BFD00283FF461AF85E7C62830
:100F800051D0C7285AD000F0F803C02B69D0C82828
:100F900075D0C9287FF479AF3046FFF71DFF0203F3
:100FA00000F00F0002F470220130024366E7B8F14E
:100FB000000F14D0002069E73046FFF70DFF00282E
:100FC0003FF463AF10F0F0037FF45FAF02461946C1
:100FD0002846FFF7EBFC00283FF431AF55E703ACA0
:100FE00043460E22414600942846FFF7F1FA00944A
:100FF000284643460F224146FFF70CFB404645E793
:101000003046FFF7E9FE010300F00F0001F4702104
:10101000421C01230A4328461946FFF7C7FC002853
:101020003FF40DAF31E73046FFF7D6FE010300F085
:101030000F0001F47021421C0323EBE73046FFF759
:10104000CBFE024600283FF420AF10F0F0037FF4FF
:101050001CAF04212846FFF7A9FC00283FF4EFAE9F
:1010600013E700F00F020132032342F42022194655
:101070002846FFF79BFC00283FF4E1AE05E7304629
:10108000FFF7AAFE00F0F00200F00F031032013368
:1010900043EA0232F2E600230DF10C090D22194653
:1010A000CDF800902846FFF793FA3046FFF794FEFC
:1010B00002064FF002070CD5039B00F07F00B840FA
:1010C000034430460393FFF787FE030607F1070743
:1010D000F2D4039BCDF8009000F07F0403F5017279
:1010E000BC400023144419460D2228460394FFF700
:1010F00091FAA4E610B5C36C84B05A6803208DF849
:101100000C00DC798DF80D4012020833084601A965
:1011100001920293FFF78CFE04B010BD08B5FFF7F3
:1011200085FE806C08BD00BF08B5FFF77FFEC06C70
:10113000C37900EB8300083008BD00BF08B505F097
:101140003FF800BF08B5FFF7F9FF00BF10B5044630
:1011500081B2054800F035FB4021034800F039FB1F
:101160000028F9D0204610BD0044004070B5013879
:1011700001280CD80D461646002404E015F8010B92
:10118000FFF7E4FF0134B442F8DB204670BD4FF0B6
:10119000FF34FAE770B586B006460121042000F05E
:1011A000D7F901214FF4003000F0E0F905A800F074
:1011B0002CF90425ADF8145002238DF816301823AD
:1011C0008DF817301B4C05A9204600F0CFF80823F6
:1011D000ADF814308DF8175005A9204600F0C6F878
:1011E0000DEB050000F0B8FA01960023ADF80830C9
:1011F000ADF80A30ADF80C30ADF810300C23ADF876
:101200000E30A4F544440DEB0501204600F040FAF1
:10121000012240F22551204600F0B6FA012240F2A8
:101220002771204600F0B0FA0121204600F09FFA15
:1012300006B070BD0008014082B000230193009306
:101240002C4A136843F4803313602A4B1B6803F461
:1012500000330093019B01330193009B1BB9019B59
:10126000B3F5A06FF1D1234B1B6813F4003F06D0F8
:1012700001230093009B012B04D002B07047002390
:101280000093F7E71B4B5A685A605A6822F4605281
:101290005A605A6842F400525A605A6822F4E06276
:1012A0005A605A6842F480625A605A6822F060427A
:1012B00022F47C125A605A6842F0204242F4E8124A
:1012C0005A601A6842F080721A600A4B1B6813F069
:1012D000007FFAD0074B5A6822F003025A605A681E
:1012E00042F002025A60034B5B6803F00C03082BC8
:1012F000F9D1C2E70010024008B5FFF79DFF08BD15
:1013000010B5164CD4F8883043F47003C4F8883014
:10131000134B1A6842F001021A605968114A0A40D8
:101320005A601A6822F0847222F480321A601A68B5
:1013300022F480221A605A6822F0684222F47F0266
:101340005A60196B084A0A401A634FF41F029A60E8
:10135000FFF7D2FF4FF00063A36010BD00ED00E087
:10136000001002400C00FFE800FFFEFEF0B4CB7856
:1013700003F00F02154613F0100F01D08D781543BE
:101380000B78E3B10668002301E042610133072BCB
:1013900014D801229A400C8832EA0404F6D19C0049
:1013A0000F27A74026EA070605FA04F42643CC785F
:1013B000282CEAD0482CE9D10261E7E706600B88C7
:1013C000FF2B20D94668002303E0426116E002614A
:1013D0000133072B16D803F108040122A2400C8820
:1013E00032EA0404F4D19C000F27A74026EA07063E
:1013F00005FA04F42643CC78282CE6D0CC78482C87
:10140000E6D1E4E74660F0BC70474FF6FF73038017
:10141000022383700423C3707047000010B4454B4F
:101420005B6803F00C03042B44D0082B45D013B1A8
:10143000414B036001E0404B03603E4A5368C3F3F5
:101440000213526812F0800F6ED03C4AD35CDBB2BC
:10145000026822FA03F3436036494A68C2F3012264
:10146000496811F4806F61D034498A5CD2B223FAA2
:1014700002F282602F494A68C2F3C122496811F41E
:10148000005F55D02D498A5CD2B2D340C360294950
:101490004A68C2F38132496811F0805F01D042F09E
:1014A000040227498A5CD2B2B3FBF2F303615DF810
:1014B000044B7047204B0360BFE71E4B5A68214C1A
:1014C0001440596801F48031C4F3834343EA546300
:1014D00012F0C04F08D102F47012B2F5701F01D0A3
:1014E000022202E0012200E00122134469B9164AF7
:1014F00002FB03F303600F4B5B68002B9DDB02686C
:10150000124B9A4299D9036097E70A4A526812F43B
:10151000003F04D00C4A02FB03F30360EBE7064AEA
:1015200002FB03F30360E6E7002391E700229EE756
:101530000022AAE70010024000127A000C000020EE
:101540000400002000003C6000093D0000A24A04A5
:1015500029B9054A936923EA000090617047024A5D
:1015600093691843906170470010024029B9054AF9
:10157000D36923EA0000D0617047024AD369184357
:10158000D06170470010024003889BB21F4A90420E
:1015900016D002F50062904212D0B0F1804F0FD009
:1015A00002F5406290420BD0A2F59E32904207D0E5
:1015B00002F58062904203D002F58062904204D12D
:1015C00023F070034A6813439BB2114A904208D03B
:1015D00002F58062904204D023F440739BB28A8962
:1015E000134303808B68C3620B880385074B9842C3
:1015F00007D003F50063984203D003F54063984297
:1016000001D18B7B0386012383827047002C01402C
:101610000010004031B903889BB223F001039BB254
:1016200003807047038843F001030380704722B9A9
:10163000838923EA0101818170478389194381816C
:10164000704731B903889BB223F080039BB20380BB
:101650007047038843F080030380704741637047FD
:1016600081637047C163704701647047406A704787
:10167000028A83890B40114202D01BB900207047B7
:101680000020704701207047C94389B2018270472A
:1016900030B587B004460D46038A9BB2CA8823F44E
:1016A00040531343038283899BB2898828896A89BE
:1016B00001430A4323F4B05323F00C031343A381E3
:1016C000A38A9BB2AA8923F440731343A38201A87F
:1016D000FFF7A4FE1E4B9C4224D0039BA28912F468
:1016E000004F21D103EB830303EB830329688900B7
:1016F000B3FBF1F1174BA3FB012358090501642348
:1017000000FB1313A28912F4004F16D11B013233D0
:10171000104AA2FB0323C3F343132B439BB2238141
:1017200007B030BD049BD9E703EB830303EB8303CE
:1017300029684900B3FBF1F1DCE7DA003232054BEE
:10174000A3FB0232C2F3421242EA0503E6E700BFFE
:10175000003801401F85EB514FF4165303600023FE
:101760008380C38003810C2242818381704731B919
:1017700083899BB223F400539BB283817047838992
:1017800043F400538381704710B4C1F3421401F055
:101790001F01012303FA01F19C420AD0022C0AD056
:1017A000143052B9036823EA010101605DF8044B6B
:1017B00070470C30F5E71030F3E703681943016018
:1017C000F4E7C1F30801818070478088C0F3080006
:1017D00070470388194201D10020704701207047EB
:1017E000C94389B20180704710B4C1F3421201F0BD
:1017F0001F040123A340012A0DD0022A0ED0828AA1
:101800001340090A012202FA01F10288114043B192
:1018100059B9002006E082891340F2E7028A13409A
:10182000EFE700205DF8044B70470120FAE7000065
:1018300040F0BF6040F40030014BD860704700BFFB
:1018400000ED00E0C37853B9037803F01F015B0992
:1018500001228A402033134941F82320704710B4F5
:10186000114BDA68D243C2F30222C2F104040F23FF
:1018700023FA02F24178A140837813400B431B0105
:101880000278DBB207490A4482F80033037803F098
:101890001F005B090122824041F823205DF8044BC0
:1018A000704700BF00E100E000ED00E000F1080338
:1018B00043604FF0FF328260C36003610023036026
:1018C000704700230361704743684B609A688A60E1
:1018D0009A6851609960086103680133036070473A
:1018E00030B40D68B5F1FF3F02D000F1080202E00C
:1018F000026904E01A4653681C68AC42FAD953687E
:101900004B6099608A60516008610368013303602D
:1019100030BC7047036942688168916082684168A1
:1019200051605A68824205D000220261186801386D
:101930001860704782685A60F6E700000B4B1B681E
:10194000B3F1FF3F08D04FF0100383F31188BFF3CA
:101950006F8FBFF34F8FFEE74FF0100383F31188B3
:10196000BFF36F8FBFF34F8FFEE700BF140000205F
:1019700006480068006880F3088862B661B6BFF365
:101980004F8FBFF36F8F00DF00BF000008ED00E056
:10199000DFF80C00016841F470010160704700003D
:1019A00088ED00E04FF0807340F8043C21F0010125
:1019B00040F8081C054B40F80C3C40F8202C6FF018
:1019C000020340F8243C4438704700BF3D1900082A
:1019D000074B19680868B0E8F04F80F30988BFF337
:1019E0006F8F4FF0000080F311887047AFF30080D5
:1019F000F45000204FF0100383F31188BFF36F8F72
:101A0000BFF34F8F0A4A136801331360012B00D0D4
:101A10007047084B1B6813F0FF0FF9D04FF010030D
:101A200083F31188BFF36F8FBFF34F8FFEE700BFC3
:101A30001400002004ED00E0094B1B6843B94FF08F
:101A4000100383F31188BFF36F8FBFF34F8FFEE74F
:101A5000013B034A13600BB983F31188704700BF41
:101A60001400002000000000000000000000000042
:101A7000EFF30980BFF36F8F154B1A681EF0100F3C
:101A800008BF20ED108A20E9F04F10604DF8043DAA
:101A90004FF0100080F31188BFF34F8FBFF36F8FAB
:101AA00001F03CFB4FF0000080F3118808BC19687E
:101AB0000868B0E8F04F1EF0100F08BFB0EC108AB5
:101AC00080F30988BFF36F8F704700BFAFF30080CA
:101AD000F450002008B54FF0100383F31188BFF3D2
:101AE0006F8FBFF34F8F01F059F918B1034B4FF0CF
:101AF00080521A60002383F3118808BD04ED00E0D2
:101B0000034B41F63F721A60043B07221A6070478C
:101B100014E000E0314B1A68314B9A420DD02F4B44
:101B20001A68304B9A4211D14FF0100383F3118899
:101B3000BFF36F8FBFF34F8FFEE74FF0100383F3B8
:101B40001188BFF36F8FBFF34F8FFEE700B583B0EF
:101B5000254B1A78D2B20192FF221A701B78DBB2A1
:101B60008DF803309DF8033003F010031F4A137003
:101B70001F4B07221A609DF8033013F0800F0AD024
:101B80001B4A1368013B13609DF803305B00DBB216
:101B90008DF80330EFE7164A13681B0203F4E06385
:101BA0001360019BDBB2104A1370124B1A6842F4A7
:101BB00070021A601A6842F070421A60FFF7A0FFC4
:101BC0000D4B00221A60FFF7E3FE0C4A136843F046
:101BD00040431360FFF7CCFEFFF7B0FE00ED00E0DE
:101BE00071C20F4170C20F4100E400E09800002074
:101BF0009C00002020ED00E01400002034EF00E005
:101C0000EFF305830F2B0FD9104A9B5CDBB2104A10
:101C100012789A4208D94FF0100383F31188BFF36A
:101C20006F8FBFF34F8FFEE70A4B1B6803F4E0632F
:101C3000094A1268934208D94FF0100383F31188C0
:101C4000BFF36F8FBFF34F8FFEE77047F0E300E005
:101C5000980000200CED00E09C000020124A12F0D9
:101C6000070F1ED0D11D21F00701C1F5A043134479
:101C70000A460E480260002141601344083B23F0ED
:101C800007030B48036059601960991A516013608B
:101C9000084B1960084B1960084B4FF000421A605E
:101CA00070474FF4A043E4E7A4000020B0500020A8
:101CB000A0000020AC500020A8500020A45000201C
:101CC00010B4134B1A6882421BD359685C188442C3
:101CD00003D1406801445960184641684418A24243
:101CE00013D10C4C2468A2420DD0526811444160BB
:101CF0001A6812680260984200D018605DF8044BC0
:101D000070471346DEE70460F5E70260F3E700BFC3
:101D1000B0500020A000002070B5044601F030F85B
:101D20003F4B1B68A3B13F4B1B681C4213D001F013
:101D3000C1F8002602F0ECFD16F0070F6ED04FF050
:101D4000100383F31188BFF36F8FBFF34F8FFEE74C
:101D5000FFF784FFE7E794B1083414F0070F0ED0C3
:101D600024F00704083404F0070343B14FF01003D4
:101D700083F31188BFF36F8FBFF34F8FFEE734B14A
:101D8000294B1B68A34206D3284B1D6809E001F0CC
:101D900091F80026CEE701F08DF80026CAE72B4621
:101DA00015466A68A24202D22A68002AF7D11C4A64
:101DB0001268AA4214D01E6808362A681A606B6836
:101DC0001B1B102B14D9281910F0070F0CD04FF043
:101DD000100383F31188BFF36F8FBFF34F8FFEE7BC
:101DE00001F068F80026A5E743606C60FFF768FF24
:101DF0006A680D490B689B1A0B600D4909688B4294
:101E000001D20B490B60074B1B6813436B60002327
:101E10002B6001F04FF8002E8ED18BE7304670BD5D
:101E2000A0000020A4500020A8500020B0500020A6
:101E3000AC50002080B338B50446A0F1080550F836
:101E4000042C164909680A4208D14FF0100383F3A5
:101E50001188BFF36F8FBFF34F8FFEE750F8080C68
:101E600040B14FF0100383F31188BFF36F8FBFF3BE
:101E70004F8FFEE722EA010244F8042C00F080FFB5
:101E800054F8041C064A13680B4413602846FFF7F5
:101E900017FF01F00FF838BD704700BFA4500020B5
:101EA000A850002010B50446FFF7A4FDA26BE36B19
:101EB0009A4204D00024FFF7BFFD204610BD012444
:101EC000F9E710B50446FFF795FDA36B23B1002495
:101ED000FFF7B2FD204610BD0124F9E770B50446B6
:101EE0001646856B026C5AB903681BB10020013598
:101EF000A56370BD406801F081FB00236360F6E7D5
:101F00006EB9806802F0C5FF226CA3681344A36019
:101F10006268934219D32368A3600020E7E7C06892
:101F200002F0B7FF226C5242E3681344E360216879
:101F30008B4202D263681A44E260022E01D0002074
:101F4000D5E725B1013D0020D1E70020CFE70020F3
:101F5000CDE7026C72B110B5C3681344C360446826
:101F6000A34201D30368C3600C46C168204602F057
:101F700090FF10BD704738B50546FFF73BFD95F85B
:101F8000454064B203E001F00FFA013C64B2002C5A
:101F900008DD6B6A33B105F1240001F069F900280E
:101FA000F3D0F0E7FF2385F84530FFF745FDFFF755
:101FB00021FD95F8444064B203E001F0F5F9013CDD
:101FC00064B2002C08DD2B6933B105F1100001F07B
:101FD0004FF90028F3D0F0E7FF2385F84430FFF7EE
:101FE0002BFD38BD38B540B94FF0100383F311888D
:101FF000BFF36F8FBFF34F8FFEE704460D46FFF729
:10200000F9FC2168E26B236C03FB02106060002086
:10201000A063A160013A02FB0313E360FF2384F88D
:10202000443084F84530A5B923691BB9FFF704FD96
:10203000012038BD04F1100001F01AF90028F5D094
:10204000084B4FF080521A60BFF34F8FBFF36F8F72
:10205000ECE704F11000FFF729FC04F12400FFF77E
:1020600025FCE3E704ED00E038B51D46049C0B4673
:1020700049B12260E063236401212046FFF7B2FFEB
:1020800084F84C5038BD2460F4E740B94FF0100399
:1020900083F31188BFF36F8FBFF34F8FFEE7F0B567
:1020A00083B0054611B101FB00F000E000201746A7
:1020B0000C465030FFF730FE064638B100903B46E4
:1020C00000F1500221462846FFF7CEFF304603B00C
:1020D000F0BD0000F0B585B0019260B1044699B939
:1020E000026C8AB14FF0100383F31188BFF36F8F36
:1020F000BFF34F8FFEE74FF0100383F31188BFF358
:102100006F8FBFF34F8FFEE7022B0BD1E26B012ADB
:1021100008D04FF0100383F31188BFF36F8FBFF324
:102120004F8FFEE71E460F4601F008FA50B9019B9B
:1021300053B14FF0100383F31188BFF36F8FBFF3D8
:102140004F8FFEE700253AE0002538E03246394659
:102150002046FFF7C3FE636A4BB9A8B13B4B4FF073
:1021600080521A60BFF34F8FBFF36F8F0CE004F102
:10217000240001F07DF838B1344B4FF080521A60E2
:10218000BFF34F8FBFF36F8FFFF756FC012005B0F1
:10219000F0BDFFF751FC0020F9E702A801F0AEF80E
:1021A000012519E0002384F8443021E0002384F85D
:1021B000453023E02046FFF7DEFE00F07BFEFFF710
:1021C00019FCA26BE36B9A42C0D3022EBED0019BD6
:1021D000002BDED0002DE0D0FFF72EFC00F0D0FD6C
:1021E000FFF708FC94F844305BB2B3F1FF3FD9D05D
:1021F00094F845305BB2B3F1FF3FD7D0FFF71CFC3A
:1022000001A902A801F090F8C8B92046FFF74AFEDC
:102210000028CFD0019904F1100000F0F5FF20460E
:10222000FFF7A9FE00F046FE0028C8D1074B4FF08B
:1022300080521A60BFF34F8FBFF36F8FBFE7204606
:10224000FFF799FE00F036FE0020A0E704ED00E065
:1022500048B108B5002141600160C1600B460A46E3
:10226000FFF738FF08BD704710B502460021012076
:10227000FFF70BFF0446FFF7EBFF204610BD2DE9EB
:10228000F84360B1044699B9006C88B14FF010036F
:1022900083F31188BFF36F8FBFF34F8FFEE74FF0CB
:1022A000100383F31188BFF36F8FBFF34F8FFEE7E7
:1022B000022B0BD1E06B012808D04FF0100383F301
:1022C0001188BFF36F8FBFF34F8FFEE71F46904615
:1022D0008946FFF795FCEFF311864FF0100383F367
:1022E0001188BFF36F8FBFF34F8FA26BE36B9A42DE
:1022F00003D3022F01D000200FE094F845506DB2B7
:102300003A4649462046FFF7E9FDB5F1FF3F08D0C0
:102310006B1C5BB284F84530012086F31188BDE860
:10232000F883636A5BB104F1240000F0A1FF40B1BF
:10233000B8F1000F07D00120C8F80000EDE7012038
:10234000EBE70120E9E70120E7E700002DE9F04194
:1023500084B0019260B1044699B9026C8AB14FF021
:10236000100383F31188BFF36F8FBFF34F8FFEE726
:102370004FF0100383F31188BFF36F8FBFF34F8FBC
:10238000FEE71F46884601F0D9F850B9019B53B1CA
:102390004FF0100383F31188BFF36F8FBFF34F8F9C
:1023A000FEE700265FE000265DE0E6684146204645
:1023B000FFF7CFFDDFB9013DA563236813B901F035
:1023C00045FA6060236963B104F1100000F050FF2A
:1023D00038B1464B4FF080521A60BFF34F8FBFF3B6
:1023E0006F8FFFF729FB012004B0BDE8F081E660A4
:1023F000636A002BF5D004F1240000F039FF0028B7
:10240000EFD03A4B4FF080521A60BFF34F8FBFF3BB
:102410006F8FE6E7FFF710FB0020E5E702A800F06A
:102420006DFF012629E0002384F8443031E00023C9
:1024300084F8453033E0FFF7DDFA606801F08EF88C
:10244000FFF7FAFA3BE02046FFF795FD00F032FD7A
:1024500009E02046FFF78FFD00F02CFD2046FFF736
:1024600030FD002840D1FFF7C5FAA56B002D9CD1A7
:10247000019B002BCED0002ED0D0FFF7DDFA00F06C
:102480007FFCFFF7B7FA94F844305BB2B3F1FF3F3B
:10249000C9D094F845305BB2B3F1FF3FC7D0FFF726
:1024A000CBFA01A902A800F03FFF0028D1D12046B5
:1024B000FFF707FD0028C6D02368002BBBD0019989
:1024C00004F1240000F0A0FE2046FFF754FD00F0C8
:1024D000F1FC0028C7D1054B4FF080521A60BFF3C2
:1024E0004F8FBFF36F8FBEE700207DE704ED00E064
:1024F0000023072B0CD8074A52F833200AB10133C6
:10250000F7E7044A42F8331002EBC3035860704700
:10251000704700BF0467002070B504460D4616469C
:10252000FFF768FA94F844305BB2B3F1FF3F0DD087
:1025300094F845305BB2B3F1FF3F0BD0FFF77CFA64
:10254000A36B5BB12046FFF716FD70BD002384F836
:102550004430EDE7002384F84530EFE73246294662
:1025600004F1240000F068FEECE70000064B1A6856
:102570001368B3FA83F35B09036013B9D36818686F
:1025800070470020704700BFB850002008B5416078
:10259000006191420CD8D21A83699A4201D301207A
:1025A00010E0011D094B1868FFF79AF9002009E0B7
:1025B0009A4201D2994206D2011D054B1868FFF7D5
:1025C0008FF9002008BD0120FCE700BFBC500020AF
:1025D000B850002038B5FFF70DFA0F4B1B6813B148
:1025E000FFF72AFA38BD0D4D2846FFF75FF90C4C6E
:1025F0002046FFF75BF90B4B1D600B4B1C60002264
:102600000C210A20FFF741FD034B18600028E7D09A
:102610000649FFF76DFFE3E7EC500020C0500020B3
:10262000D4500020B8500020BC5000207862000830
:1026300000B583B0FFF7CEFF0D4B1B685BB10D4BB0
:1026400001930123009300234FF482720A490B483F
:1026500000F0DFFA40B94FF0100383F31188BFF3A5
:102660006F8FBFF34F8FFEE703B05DF804FB00BF31
:10267000EC500020F050002080620008492900083A
:10268000C8B130B585B015460446174A106840B346
:102690001A4601910295039405291DDC00F04EFFB6
:1026A000022811D000231A4601A90F480068FFF73D
:1026B00011FD05B030BD4FF0100383F31188BFF357
:1026C0006F8FBFF34F8FFEE70023089A01A90648DA
:1026D0000068FFF7FFFCECE7002301A9FFF7CFFD3F
:1026E000E7E70020E5E700BFEC50002070B582B0BE
:1026F0001A4B1B681A6852B3DB681E68DC68251D1C
:102700002846FFF707F9636A20469847E369012BDB
:10271000EED1A36933449E4207D263602461294607
:102720000E4B1868FFF7DCF8E2E7002100910B463A
:1027300032462046FFF7A4FF0028D9D14FF01003FE
:1027400083F31188BFF36F8FBFF34F8FFEE7044A07
:10275000106802490860136002B070BDB8500020D4
:10276000BC50002038B5054600F012FB0446074B6C
:102770001B68834205D800232B60044B1C60204655
:1027800038BDFFF7B3FF01232B60F6E7E8500020C8
:1027900070B582B005460E46144B1B68DB68DC68DA
:1027A000201DFFF7B7F8E369012B04D0636A2046C8
:1027B000984702B070BDA1692B4632462944204695
:1027C000FFF7E4FE0028F1D0002100910B462A46D5
:1027D0002046FFF755FF0028E8D14FF0100383F3A0
:1027E0001188BFF36F8FBFF34F8FFEE7B850002003
:1027F00070B582B006460C4600F0C2FA01A8FFF799
:10280000B1FF019B1BBB05460CB9B04218D22CB1DD
:10281000114B1B681C68B4FA84F464092246711BCE
:102820000E4B1868FFF778FE00F044FB88B90C4B9C
:102830004FF080521A60BFF34F8FBFF36F8F08E0E5
:1028400000F038FB29463046FFF7A2FF01E000F018
:1028500031FB02B070BD00BFBC500020EC50002026
:1028600004ED00E030B587B000231A4603A93548CF
:102870000068FFF76BFD002861D0039B002BF3DBA2
:10288000059C636913B1201DFFF744F802A8FFF708
:1028900069FF039B092BE7D801A252F823F000BF80
:1028A000C9280008C9280008C928000869280008A4
:1028B0001129000837290008C9280008C92800087C
:1028C00069280008112900080499A5690B460246E9
:1028D00029442046FFF75AFE0028C5D0636A2046E7
:1028E0009847E369012BBFD1A269002100910B46F3
:1028F000049802442046FFF7C3FE0028B4D14FF0ED
:10290000100383F31188BFF36F8FBFF34F8FFEE780
:102910000499A16131B10346024601442046FFF704
:1029200035FEA1E74FF0100383F31188BFF36F8FDB
:10293000BFF34F8FFEE72046FFF77CFA94E707B01E
:1029400030BD00BFEC50002000B583B001A8FFF7F8
:102950000DFE0199FFF74CFFFFF784FFF6E7002318
:1029600001E0013001330278A52AFAD0C3F38F00C9
:1029700070470000084B1B681B683BB1064B1B6887
:10298000DB68DB685A68054B1A607047034B4FF0F1
:10299000FF321A60704700BFF8500020AC51002091
:1029A00010B50446006BFFF745FA2046FFF742FAE0
:1029B00010BD2DE9F04781460D4617469A46089E00
:1029C000DDF824800A9C9200A521206B02F06CFAAD
:1029D000236B07F18042013A03EB820727F00707D8
:1029E0000023132B07D8E95CE21882F83410EA5C64
:1029F0000AB10133F5E7002384F84730042E00D9EB
:102A00000426E662266500256565201DFEF759FF50
:102A100004F11800FEF755FF2461C6F10506A66112
:102A20006462A565E56584F86050524649463846BB
:102A3000FEF7B8FF2060B8F1000F01D0C8F80040E1
:102A4000BDE8F08738B5002407E004EB840293006A
:102A50000E481844FEF72AFF0134042CF5D90C4D1A
:102A60002846FEF723FF0B4C2046FEF71FFF0A48BF
:102A7000FEF71CFF0948FEF719FF0948FEF716FF8D
:102A8000084B1D60084B1C6038BD00BF0051002082
:102A90008051002094510020B4510020E0510020CA
:102AA000CC510020F8500020FC50002010B5044606
:102AB000FEF7A0FF214A136801331360204B1B6807
:102AC0005BB1204B1B686BB91D4B1B68DA6AE36A6C
:102AD0009A4207D81A4B1C6004E0194B1C6013681B
:102AE000012B27D0184A136801331360A364E36AEB
:102AF00001229A401549086802430A6003EB8303E8
:102B00009A00211D12481044FEF7DEFEFEF794FFE6
:102B10000C4B1B686BB10A4B1B68DA6AE36A9A427A
:102B200007D20C4B4FF080521A60BFF34F8FBFF3A8
:102B30006F8F10BDFFF786FFD4E700BF68510020FC
:102B4000F4500020C8510020785100207C51002012
:102B50000051002004ED00E070B504460E461D4B08
:102B60001D681D4B18680430FEF7D4FE50B91A4B8F
:102B70001B68DA6A012303FA02F218490B6823EA98
:102B800002030B60B4F1FF3F13D02C44124B1B68BF
:102B90005C60A54216D8124B18680F4B19680431B7
:102BA000FEF79EFE0F4B1B68A34212D90D4B1C6013
:102BB0000FE0002EE9D0084B196804310A48FEF7EF
:102BC00083FE06E0094B1868034B19680431FEF7D1
:102BD00087FE70BDF4510020F45000207C5100208D
:102BE000F8500020AC510020CC510020FC500020B7
:102BF00010B5044602F004FA2046FDF7C9FA02E0D7
:102C00002023235401301228FAD9002323542044CE
:102C100010BD2DE9F04385B0074688461546994614
:102C20009000FFF779F8F8B106466420FFF774F8D2
:102C30000446A8B10663D4B10023039302940D9B0C
:102C400001930C9B00934B462A4641463846FFF7BA
:102C5000B0FE2046FFF72AFF012005B0BDE8F08353
:102C60003046FFF7E7F8E6E74FF0FF30F5E74FF0C3
:102C7000FF30F2E738B5D0B10546194B1B688342E7
:102C800024D0FEF7B7FE6C69FEF7D6FE154B1B6825
:102C9000A3421DD0144B1B68A3421BD0134B9C4274
:102CA0000ED0134B9C4219D074B101200FE04FF0AD
:102CB000100383F31188BFF36F8FBFF34F8FFEE7CD
:102CC000AB6A4BB9032002E0042000E0002038BDCD
:102CD0000220FCE70220FAE70220F8E70420F6E7EA
:102CE000F4500020F8500020FC500020CC5100206F
:102CF000E051002000B583B01A4B019300230093EC
:102D0000822219491948FFF784FF012807D00128BA
:102D100008D0B0F1FF3F1CD003B05DF804FBFFF713
:102D200087FCF4E74FF0100383F31188BFF36F8F34
:102D3000BFF34F8F0E4B4FF0FF321A600D4B012245
:102D40001A6000230C4A13600C4A1360FEF7E2FE7F
:102D5000E2E74FF0100383F31188BFF36F8FBFF3E7
:102D60004F8FFEE7A8510020B0620008F530000840
:102D7000AC510020C8510020F451002054620020C2
:102D8000024A136801331360704700BF745100207A
:102D9000014B1868704700BFF4510020F8B53A4B5A
:102DA0001B68002B64D1394B1D6801351D60C5B906
:102DB000374B1B681B6843B14FF0100383F3118836
:102DC000BFF36F8FBFF34F8FFEE7314A1168314B6E
:102DD000186810601960304A136801331360FFF7F8
:102DE000C9FD2E4B1B68AB4238D900242C4B1B6805
:102DF000DB6A03EB83039A002A4B9B58012B3CD9D7
:102E000001243AE00124224B1B681B6843B3204B8A
:102E10001B68DB68DE6873689D4226D3371D384621
:102E2000FEF778FDB36A1BB106F11800FEF772FDDC
:102E3000F36A01229A401C49086802430A6003EBC6
:102E400083039A00394617481044FEF73DFDF26AA5
:102E5000134B1B68DB6A9A42D4D2D4E70024D2E732
:102E60000E4B4FF0FF321A60C0E70C4A1360BDE70B
:102E70000E4A13680133136000240D4B1B6803B125
:102E800001242046F8BD00BF74510020F4510020F9
:102E9000F8500020FC500020B0510020AC51002020
:102EA000F4500020005100207C510020705100207F
:102EB000F851002038B5334B1B6843B94FF010036D
:102EC00083F31188BFF36F8FBFF34F8FFEE7FEF7D9
:102ED00091FD2C4B1A68013A1A601B68002B4DD1EA
:102EE000294B1B6823B90024FEF7A6FD204638BDF8
:102EF0000024264B1B681BB3244BDB68DC6804F101
:102F00001800FEF707FD251D2846FEF703FDE36ABE
:102F100001229A401E49086802430A6003EB8303BA
:102F20009A0029461B481044FEF7CEFCE26A1A4B71
:102F30001B68DB6A9A42DCD3184B01221A60D8E77F
:102F40000CB1FFF717FD164B1C6854B1FFF726FFB5
:102F500010B1124B01221A60013CF7D1104B002234
:102F60001A600E4B1B685BB10E4B4FF080521A601B
:102F7000BFF34F8FBFF36F8F0124B5E70024B3E792
:102F80000024B1E77451002068510020B4510020A2
:102F90007C51002000510020F4500020F851002006
:102FA0007051002004ED00E038B550B1054689B9F4
:102FB0004FF0100383F31188BFF36F8FBFF34F8F70
:102FC000FEE74FF0100383F31188BFF36F8FBFF359
:102FD0004F8FFEE71A4B1B6843B14FF0100383F38A
:102FE0001188BFF36F8FBFF34F8FFEE70C46FFF7DB
:102FF000C7FE144B18682A681444824218D9A242AA
:103000000CD82C60FFF756FF38B90F4B4FF08052A9
:103010001A60BFF34F8FBFF36F8F38BDA04201D34B
:103020002C60EFE72C600021201AFFF795FDE9E7FF
:10303000A24201D8A04201D22C60F4E72C60E1E763
:1030400074510020F451002004ED00E010B5A8B147
:1030500004460F4B1B6843B14FF0100383F31188F4
:10306000BFF36F8FBFF34F8FFEE7FFF789FE00219D
:103070002046FFF771FDFFF71DFF38B9054B4FF0F4
:1030800080521A60BFF34F8FBFF36F8F10BD00BF28
:103090007451002004ED00E0134B1B6813B310B50E
:1030A000FFF76EFE114B1C68FFF704FF24B90E4BAF
:1030B0001B68002BF4D110BDFEF79CFC0B4BDB68AA
:1030C000DC68201DFEF726FC094A1368013B1360EB
:1030D000054A1368013B1360FEF7AEFC2046FFF77C
:1030E0005FFCE4E7704700BF6C510020E051002016
:1030F0006851002008B5FFF7CFFF064B1B68012B76
:10310000F9D9054B4FF080521A60BFF34F8FBFF3D0
:103110006F8FF0E70051002004ED00E0334B1B6897
:103120001BB1334B01221A60704710B5304B00229F
:103130001A60304B1A68304B1B689A4205D92F49E8
:103140000868D31A816D0B4483652B4B1A602B4B97
:103150001B681B6B1A68B2F1A53F03D15A68B2F124
:10316000A53F1BD0254B18681968343101F0D2FBFC
:10317000234B1B68B3FA83F3DBB2C3F11F0303EBEA
:1031800083018A001F498A588AB94FF0100383F3DC
:103190001188BFF36F8FBFF34F8FFEE79A68B2F1CC
:1031A000A53FDFD1DB68B3F1A53FDBD1E0E71548F0
:1031B0009A00D418A10001444C6864684C601A4419
:1031C000910008310844844209D003EB83039A003C
:1031D0000C4B13445B68DA68084B1A6010BD6168D9
:1031E0000848142202FB03025160EEE774510020EC
:1031F000F85100205462002064510020F450002057
:103200007C5100200051002040B94FF0100383F39F
:103210001188BFF36F8FBFF34F8FFEE710B50C46D9
:10322000044B19681831FEF75BFB01212046FFF7BC
:1032300093FC10BDF450002038B540B94FF0100396
:1032400083F31188BFF36F8FBFF34F8FFEE70C46F8
:103250001546064A11681831FEF736FB0DB14FF0DE
:10326000FF3429462046FFF777FC38BDF450002094
:1032700038B5C368DC6844B94FF0100383F3118894
:10328000BFF36F8FBFF34F8FFEE704F11805284699
:10329000FEF740FB134B1B68E3B9251D2846FEF7DC
:1032A00039FBE36A01229A400F49086802430A6029
:1032B00003EB83039A0029460C481044FEF704FBF5
:1032C000E26A0B4B1B68DB6A9A4208D90120094B62
:1032D000186038BD29460848FEF7F6FAF0E70020E6
:1032E000F7E700BF745100207C51002000510020FE
:1032F000F4500020F8510020B451002030B1084AA9
:1033000012680260074A1268426070474FF010036B
:1033100083F31188BFF36F8FBFF34F8FFEE700BFBA
:10332000B0510020F451002038B550B1044689B99D
:103330004FF0100383F31188BFF36F8FBFF34F8FEC
:10334000FEE74FF0100383F31188BFF36F8FBFF3D5
:103350004F8FFEE70D46FEF74DFB114B19682B68AA
:10336000B3F1FF3F18D020680E4A1268904202D095
:1033700062688A4212D96268881A834204D801249A
:10338000FEF75AFB204638BD521A13442B602046E4
:10339000FFF7B4FF0024F3E70024F1E70124EFE78F
:1033A000F4510020B0510020014B01221A607047F7
:1033B000F85100202DE9F0410C4617461E46804684
:1033C000C8B10546256005F134036360EB6A2361EB
:1033D0002B6BE361AB6CA360237B032B0ED02B6DB7
:1033E0006361AB6DA361052E11D02673A7B90023CD
:1033F0002384BDE8F0810B4B1D68E3E7FFF7C0FCB9
:10340000AB6A0BB102232373FFF754FDE7E7404695
:10341000FFF730FC2073E9E7286BFFF7A0FA208460
:10342000E7E700BFF45000202DE9F0470C683CB3FB
:103430004B685B684B6001F108094B4507D090462B
:103440000D4607464B68D3F80CA0002410E05B68DB
:103450004B60F4E76B68DE6804EBC40399004346F5
:10346000012239443046FFF7A5FF0134B24507D0A9
:103470006B685B686B609945ECD15B686B60E9E7F2
:103480002046BDE8F0870000F8B507460C46164612
:10349000FFF776FC224B1B68A3423CD8052500248D
:1034A000013D04EBC403980005EB85029300012263
:1034B0001C4919443844FFF7B7FF0444002DEFD1ED
:1034C00004EBC4039800184B196802223844FFF734
:1034D000ABFF044404EBC4039800144B19680222A8
:1034E0003844FFF7A1FF044404EBC403980004220E
:1034F0000F493844FFF798FF044404EBC4039800D5
:1035000003220C493844FFF78FFF044426B10A4BCD
:103510001B68336000E00024FFF7CCFC2046F8BDB8
:103520006851002000510020F8500020FC5000207D
:10353000E0510020CC51002054620020054B1B6854
:1035400033B1054B1B680BB1002070470220704758
:1035500001207047C851002074510020002845D038
:1035600038B50446C26A22490968C96A8A4214D237
:103570008169002905DB1E490968C96AC1F1050195
:103580008161606902EB820291001A4A0A4490420A
:1035900004D0174A1268D26AE26238BD251D284657
:1035A000FEF7B8F990B1124B1B68DB6AE3620122A7
:1035B0009A401149086802430A6003EB83039A00AA
:1035C00029460C481044FEF77FF9E6E7E36A03EB6F
:1035D00083018A0007498A58002AE4D101229A40CF
:1035E00005490B6823EA02030B60DCE7704700BF64
:1035F000F4500020005100207C510020002849D0C8
:1036000038B50446264A1268824208D04FF01003AB
:1036100083F31188BFF36F8FBFF34F8FFEE7426DC7
:1036200042B94FF0100383F31188BFF36F8FBFF3DC
:103630004F8FFEE7013A4265C06A216D88422BD068
:1036400062BB251D2846FEF765F970B9E26A1423AE
:1036500003FB02F31349CB583BB9012303FA02F2EF
:1036600011490B6823EA02030B60236DE362C3F187
:103670000502A261012404FA03F20B49086802431F
:103680000A602946074A142000FB0320FEF71CF9B4
:10369000204638BD002070470020FAE70020F8E7F8
:1036A000F4500020005100207C510020F0B585B07E
:1036B000054600230370324B1A6803921B6803EB24
:1036C000C3039800FEF728FB002856D00446039950
:1036D0000022FFF7D9FE03900023029331E0522627
:1036E00006E0532604E0442602E0002600E04226DD
:1036F000029B03EBC3039A00224451682846FFF75C
:1037000077FA0546029B03EBC3039A002244136930
:10371000029A02EBC202910021440F8C029A02EB42
:10372000C202910021448A680192009732461549ED
:1037300001F046FC2846FCF72BFD0544029B0133B3
:103740000293029A039B9A4214D2029B03EBC30397
:103750009A002244137B013B032BC6D801A252F8E6
:1037600023F000BFDF360008EF360008E33600081C
:10377000E73600082046FEF75DFB05B0F0BD00BF50
:1037800068510020A062000870B584B00446002390
:1037900003702A4B1A6803921B6803EBC30398005B
:1037A000FEF7BAFA002847D00546039901AAFFF7A9
:1037B0006BFE0390019B224AA2FB03235B0901934A
:1037C000002B36D0002302930FE0029B03EBC303D0
:1037D0009A002A4492691B4901F0F2FB2046FCF74B
:1037E000D7FC0444029B01330293029A039B9A4242
:1037F0001FD2029B03EBC3039A002A449669019BE4
:10380000B6FBF3F6029B03EBC3039A002A4451680C
:103810002046FFF7EDF90446002ED6D0029B03EBBD
:10382000C3039A002A4433469269074901F0C8FB52
:10383000D4E72846FEF7FEFA04B070BD68510020B8
:103840001F85EB519462000888620008054B1B68D5
:1038500023B1044B1A68536D01335365014B18684B
:10386000704700BFF4500020044B9B6813F0010F19
:1038700001D1002070470120704700BF00080140BF
:103880000B4A00239372D3721BB10A4B0A4A1A6087
:103890007047084A02EB0312642111810221117161
:1038A00000219172D17211730133DBB2ECE700BFDA
:1038B0000C520020FC5100206938000800B583B08C
:1038C00001210420FDF744FE02238DF80630282351
:1038D0008DF8073002A9012321F8043D0248FDF7C5
:1038E00045FD03B05DF804FB0008014008B5FFF793
:1038F000C7FFFFF7E3FF08BD032809D004280CD059
:10390000022800D07047074B4FF400521A617047ED
:10391000044B4FF480421A617047024B4FF400424F
:103920001A61EFE70010014030B583B0012110208B
:10393000FDF70EFE01211020FDF70AFE01211020E7
:10394000FDF706FE0220FFF7D7FF0320FFF7D4FFA5
:103950000420FFF7D1FF02238DF8063010238DF8E5
:10396000073002AC4FF4005324F8043D0B4D2146C0
:103970002846FDF7FBFC4FF48043ADF804302146A8
:103980002846FDF7F3FC4FF40043ADF80430214620
:103990002846FDF7EBFC03B030BD00BF001001402E
:1039A00003280AD004280ED0022800D07047094A04
:1039B000D36883F40053D3607047064AD36883F416
:1039C0008043D3607047034AD36883F40043D360D5
:1039D000ECE700BF001001402C4B984234D003F5B7
:1039E0000063984233D003F5C053984232D003F5B8
:1039F0008063984231D003F58063984230D0B0F1B3
:103A0000804F30D0A3F5A83398422ED003F58063C1
:103A100098422CD003F5806398422AD003F5806346
:103A2000984228D003F58063984226D003F580633E
:103A3000984224D003F58063984222D003F5806336
:103A4000984220D0002070474FF4006070474FF438
:103A5000005070474FF4002070474FF480107047BB
:103A60004FF4001070470120704702207047042077
:103A70007047082070471020704720207047402072
:103A80007047802070474FF480707047002C0140D1
:103A9000F0B587B004460F4616461D46694B98425E
:103AA00009D003F50063984205D0FFF795FF012187
:103AB000FDF75CFD05E02046FFF78EFF0121FDF7D5
:103AC00047FD002F4AD0604B1B685A08632F00F255
:103AD00085805E4AA2FB03239B0BB3FBF7F39BB2EB
:103AE000013B9BB242F20F720493ADF80820002311
:103AF000ADF8143003938DF8163002A92046FDF777
:103B000043FD01212046FDF79CFD01221146204680
:103B1000FDF78DFD01212046FDF77CFD494B9C42C0
:103B200072D0B4F1804F7ED0A3F594339C427CD008
:103B300003F580639C427AD003F580639C4278D081
:103B400003F580639C4276D003F580639C4274D079
:103B500003F590339C4272D0002356E000212046AA
:103B6000FDF758FD374B9C421CD0B4F1804F27D055
:103B7000A3F594339C4225D003F580639C4223D067
:103B800003F580639C4221D003F580639C421FD0E3
:103B900003F580639C421DD003F590339C421BD0FB
:103BA000002300E019238DF804308DF805608DF8AE
:103BB000065000238DF8073001A8FDF743FE30E0E2
:103BC0001C23F0E71D23EEE71E23ECE73223EAE790
:103BD0003623E8E73723E6E72C23E4E740F6B7315E
:103BE0008F420AD81A4AA2FB03239B09B3FBF7F3BF
:103BF0009BB2013B9BB2632276E7B2FBF7F39BB229
:103C0000013B9BB200226FE719238DF804308DF839
:103C100005608DF8065001238DF8073001A8FDF7E7
:103C200011FE07B0F0BD1C23EFE71D23EDE71E23B7
:103C3000EBE73223E9E73623E7E73723E5E72C23F1
:103C4000E3E700BF002C0140000000205917B7D166
:103C50001F85EB5130B587B001210220FDF786FCAE
:103C6000164B1B68164AA2FB0323DB0C4FF47A7237
:103C70000492013BADF808300024ADF814400394E1
:103C8000104D02A92846FDF77FFC01212846FDF7CB
:103C9000D8FC01212846FDF7BDFC1D238DF804301A
:103CA00004238DF805308DF8064001238DF8073088
:103CB00001A8FDF7C7FD07B030BD00BF0000002020
:103CC00083DE1B430004004070B505460C461646D3
:103CD000042900D94C1F2648FDF7C8FC2118012DE6
:103CE00006D0022D14D0032D22D0042D30D070BD6B
:103CF000204B1E601E4C2046FDF7B0FC02212046E2
:103D0000FDF7C2FC012202212046FDF790FCEEE700
:103D1000194B1E60164C2046FDF7A2FC04212046DC
:103D2000FDF7B2FC012204212046FDF780FCDEE70E
:103D3000124B1E600E4C2046FDF794FC08212046D5
:103D4000FDF7A2FC012208212046FDF770FCCEE71A
:103D50000B4B1E60064C2046FDF786FC10212046CA
:103D6000FDF792FC012210212046FDF760FCBEE722
:103D7000000400401C520020205200202452002049
:103D80002852002010B502212548FDF771FC78B9B2
:103D900004212348FDF76CFCC0B908212048FDF739
:103DA00067FC08BB10211E48FDF762FC50BB10BD2C
:103DB0001B4C02212046FDF767FC00220221204611
:103DC000FDF735FC174B1B689847E1E7144C0421BD
:103DD0002046FDF759FC002204212046FDF727FC70
:103DE000114B1B689847D8E70D4C08212046FDF77A
:103DF0004BFC002208212046FDF719FC0B4B1B68E9
:103E00009847CFE7064C10212046FDF73DFC0022E5
:103E100010212046FDF70BFC054B1B689847C6E7B1
:103E2000000400401C520020205200202452002098
:103E3000285200200A4B0B4A1A600B4A5A600B4A60
:103E40009A604FF400629A81DA8100221A825A82C3
:103E5000DA821A835A839A82DA611A625A62704746
:103E60002C620020004400402C5A00202C520020DC
:103E700008B54FF4E130FDF78DF940210148FDF719
:103E8000AFFC08BD0044004000B583B026238DF888
:103E9000043001238DF8053000228DF806208DF8BE
:103EA000073001A8FDF7CEFC03B05DF804FB70B548
:103EB00004460E46FDF79EFD658BADB2FDF7BCFDD9
:103EC0000DB9002070BDA268238B9BB2D35C337008
:103ED000FDF790FD238B01339BB22383E28993424C
:103EE00001D300232383638B013B9BB26383FDF7E4
:103EF000A3FD0120E6E7F0B583B004460F46164661
:103F0000002507E0A38A01339BB2A382FDF794FD4D
:103F10000135ADB2B5421ED2FDF76CFDA38A9BB24E
:103F2000ADF80630FDF788FDA289BDF806309BB2DA
:103F30009A42F1D96268238A9BB2795DD154FDF728
:103F400059FD238A01339BB22382A2899342D9D39C
:103F500000232382D6E7012240F227712068FDF773
:103F600013FC03B0F0BD10B5044640F225510068C3
:103F7000FDF73AFCF8B940F227712068FDF734FCF0
:103F8000002843D0A38A9BB2002B32D06268638A98
:103F90009BB2D15C2068FDF714FC638A01339BB2AD
:103FA0006382A289934201D300236382A38A013BE7
:103FB0009BB2A38210BD2068FDF707FCC0B2A268C7
:103FC000E38A9BB2D054E38A01339BB2E382E28955
:103FD000934201D30023E382638B9BB29A4203D9BD
:103FE000638B01339BB26383636A002BC3D0984712
:103FF000C1E7002240F227712068FDF7C5FB0122CE
:1040000040F226612068FDF7BFFBD3E740F226614E
:104010002068FDF7E9FB0028CCD0A38A9BB253B9F6
:10402000002240F226612068FDF7AEFB236A002BD8
:10403000C0D09847BEE76268638A9BB2D15C2068B3
:10404000FDF7BFFB638A01339BB26382A28993426F
:1040500001D300236382A38A013B9BB2A382A9E719
:1040600008B5FFF7E7FEFFF703FFFFF70DFF08BDF9
:1040700008B9024870470020704700BF2C6200203A
:1040800070B50D461646FFF7F3FF40B10446C3690D
:1040900003B19847324629462046FFF72CFF70BDF2
:1040A00010B50C46FFF7E4FF18B12146FFF7FFFEFD
:1040B00010BD0020FCE708B5FFF7DAFF18B10022B9
:1040C000C2820283428308BD08B50248FFF74BFF56
:1040D00008BD00BF2C62002008B54FF44070FDF70A
:1040E000A7FBFFF7BDFFFFF71FFCFFF7FFFBFFF785
:1040F000B1FD08BD7047000000220AE0064B995C44
:10410000064B9980054B1B8813F0400FFAD0013203
:10411000D2B2292AF2D9FEE7B8620008003801407D
:10412000FEE7FEE7FEE7704708B50023012244F6EC
:1041300020610248FFF7ACFC08BD00BF0010004042
:1041400008B501210648FDF793FA00B908BD054AF4
:1041500013680133136001210148FDF795FAF5E773
:10416000001000405462002043680B7043681B0A33
:104170004B70C3888B70C379CB7083680B71836875
:104180001B0A4B7143898B71C37ACB71082070472E
:104190000B7843604A7843EA022343608A7843EA13
:1041A00002434360CA7843EA026343600B79836049
:1041B0004A7943EA022383608A7943EA02438360AF
:1041C000CA7943EA02638360082070470048704759
:1041D0007C660008004870475866000870B40B7889
:1041E00083804A7843EA02238380D1F80250062371
:1041F000AA1D9A4204D95A1ECC5C8C540133F7E7AD
:10420000053500234B554B1D83608E58141D2346E6
:1042100032199A4204D95A1ECD5C8D540133F7E706
:10422000531E0025CD54013C0C44C4608E5804320A
:104230001346B4189C4204D95C1ECD5C0D55013365
:10424000F7E7631E0025CD54013A0A4402610B5D75
:10425000621C8A5C43EA0223A21C8A5C43EA024392
:10426000E21C8A5C43EA02634361201D70BC704714
:1042700000487047E465000800487047C0650008C2
:1042800030B40B780371D1F8015005236A1D9A42AE
:1042900004D95A1ECC5C8C540133F7E70435002353
:1042A0004B5504318160104630BC70470048704760
:1042B000AC650008004870478865000800487047F2
:1042C000006600080048704764650008012800D0B7
:1042D00070474FF6FF739942FAD1204A204B136082
:1042E000002382F854341F49C2F86814042B07D8FD
:1042F00003F58371194A002042F821000133F5E7E4
:104300000023042B08D803F58571144A02EB8102BF
:10431000002151600133F4E70023B3F5007F05D29B
:104320000E4A1A44002111760133F6E70023B3F553
:10433000007F06D2094A1A44002182F8181201337C
:10434000F5E7064B002283F86C24C3F8742483F845
:104350007824C3F880245A61BAE700BF686200205D
:104360004C6300083463000890F854047047000060
:1043700000B583B0164B01930223009300234FF442
:10438000007214491448FEF744FC012800D0FEE7EF
:10439000124B01930323009300234FF40072104942
:1043A0001048FEF736FC012800D0FEE70E4B0193C3
:1043B0000423009300234FF400720C490C48FEF7CD
:1043C00028FC012800D0FEE703B05DF804FB00BF25
:1043D0005862002080630008E948000860620020FD
:1043E0008C630008F5470008646200209C630008A5
:1043F000DD47000808B50420FFF7D2FA014800F0B5
:10440000CFFD08BDC063000808B50320FFF7C8FA58
:10441000014800F0C5FD08BDB063000808B50120E3
:10442000FDF722FF034B186000B108BD024800F001
:10443000B7FDFAE75C6200205C6300082DE9F041FB
:1044400006460C4683880B7083881B0A4B70806875
:10445000FBF79EFE0746C4F802000246B168A01DA5
:1044600000F017FD07F10608F068FBF791FE05461E
:1044700044F808000A370246F168E01900F009FD27
:104480002F443069FBF784FE0546E05104370246AD
:104490003169E01900F0FDFCE81973692354190A29
:1044A000421CA154190C821CA1541B0EC21CA35403
:1044B0000430BDE8F08170B506460D4603790B70F7
:1044C0008068FBF765FE0446C5F801000246B16846
:1044D000681D00F0DEFC601D70BD2DE9F041054651
:1044E0000C4603790B7000224A708A70CA7004234C
:1044F0002979914210D9E96851F82210E1540E0A45
:10450000581C26540E0C981C2654090ED81C2154F5
:1045100004330132D2B2EBE7591C2A7CE254981CD6
:1045200000226254D91C225404336254297C9142E3
:1045300010D9A96951F82210E1540E0A581C2654CA
:104540000E0C981C2654090ED81C21540433013239
:10455000D2B2EBE75A1C297FE154991C4FF00008B6
:1045600004F80280DA1C04F801801E1D04F80280A1
:104570002B7F434514D96B6A53F82800FBF708FEDC
:104580000746A05104366B6A024653F82810A0195A
:1045900000F07FFC3E4408F101085FFA88F8E7E785
:1045A0003046BDE8F081F8B506460D460C78037933
:1045B000A3421AD3347100220424337993421AD9C6
:1045C0002B5D611C695C43EA0123A11C695C43EA21
:1045D0000143E11C695C43EA0163B3600434F168A0
:1045E00041F822300132D2B2E7E7A100C06800F002
:1045F000DFFCF060DEE72F5D337CBB421AD304346E
:1046000037740022337C93421AD92B5D611C695C9C
:1046100043EA0123A11C695C43EA0143E11C695C94
:1046200043EA016373610434B16941F82230013215
:10463000D2B2E7E7B900B06900F0BAFCB061DEE7DA
:104640002F5D337FBB4204D3201D37774FF0000C22
:1046500012E0B900706A00F0ABFC7062F4E7431E30
:104660000022EA54013C2C443462736A43F82C4023
:104670000CF1010C5FFA8CFC337F63450AD92F588B
:10468000041D234638199842E9D95A1EE95CA954F9
:104690000133F7E7F8BD000030B585B0632903DDCD
:1046A00090F85434002B51D00D46044613681B6813
:1046B00000F21F2110469847FF2384F81832FE238A
:1046C00084F81932C3B284F81A32C0F3072284F88E
:1046D0001B221344DBB2DB4384F81C3284F81D52E6
:1046E00045F3072184F81E1205230022C11D9942BB
:1046F00005DDE11891F818120A440133F6E7534238
:10470000D2B2DBB258BF5A4200F10805D24321446D
:1047100081F81822B5F5007F08DCAAB204F506710D
:104720000020FFF7ADFC284605B030BD084B0193D3
:1047300003238DF80830074B039323681B6801AAF5
:104740000721204698474FF0FF35ECE70025EAE7C0
:104750001C6300081C66000808B5012383F3108859
:10476000FFF7BAFC094B0022C3F84024C3F84424E5
:10477000C3F84C24C3F84824FFF7D6FCFFF7F8FD34
:10478000FFF74CFEFEF7B6FAFEE700BF68620020B6
:104790000FB410B5B4B036AB53F8042B0093C92155
:1047A00001A800F061FC0B4C00234FF0FF321946CA
:1047B0002068FDF7CBFD01A9074800F07DFB002331
:1047C0001A4619462068FDF785FC34B0BDE8104054
:1047D00004B070475C6200205863000808B54FF4CD
:1047E0007A70FEF733FC0248FFF7D2FFF7E700BF0D
:1047F0004465000810B5FEB0FF238DF8F7312E4850
:10480000FFF7C6FF2D48FFF7C3FF2D48FFF7C0FF96
:1048100026E02C48FFF7BCFF2B48FFF7B9FF68469E
:10482000FEF744FF294C69462046FFF7B1FF2848B0
:10483000FFF7AEFF2748FFF7ABFF2748FFF7A8FFBA
:104840006846FEF7A1FF69462046FFF7A1FF9DF8E5
:10485000F731313BDBB2022B1ED96420FEF7F6FBA9
:104860000DF2F7110020FFF71BFC9DF8F731322BFA
:1048700004D0332B09D0312BE9D1CAE7174A4CF2C7
:1048800050310120FFF720FAE1E7154A4CF2503190
:104890000220FFF719FADAE71248FFF779FF074815
:1048A000FFF776FF0648FFF773FF0020FFF703FCD2
:1048B000FF238DF8F731D0E7D0630008F8630008D4
:1048C000186400083864000870640008A8640008D0
:1048D000AC620008B0640008E864000809440008FD
:1048E000F54300082065000800B583B0FEF750FAD4
:1048F00001900220FFF754F84FF47A7101A8FEF7F7
:1049000053FB01990148FFF743FFF2E75C6500089C
:10491000FEE7000008B50248FFF73AFF08BD00BFF8
:104920008C660008F0B587B004462E4B0093002536
:1049300000E00135042D24DC05F5837354F82330A1
:10494000002BF6D09A68ADF804201A6802925868D5
:1049500003689B689847039005F5837654F82630E2
:1049600058680368DB68984704904FF40073059318
:1049700054F8261023681B686A4609692046984740
:10498000D7E7002500E00135042D26DC05F5857309
:1049900004EB830358680028F5D04368ADF8043071
:1049A0008368029303689B689847039005F58576B2
:1049B00004EB860670680368DB68984704904FF440
:1049C0000073059323681F68706803685B689847E5
:1049D0006A4601462046B847D5E7012384F8543497
:1049E00007B0F0BD046300082DE9F04385B004462C
:1049F000FEF7CEF90546D4F85C34C31A42F6F82225
:104A0000934202D9002384F85434D4F8403433B3A9
:104A1000D4F86034AB4222D20023C4F840341EE004
:104A200094F85434002B00F0E881D4F85834EB1A91
:104A300040F6C412934200F2CC810020DDE1D4F8AC
:104A40004C345A1CC4F84C2423441976D4F844340A
:104A5000013BC4F8443413B90823C4F840346369F3
:104A600033B1FEF795F9401B6369984200F2C381A8
:104A700001A90020FFF714FB0028D1D09DF80410F5
:104A8000D4F850240A44C4F85024D4F84034072BF6
:104A9000D5D0B3B9FF2907D10133C4F8403405F1AB
:104AA0001403C4F86034DAE7FEF772F9401B41F2F0
:104AB00088339842D3D9002384F854346FF001002E
:104AC0009BE1012B35D0022B4FD0032B58D0042B68
:104AD00060D0052B6DD0062B73D0082BBFD10023DF
:104AE000C4F840349B1AD2B2DBB258BF5A42FF2AF4
:104AF000B5D1D4F84834002B75D00A2B00F08B8048
:104B0000062B00F0CD800B2B00F05F81A3F1640237
:104B1000A63304EB830359680029A0D002F58573FE
:104B200004EB83030A68126804F11801586890477F
:104B300095E7FE2915D00023C4F8403494F8543486
:104B4000002B8CD1AE4B0193002302930393236877
:104B50001B6801AA0A2120469847FEF719F9A060B0
:104B60007DE70133C4F8403479E7C4F844140022E7
:104B7000C4F84C240133C4F84034C4F850146EE730
:104B8000D4F8442402EB0121C4F844140133C4F8DE
:104B9000403464E75142D2B2C9B258BF4A42FF2AF8
:104BA00003D00023C4F8403459E70133C4F840343B
:104BB00055E7C4F848140133C4F84034C4F850141D
:104BC0004DE7D4F8483403EB0123C4F848340723F5
:104BD000C4F84034D4F84434002B7FF440AF0823A9
:104BE000C4F840343BE7864B0193002302930393C0
:104BF00023681B6801AA0A2120469847FEF7C8F8D7
:104C0000A0602046FFF78EFEC4F85854C4F85C54E8
:104C10004FF0FF30F1E004F11806FEF7B9F8A36891
:104C2000C01A227E3346717842EA0122B17842EA04
:104C30000142F17842EA01613279767942EA06224C
:104C40009E7942EA0642DB7942EA03626D4EA6FB98
:104C500000739B09194402914FF47A7808FB1303FF
:104C6000694F07FB03230393FEF792F8A6FB00238B
:104C70009B09029AD21A013AE26008FB1303039AD5
:104C800007FB1323614A1A44214641F8102F04F10F
:104C90000C0000F0C5F8FEF77BF8C4F85C04DEE613
:104CA00004F58D6804F11807267E98F804309E42BA
:104CB0001ED888F804600022042698F80430934235
:104CC0001ED9BB5D711C795C43EA0123B11C795C80
:104CD00043EA0143F11C795C43EA0163C8F80830F8
:104CE0000436D8F80C1041F822300132D2B2E4E791
:104CF000B100D8F80C0000F05BF9C8F80C00D8E758
:104D000017F8069098F8103099451ED8043688F8A0
:104D10001090002298F8103093421FD9BB5D711C8F
:104D2000795C43EA0123B11C795C43EA0143F11C3D
:104D3000795C43EA0163C8F814300436D8F81810D7
:104D400041F822300132D2B2E4E74FEA8901D8F8C3
:104D5000180000F02DF9C8F81800D7E717F80690EA
:104D600098F81C30994505D8321D88F81C904FF0F2
:104D7000000C17E04FEA8901D8F8240000F018F978
:104D8000C8F82400F0E7531E0021F954731E3B4479
:104D9000C8F82030D8F8241041F82C300CF1010C60
:104DA0005FFA8CFC98F81C3063450AD9B858161D78
:104DB000334682199A42E6D95A1EF95CB954013336
:104DC000F7E7012384F8643449E6002384F8543477
:104DD00045E60B4B019300260296039623681B6859
:104DE00001AA0A2120469847FDF7D2FFA060C4F827
:104DF0005854304601E06FF0010005B0BDE8F08383
:104E0000EC620008D34D621040420F0000CA9A3B8A
:104E100008B54FF6FF710120FFF758FA08BD0000F2
:104E200030B40C68630A074AA2FB0323DA09064D73
:104E300005FB1242046804EBD31303600A6030BC24
:104E4000704700BF834B040000CA9A3B002103E077
:104E50000A4B5B584350043109480A4B42189A42A6
:104E6000F6D3094A02E0002342F8043B074B9A427A
:104E7000F9D3FCF745FAFFF76FFC70470C6900089F
:104E8000000000207C0000207C00002048670020FB
:104E9000FEE710B5431E0A44914200D110BD11F83F
:104EA000014B03F8014FF7E702440346934200D158
:104EB000704703F8011BF9E70FB40A4B13B51C68E0
:104EC00024B1A36913B9204600F08CFA05AB049A0B
:104ED000A1680193204600F0BDFD02B0BDE810407E
:104EE00004B070471800002070B50E46054618B192
:104EF00083690BB900F076FAAB69AC6813B9284640
:104F000000F070FA234B9C4217D16C68A3891B07F1
:104F10001DD52369DBB1013EA36816F8011F013BD3
:104F2000A360E9B9002B2EDA22460A21284600F0B8
:104F3000A9F8013011D00A2011E0174B9C4201D191
:104F4000AC68E3E7154B9C4208BFEC68DEE72146FE
:104F5000284600F0E9F80028DDD04FF0FF3070BDA2
:104F6000002B04DAA2699A4206DC0A2904D02368DD
:104F70005A1C22601970CFE72246284600F082F8BA
:104F80000130C9D1E9E723680A205A1C2260187051
:104F9000E5E700BFD0660008F0660008B0660008CC
:104FA000024B01461868FFF79FBF00BF18000020A2
:104FB000024B0A460146186800F0AABB1800002000
:104FC0000EB400B59CB01DAB029006906FF000418E
:104FD000094807910491094953F8042B0591006889
:104FE000019302A900F014FC029B00221A701CB06D
:104FF0005DF804EB03B07047180000200802FFFFC3
:10500000034611F8012B03F8012B002AF9D1704750
:1050100030B5141E05469BB0184605DA8B232B606D
:105020004FF0FF301BB030BD4FF40273ADF80C30C1
:1050300014BF04F1FF332346029305934FF6FF7329
:1050400000910491ADF80E3002461E9B6946284639
:1050500000F0DEFB431CBCBF8B232B60002CE1D097
:10506000009B00221A70DDE707B5009313460A463D
:10507000014603480068FFF7CBFF03B05DF804FB6F
:1050800018000020F8B50E461446054618B183698D
:105090000BB900F0A7F9214B9C422AD16C68A36997
:1050A000A360A3891A072ED5236963B323692068F7
:1050B000C01A6369F6B28342374604DC21462846AB
:1050C00000F026F928BBA368013BA36023685A1CA3
:1050D00022601E7063690130834204D0A389DB071C
:1050E00019D50A2E17D12146284600F011F990B1A2
:1050F0000FE00B4B9C4201D1AC68D0E7094B9C42BE
:1051000008BFEC68CBE72146284600F00DF80028E0
:10511000CCD04FF0FF373846F8BD00BFD06600084E
:10512000F0660008B0660008324B70B51D68064690
:105130000C4625B1AB6913B9284600F053F92E4B44
:105140009C420FD16C68B4F90C309AB215072CD47C
:10515000D00611D40922326043F04003A3814FF0FE
:10516000FF303EE0254B9C4201D1AC68EBE7244B7D
:105170009C4208BFEC68E6E7510712D5616B41B16C
:1051800004F14403994202D0304600F019FA00239A
:105190006363A38923F02403A3810023636023694D
:1051A0002360A38943F00803A38123694BB9A38932
:1051B00003F42073B3F5007F03D02146304600F09E
:1051C000BFF9A28912F001030CD00023A360636928
:1051D0005B42A361236953B9B4F90C3013F080002A
:1051E000BAD170BD920758BF6369A360F2E700208F
:1051F000F7E700BF18000020D0660008F06600083E
:10520000B06600088A892DE9F041054610070C4672
:1052100058D44B68002B05DC0B6C002B02DC002003
:10522000BDE8F081E66A002EF9D0002312F4805226
:105230002F68216A2B6032D0606DA3895A0705D58B
:105240006368C01A636B0BB1236CC01A002302465B
:10525000E66A216A2846B047431CA38906D129681B
:105260001D2948D8294ACA40D60744D50022626081
:10527000D9042269226004D5421C01D12B6803B9EC
:105280006065616B2F600029C9D004F14403994225
:1052900002D0284600F094F900206063C0E70123A3
:1052A0002846B047411CC8D12B68002BC5D01D2B08
:1052B00001D0162B01D12F60B1E7A38943F0400341
:1052C000A381ADE70F69002FA9D093070E6808BF2F
:1052D0004B690F6018BF0023A6EB07088B60B8F17D
:1052E000000F9CDD43463A46216AA66A2846B0472D
:1052F000002806DCA38943F04003A3814FF0FF3070
:105300008EE70744A8EB0008E9E700BF0100402052
:1053100038B50B6905460C46DBB118B183690BB98A
:1053200000F060F80C4B9C4209D16C68B4F90C3069
:105330007BB121462846BDE83840FFF763BF074BE5
:105340009C4201D1AC68F1E7054B9C4208BFEC6878
:10535000ECE7002038BD00BFD0660008F06600080A
:10536000B0660008002310B50446C0E9003383602E
:1053700081814366C281C0E90433836119460822F2
:105380005C30FFF791FD054B6362054BA362054B53
:10539000E362054B2462236310BD00BFB15F0008C8
:1053A000D35F00080B6000082F600008014900F07F
:1053B00085B800BF1153000870B54A1E68255543D3
:1053C0000E4605F1740100F049F9044640B1002190
:1053D000C0E900160C30A06005F16802FFF764FD1B
:1053E000204670BD836910B5044633BBC0E9123353
:1053F0000365124B124A1B688262984204BF012364
:10540000836100F01FF86060204600F01BF8A06088
:10541000204600F017F80022E06004216068FFF7E2
:10542000A1FF01220921A068FFF79CFF022212219F
:10543000E068FFF797FF0123A36110BDAC66000889
:10544000AD530008F8B51B4B1E68B369074613B986
:105450003046FFF7C7FF4836D6E90134013B03D594
:10546000336833B13668F7E7B4F90C506DB168347E
:10547000F4E704213846FFF79FFF30600028F1D1A0
:105480000C233B6004462046F8BD0B4B6566C4E91F
:105490000055A560C4E90335C4E90555082229462D
:1054A00004F15C00FFF700FDC4E90D55C4E9125595
:1054B000E9E700BFAC6600080100FFFF2DE9F843F3
:1054C0008046894600F14804002614B93046BDE8FC
:1054D000F883D4E90175013F01D52468F5E7AB896C
:1054E000012B07D9B5F90E30013303D029464046C8
:1054F000C84706436835EEE770B50E46B1F90E10A1
:10550000002996B014461D4607DA00232B60B389A4
:105510001A0610D44FF480630EE06A4600F0AEFD28
:105520000028F2DB019A02F47042A2F500535A42BD
:105530005A412A60EEE740230020236016B070BD78
:105540008B8973B59D0706460C4607D504F14703C2
:10555000236023610123636102B070BD01AB6A4621
:10556000FFF7CAFF00990546304600F077F848B9C2
:10557000B4F90C309A05EFD423F0030343F002038F
:10558000A381E3E70D4BB362A389206043F080035E
:10559000A381009B6361019B20615BB1B4F90E1094
:1055A000304600F07DFD28B1A38923F0030343F0CA
:1055B0000103A381A3891D43A581CDE7AD53000855
:1055C00038B50546002945D051F8043C0C1F002B86
:1055D000B8BFE41800F09FFD1F4A1368104633B9A6
:1055E000636014602846BDE8384000F095BDA342D2
:1055F0000CD921686218934204BF1A685B68636023
:1056000004BF521822600460ECE713465A680AB1DE
:10561000A242FAD919685818A0420BD12068014457
:10562000581882421960DDD1106852685A600144EE
:105630001960D7E702D90C232B60D3E72068211823
:105640008A4204BF11685268626004BF0918216071
:105650005C60C7E738BD00BFF866002070B5CD1CA0
:1056600025F0030508350C2D38BF0C25002D064606
:1056700001DBA94203D90C233360002070BD00F088
:105680004AFD214A1468214691B9204C23681BB970
:10569000304600F07DFC20602946304600F078FC62
:1056A000431C24D10C233360304600F035FDE4E781
:1056B0000B685B1B18D40B2B0FD90B60CD50CC188B
:1056C000304600F029FD04F10B00231D20F00700F7
:1056D000C31AD3D05A42E250D0E78C424B6816BF6F
:1056E000636013600C46EBE70C464968CCE7C41CCA
:1056F00024F00304A04205D0211A304600F048FCF3
:105700000130CFD02560DBE7F8660020FC66002082
:10571000F8B5074614460E4621B91146BDE8F840D3
:10572000FFF79CBF22B9FFF74BFF25462846F8BD7F
:1057300000F0F3FCA0420FD221463846FFF78EFF5F
:1057400005460028F2D031462246FFF7A2FB31463B
:105750003846FFF735FFE9E73546E7E72DE9F0473B
:105760008E689E4282460C469046994637D88A8972
:1057700012F4906F31D0256809696F1A65690223A8
:1057800005EB450595FBF3F509F101033B449D420B
:1057900038BF1D46530530D52946FFF75FFF064643
:1057A00050B90C23CAF80030A38943F04003A38109
:1057B0004FF0FF30BDE8F0873A462169FFF769FBFB
:1057C000A38923F4906343F08003A381266165617C
:1057D0003E44ED1B2660A5604E464E4500D94E4620
:1057E00032464146206800F07DFCA3689B1BA36005
:1057F00023681E4426600020DCE72A46FFF788FF66
:1058000006460028E2D121695046FFF7D9FEC8E7D5
:105810002DE9F04F1D468B891F069DB080460C4632
:1058200016460FD50B696BB94021FFF717FF2060B3
:10583000206128B90C23C8F800304FF0FF30C8E0D1
:10584000402363610023099320238DF829303023FE
:105850008DF82A3003954FF0010B37463D4615F879
:10586000013B0BB1252B3ED1B7EB060A0BD05346BB
:10587000324621464046FFF771FF013000F0A48018
:10588000099B534409933B78002B00F09D80002333
:105890004FF0FF32CDE90523049307938DF8533081
:1058A0001A932F46052217F8011B5048FAF778FC87
:1058B000049BD0B9D90644BF20228DF853201A0783
:1058C00044BF2B228DF853202A782A2A15D0079A14
:1058D0002F4600200A25394611F8013B303B092BA1
:1058E0004DD9B8B10FE02F46B8E7404A801A0BFAFD
:1058F00000F0184304903D46D3E7039A111D126847
:105900000391002A01DB079204E0524243F00203B4
:10591000079204933B782E2B0CD17B782A2B33D122
:10592000039B1A1D1B680392002BB8BF4FF0FF3377
:10593000023705932E4D397803222846FAF730FCBA
:1059400038B14023401B03FA00F0049B03430137A6
:105950000493397827488DF8281006227E1CFAF720
:105960001FFC002838D0244B13BB039B073323F0C4
:10597000070308330393099B4B4409936DE705FB29
:10598000023201200F46A6E700230137059319468E
:105990000A25384610F8012B303A092A03D9002B82
:1059A000C8D00591C6E705FB012101230746F0E7B2
:1059B00003AB00932246114B04A94046AFF300808D
:1059C000B0F1FF3F8146D6D1A3895B063FF535AFE5
:1059D00009981DB0BDE8F08F03AB00932246074B3A
:1059E00004A9404600F0C2F9EAE700BF10670008CA
:1059F000166700081A670008000000005D570008DD
:105A00009368013B002B10B4936008DA9469A342B9
:105A100001DB0A2903D15DF8044BFFF733BB1368A0
:105A2000581C1060197008465DF8044B7047F8B5B3
:105A300006460F461446D518AC4201D1002007E0B7
:105A40003A4614F8011B3046FFF7DAFF431CF3D146
:105A5000F8BD00002DE9F04F0C469DB017461D46DD
:105A6000064618B183690BB9FFF7BCFC7C4B9C421E
:105A700058D17468A38918075ED52369002B5BD0C1
:105A80000023099320238DF8293030238DF82A3004
:105A900003954FF0010BB846454615F8013B0BB195
:105AA000252B54D1B8EB070A0BD053463A46214672
:105AB0003046FFF7BCFF013000F0C280099B534421
:105AC000099398F80030002B00F0BA8000234FF0C3
:105AD000FF32CDE90523049307938DF853301A93D1
