:020000040800F2
:1000000000C00020E5110008C5020008C702000872
:10001000C9020008CB020008CD0200080000000061
:10002000000000000000000000000000CF020008F7
:10003000D102000800000000D3020008D502000829
:1000400029120008291200082912000829120008A4
:100050002912000829120008291200082912000894
:100060002912000829120008291200082912000884
:100070002912000829120008291200082912000874
:100080002912000829120008291200082912000864
:100090002912000829120008291200082912000854
:1000A0002912000829120008291200082912000844
:1000B0002912000829120008291200082912000834
:1000C0002912000829120008291200082912000824
:1000D0002912000829120008291200082912000814
:1000E0002912000829120008291200082912000804
:1000F00029120008291200082912000829120008F4
:1001000029120008291200082912000829120008E3
:1001100029120008291200082912000829120008D3
:1001200029120008291200082912000829120008C3
:1001300029120008291200082912000829120008B3
:1001400029120008291200082912000829120008A3
:1001500010B5054C237833B9044B13B10448AFF301
:1001600000800123237010BD240000200000000047
:100170005012000808B5034B1BB103490348AFF305
:10018000008008BD00000000280000205012000878
:1001900000B587B00C4B9A6942F004029A619B69E2
:1001A00003F004030193019B002304932023029393
:1001B000012303930223059302A9044800F01EFEC5
:1001C00007B05DF804FB00BF0010024000080140CA
:1001D00008B50848084B03604FF4E133436000233F
:1001E0008360C36003610C2242618361C36100F0DC
:1001F000CEF908BD400000200044004000B583B0A7
:100200004FF47A7301220DF10701064800F05EFAFF
:10021000012804D09DF8070003B05DF804FB4FF0FF
:10022000FF30F9E74000002008B54FF47A738AB236
:100230000146024800F0DAF908BD00BF4000002086
:1002400010B590B02422002107A800F0EEFF002492
:1002500001940294039404940594022306930123C9
:100260000A9310230B9306A800F0EEFA0F230193D4
:100270000294039404940594214601A800F004FD1F
:1002800010B010BD08B500F0A9FAFFF7D9FFFFF7CD
:100290007FFFFFF79DFF01222021084800F0A6FE06
:1002A00005210748FFF7C0FFFFF7A8FF044B1870B0
:1002B00001211846FFF7B8FFF6E700BF000801402C
:1002C000000000207047FEE7FEE7FEE7FEE770470C
:1002D0007047704708B500F093FA08BD82B00A4B2A
:1002E0009A6942F001029A619A6902F00102009251
:1002F000009ADA6942F08052DA61DB6903F08053D8
:100300000193019B02B070470010024010B586B007
:10031000002302930393049305930268164B9A42B9
:1003200001D006B010BD03F5E633DA6942F40032BD
:10033000DA61DA6902F400320092009A9A6942F0B6
:1003400004029A619B6903F004030193019B042357
:1003500002930223039303230593084C02A920462A
:1003600000F04CFD0823029300230393049302A999
:10037000204600F043FDD4E700440040000801405F
:100380002DE9F84305460268136923F44053C16818
:100390000B43136183680269134342691343016885
:1003A000CA6822F4B05222F00C021343CB600268F8
:1003B000536923F4407381690B4353610268594BBD
:1003C0009A4257D000F0FAFC00EB800000EB80006E
:1003D0006C68A400B0FBF4F4534FA7FB0434640929
:1003E000260100F0EBFC00EB800000EB80006C6865
:1003F000A400B0FBF4F900F0E1FC00EB800000EB9E
:1004000080006C68A400B0FBF4F4A7FB043464091A
:100410004FF0640808FB149424013234A7FB043421
:10042000640904F0F004344400F0C8FC00EB8000E0
:1004300000EB80006E68B600B0FBF6F600F0BEFC84
:1004400000EB800000EB80006B689B00B0FBF3F0DA
:10045000A7FB0030400908FB10684FEA081808F1B4
:100460003208A7FB0837C7F343172B6827449F6060
:10047000BDE8F88300F0B2FC00EB800000EB8000E8
:100480006C68A400B0FBF4F4274FA7FB04346409A4
:10049000260100F0A3FC00EB800000EB80006C68FC
:1004A000A400B0FBF4F900F099FC00EB800000EB35
:1004B00080006C68A400B0FBF4F4A7FB043464096A
:1004C0004FF0640808FB149424013234A7FB043471
:1004D000640904F0F004344400F080FC00EB800078
:1004E00000EB80006E68B600B0FBF6F600F076FC1C
:1004F00000EB800000EB80006B689B00B0FBF3F02A
:10050000A7FB0030400908FB10684FEA081808F103
:100510003208A7FB0837C7F343172B6827449F60AF
:10052000A6E700BF003801401F85EB512DE9F041DF
:1005300005460F4616469846069C2B681B6837EA08
:1005400003030CBF01230023B3421DD1B4F1FF3FCD
:10055000F3D02CB100F05CF9A0EB0800A042ECD97C
:100560002A68D36823F4D073D3602A68536923F0D0
:1005700001035361202385F8393085F83A30002390
:1005800085F83830032000E00020BDE8F08158B342
:1005900010B5044690F839300BB3242384F8393071
:1005A0002268D36823F40053D3602046FFF7E8FEA7
:1005B0002268136923F4904313612268536923F07E
:1005C0002A0353612268D36843F40053D3600020A8
:1005D000E063202384F8393084F83A3010BD80F885
:1005E0003830FFF793FED8E7012070472DE9F0413E
:1005F00082B01E4690F83930DBB2202B55D104462C
:100600000D469046002955D0002A55D090F8383034
:10061000012B53D0012380F838300023C3632123FA
:1006200080F8393000F0F4F80746A4F82480A4F8E4
:10063000268010E000963B46002280212046FFF7EE
:1006400075FF00283CD12B882268C3F30803536050
:100650002369C3B90235E38C9BB2B3B1E38C013B90
:100660009BB2E384A368B3F5805FE3D000963B467A
:10067000002280212046FFF759FF18BB2A78236803
:100680005A600135E7E70135E5E700963B46002271
:1006900040212046FFF74AFF0346A8B9202284F8EC
:1006A0003920002284F8382000E00223184602B0E6
:1006B000BDE8F0810123F9E70123F7E70223F5E71D
:1006C0000323F3E70323F1E70323EFE72DE9F041E9
:1006D00082B01E4690F83A30DBB2202B5AD1044645
:1006E0000D469046002959D0002A59D090F838304C
:1006F000012B57D0012380F838300023C363222315
:1007000080F83A3000F084F80746A4F82C80A4F86A
:100710002E801DE000963B46002220212046FFF758
:1007200005FF002840D1236933B923685B68C3F310
:10073000080325F8023B0BE023685B68DBB225F871
:10074000013B05E023685B6803F07F032B700135F4
:10075000E38D9BB2BBB1E38D013B9BB2E385A36804
:10076000B3F5805FD6D000963B460022202120467C
:10077000FFF7DCFED0B92369002BE3D123685B6867
:100780002B700135E4E7202384F83A30002084F808
:10079000380000E0022002B0BDE8F0810120FAE755
:1007A0000120F8E70220F6E70320F4E70320F2E750
:1007B00010B50446074B1868074BA3FB00308009AF
:1007C00000F060FC002221464FF0FF3000F026FCD4
:1007D000002010BD20000020D34D621008B5074A4C
:1007E000136843F010031360032000F005FC0020A1
:1007F000FFF7DEFFFFF772FD002008BD002002407A
:10080000024A136801331360704700BF8000002064
:10081000014B1868704700BF8000002082B0084B71
:100820001B68084AA2FB03235B0A00FB03F001904C
:1008300000BF019B5A1E0192002BF9D102B07047F4
:1008400020000020D34D621070B582B004460368CA
:1008500013F0010F2CD0AC4B5B6803F00C03042B9E
:100860001DD0A94B5B6803F00C03082B12D0636802
:10087000B3F5803F41D0002B56D103F1804303F5FF
:1008800004331A6822F480321A601A6822F4802233
:100890001A6037E09C4B5B6813F4803FE7D09A4BBB
:1008A0001B6813F4003F03D06368002B00F0A6819F
:1008B000236813F0020F78D0934B5B6813F00C0F92
:1008C00061D0914B5B6803F00C03082B56D0236971
:1008D000002B00F08C808D4B01221A60FFF798FFEF
:1008E0000546894B1B6813F0020F77D1FFF790FF85
:1008F000401B0228F5D9032083E1834A136843F49F
:100900008033136063684BB3FFF782FF05467E4B6D
:100910001B6813F4003FCBD1FFF77AFF401BB0F503
:10092000A06FF4D903206CE1B3F5A02F09D0764B6A
:100930001A6822F480321A601A6822F480221A603F
:10094000E0E703F18043A3F53C331A6842F48022C8
:100950001A601A6842F480321A60D3E7FFF758FF32
:100960000546694B1B6813F4003FA1D0FFF750FF09
:10097000401BB0F5A06FF4D9032042E1624B5B68E5
:1009800013F4803FA3D1604B1B6813F0020F04D017
:100990002369012B01D0012033E15B4A136823F462
:1009A0007F43616943EAC1031360236813F0080FB2
:1009B00032D0A369002B5BD0554B01221A60FFF7A0
:1009C00027FF0546504B5B6A13F0020F21D1FFF75A
:1009D0001FFF401B0228F5D9032012E14A4A136881
:1009E00023F47F43616943EAC1031360DDE7474BAA
:1009F00000221A60FFF70CFF0546434B1B6813F0FB
:100A0000020FD2D0FFF704FF401B0228F5D90320C4
:100A1000F7E00120FFF702FF236813F0040F00F056
:100A20009780394BDB6913F0805F33D1364BDA693D
:100A300042F08052DA61DB6903F080530193019B3D
:100A40000125344B1B6813F4807F25D0E368012B0C
:100A500036D0002B4CD103F1804303F504331A6ADE
:100A600022F001021A621A6A22F004021A622CE0D1
:100A7000274B00221A60FFF7CBFE0546224B5B6A2C
:100A800013F0020FC8D0FFF7C3FE401B0228F5D9B0
:100A90000320B6E00025D4E71E4A136843F48073B0
:100AA0001360FFF7B5FE06461A4B1B6813F4807FF0
:100AB000CCD1FFF7ADFE801B6428F5D90320A0E060
:100AC000114A136A43F001031362E36873B3FFF73B
:100AD0009FFE06460C4B1B6A13F0020F37D1FFF73F
:100AE00097FE801B41F288339842F3D9032088E0B7
:100AF000052B11D0044B1A6A22F001021A621A6AFD
:100B000022F004021A62E0E70010024000004242B4
:100B100080044242007000403C4B1A6A42F00402DA
:100B20001A621A6A42F001021A62CEE7FFF770FEFB
:100B30000646364B1B6A13F0020F08D0FFF768FE1B
:100B4000801B41F288339842F3D9032059E0E5B97C
:100B5000E369002B54D02D4A526802F00C02082A97
:100B600051D0022B17D02A4B00221A60FFF750FEFB
:100B70000446264B1B6813F0007F3DD0FFF748FE6C
:100B8000001B0228F5D903203BE0204AD36923F05B
:100B90008053D361DCE71E4B00221A60FFF738FE5A
:100BA00005461A4B1B6813F0007F06D0FFF730FE96
:100BB000401B0228F5D9032023E0226A13494B6821
:100BC00023F0C04323F47413606A024313434B6061
:100BD0000F4B01221A60FFF71BFE04460B4B1B68EC
:100BE00013F0007F06D1FFF713FE001B0228F5D992
:100BF000032006E0002004E0002002E0012000E0E5
:100C0000002002B070BD0120FBE700BF00100240D1
:100C10006000424210B487B0174C94E80F000DF109
:100C2000180C0CE90F00238AADF80430134B5A68F6
:100C300002F00C03082B1DD141F60F0303EA924387
:100C4000634413F8100C12F4803F06D10C4B03FBE5
:100C500000F007B05DF8044B7047084B5B68C3F3C6
:100C60004043634413F8142C064BB3FBF2F300FB30
:100C700003F0EEE70348ECE73C12000800100240E6
:100C800000093D0000127A0038B50446036813F0ED
:100C9000020F06D0434A536823F0F00381680B43E8
:100CA0005360236813F0010F51D06368012B22D0E9
:100CB000022B27D03B4A126812F0020F6FD039493D
:100CC0004A6822F0030213434B60FFF7A1FD05467B
:100CD0006368012B1DD0022B2AD0324B5B6813F0C6
:100CE0000C0F34D0FFF794FD401B41F2883398423B
:100CF000F3D9032052E02B4A126812F4003FDED1F0
:100D000001204BE0274A126812F0007FD7D1012062
:100D100044E0244B5B6803F00C03042B17D0FFF76F
:100D200077FD401B41F288339842F2D9032035E029
:100D30001C4B5B6803F00C03082B08D0FFF768FD21
:100D4000401B41F288339842F2D9032026E0236801
:100D500013F0040F06D0134A536823F4E063E168EC
:100D60000B435360236813F0080F07D00D4A5368F4
:100D700023F46053216943EAC1035360FFF74AFF3C
:100D8000084B5B68C3F30313074AD35CDBB2D8405C
:100D9000064B18600020FFF70BFD002038BD012036
:100DA000FCE700BF001002400800002020000020E7
:100DB000014B1868704700BF2000002008B5FFF7FE
:100DC000F7FF044B5B68C3F30223034AD35CDBB237
:100DD000D84008BD001002401800002008B5FFF7F9
:100DE000E7FF044B5B68C3F3C223034AD35CDBB267
:100DF000D84008BD0010024018000020F0B482B0B6
:100E000000263546ABE0002C63D0012C00D1CE6823
:100E1000FF2B72D88446FF2B72D8AC00DCF8002080
:100E20000F27A74022EA070206FA04F42243CCF86F
:100E300000204A6812F0805F00F09080654A946953
:100E400044F001049461926902F001020192019A56
:100E5000AC08A71C604A52F827C005F003029700AF
:100E60000F22BA402CEA020C5C4A90424ED002F5A6
:100E70008062904200F08B8002F58062904200F028
:100E8000888002F58062904200F0858002F58062E1
:100E9000904200F0828002F58062904234D00622B7
:100EA00035E04F4FBC4214D00BD94E4FBC4210D04E
:100EB00007F58037BC420CD0A7F58017BC42A7D1FC
:100EC00007E0A7F58017BC4203D007F58037BC4286
:100ED0009ED18C687CB1012C08D04261082697E72E
:100EE000CE68083694E7CE680C3691E70261082692
:100EF0008EE700268CE704268AE700F1040C8AE7D7
:100F0000A5F10804A40089E7052200E00022BA4008
:100F100042EA0C020234304F47F824204A6812F4A7
:100F2000803F3CD0304C22681A4322604A6812F459
:100F3000003F3AD02C4C62681A4362604A6812F44F
:100F4000801F38D0284CA2681A43A2604A6812F465
:100F5000001F36D0244CE2681343E36001350F2DA7
:100F600035D80122AA400B6813409A42F6D14C684A
:100F7000122CB8D095D8022CB2D07FF644AF032CF7
:100F8000B7D0112C7FF444AFCE68043640E701227D
:100F9000BDE70222BBE70322B9E70422B7E7124C00
:100FA000226822EA03022260C0E70F4C626822EA4C
:100FB00003026260C2E70C4CA26822EA0302A2604C
:100FC000C4E7094CE26822EA0303E360C6E702B023
:100FD000F0BC7047001002400000014000080140D2
:100FE00000002110000031100004014012B9090472
:100FF0000161704701617047074AD36823F4E063D9
:101000001B041B0C000200F4E060184340F0BF60BA
:1010100040F40030D060704700ED00E030B4174B72
:10102000DB68C3F30223C3F10704042C28BF0424A4
:101030001D1D062D18D9033B4FF0FF3505FA04F4AA
:1010400021EA0401994005FA03F322EA0303194354
:1010500000280BDB0901C9B200F1604000F56140D6
:1010600080F8001330BC70470023E5E700F00F0064
:101070000901C9B2024B1954F4E700BF00ED00E0CA
:1010800014ED00E00138B0F1807F0AD2064B5860C1
:10109000064AF02182F823100020986007221A6087
:1010A00070470120704700BF10E000E000ED00E055
:1010B00082B00023019300932C4A136843F001038C
:1010C00013602A4B1B6803F002030093019B01335A
:1010D0000193009B23B9019A4FF6FF739A42F0D116
:1010E000224B1B6813F0020F06D001230093009BD4
:1010F000012B04D002B0704700230093F7E71B4B8D
:101100005A685A605A6822F460525A605A685A60A3
:101110005A6822F4E0625A605A6842F480625A6067
:101120005A6822F0604222F47C125A605A6842F0F7
:10113000005242F480225A601A6842F080721A60AB
:101140000A4B1B6813F0007FFAD0084B5A6822F054
:1011500003025A605A6842F002025A60034B5B680D
:1011600003F00C03082BF9D1C4E700BF00100240C4
:1011700008B5FFF79DFF08BD10B5164CD4F88830B0
:1011800043F47003C4F88830134B1A6842F001022C
:101190001A605968114A0A405A601A6822F084722B
:1011A00022F480321A601A6822F480221A605A6887
:1011B00022F0684222F47F025A60196B084A0A4002
:1011C0001A634FF41F029A60FFF7D2FF4FF00063DB
:1011D000A36010BD00ED00E0001002400C00FFE82D
:1011E00000FFFEFE002103E00A4B5B584350043130
:1011F00009480A4B42189A42F6D3094A02E00023F2
:1012000042F8043B074B9A42F9D3FFF7B5FFFFF7CB
:1012100039F87047701200080000002024000020F8
:101220002400002084000020FEE70244034693428D
:1012300000D1704703F8011BF9E700000203040521
:10124000060708090A0B0C0D0E0F10100102000012
:10125000F8B500BFF8BC08BC9E467047F8B500BFA3
:08126000F8BC08BC9E46704773
:041268007501000804
:04126C005101000824
:1012700048656C6C6F00000000000000000000007A
:10128000010203040607080900000000010203042C
:0412900000A24A046A
:04000005080011E5F9
:00000001FF
