:020000040800F2
:1000000000C00020F5090008B1080008B308000886
:10001000B5080008B7080008B9080008000000008B
:10002000000000000000000000000000BB08000805
:10003000BD08000800000000BF080008C108000853
:10004000390A0008390A0008390A0008390A000884
:10005000390A0008390A0008390A0008390A000874
:10006000390A0008390A0008390A0008390A000864
:10007000390A0008390A0008390A0008390A000854
:10008000390A0008390A0008390A0008390A000844
:10009000390A0008390A0008390A0008390A000834
:1000A000390A0008390A0008390A0008390A000824
:1000B000390A0008390A0008390A0008390A000814
:1000C000390A0008390A0008390A0008390A000804
:1000D000390A0008390A0008C50800085D09000847
:1000E000390A0008390A0008390A0008390A0008E4
:1000F000390A0008390A0008390A0008390A0008D4
:10010000390A0008390A0008390A0008390A0008C3
:10011000390A0008390A0008390A0008390A0008B3
:10012000390A0008390A0008390A0008390A0008A3
:10013000390A0008390A0008390A0008390A000893
:10014000390A0008390A0008390A0008390A000883
:1001500010B5054C237833B9044B13B10448AFF301
:1001600000800123237010BD8C00002000000000DF
:100170003C0A000808B5034B1BB103490348AFF321
:10018000008008BD00000000900000203C0A00082C
:1001900082B00023019300932C4A136843F4803308
:1001A00013602A4B1B6803F400330093019B013357
:1001B0000193009B1BB9019BB3F5A06FF1D1234BB9
:1001C0001B6813F4003F06D001230093009B012B12
:1001D00004D002B0704700230093F7E71B4B5A6826
:1001E0005A605A6822F460525A605A6842F40052C7
:1001F0005A605A6822F4E0625A605A6842F4806297
:100200005A605A6822F0604222F47C125A605A689E
:1002100042F0204242F4E8125A601A6842F08072BA
:100220001A600A4B1B6813F0007FFAD0074B5A681C
:1002300022F003025A605A6842F002025A60034BED
:100240005B6803F00C03082BF9D1C2E700100240F1
:1002500008B5FFF79DFF08BD10B5164CD4F88830DF
:1002600043F47003C4F88830134B1A6842F001025B
:100270001A605968114A0A405A601A6822F084725A
:1002800022F480321A601A6822F480221A605A68B6
:1002900022F0684222F47F025A60196B084A0A4031
:1002A0001A634FF41F029A60FFF7D2FF4FF000630A
:1002B000A36010BD00ED00E0001002400C00FFE85C
:1002C00000FFFEFEF0B4CB7803F00F02154613F0EA
:1002D000100F01D08D7815430B78E3B10668002329
:1002E00001E042610133072B14D801229A400C88A7
:1002F00032EA0404F6D19C000F27A74026EA07063D
:1003000005FA04F42643CC78282CEAD0482CE9D10D
:100310000261E7E706600B88FF2B20D946680023BF
:1003200003E0426116E002610133072B16D803F1A6
:1003300008040122A2400C8832EA0404F4D19C0093
:100340000F27A74026EA070605FA04F42643CC78CF
:10035000282CE6D0CC78482CE6D1E4E74660F0BC07
:100360007047000010B4454B5B6803F00C03042B8E
:1003700044D0082B45D013B1414B036001E0404B02
:1003800003603E4A5368C3F30213526812F0800FB1
:100390006ED03C4AD35CDBB2026822FA03F34360BE
:1003A00036494A68C2F30122496811F4806F61D06E
:1003B00034498A5CD2B223FA02F282602F494A6839
:1003C000C2F3C122496811F4005F55D02D498A5CFF
:1003D000D2B2D340C36029494A68C2F38132496826
:1003E00011F0805F01D042F0040227498A5CD2B24A
:1003F000B3FBF2F303615DF8044B7047204B0360DD
:10040000BFE71E4B5A68214C1440596801F48031F3
:10041000C4F3834343EA546312F0C04F08D102F49B
:100420007012B2F5701F01D0022202E0012200E03A
:100430000122134469B9164A02FB03F303600F4B10
:100440005B68002B9DDB0268124B9A4299D90360CE
:1004500097E70A4A526812F4003F04D00C4A02FBA4
:1004600003F30360EBE7064A02FB03F30360E6E7EE
:10047000002391E700229EE70022AAE70010024035
:1004800000127A00080000200000002000003C60FC
:1004900000093D0000A24A0429B9054A936923EAEC
:1004A000000090617047024A936918439061704759
:1004B0000010024029B9054AD36923EA0000D0613F
:1004C0007047024AD3691843D06170470010024058
:1004D00030B587B004460D46038A9BB2CA8823F420
:1004E00040531343038283899BB2898828896A8990
:1004F00001430A4323F4B05323F00C031343A381B5
:10050000A38A9BB2AA8923F440731343A38201A850
:10051000FFF728FF1E4B9C4224D0039BA28912F4B4
:10052000004F21D103EB830303EB83032968890088
:10053000B3FBF1F1174BA3FB012358090501642319
:1005400000FB1313A28912F4004F16D11B013233A2
:10055000104AA2FB0323C3F343132B439BB2238113
:1005600007B030BD049BD9E703EB830303EB8303A0
:1005700029684900B3FBF1F1DCE7DA003232054BC0
:10058000A3FB0232C2F3421242EA0503E6E700BFD0
:10059000003801401F85EB514FF4165303600023D0
:1005A0008380C38003810C2242818381704731B9EB
:1005B00083899BB223F400539BB283817047838964
:1005C00043F400538381704710B4C1F3421401F027
:1005D0001F01012303FA01F19C420AD0022C0AD028
:1005E000143052B9036823EA010101605DF8044B3D
:1005F00070470C30F5E71030F3E7036819430160EA
:10060000F4E7C1F30801818070478088C0F30800D7
:10061000704710B4C1F3421201F01F040123A3403C
:10062000012A0DD0022A0ED0828A1340090A012223
:1006300002FA01F10288114043B159B9002006E0E5
:1006400082891340F2E7028A1340EFE700205DF849
:10065000044B70470120FAE740F0BF6040F40030DF
:10066000014BD860704700BF00ED00E0C37853B97C
:10067000037803F01F015B0901228A4020331349EC
:1006800041F82320704710B4114BDA68D243C2F30B
:100690000222C2F104040F2323FA02F24178A1409E
:1006A000837813400B431B010278DBB207490A44ED
:1006B00082F80033037803F01F005B0901228240B7
:1006C00041F823205DF8044B704700BF00E100E0D3
:1006D00000ED00E008B501210D20FFF7DDFE01214E
:1006E0004FF40030FFF7E6FE01214FF48020FFF7C2
:1006F000E1FE08BD70B582B00823ADF804300426D1
:100700008DF80760134D0DEB06012846FFF7DAFD63
:100710004FF40063ADF804300F4C0DEB060120469A
:10072000FFF7D0FDADF8046002238DF806301823E2
:100730008DF807300DEB06012846FFF7C3FD4FF497
:100740008063ADF804300DEB06012046FFF7BAFDDB
:1007500002B070BD00080140000C014030B583B00C
:100760004FF4E060FFF778FF26238DF80430002572
:100770008DF805508DF8065001248DF8074001A82A
:10078000FFF774FF27238DF804308DF805508DF89E
:1007900006408DF8074001A8FFF768FF03B030BDA1
:1007A000531E9BB28AB110B404780A7894420AD1DD
:1007B000013001311A46013B9BB2002AF4D10120DD
:1007C0005DF8044B70470020FAE7012070470000F5
:1007D00070B5FFF77FFFFFF7C1FFFFF78BFF294CD5
:1007E0002046FFF7D9FE4FF4165323600023A38061
:1007F000E3802381A3810C236381234E214630466D
:10080000FFF766FE214D21462846FFF761FE0122D3
:1008100040F225513046FFF7D7FE012240F2277102
:100820003046FFF7D1FE012240F225512846FFF75E
:10083000CBFE012240F227712846FFF7C5FE0121B9
:100840003046FFF7B4FE01212846FFF7B0FE104BFB
:100850001B78DBB2382BFAD90E4B1B78DBB2382B66
:10086000FAD939220C490D48FFF79AFF0C4B187042
:1008700039220C490C48FFF793FF0C4B18700020ED
:1008800070BD00BFEC000020004400400048004064
:10089000A9000020A8000020FC000020500000203B
:1008A000AA000020B000002014000020AB000020AF
:1008B0007047FEE7FEE7FEE7FEE7704770477047C8
:1008C0007047000010B540F225511D48FFF7A1FE0A
:1008D00030B940F227711A48FFF79BFEC0B910BD2E
:1008E0001748FFF792FE174A1378DBB2591CC9B2BA
:1008F00011701549C8541378DBB2144A1278934228
:10090000E7D1002240F225510D48FFF75DFEE0E7F8
:100910000F4C2378DBB25A1CD2B222700D4AD15C44
:100920000748FFF76EFE2378DBB20B4A127893423A
:10093000D5D1002240F227710148FFF745FECEE7EE
:1009400000440040A8000020FC000020100000200F
:10095000AC000020140000201100002010B540F26F
:1009600025511D48FFF755FE30B940F227711A484E
:10097000FFF74FFEC0B910BD1748FFF746FE174AF4
:100980001378DBB2591CC9B211701549C8541378D9
:10099000DBB2144A12789342E7D1002240F225518B
:1009A0000D48FFF711FEE0E70F4C2378DBB25A1C2D
:1009B000D2B222700D4AD15C0748FFF722FE23789D
:1009C000DBB20B4A12789342D5D1002240F2277154
:1009D0000148FFF7F9FDCEE700480040A9000020DC
:1009E000B000002010000020AD00002050000020CA
:1009F00012000020002103E00A4B5B5843500431F1
:100A000009480A4B42189A42F6D3094A02E00023E9
:100A100042F8043B074B9A42F9D3FFF71DFCFFF75E
:100A2000D7FE70475C0A0008000000208C00002000
:100A30008C00002038010020FEE70000F8B500BF60
:100A4000F8BC08BC9E467047F8B500BFF8BC08BCAF
:040A50009E46704707
:040A54007501000820
:040A58005101000840
:100A5C0002040608020C0810010203040607080928
:100A6C0039393900555341525420496E74657272AC
:100A7C00757074204578616D706C653A20555341E2
:100A8C00525432202D3E205553415254332075730D
:100A9C00696E6720496E746572727570740000001F
:100AAC00555341525420496E74657272757074209E
:100ABC004578616D706C653A205553415254332022
:100ACC002D3E20555341525432207573696E672068
:0C0ADC00496E7465727275707400000041
:04000005080009F5F1
:00000001FF
