:020000040800F2
:1000000000C00020AD330008393300083D3300083C
:1000100065330008673300086933000800000000FA
:10002000000000000000000000000000D10A0008ED
:100030006B33000800000000710B0008D50B0008AE
:10004000F1330008F1330008F1330008F133000800
:10005000F1330008F1330008F1330008F1330008F0
:10006000F1330008F1330008F1330008F1330008E0
:10007000F1330008F1330008F1330008F1330008D0
:10008000F1330008F1330008F1330008F1330008C0
:10009000F1330008F1330008F1330008F1330008B0
:1000A000F1330008F1330008F1330008F1330008A0
:1000B000F1330008E52D0008F1330008F1330008A2
:1000C000F1330008F1330008F1330008F133000880
:1000D000F1330008F133000899300008F1330008CB
:1000E000F1330008F1330008F1330008F133000860
:1000F000F1330008F1330008F1330008F133000850
:10010000F1330008F1330008F1330008F13300083F
:10011000F1330008F133000885330008F13300089B
:10012000F1330008F1330008F1330008F13300081F
:10013000F1330008F1330008F1330008F13300080F
:10014000F1330008F1330008F1330008F1330008FF
:1001500010B5054C237833B9044B13B10448AFF301
:1001600000800123237010BD7C00002000000000EF
:10017000A44A000808B5034B1BB103490348AFF379
:10018000008008BD0000000080000020A44A000894
:10019000034613F8012B002AFBD1181A01387047C7
:1001A00001F0FF01102A2BDB10F0070F08D010F828
:1001B000013B013A8B422DD010F0070F42B3F6D12C
:1001C000F0B441EA012141EA014122F007047FF045
:1001D00000070023F0E80256083C85EA010586EA9C
:1001E000010685FA47F5A3FA87F586FA47F6A5FAD8
:1001F00087F68EB9EED1F0BC01F0FF0102F00702E4
:1002000032B110F8013B013A83EA010313B1F8D18E
:100210000020704701387047002D06BF354603386F
:10022000073815F0010F07D1013015F4807F02BFA8
:10023000013015F4C03F0130F0BC0138704700BFF9
:1002400010B5044681B2054800F035FB4021034853
:1002500000F039FB0028F9D0204610BD00440040D2
:1002600070B5013801280CD80D461646002404E06C
:1002700015F8010BFFF7E4FF0134B442F8DB204628
:1002800070BD4FF0FF34FAE770B586B00646012125
:10029000042000F0D7F901214FF4003000F0E0F91C
:1002A00005A800F02CF90425ADF8145002238DF8B0
:1002B000163018238DF817301B4C05A9204600F086
:1002C000CFF80823ADF814308DF8175005A9204653
:1002D00000F0C6F80DEB050000F0B8FA0196002317
:1002E000ADF80830ADF80A30ADF80C30ADF810308C
:1002F0000C23ADF80E30A4F544440DEB0501204667
:1003000000F040FA012240F22551204600F0B6FAF2
:10031000012240F22771204600F0B0FA0121204668
:1003200000F09FFA06B070BD0008014082B00023C3
:10033000019300932C4A136843F4803313602A4BD3
:100340001B6803F400330093019B01330193009B6E
:100350001BB9019BB3F5A06FF1D1234B1B6813F4BC
:10036000003F06D001230093009B012B04D002B074
:10037000704700230093F7E71B4B5A685A605A688E
:1003800022F460525A605A6842F400525A605A6825
:1003900022F4E0625A605A6842F480625A605A68F5
:1003A00022F0604222F47C125A605A6842F02042E5
:1003B00042F4E8125A601A6842F080721A600A4BDE
:1003C0001B6813F0007FFAD0074B5A6822F0030233
:1003D0005A605A6842F002025A60034B5B6803F0AD
:1003E0000C03082BF9D1C2E70010024008B5FFF753
:1003F0009DFF08BD10B5164CD4F8883043F4700347
:10040000C4F88830134B1A6842F001021A60596828
:10041000114A0A405A601A6822F0847222F480322B
:100420001A601A6822F480221A605A6822F0684220
:1004300022F47F025A60196B084A0A401A634FF48B
:100440001F029A60FFF7D2FF4FF00063A36010BD58
:1004500000ED00E0001002400C00FFE800FFFEFE8F
:10046000F0B4CB7803F00F02154613F0100F01D053
:100470008D7815430B78E3B10668002301E04261F3
:100480000133072B14D801229A400C8832EA040465
:10049000F6D19C000F27A74026EA070605FA04F4C8
:1004A0002643CC78282CEAD0482CE9D10261E7E732
:1004B00006600B88FF2B20D94668002303E04261C9
:1004C00016E002610133072B16D803F1080401225C
:1004D000A2400C8832EA0404F4D19C000F27A74004
:1004E00026EA070605FA04F42643CC78282CE6D041
:1004F000CC78482CE6D1E4E74660F0BC70474FF674
:10050000FF730380022383700423C37070470000CD
:1005100010B4454B5B6803F00C03042B44D0082B4C
:1005200045D013B1414B036001E0404B03603E4AAC
:100530005368C3F30213526812F0800F6ED03C4A26
:10054000D35CDBB2026822FA03F3436036494A689F
:10055000C2F30122496811F4806F61D034498A5C8A
:10056000D2B223FA02F282602F494A68C2F3C12252
:10057000496811F4005F55D02D498A5CD2B2D3404E
:10058000C36029494A68C2F38132496811F0805F2B
:1005900001D042F0040227498A5CD2B2B3FBF2F3E5
:1005A00003615DF8044B7047204B0360BFE71E4BAF
:1005B0005A68214C1440596801F48031C4F38343D4
:1005C00043EA546312F0C04F08D102F47012B2F53E
:1005D000701F01D0022202E0012200E00122134438
:1005E00069B9164A02FB03F303600F4B5B68002BEB
:1005F0009DDB0268124B9A4299D9036097E70A4A39
:10060000526812F4003F04D00C4A02FB03F303606B
:10061000EBE7064A02FB03F30360E6E7002391E7FA
:1006200000229EE70022AAE70010024000127A0092
:100630000C0000200400002000003C6000093D0088
:1006400000A24A0429B9054A936923EA000090618F
:100650007047024A93691843906170470010024046
:1006600029B9054AD36923EA0000D0617047024ADC
:10067000D3691843D06170470010024003889BB2D1
:100680001F4A904216D002F50062904212D0B0F19B
:10069000804F0FD002F5406290420BD0A2F59E32FF
:1006A000904207D002F58062904203D002F580624A
:1006B000904204D123F070034A6813439BB2114A5D
:1006C000904208D002F58062904204D023F4407337
:1006D0009BB28A89134303808B68C3620B880385AE
:1006E000074B984207D003F50063984203D003F507
:1006F0004063984201D18B7B03860123838270473C
:10070000002C01400010004031B903889BB223F057
:1007100001039BB203807047038843F00103038009
:10072000704722B9838923EA010181817047838957
:1007300019438181704731B903889BB223F080034C
:100740009BB203807047038843F0800303807047A7
:100750004163704781637047C163704701647047AC
:10076000406A7047028A83890B40114202D01BB94C
:10077000002070470020704701207047C94389B2AC
:100780000182704730B587B004460D46038A9BB29C
:10079000CA8823F440531343038283899BB2898818
:1007A00028896A8901430A4323F4B05323F00C03D8
:1007B0001343A381A38A9BB2AA8923F440731343F2
:1007C000A38201A8FFF7A4FE1E4B9C4224D0039BEA
:1007D000A28912F4004F21D103EB830303EB8303BF
:1007E00029688900B3FBF1F1174BA3FB01235809DA
:1007F0000501642300FB1313A28912F4004F16D1E4
:100800001B013233104AA2FB0323C3F343132B43D0
:100810009BB2238107B030BD049BD9E703EB830370
:1008200003EB830329684900B3FBF1F1DCE7DA004D
:100830003232054BA3FB0232C2F3421242EA0503F5
:10084000E6E700BF003801401F85EB514FF4165317
:10085000036000238380C38003810C224281838153
:10086000704731B983899BB223F400539BB28381D3
:100870007047838943F400538381704710B4C1F3F8
:10088000421401F01F01012303FA01F19C420AD036
:10089000022C0AD0143052B9036823EA0101016026
:1008A0005DF8044B70470C30F5E71030F3E7036850
:1008B00019430160F4E7C1F3080181807047808823
:1008C000C0F3080070470388194201D10020704727
:1008D00001207047C94389B20180704710B4C1F349
:1008E000421201F01F040123A340012A0DD0022A65
:1008F0000ED0828A1340090A012202FA01F102880D
:10090000114043B159B9002006E082891340F2E753
:10091000028A1340EFE700205DF8044B7047012086
:10092000FAE7000040F0BF6040F40030014BD860AF
:10093000704700BF00ED00E0C37853B9037803F0BF
:100940001F015B0901228A402033134941F823200B
:10095000704710B4114BDA68D243C2F30222C2F1DD
:1009600004040F2323FA02F24178A1408378134054
:100970000B431B010278DBB207490A4482F80033BB
:10098000037803F01F005B090122824041F8232015
:100990005DF8044B704700BF00E100E000ED00E0AF
:1009A00000F1080343604FF0FF328260C3600361CF
:1009B00000230360704700230361704743684B6066
:1009C0009A688A609A685160996008610368013387
:1009D0000360704730B40D68B5F1FF3F02D000F1FD
:1009E000080202E0026904E01A4653681C68AC423F
:1009F000FAD953684B6099608A6051600861036856
:100A00000133036030BC70470369426881689160BC
:100A10008268416851605A68824205D000220261B2
:100A2000186801381860704782685A60F6E700005D
:100A30000B4B1B68B3F1FF3F08D04FF0100383F35B
:100A40001188BFF36F8FBFF34F8FFEE74FF0100396
:100A500083F31188BFF36F8FBFF34F8FFEE700BFA3
:100A60001400002006480068006880F3088862B619
:100A700061B6BFF34F8FBFF36F8F00DF00BF000081
:100A800008ED00E0DFF80C00016841F4700101603E
:100A90007047000088ED00E04FF0807340F8043CA0
:100AA00021F0010140F8081C054B40F80C3C40F8CF
:100AB000202C6FF0020340F8243C4438704700BFFC
:100AC000310A0008000000000000000000000000E3
:100AD000074B19680868B0E8F04F80F30988BFF346
:100AE0006F8F4FF0000080F311887047AFF30080E4
:100AF000F45000204FF0100383F31188BFF36F8F81
:100B0000BFF34F8F0A4A136801331360012B00D0E3
:100B10007047084B1B6813F0FF0FF9D04FF010031C
:100B200083F31188BFF36F8FBFF34F8FFEE700BFD2
:100B30001400002004ED00E0094B1B6843B94FF09E
:100B4000100383F31188BFF36F8FBFF34F8FFEE75E
:100B5000013B034A13600BB983F31188704700BF50
:100B60001400002000000000000000000000000051
:100B7000EFF30980BFF36F8F154B1A681EF0100F4B
:100B800008BF20ED108A20E9F04F10604DF8043DB9
:100B90004FF0100080F31188BFF34F8FBFF36F8FBA
:100BA00001F0ECFA4FF0000080F3118808BC1968DE
:100BB0000868B0E8F04F1EF0100F08BFB0EC108AC4
:100BC00080F30988BFF36F8F704700BFAFF30080D9
:100BD000F450002008B54FF0100383F31188BFF3E1
:100BE0006F8FBFF34F8F01F05BF918B1034B4FF0DC
:100BF00080521A60002383F3118808BD04ED00E0E1
:100C0000034B044A1A60043B07221A60704700BF76
:100C100014E000E0FFED0200314B1A68314B9A42BC
:100C20000DD02F4B1A68304B9A4211D14FF0100360
:100C300083F31188BFF36F8FBFF34F8FFEE74FF041
:100C4000100383F31188BFF36F8FBFF34F8FFEE75D
:100C500000B583B0254B1A78D2B20192FF221A70E8
:100C60001B78DBB28DF803309DF8033003F01003DE
:100C70001F4A13701F4B07221A609DF8033013F0B0
:100C8000800F0AD01B4A1368013B13609DF80330A4
:100C90005B00DBB28DF80330EFE7164A13681B02E6
:100CA00003F4E0631360019BDBB2104A1370124B34
:100CB0001A6842F470021A601A6842F070421A60B0
:100CC000FFF79EFF0D4B00221A60FFF7DBFE0C4A78
:100CD000136843F040431360FFF7C4FEFFF7A8FE1C
:100CE00000ED00E071C20F4170C20F4100E400E06E
:100CF000980000209C00002020ED00E0140000205F
:100D000034EF00E0EFF305830F2B0FD9104A9B5C03
:100D1000DBB2104A12789A4208D94FF0100383F3DD
:100D20001188BFF36F8FBFF34F8FFEE70A4B1B682D
:100D300003F4E063094A1268934208D94FF01003A4
:100D400083F31188BFF36F8FBFF34F8FFEE77047B8
:100D5000F0E300E0980000200CED00E09C00002093
:100D6000124A12F0070F1ED0D11D21F00701C1F564
:100D7000A04313440A460E48026000214160134418
:100D8000083B23F007030B48036059601960991A68
:100D900051601360084B1960084B1960084B4FF005
:100DA00000421A6070474FF4A043E4E7A40000201B
:100DB000B0500020A0000020AC500020A85000201F
:100DC000A450002010B4134B1A6882421BD35968F8
:100DD0005C18844203D14068014459601846416858
:100DE0004418A24213D10C4C2468A2420DD0526880
:100DF000114441601A6812680260984200D018607D
:100E00005DF8044B70471346DEE70460F5E70260C7
:100E1000F3E700BFB0500020A000002070B50446EA
:100E200001F030F83F4B1B68A3B13F4B1B681C42DD
:100E300013D001F0C1F8002602F074FA16F0070F83
:100E40006ED04FF0100383F31188BFF36F8FBFF3A1
:100E50004F8FFEE7FFF784FFE7E794B1083414F003
:100E6000070F0ED024F00704083404F0070343B141
:100E70004FF0100383F31188BFF36F8FBFF34F8FD1
:100E8000FEE734B1294B1B68A34206D3284B1D68EB
:100E900009E001F091F80026CEE701F08DF8002678
:100EA000CAE72B4615466A68A24202D22A68002A7F
:100EB000F7D11C4A1268AA4214D01E6808362A6864
:100EC0001A606B681B1B102B14D9281910F0070F20
:100ED0000CD04FF0100383F31188BFF36F8FBFF373
:100EE0004F8FFEE701F068F80026A5E743606C60CD
:100EF000FFF768FF6A680D490B689B1A0B600D4984
:100F000009688B4201D20B490B60074B1B681343E6
:100F10006B6000232B6001F04FF8002E8ED18BE721
:100F2000304670BDA0000020A4500020A850002032
:100F3000B0500020AC50002080B338B50446A0F17A
:100F4000080550F8042C164909680A4208D14FF0E8
:100F5000100383F31188BFF36F8FBFF34F8FFEE74A
:100F600050F8080C40B14FF0100383F31188BFF321
:100F70006F8FBFF34F8FFEE722EA010244F8042C83
:100F800000F080FF54F8041C064A13680B441360F9
:100F90002846FFF717FF01F00FF838BD704700BF74
:100FA000A4500020A850002010B50446FFF7A2FD71
:100FB000A26BE36B9A4204D00024FFF7BDFD2046EC
:100FC00010BD0124F9E710B50446FFF793FDA36BAC
:100FD00023B10024FFF7B0FD204610BD0124F9E73E
:100FE00070B504461646856B026C5AB903681BB18E
:100FF00000200135A56370BD406801F02FFB002380
:101000006360F6E76EB9806802F0F3F9226CA368BA
:101010001344A3606268934219D32368A36000203D
:10102000E7E7C06802F0E5F9226C5242E368134436
:10103000E36021688B4202D263681A44E260022EA8
:1010400001D00020D5E725B1013D0020D1E70020E7
:10105000CFE70020CDE7026C72B110B5C36813442E
:10106000C3604468A34201D30368C3600C46C168EF
:10107000204602F0BEF910BD704738B50546FFF7AF
:1010800039FD95F8454064B203E001F0BDF9013C3B
:1010900064B2002C08DD6B6A33B105F1240001F065
:1010A00017F90028F3D0F0E7FF2385F84530FFF764
:1010B00043FDFFF71FFD95F8444064B203E001F0E3
:1010C000A3F9013C64B2002C08DD2B6933B105F1B2
:1010D000100001F0FDF80028F3D0F0E7FF2385F8B9
:1010E0004430FFF729FD38BD38B540B94FF0100343
:1010F00083F31188BFF36F8FBFF34F8FFEE7044672
:101100000D46FFF7F7FC2168E26B236C03FB02102E
:1011100060600020A063A160013A02FB0313E3605A
:10112000FF2384F8443084F84530A5B923691BB9FE
:10113000FFF702FD012038BD04F1100001F0C8F8EE
:101140000028F5D0084B4FF080521A60BFF34F8F44
:10115000BFF36F8FECE704F11000FFF721FC04F1FF
:101160002400FFF71DFCE3E704ED00E038B51D4661
:10117000049C0B4649B12260E063236401212046B0
:10118000FFF7B2FF84F84C5038BD2460F4E740B953
:101190004FF0100383F31188BFF36F8FBFF34F8FAE
:1011A000FEE7F0B583B0054611B101FB00F000E0A9
:1011B000002017460C465030FFF730FE064638B187
:1011C00000903B4600F1500221462846FFF7CEFF33
:1011D000304603B0F0BD0000F0B585B0019260B1BB
:1011E000044699B9026C8AB14FF0100383F3118859
:1011F000BFF36F8FBFF34F8FFEE74FF0100383F302
:101200001188BFF36F8FBFF34F8FFEE7022B0BD117
:10121000E26B012A08D04FF0100383F31188BFF36B
:101220006F8FBFF34F8FFEE71E460F4601F0B6F9F2
:1012300050B9019B53B14FF0100383F31188BFF3F2
:101240006F8FBFF34F8FFEE700253AE0002538E0AF
:10125000324639462046FFF7C3FE636A4BB9A8B150
:101260003B4B4FF080521A60BFF34F8FBFF36F8F2D
:101270000CE004F1240001F02BF838B1344B4FF0AE
:1012800080521A60BFF34F8FBFF36F8FFFF754FC8C
:10129000012005B0F0BDFFF74FFC0020F9E702A8E0
:1012A00001F05CF8012519E0002384F8443021E0C6
:1012B000002384F8453023E02046FFF7DEFE00F0EF
:1012C0007BFEFFF717FCA26BE36B9A42C0D3022EA2
:1012D000BED0019B002BDED0002DE0D0FFF72CFC10
:1012E00000F0D0FDFFF706FC94F844305BB2B3F198
:1012F000FF3FD9D094F845305BB2B3F1FF3FD7D070
:10130000FFF71AFC01A902A801F03EF8C8B920466F
:10131000FFF74AFE0028CFD0019904F1100000F039
:10132000A3FF2046FFF7A9FE00F046FE0028C8D123
:10133000074B4FF080521A60BFF34F8FBFF36F8F90
:10134000BFE72046FFF799FE00F036FE0020A0E739
:1013500004ED00E048B108B5002141600160C160C2
:101360000B460A46FFF738FF08BD704710B5024626
:1013700000210120FFF70BFF0446FFF7EBFF20469B
:1013800010BD2DE9F84360B1044699B9006C88B1ED
:101390004FF0100383F31188BFF36F8FBFF34F8FAC
:1013A000FEE74FF0100383F31188BFF36F8FBFF395
:1013B0004F8FFEE7022B0BD1E06B012808D04FF0D6
:1013C000100383F31188BFF36F8FBFF34F8FFEE7D6
:1013D0001F4690468946FFF795FCEFF311864FF0C4
:1013E000100383F31188BFF36F8FBFF34F8FA26B8E
:1013F000E36B9A4203D3022F01D000200FE094F850
:1014000045506DB23A4649462046FFF7E9FDB5F131
:10141000FF3F08D06B1C5BB284F84530012086F397
:101420001188BDE8F883636A5BB104F1240000F021
:101430004FFF40B1B8F1000F07D00120C8F80000FD
:10144000EDE70120EBE70120E9E70120E7E70000F5
:101450002DE9F04184B0019260B1044699B9026C63
:101460008AB14FF0100383F31188BFF36F8FBFF37E
:101470004F8FFEE74FF0100383F31188BFF36F8F98
:10148000BFF34F8FFEE71F46884601F087F850B93B
:10149000019B53B14FF0100383F31188BFF36F8F9B
:1014A000BFF34F8FFEE700265FE000265DE0E668B1
:1014B00041462046FFF7CFFDDFB9013DA563236814
:1014C00013B901F0F3F96060236963B104F110000E
:1014D00000F0FEFE38B1464B4FF080521A60BFF369
:1014E0004F8FBFF36F8FFFF727FB012004B0BDE8DC
:1014F000F081E660636A002BF5D004F1240000F06F
:10150000E7FE0028EFD03A4B4FF080521A60BFF34D
:101510004F8FBFF36F8FE6E7FFF70EFB0020E5E785
:1015200002A800F01BFF012629E0002384F84430C4
:1015300031E0002384F8453033E0FFF7DBFA6068E0
:1015400001F03CF8FFF7F8FA3BE02046FFF795FD85
:1015500000F032FD09E02046FFF78FFD00F02CFD82
:101560002046FFF730FD002840D1FFF7C3FAA56BF6
:10157000002D9CD1019B002BCED0002ED0D0FFF7A8
:10158000DBFA00F07FFCFFF7B5FA94F844305BB269
:10159000B3F1FF3FC9D094F845305BB2B3F1FF3FE0
:1015A000C7D0FFF7C9FA01A902A800F0EDFE002894
:1015B000D1D12046FFF707FD0028C6D02368002BB5
:1015C000BBD0019904F1240000F04EFE2046FFF745
:1015D00054FD00F0F1FC0028C7D1054B4FF08052BC
:1015E0001A60BFF34F8FBFF36F8FBEE700207DE718
:1015F00004ED00E00023072B0CD8074A52F83320F3
:101600000AB10133F7E7044A42F8331002EBC3038F
:1016100058607047704700BFD862002070B504461C
:101620000D461646FFF766FA94F844305BB2B3F104
:10163000FF3F0DD094F845305BB2B3F1FF3F0BD0C4
:10164000FFF77AFAA36B5BB12046FFF716FD70BD7A
:10165000002384F84430EDE7002384F84530EFE7B9
:101660003246294604F1240000F016FEECE70000A3
:10167000064B1A681368B3FA83F35B09036013B966
:10168000D368186870470020704700BFB85000202A
:1016900008B54160006191420CD8D21A83699A4220
:1016A00001D3012010E0011D094B1868FFF792F9E2
:1016B000002009E09A4201D2994206D2011D054B51
:1016C0001868FFF787F9002008BD0120FCE700BF7C
:1016D000BC500020B850002038B5FFF70BFA0F4B74
:1016E0001B6813B1FFF728FA38BD0D4D2846FFF7E8
:1016F00057F90C4C2046FFF753F90B4B1D600B4B71
:101700001C6000220C210A20FFF741FD034B1860EA
:101710000028E7D00649FFF76DFFE3E7EC50002013
:10172000C0500020D4500020B8500020BC500020F1
:101730000C47000800B583B0FFF7CEFF0D4B1B68C8
:101740005BB10D4B01930123009300234FF4827290
:101750000A490B4800F0DFFA40B94FF0100383F359
:101760001188BFF36F8FBFF34F8FFEE703B05DF8B3
:1017700004FB00BFEC500020F0500020144700088C
:101780004D1A0008C8B130B585B015460446174A51
:10179000106840B31A4601910295039405291DDC97
:1017A00000F0FCFE022811D000231A4601A90F48C0
:1017B0000068FFF711FD05B030BD4FF0100383F353
:1017C0001188BFF36F8FBFF34F8FFEE70023089A96
:1017D00001A906480068FFF7FFFCECE7002301A918
:1017E000FFF7CFFDE7E70020E5E700BFEC50002062
:1017F00070B582B01A4B1B681A6852B3DB681E685A
:10180000DC68251D2846FFF7FFF8636A20469847E5
:10181000E369012BEED1A36933449E4207D2636092
:10182000246129460E4B1868FFF7D4F8E2E700213F
:1018300000910B4632462046FFF7A4FF0028D9D17D
:101840004FF0100383F31188BFF36F8FBFF34F8FF7
:10185000FEE7044A106802490860136002B070BDD8
:10186000B8500020BC50002038B5054600F012FBEF
:101870000446074B1B68834205D800232B60044BAA
:101880001C60204638BDFFF7B3FF01232B60F6E74D
:10189000E850002070B582B005460E46144B1B6818
:1018A000DB68DC68201DFFF7AFF8E369012B04D08B
:1018B000636A2046984702B070BDA1692B46324644
:1018C00029442046FFF7E4FE0028F1D000210091D2
:1018D0000B462A462046FFF755FF0028E8D14FF077
:1018E000100383F31188BFF36F8FBFF34F8FFEE7B1
:1018F000B850002070B582B006460C4600F0C2FA1F
:1019000001A8FFF7B1FF019B1BBB05460CB9B04214
:1019100018D22CB1114B1B681C68B4FA84F464090A
:101920002246711B0E4B1868FFF778FE00F044FB4F
:1019300088B90C4B4FF080521A60BFF34F8FBFF342
:101940006F8F08E000F038FB29463046FFF7A2FF12
:1019500001E000F031FB02B070BD00BFBC500020C0
:10196000EC50002004ED00E030B587B000231A46AB
:1019700003A935480068FFF76BFD002861D0039B81
:10198000002BF3DB059C636913B1201DFFF73CF8C6
:1019900002A8FFF769FF039B092BE7D801A252F8C1
:1019A00023F000BFCD190008CD190008CD1900089B
:1019B0006D190008151A00083B1A0008CD19000817
:1019C000CD1900086D190008151A00080499A569B9
:1019D0000B46024629442046FFF75AFE0028C5D090
:1019E000636A20469847E369012BBFD1A2690021B1
:1019F00000910B46049802442046FFF7C3FE0028DE
:101A0000B4D14FF0100383F31188BFF36F8FBFF38E
:101A10004F8FFEE70499A16131B1034602460144AC
:101A20002046FFF735FEA1E74FF0100383F311883E
:101A3000BFF36F8FBFF34F8FFEE72046FFF77CFAAF
:101A400094E707B030BD00BFEC50002000B583B074
:101A500001A8FFF70DFE0199FFF74CFFFFF784FF88
:101A6000F6E7002301E0013001330278A52AFAD01D
:101A7000C3F38F0070470000084B1B681B683BB125
:101A8000064B1B68DB68DB685A68054B1A607047B9
:101A9000034B4FF0FF321A60704700BFF850002030
:101AA0001052002010B50446006BFFF745FA20469F
:101AB000FFF742FA10BD2DE9F04781460D46174663
:101AC0009A46089EDDF824800A9C9200A521206B8E
:101AD00001F09AFC236B07F18042013A03EB820785
:101AE00027F007070023132B07D8E95CE21882F8D8
:101AF0003410EA5C0AB10133F5E7002384F847307B
:101B0000092E00D90926E662266500256565201D97
:101B1000FEF751FF04F11800FEF74DFF2461C6F1F6
:101B20000A06A6616462A565E56584F860505246C0
:101B300049463846FEF7B0FF2060B8F1000F01D0EB
:101B4000C8F80040BDE8F08738B5002407E004EB92
:101B5000840293000E481844FEF722FF0134092C3A
:101B6000F5D90C4D2846FEF71BFF0B4C2046FEF71F
:101B700017FF0A48FEF714FF0948FEF711FF09484E
:101B8000FEF70EFF084B1D60084B1C6038BD00BF00
:101B900000510020E4510020F8510020185200208C
:101BA0004452002030520020F8500020FC50002009
:101BB00010B50446FEF79EFF214A136801331360F7
:101BC000204B1B685BB1204B1B686BB91D4B1B681E
:101BD000DA6AE36A9A4207D81A4B1C6004E0194B90
:101BE0001C601368012B27D0184A13680133136057
:101BF000A364E36A01229A401549086802430A6017
:101C000003EB83039A00211D12481044FEF7D6FE11
:101C1000FEF792FF0C4B1B686BB10A4B1B68DA6A2C
:101C2000E36A9A4207D20C4B4FF080521A60BFF31E
:101C30004F8FBFF36F8F10BDFFF786FFD4E700BF54
:101C4000CC510020F45000202C520020DC51002008
:101C5000E05100200051002004ED00E070B5044682
:101C60000E461D4B1D681D4B18680430FEF7CCFE58
:101C700050B91A4B1B68DA6A012303FA02F21849B9
:101C80000B6823EA02030B60B4F1FF3F13D02C442E
:101C9000124B1B685C60A54216D8124B18680F4B9C
:101CA00019680431FEF796FE0F4B1B68A34212D948
:101CB0000D4B1C600FE0002EE9D0084B1968043171
:101CC0000A48FEF77BFE06E0094B1868034B1968CB
:101CD0000431FEF77FFE70BD58520020F450002002
:101CE000E0510020F8500020105200203052002017
:101CF000FC50002010B5044601F02AFC2046FEF7F7
:101D000047FA02E02023235401301228FAD9002395
:101D10002354204410BD2DE9F04385B00746884682
:101D2000154699469000FFF779F8F8B10646642009
:101D3000FFF774F80446A8B10663D4B100230393F7
:101D400002940D9B01930C9B00934B462A464146FF
:101D50003846FFF7B0FE2046FFF72AFF012005B006
:101D6000BDE8F0833046FFF7E7F8E6E74FF0FF30D5
:101D7000F5E74FF0FF30F2E738B5D0B10546194B23
:101D80001B68834224D0FEF7B5FE6C69FEF7D4FED3
:101D9000154B1B68A3421DD0144B1B68A3421BD0DC
:101DA000134B9C420ED0134B9C4219D074B10120AE
:101DB0000FE04FF0100383F31188BFF36F8FBFF371
:101DC0004F8FFEE7AB6A4BB9032002E0042000E02E
:101DD000002038BD0220FCE70220FAE70220F8E7E5
:101DE0000420F6E7F4500020F8500020FC500020BA
:101DF000305200204452002000B583B01A4B0193AA
:101E000000230093822219491948FFF784FF012813
:101E100007D0012808D0B0F1FF3F1CD003B05DF817
:101E200004FBFFF787FCF4E74FF0100383F31188FE
:101E3000BFF36F8FBFF34F8F0E4B4FF0FF321A601F
:101E40000D4B01221A6000230C4A13600C4A1360E8
:101E5000FEF7E2FEE2E74FF0100383F31188BFF3D1
:101E60006F8FBFF34F8FFEE70C52002044470008EE
:101E700055210008105200202C52002058520020FA
:101E8000C8620020024A136801331360704700BF24
:101E9000D8510020014B1868704700BF58520020ED
:101EA000F8B53A4B1B68002B64D1394B1D680135DE
:101EB0001D60C5B9374B1B681B6843B14FF0100359
:101EC00083F31188BFF36F8FBFF34F8FFEE7314A63
:101ED0001168314B186810601960304A136801337B
:101EE0001360FFF7C9FD2E4B1B68AB4238D90024A5
:101EF0002C4B1B68DB6A03EB83039A002A4B9B582D
:101F0000012B3CD901243AE00124224B1B681B68B9
:101F100043B3204B1B68DB68DE6873689D4226D3A1
:101F2000371D3846FEF770FDB36A1BB106F1180085
:101F3000FEF76AFDF36A01229A401C4908680243D1
:101F40000A6003EB83039A00394617481044FEF7F2
:101F500035FDF26A134B1B68DB6A9A42D4D2D4E790
:101F60000024D2E70E4B4FF0FF321A60C0E70C4A54
:101F70001360BDE70E4A13680133136000240D4B54
:101F80001B6803B101242046F8BD00BFD8510020D2
:101F900058520020F8500020FC500020145200201D
:101FA00010520020F450002000510020E051002089
:101FB000D45100205C52002038B5334B1B6843B924
:101FC0004FF0100383F31188BFF36F8FBFF34F8F70
:101FD000FEE7FEF78FFD2C4B1A68013A1A601B686A
:101FE000002B4DD1294B1B6823B90024FEF7A4FD1B
:101FF000204638BD0024264B1B681BB3244BDB68EE
:10200000DC6804F11800FEF7FFFC251D2846FEF7EA
:10201000FBFCE36A01229A401E49086802430A60F9
:1020200003EB83039A0029461B481044FEF7C6FCC5
:10203000E26A1A4B1B68DB6A9A42DCD3184B012216
:102040001A60D8E70CB1FFF717FD164B1C6854B1A6
:10205000FFF726FF10B1124B01221A60013CF7D1A5
:10206000104B00221A600E4B1B685BB10E4B4FF0F9
:1020700080521A60BFF34F8FBFF36F8F0124B5E713
:102080000024B3E70024B1E7D8510020CC51002050
:1020900018520020E051002000510020F450002090
:1020A0005C520020D451002004ED00E010B5A8B12E
:1020B00004460F4B1B6843B14FF0100383F31188A4
:1020C000BFF36F8FBFF34F8FFEE7FFF7DBFE0021FB
:1020D0002046FFF7C3FDFFF76FFF38B9054B4FF000
:1020E00080521A60BFF34F8FBFF36F8F10BD00BFD8
:1020F000D851002004ED00E0134B1B6813B310B55A
:10210000FFF7C0FE114B1C68FFF756FF24B90E4BBA
:102110001B68002BF4D110BDFEF7ECFC0B4BDB6809
:10212000DC68201DFEF770FC094A1368013B136050
:10213000054A1368013B1360FEF7FEFC2046FFF7DB
:10214000B1FCE4E7704700BFD051002044520020AA
:10215000CC51002008B5FFF7CFFF064B1B68012BC1
:10216000F9D9054B4FF080521A60BFF34F8FBFF380
:102170006F8FF0E70051002004ED00E0334B1B6847
:102180001BB1334B01221A60704710B5304B00224F
:102190001A60304B1A68304B1B689A4205D92F4998
:1021A0000868D31A816D0B4483652B4B1A602B4B47
:1021B0001B681B6B1A68B2F1A53F03D15A68B2F1D4
:1021C000A53F1BD0254B18681968343101F0ACF8D5
:1021D000234B1B68B3FA83F3DBB2C3F11F0303EB9A
:1021E00083018A001F498A588AB94FF0100383F38C
:1021F0001188BFF36F8FBFF34F8FFEE79A68B2F17C
:10220000A53FDFD1DB68B3F1A53FDBD1E0E715489F
:102210009A00D418A10001444C6864684C601A44C8
:10222000910008310844844209D003EB83039A00EB
:102230000C4B13445B68DA68084B1A6010BD616888
:102240000848142202FB03025160EEE7D851002037
:102250005C520020C8620020C8510020F4500020C9
:10226000E05100200051002040B94FF0100383F3EB
:102270001188BFF36F8FBFF34F8FFEE710B50C4689
:10228000044B19681831FEF7A5FB01212046FFF722
:10229000E5FC10BDF450002038B540B94FF01003F4
:1022A00083F31188BFF36F8FBFF34F8FFEE70C46A8
:1022B0001546064A11681831FEF780FB0DB14FF044
:1022C000FF3429462046FFF7C9FC38BDF4500020F2
:1022D00038B5C368DC6844B94FF0100383F3118844
:1022E000BFF36F8FBFF34F8FFEE704F11805284649
:1022F000FEF78AFB134B1B68E3B9251D2846FEF742
:1023000083FBE36A01229A400F49086802430A608E
:1023100003EB83039A0029460C481044FEF74EFB5A
:10232000E26A0B4B1B68DB6A9A4208D90120094B11
:10233000186038BD29460848FEF740FBF0E700204A
:10234000F7E700BFD8510020E051002000510020E5
:10235000F45000205C5200201852002030B1084A8E
:1023600012680260074A1268426070474FF010031B
:1023700083F31188BFF36F8FBFF34F8FFEE700BF6A
:10238000145200205852002038B550B1044689B983
:102390004FF0100383F31188BFF36F8FBFF34F8F9C
:1023A000FEE74FF0100383F31188BFF36F8FBFF385
:1023B0004F8FFEE70D46FEF79DFB114B19682B680A
:1023C000B3F1FF3F18D020680E4A1268904202D045
:1023D00062688A4212D96268881A834204D801244A
:1023E000FEF7AAFB204638BD521A13442B60204644
:1023F000FFF7B4FF0024F3E70024F1E70124EFE73F
:102400005852002014520020014B01221A607047DC
:102410005C5200202DE9F0410C4617461E468046CE
:10242000C8B10546256005F134036360EB6A23619A
:102430002B6BE361AB6CA360237B032B0ED02B6D66
:102440006361AB6DA361052E11D02673A7B900237C
:102450002384BDE8F0810B4B1D68E3E7FFF712FD15
:10246000AB6A0BB102232373FFF7A6FDE7E74046F3
:10247000FFF782FC2073E9E7286BFFF7F2FA20846C
:10248000E7E700BFF45000202DE9F0470C683CB3AB
:102490004B685B684B6001F108094B4507D09046DB
:1024A0000D4607464B68D3F80CA0002410E05B688B
:1024B0004B60F4E76B68DE6804EBC40399004346A5
:1024C000012239443046FFF7A5FF0134B24507D059
:1024D0006B685B686B609945ECD15B686B60E9E7A2
:1024E0002046BDE8F0870000F8B507460C461646C2
:1024F000FFF7C8FC224B1B68A3423CD80A250024E6
:10250000013D04EBC403980005EB85029300012212
:102510001C4919443844FFF7B7FF0444002DEFD19C
:1025200004EBC4039800184B196802223844FFF7E3
:10253000ABFF044404EBC4039800144B1968022257
:102540003844FFF7A1FF044404EBC40398000422BD
:102550000F493844FFF798FF044404EBC403980084
:1025600003220C493844FFF78FFF044426B10A4B7D
:102570001B68336000E00024FFF71EFD2046F8BD15
:10258000CC51002000510020F8500020FC500020C9
:102590004452002030520020C8620020054B1B68C6
:1025A00033B1054B1B680BB1002070470220704708
:1025B000012070472C520020D8510020002845D01F
:1025C00038B50446C26A22490968C96A8A4214D2E7
:1025D0008169002905DB1E490968C96AC1F10A0140
:1025E0008161606902EB820291001A4A0A449042BA
:1025F00004D0174A1268D26AE26238BD251D284607
:10260000FEF702FA90B1124B1B68DB6AE36201220B
:102610009A401149086802430A6003EB83039A0059
:1026200029460C481044FEF7C9F9E6E7E36A03EBD4
:1026300083018A0007498A58002AE4D101229A407E
:1026400005490B6823EA02030B60DCE7704700BF13
:10265000F450002000510020E0510020002849D013
:1026600038B50446264A1268824208D04FF010035B
:1026700083F31188BFF36F8FBFF34F8FFEE7426D77
:1026800042B94FF0100383F31188BFF36F8FBFF38C
:102690004F8FFEE7013A4265C06A216D88422BD018
:1026A00062BB251D2846FEF7AFF970B9E26A142314
:1026B00003FB02F31349CB583BB9012303FA02F29F
:1026C00011490B6823EA02030B60236DE362C3F137
:1026D0000A02A261012404FA03F20B4908680243CA
:1026E0000A602946074A142000FB0320FEF766F91A
:1026F000204638BD002070470020FAE70020F8E7A8
:10270000F450002000510020E0510020F0B585B0C9
:10271000054600230370324B1A6803921B6803EBD3
:10272000C3039800FEF77AFB002856D004460399AD
:102730000022FFF7D9FE03900023029331E05226D6
:1027400006E0532604E0442602E0002600E042268C
:10275000029B03EBC3039A00224451682846FFF70B
:10276000C9FA0546029B03EBC3039A00224413698E
:10277000029A02EBC202910021440F8C029A02EBF2
:10278000C202910021448A6801920097324615499D
:1027900000F0BEFE2846FDF7FBFC0544029B01331A
:1027A0000293029A039B9A4214D2029B03EBC30347
:1027B0009A002244137B013B032BC6D801A252F896
:1027C00023F000BF3F2700084F27000843270008D9
:1027D000472700082046FEF7AFFB05B0F0BD00BF5D
:1027E000CC5100203447000870B584B00446002363
:1027F00003702A4B1A6803921B6803EBC30398000B
:10280000FEF70CFB002847D00546039901AAFFF705
:102810006BFE0390019B224AA2FB03235B090193F9
:10282000002B36D0002302930FE0029B03EBC3037F
:102830009A002A4492691B4900F06AFE2046FDF77F
:10284000A7FC0444029B01330293029A039B9A4221
:102850001FD2029B03EBC3039A002A449669019B93
:10286000B6FBF3F6029B03EBC3039A002A445168BC
:102870002046FFF73FFA0446002ED6D0029B03EB1A
:10288000C3039A002A4433469269074900F040FE88
:10289000D4E72846FEF750FB04B070BDCC510020B1
:1028A0001F85EB51284700081C470008054B1B6893
:1028B00023B1044B1A68536D01335365014B1868FB
:1028C000704700BFF4500020044B9B6813F0010FC9
:1028D00001D1002070470120704700BF000801406F
:1028E0000B4A00239372D3721BB10A4B0A4A1A6037
:1028F0007047084A02EB0312642111810221117111
:1029000000219172D17211730133DBB2ECE700BF89
:102910007052002060520020C928000800B583B022
:1029200001210420FDF78EFE02238DF806302823B6
:102930008DF8073002A9012321F8043D0248FDF774
:102940008FFD03B05DF804FB0008014008B5FFF7F8
:10295000C7FFFFF7E3FF08BD032809D004280CD008
:10296000022800D07047074B4FF400521A6170479D
:10297000044B4FF480421A617047024B4FF40042FF
:102980001A61EFE70010014030B583B0012110203B
:10299000FDF758FE01211020FDF754FE0121102003
:1029A000FDF750FE0220FFF7D7FF0320FFF7D4FF0B
:1029B0000420FFF7D1FF02238DF8063010238DF895
:1029C000073002AC4FF4005324F8043D0B4D214670
:1029D0002846FDF745FD4FF48043ADF8043021460D
:1029E0002846FDF73DFD4FF40043ADF80430214685
:1029F0002846FDF735FD03B030BD00BF0010014093
:102A000003280AD004280ED0022800D07047094AB3
:102A1000D36883F40053D3607047064AD36883F4C5
:102A20008043D3607047034AD36883F40043D36084
:102A3000ECE700BF001001402C4B984234D003F566
:102A40000063984233D003F5C053984232D003F567
:102A50008063984231D003F58063984230D0B0F162
:102A6000804F30D0A3F5A83398422ED003F5806371
:102A700098422CD003F5806398422AD003F58063F6
:102A8000984228D003F58063984226D003F58063EE
:102A9000984224D003F58063984222D003F58063E6
:102AA000984220D0002070474FF4006070474FF4E8
:102AB000005070474FF4002070474FF4801070476B
:102AC0004FF4001070470120704702207047042027
:102AD0007047082070471020704720207047402022
:102AE0007047802070474FF480707047002C014081
:102AF000F0B587B004460F4616461D46694B98420E
:102B000009D003F50063984205D0FFF795FF012136
:102B1000FDF7A6FD05E02046FFF78EFF0121FDF73A
:102B200091FD002F4AD0604B1B685A08632F00F2BA
:102B300085805E4AA2FB03239B0BB3FBF7F39BB29A
:102B4000013B9BB242F20F720493ADF808200023C0
:102B5000ADF8143003938DF8163002A92046FDF726
:102B60008DFD01212046FDF7E6FD0122114620469C
:102B7000FDF7D7FD01212046FDF7C6FD494B9C42DC
:102B800072D0B4F1804F7ED0A3F594339C427CD0B8
:102B900003F580639C427AD003F580639C4278D031
:102BA00003F580639C4276D003F580639C4274D029
:102BB00003F590339C4272D0002356E0002120465A
:102BC000FDF7A2FD374B9C421CD0B4F1804F27D0BB
:102BD000A3F594339C4225D003F580639C4223D017
:102BE00003F580639C4221D003F580639C421FD093
:102BF00003F580639C421DD003F590339C421BD0AB
:102C0000002300E019238DF804308DF805608DF85D
:102C1000065000238DF8073001A8FDF78DFE30E047
:102C20001C23F0E71D23EEE71E23ECE73223EAE73F
:102C30003623E8E73723E6E72C23E4E740F6B7310D
:102C40008F420AD81A4AA2FB03239B09B3FBF7F36E
:102C50009BB2013B9BB2632276E7B2FBF7F39BB2D8
:102C6000013B9BB200226FE719238DF804308DF8E9
:102C700005608DF8065001238DF8073001A8FDF797
:102C80005BFE07B0F0BD1C23EFE71D23EDE71E231D
:102C9000EBE73223E9E73623E7E73723E5E72C23A1
:102CA000E3E700BF002C0140000000205917B7D116
:102CB0001F85EB5130B587B001210220FDF7D0FC14
:102CC000164B1B68164AA2FB0323DB0C4FF47A72E7
:102CD0000492013BADF808300024ADF81440039491
:102CE000104D02A92846FDF7C9FC01212846FDF731
:102CF00022FD01212846FDF707FD1D238DF8043034
:102D000004238DF805308DF8064001238DF8073037
:102D100001A8FDF711FE07B030BD00BF0000002084
:102D200083DE1B430004004070B505460C46164682
:102D3000042900D94C1F2648FDF712FD2118012D4A
:102D400006D0022D14D0032D22D0042D30D070BD1A
:102D5000204B1E601E4C2046FDF7FAFC0221204647
:102D6000FDF70CFD012202212046FDF7DAFCEEE71B
:102D7000194B1E60164C2046FDF7ECFC0421204642
:102D8000FDF7FCFC012204212046FDF7CAFCDEE72A
:102D9000124B1E600E4C2046FDF7DEFC082120463B
:102DA000FDF7ECFC012208212046FDF7BAFCCEE736
:102DB0000B4B1E60064C2046FDF7D0FC1021204630
:102DC000FDF7DCFC012210212046FDF7AAFCBEE73E
:102DD00000040040805200208452002088520020CD
:102DE0008C52002010B502212548FDF7BBFC78B9B4
:102DF00004212348FDF7B6FCC0B908212048FDF79F
:102E0000B1FC08BB10211E48FDF7ACFC50BB10BD47
:102E10001B4C02212046FDF7B1FC00220221204676
:102E2000FDF77FFC174B1B689847E1E7144C042122
:102E30002046FDF7A3FC002204212046FDF771FC8B
:102E4000114B1B689847D8E70D4C08212046FDF729
:102E500095FC002208212046FDF763FC0B4B1B6804
:102E60009847CFE7064C10212046FDF787FC00224B
:102E700010212046FDF755FC054B1B689847C6E717
:102E8000000400408052002084520020885200201C
:102E90008C5200200A4B0B4A1A600B4A5A600B4AAC
:102EA0009A604FF400629A81DA8100221A825A8273
:102EB000DA821A835A839A82DA611A625A627047F6
:102EC0009062002000440040905A00209052002060
:102ED00008B54FF4E130FDF7D7F940210148FDF77F
:102EE000F9FC08BD0044004000B583B026238DF8EE
:102EF000043001238DF8053000228DF806208DF86E
:102F0000073001A8FDF718FD03B05DF804FB70B5AC
:102F100004460E46FDF7EEFD658BADB2FDF70CFEE7
:102F20000DB9002070BDA268238B9BB2D35C3370B7
:102F3000FDF7E0FD238B01339BB22383E2899342AB
:102F400001D300232383638B013B9BB26383FDF793
:102F5000F3FD0120E6E710B5044640F22551006874
:102F6000FDF7BCFCF8B940F227712068FDF7B6FC0C
:102F7000002843D0A38A9BB2002B32D06268638AB8
:102F80009BB2D15C2068FDF796FC638A01339BB24B
:102F90006382A289934201D300236382A38A013B07
:102FA0009BB2A38210BD2068FDF789FCC0B2A26865
:102FB000E38A9BB2D054E38A01339BB2E382E28975
:102FC000934201D30023E382638B9BB29A4203D9DD
:102FD000638B01339BB26383636A002BC3D0984732
:102FE000C1E7002240F227712068FDF747FC01226B
:102FF00040F226612068FDF741FCD3E740F22661EC
:103000002068FDF76BFC0028CCD0A38A9BB253B993
:10301000002240F226612068FDF730FC236A002B75
:10302000C0D09847BEE76268638A9BB2D15C2068D3
:10303000FDF741FC638A01339BB26382A28993420C
:1030400001D300236382A38A013B9BB2A382A9E739
:1030500008B5FFF71FFFFFF73BFFFFF745FF08BD70
:1030600008B9024870470020704700BF90620020F6
:1030700010B50C46FFF7F4FF18B12146FFF747FFE4
:1030800010BD0020FCE708B5FFF7EAFF18B10022E9
:10309000C2820283428308BD08B50248FFF75BFF86
:1030A00008BD00BF9062002008B54FF44070FDF7E6
:1030B00039FCFFF7CDFFFFF767FCFFF747FCFFF791
:1030C000F9FD08BD00B583B0164B019302230093B0
:1030D00000234FF4007214491448FEF71CFE012827
:1030E00000D0FEE7124B01930323009300234FF41B
:1030F000007210491048FEF70EFE012800D0FEE7CE
:103100000E4B01930423009300234FF400720C49EB
:103110000C48FEF700FE012800D0FEE703B05DF882
:1031200004FB00BFC062002070470008093300089C
:10313000C46200207C47000815320008BC620020F1
:103140008C470008FD31000808B50420FFF758FC43
:10315000014800F0D5F908BDB447000808B50320C0
:10316000FFF74EFC014800F0CBF908BDA44700086A
:1031700008B50120FEF7FAF8034B186000B108BD4E
:10318000024800F0BDF9FAE7B86200204C47000899
:1031900008B5012383F31088FFF786FF00F0E6F8F7
:1031A000FFF790FFFFF7E4FFFEF726FEFEE70000C3
:1031B0000FB410B5B4B036AB53F8042B0093C9214B
:1031C00001A800F0F9F90B4C00234FF0FF3219462B
:1031D0002068FEF73DF901A9074800F01DF900231A
:1031E0001A4619462068FDF7F7FF34B0BDE81040D5
:1031F00004B07047B8620020A047000808B54FF43B
:103200007A70FEF753FF0248FFF7D2FFF7E700BFDF
:10321000E447000800B5FFB0FF238DF8F7312E48D2
:10322000FFF7C6FF2D48FFF7C3FF2D48FFF7C0FF8C
:1032300026E02C48FFF7BCFF2B48FFF7B9FF684694
:10324000FFF764FA294C69462046FFF7B1FF28488A
:10325000FFF7AEFF2748FFF7ABFF2748FFF7A8FFB0
:103260006846FFF7C1FA69462046FFF7A1FF9DF8BF
:10327000F731313BDBB2022B1ED96420FEF716FF7B
:103280000DF2F7110020FFF7F3FE9DF8F731322B16
:1032900004D0332B09D0312BE9D1CAE7174A4CF2BD
:1032A00050310120FFF740FDE1E7154A4CF2503163
:1032B0000220FFF739FDDAE71248FFF779FF0748E8
:1032C000FFF776FF0648FFF773FF0020FFF7DBFEEE
:1032D000FF238DF8F731D0E76C48000894480008C8
:1032E000B4480008D44800080C49000844490008C4
:1032F000404700084C490008844900085D31000837
:1033000049310008BC49000808B50220FFF778FBE6
:103310004FF47A70FEF7CAFE0148FFF749FFF4E761
:10332000FC470008FEE7000008B50248FFF740FF31
:1033300008BD00BFC44700087047000000220AE033
:10334000064B995C064B9980054B1B8813F0400F88
:10335000FAD00132D2B2292AF2D9FEE7E0490008B8
:1033600000380140FEE7FEE7FEE7704708B500239E
:10337000012244F620610248FFF7BAFB08BD00BFF6
:103380000010004008B501210648FDF7EBF900B92F
:1033900008BD054A13680133136001210148FDF798
:1033A000EDF9F5E700100040C8620020002103E0BD
:1033B0000A4B5B584350043109480A4B42189A4261
:1033C000F6D3094A02E0002342F8043B074B9A4235
:1033D000F9D3FDF70FF8FFF7DBFE7047C44A00088A
:1033E000000000207C0000207C0000201C630020E6
:1033F000FEE710B5431E0A44914200D110BD11F8FA
:10340000014B03F8014FF7E702440346934200D112
:10341000704703F8011BF9E70FB40A4B13B51C689A
:1034200024B1A36913B9204600F084FA05AB049ACD
:10343000A1680193204600F08FFD02B0BDE8104066
:1034400004B070471800002070B50E46054618B14C
:1034500083690BB900F06EFAAB69AC6813B9284602
:1034600000F068FA234B9C4217D16C68A3891B07B4
:103470001DD52369DBB1013EA36816F8011F013B8E
:10348000A360E9B9002B2EDA22460A21284600F073
:10349000A1F8013011D00A2011E0174B9C4201D154
:1034A000AC68E3E7154B9C4208BFEC68DEE72146B9
:1034B000284600F0E1F80028DDD04FF0FF3070BD65
:1034C000002B04DAA2699A4206DC0A2904D0236898
:1034D0005A1C22601970CFE72246284600F07AF87D
:1034E0000130C9D1E9E723680A205A1C226018700C
:1034F000E5E700BF304A0008504A0008104A0008BB
:10350000024B01461868FFF79FBF00BF180000205C
:103510000EB400B59CB01DAB029006906FF0004158
:10352000094807910491094953F8042B0591006853
:10353000019302A900F0EEFB029B00221A701CB05E
:103540005DF804EB03B07047180000200802FFFF8D
:10355000034611F8012B03F8012B002AF9D170471B
:1035600030B5141E05469BB0184605DA8B232B6038
:103570004FF0FF301BB030BD4FF40273ADF80C308C
:1035800014BF04F1FF332346029305934FF6FF73F4
:1035900000910491ADF80E3002461E9B6946284604
:1035A00000F0B8FB431CBCBF8B232B60002CE1D088
:1035B000009B00221A70DDE707B5009313460A4608
:1035C000014603480068FFF7CBFF03B05DF804FB3A
:1035D00018000020F8B50E461446054618B1836958
:1035E0000BB900F0A7F9214B9C422AD16C68A36962
:1035F000A360A3891A072ED5236963B323692068C2
:10360000C01A6369F6B28342374604DC2146284675
:1036100000F026F928BBA368013BA36023685A1C6D
:1036200022601E7063690130834204D0A389DB07E6
:1036300019D50A2E17D12146284600F011F990B16C
:103640000FE00B4B9C4201D1AC68D0E7094B9C4288
:1036500008BFEC68CBE72146284600F00DF80028AB
:10366000CCD04FF0FF373846F8BD00BF304A0008D5
:10367000504A0008104A0008324B70B51D680646D3
:103680000C4625B1AB6913B9284600F053F92E4B0F
:103690009C420FD16C68B4F90C309AB215072CD447
:1036A000D00611D40922326043F04003A3814FF0C9
:1036B000FF303EE0254B9C4201D1AC68EBE7244B48
:1036C0009C4208BFEC68E6E7510712D5616B41B137
:1036D00004F14403994202D0304600F019FA002365
:1036E0006363A38923F02403A38100236360236918
:1036F0002360A38943F00803A38123694BB9A389FD
:1037000003F42073B3F5007F03D02146304600F068
:10371000BFF9A28912F001030CD00023A3606369F2
:103720005B42A361236953B9B4F90C3013F08000F4
:10373000BAD170BD920758BF6369A360F2E7002059
:10374000F7E700BF18000020304A0008504A000880
:10375000104A00088A892DE9F041054610070C46F9
:1037600058D44B68002B05DC0B6C002B02DC0020CE
:10377000BDE8F081E66A002EF9D0002312F48052F1
:103780002F68216A2B6032D0606DA3895A0705D556
:103790006368C01A636B0BB1236CC01A0023024626
:1037A000E66A216A2846B047431CA38906D12968E6
:1037B0001D2948D8294ACA40D60744D5002262604C
:1037C000D9042269226004D5421C01D12B6803B9B7
:1037D0006065616B2F600029C9D004F144039942F0
:1037E00002D0284600F094F900206063C0E701236E
:1037F0002846B047411CC8D12B68002BC5D01D2BD3
:1038000001D0162B01D12F60B1E7A38943F040030B
:10381000A381ADE70F69002FA9D093070E6808BFF9
:103820004B690F6018BF0023A6EB07088B60B8F147
:10383000000F9CDD43463A46216AA66A2846B047F7
:10384000002806DCA38943F04003A3814FF0FF303A
:103850008EE70744A8EB0008E9E700BF010040201D
:1038600038B50B6905460C46DBB118B183690BB955
:1038700000F060F80C4B9C4209D16C68B4F90C3034
:103880007BB121462846BDE83840FFF763BF074BB0
:103890009C4201D1AC68F1E7054B9C4208BFEC6843
:1038A000ECE7002038BD00BF304A0008504A00084D
:1038B000104A0008002310B50446C0E900338360B5
:1038C00081814366C281C0E90433836119460822BD
:1038D0005C30FFF799FD054B6362054BA362054B16
:1038E000E362054B2462236310BD00BFB5440008AA
:1038F000D74400080F45000833450008014900F08F
:1039000085B800BF6138000870B54A1E6825554368
:103910000E4605F1740100F049F9044640B100215A
:10392000C0E900160C30A06005F16802FFF76CFDDD
:10393000204670BD836910B5044633BBC0E912331D
:103940000365124B124A1B688262984204BF01232E
:10395000836100F01FF86060204600F01BF8A06053
:10396000204600F017F80022E06004216068FFF7AD
:10397000A1FF01220921A068FFF79CFF022212216A
:10398000E068FFF797FF0123A36110BD0C4A000810
:10399000FD380008F8B51B4B1E68B369074613B91C
:1039A0003046FFF7C7FF4836D6E90134013B03D55F
:1039B000336833B13668F7E7B4F90C506DB1683449
:1039C000F4E704213846FFF79FFF30600028F1D16B
:1039D0000C233B6004462046F8BD0B4B6566C4E9EA
:1039E0000055A560C4E90335C4E9055508222946F8
:1039F00004F15C00FFF708FDC4E90D55C4E9125558
:103A0000E9E700BF0C4A00080100FFFF2DE9F84379
:103A10008046894600F14804002614B93046BDE8C6
:103A2000F883D4E90175013F01D52468F5E7AB8936
:103A3000012B07D9B5F90E30013303D02946404692
:103A4000C84706436835EEE770B50E46B1F90E106B
:103A5000002996B014461D4607DA00232B60B3896F
:103A60001A0610D44FF480630EE06A4600F088FD19
:103A70000028F2DB019A02F47042A2F500535A4288
:103A80005A412A60EEE740230020236016B070BD43
:103A90008B8973B59D0706460C4607D504F147038D
:103AA000236023610123636102B070BD01AB6A46EC
:103AB000FFF7CAFF00990546304600F077F848B98D
:103AC000B4F90C309A05EFD423F0030343F002035A
:103AD000A381E3E70D4BB362A389206043F0800329
:103AE000A381009B6361019B20615BB1B4F90E105F
:103AF000304600F057FD28B1A38923F0030343F0BB
:103B00000103A381A3891D43A581CDE7FD380008EA
:103B100038B50546002945D051F8043C0C1F002B50
:103B2000B8BFE41800F079FD1F4A1368104633B996
:103B3000636014602846BDE8384000F06FBDA342C2
:103B40000CD921686218934204BF1A685B686360ED
:103B500004BF521822600460ECE713465A680AB1A9
:103B6000A242FAD919685818A0420BD12068014422
:103B7000581882421960DDD1106852685A600144B9
:103B80001960D7E702D90C232B60D3E720682118EE
:103B90008A4204BF11685268626004BF091821603C
:103BA0005C60C7E738BD00BFCC62002070B5CD1C9B
:103BB00025F0030508350C2D38BF0C25002D0646D1
:103BC00001DBA94203D90C233360002070BD00F053
:103BD00024FD214A1468214691B9204C23681BB961
:103BE000304600F057FC20602946304600F052FC79
:103BF000431C24D10C233360304600F00FFDE4E772
:103C00000B685B1B18D40B2B0FD90B60CD50CC1855
:103C1000304600F003FD04F10B00231D20F00700E7
:103C2000C31AD3D05A42E250D0E78C424B6816BF39
:103C3000636013600C46EBE70C464968CCE7C41C94
:103C400024F00304A04205D0211A304600F022FCE3
:103C50000130CFD02560DBE7CC620020D0620020AD
:103C60002DE9F0478E689E4282460C469046994662
:103C700037D88A8912F4906F31D0256809696F1A94
:103C80006569022305EB450595FBF3F509F1010391
:103C90003B449D4238BF1D46530530D52946FFF7AA
:103CA00085FF064650B90C23CAF80030A38943F0BB
:103CB0004003A3814FF0FF30BDE8F0873A46216909
:103CC000FFF797FBA38923F4906343F08003A3815C
:103CD000266165613E44ED1B2660A5604E464E455B
:103CE00000D94E4632464146206800F07DFCA3686C
:103CF0009B1BA36023681E4426600020DCE72A4645
:103D000000F08DFC06460028E2D121695046FFF7FD
:103D1000FFFEC8E72DE9F04F1D468B891F069DB0B9
:103D200080460C4616460FD50B696BB94021FFF74C
:103D30003DFF2060206128B90C23C8F800304FF007
:103D4000FF30C8E0402363610023099320238DF8EE
:103D5000293030238DF82A3003954FF0010B374678
:103D60003D4615F8013B0BB1252B3ED1B7EB060ABA
:103D70000BD05346324621464046FFF771FF0130D3
:103D800000F0A480099B534409933B78002B00F07A
:103D90009D8000234FF0FF32CDE905230493079364
:103DA0008DF853301A932F46052217F8011B5048FF
:103DB000FCF7F6F9049BD0B9D90644BF20228DF850
:103DC00053201A0744BF2B228DF853202A782A2A21
:103DD00015D0079A2F4600200A25394611F8013BD5
:103DE000303B092B4DD9B8B10FE02F46B8E7404A18
:103DF000801A0BFA00F0184304903D46D3E7039A6B
:103E0000111D12680391002A01DB079204E052425F
:103E100043F00203079204933B782E2B0CD17B785E
:103E20002A2B33D1039B1A1D1B680392002BB8BFAA
:103E30004FF0FF33023705932E4D39780322284681
:103E4000FCF7AEF938B14023401B03FA00F0049BA5
:103E5000034301370493397827488DF82810062248
:103E60007E1CFCF79DF9002838D0244B13BB039B24
:103E7000073323F0070308330393099B4B4409934B
:103E80006DE705FB023201200F46A6E7002301374C
:103E9000059319460A25384610F8012B303A092AAD
:103EA00003D9002BC8D00591C6E705FB01210123EA
:103EB0000746F0E703AB00932246114B04A94046A6
:103EC000AFF30080B0F1FF3F8146D6D1A3895B06F6
:103ED0003FF535AF09981DB0BDE8F08F03AB0093F7
:103EE0002246074B04A9404600F0C2F9EAE700BFAA
:103EF000704A0008764A00087A4A0008000000006C
:103F0000613C00089368013B002B10B4936008DA11
:103F10009469A34201DB0A2903D15DF8044BFFF742
:103F200059BB1368581C1060197008465DF8044BA3
:103F30007047F8B506460F461446D518AC4201D175
:103F4000002007E03A4614F8011B3046FFF7DAFF7D
:103F5000431CF3D1F8BD00002DE9F04F0C469DB095
:103F600017461D46064618B183690BB9FFF7E2FCF8
:103F70007C4B9C4258D17468A38918075ED523698D
:103F8000002B5BD00023099320238DF829303023A8
:103F90008DF82A3003954FF0010BB846454615F8C9
:103FA000013B0BB1252B54D1B8EB070A0BD053467C
:103FB0003A4621463046FFF7BCFF013000F0C28090
:103FC000099B5344099398F80030002B00F0BA8005
:103FD00000234FF0FF32CDE90523049307938DF8BA
:103FE00053301A93A846052218F8011B5E48FCF7C7
:103FF000D7F8049B78BBD90644BF20228DF8532004
:104000001A0744BF2B228DF853202A782A2A2AD057
:10401000079AA84600200A25414611F8013B303B8B
:10402000092B69D960B324E0504B9C4201D1B4689C
:10403000A2E74F4B9C4208BFF4689DE721463046FB
:10404000FFF71AFB00289DD04FF0FF301DB0BDE8F0
:10405000F08FA846A2E7444A801A0BFA00F01843F2
:1040600004904546BEE7039A111D12680391002A89
:1040700001DB079204E0524243F0020307920493EB
:1040800098F800302E2B0ED198F801302A2B38D119
:10409000039B1A1D1B680392002BB8BF4FF0FF3320
:1040A00008F102080593334D98F8001003222846C2
:1040B000FCF776F840B14023401B03FA00F0049B64
:1040C000034308F10108049398F800102A488DF87A
:1040D0002810062208F10107FCF762F8002837D003
:1040E000264B1BBB039B073323F0070308330393C3
:1040F000099B4B44099350E705FB02320120884697
:104100008AE7002308F10108059319460A2540466D
:1041100010F8012B303A092A03D9002BC3D005919E
:10412000C1E705FB012101238046F0E703AB0093C3
:104130002246134B04A93046AFF30080B0F1FF3F95
:104140008146D5D1A3895B063FF57EAF09987DE70F
:1041500003AB009322460A4B04A9304600F088F8CE
:10416000ECE700BF304A0008704A0008504A0008D7
:10417000104A0008764A00087A4A00080000000049
:10418000333F00082DE9F04791461F468A680B69C6
:10419000DDF820809342B8BF1346C9F8003091F88B
:1041A000432006460C4612B10133C9F8003023689B
:1041B000990642BFD9F800300233C9F800302568AB
:1041C00015F0060507D104F1190AE368D9F80020B3
:1041D0009B1AAB4228DC94F843302268003318BFA6
:1041E000012392062DD404F1430239463046C047DC
:1041F000013020D02368E568D9F8002003F00603D9
:10420000042B08BFAD1AA36822690CBF25EAE57527
:1042100000259342C4BF9B1AED184FF000091A34D1
:104220004D451AD1002008E0012352463946304658
:10423000C047013003D14FF0FF30BDE8F0870135B2
:10424000C3E7E1185A1C302081F84300224494F857
:10425000451082F843100233C5E701232246394650
:104260003046C0470130E6D009F10109D8E7000027
:104270002DE9F04301F1430C0C46097E85B06E290F
:104280001746064698460C9A00F0B38022D8632958
:1042900036D00AD8002900F0B980582900F0838070
:1042A00004F1420584F8421032E0642901D0692902
:1042B000F6D120681368050603F104012AD51B68AE
:1042C0001160002B03DA2D225B4284F843206F48F3
:1042D0000A2239E0732900F09D8008D86F2920D088
:1042E0007029DDD1236843F02003236003E07529A2
:1042F00017D07829D4D1782384F84530644855E024
:104300001368191D1B68116004F1420584F84230DE
:1043100001238CE01B68116010F0400F18BF1BB226
:10432000CFE713682568181D1060280601D51B68A3
:1043300002E06806FBD51B8854486F2914BF0A2287
:104340000822002184F843106568A560002DC0F2A2
:104350009580216821F004012160002B3DD1002DC2
:1043600040F08E806546082A0BD12368DB0708D50C
:10437000236962689A42DEBF302305F8013C05F1EB
:10438000FF35ACEB05032361CDF800803B4603AA63
:1043900021463046FFF7F6FE01304DD14FF0FF3099
:1043A00005B0BDE8F083394884F8451013682168EA
:1043B0001D1D1B6815600A060BD5CA0744BF41F0D6
:1043C000200121601BB9226822F020022260102205
:1043D000B7E74D0648BF9BB2EFE76546B3FBF2F186
:1043E00002FB1133C35C05F8013D0B460029F5D1F2
:1043F000B9E7136825686169181D106028061B68F5
:1044000001D5196002E06A06FBD5198000232361FB
:104410006546B9E71368191D11601D6862680021BF
:104420002846FBF7BDFE08B1401B6060636823614E
:10443000002384F84330A7E723692A4639463046EB
:10444000C0470130AAD023689B0713D4E068039BC0
:104450009842B8BF1846A3E701234A46394630467A
:10446000C04701309AD00135E368039A9B1AAB42EA
:10447000F2DCEBE7002504F11909F5E7002BACD1DC
:10448000037884F8423004F142056CE7814A000861
:10449000924A000838B5064C0023054608462360BA
:1044A00000F026F9431C02D1236803B12B6038BD0C
:1044B0001863002010B50C46B1F90E1000F0D6F8C4
:1044C0000028ABBF636DA3891B1823F48053ACBFD6
:1044D0006365A38110BD2DE9F0411F468B89DB0583
:1044E00005460C46164605D502230022B1F90E10EA
:1044F00000F068F8A389B4F90E1023F48053A38167
:1045000032463B462846BDE8F04100F017B810B5EA
:104510000C46B1F90E1000F055F8431CA38915BFE5
:10452000606523F4805343F48053A38118BFA381B3
:1045300010BDB1F90E1000F013B8000038B5074CEB
:10454000054608461146002222601A46FBF788FEFF
:10455000431C02D1236803B12B6038BD18630020CF
:1045600038B5064C002305460846236000F098F84D
:10457000431C02D1236803B12B6038BD18630020AF
:1045800038B5074C0023054608461146236000F065
:104590008FF8431C02D1236803B12B6038BD00BFE4
:1045A0001863002038B5064C0023054608462360F2
:1045B00000F086F8431C02D1236803B12B6038BD9C
:1045C0001863002038B5074C0546084611460022FE
:1045D00022601A4600F07CF8431C02D1236803B124
:1045E0002B6038BD18630020884210B501EB020330
:1045F00007D8421E99420AD011F8014B02F8014F28
:10460000F8E78342F5D98118D21AD34200D110BD00
:1046100013F8014D01F8014DF7E770477047F8B501
:10462000074614460E4621B91146BDE8F840FFF78B
:10463000BDBA22B9FFF76CFA25462846F8BD00F04E
:1046400027F8A0420FD221463846FFF7AFFA0546B9
:104650000028F2D031462246FEF7CBFE31463846DE
:10466000FFF756FAE9E73546E7E7000038B5074CAB
:10467000054608461146002222601A4600F030F82E
:10468000431C02D1236803B12B6038BD186300209E
:1046900051F8043C181F002BBCBF0B58C0187047C2
:1046A000024B58221A604FF0FF3070471863002009
:1046B000024B58221A604FF0FF30704718630020F9
:1046C000024B58221A600020704700BF1863002078
:1046D000024B58221A604FF0FF30704718630020D9
:1046E000024B58221A604FF0FF30704718630020C9
:1046F000044A05491368002B08BF0B461844106094
:1047000018467047D46200201C630020546D72511B
:1047100000000000546D722053766300092575096E
:1047200009257525250D0A0009257509093C31253E
:10473000250D0A00092563092575092575092575C3
:104740000D0A000049444C450000000054686572A1
:104750006520697320696E73756666696369656E45
:10476000742068656170206D656D6F72790D000051
:10477000765461736B4C45440000000076546173BD
:104780006B4D736750726F6365737300765461731A
:104790006B4374726F6C50726F63657373000000CB
:1047A00025730000496E2063616C6C6261636B204D
:1047B00031000000496E2063616C6C6261636B20A4
:1047C000320000007461736B3A20257320737461AA
:1047D000636B206973206F766572466C6F770D0A84
:1047E0000000000054686973206973204374726F7D
:1047F0006C205461736B0D0A0000000054686973EB
:10480000206973204C4544205461736B2C206C6FDD
:10481000776572207072696F72697479207468614B
:104820006E204374726F6C207461736B20616E64D0
:10483000206C6F6E67657220696E666F726D617451
:10484000696F6E206E656564656420746F20707298
:10485000696E74206F6E207374616E64617264207F
:104860006F75747075740D0A000000000D0A312E0A
:10487000205072696E74207461736B2072756E2D96
:1048800074696D6520737461746973746963730D01
:104890000A000000322E20456E61626C652054696A
:1048A0006D65722043433120696E74657272757054
:1048B000740D0A00332E20456E61626C65205469C8
:1048C0006D65722043433220696E74657272757033
:1048D000740D0A003D3D3D3D3D3D3D3D3D3D3D3D71
:1048E0003D3D3D3D3D3D3D3D3D3D3D3D3D3D3D3DF8
:1048F0003D3D3D3D3D3D3D3D3D3D3D3D3D3D3D3DE8
:104900003D3D3D3D3D3D0D0A000000004E616D65A1
:104910002020202020202020202020202020202097
:104920002020537461746520205072696F7269741D
:10493000792020537461636B2020204E756D0D0A21
:104940000000000025730D0A000000005461736B25
:104950002020202020202020202020202020202057
:1049600020204162732054696D6520202020202082
:10497000202020252554696D652020202020200D31
:104980000A0000002A2A2A2A2A2A2A2A2A2A2A2A25
:104990002A2A2A2A2A2A2A2A2A2A2A2A2A2A2A2A77
:1049A0002A2A2A2A2A2A2A2A2A2A2A2A2A2A2A2A67
:1049B0002A2A2A2A2A2A2A0D0A000000312E2050EB
:1049C00072696E74207461736B2072756E2D7469D8
:1049D0006D6520737461746973746963730D0A0083
:1049E0000D0A456E74657220486172644661756C8B
:1049F000745F48616E646C65722C205379737465C2
:104A00006D2048616C742E0D0A0000001C0000200F
:104A10000000000000000000000000000000000096
:104A20000000000000000000000000000000000086
:104A30000000000000000000000000000000000076
:104A40000000000000000000000000000000000066
:104A50000000000000000000000000000000000056
:104A60000000000000000000000000000000000046
:104A7000232D302B2000686C4C0065666745464747
:104A800000303132333435363738394142434445CA
:104A90004600303132333435363738396162636439
:104AA00065660000F8B500BFF8BC08BC9E467047BC
:0C4AB000F8B500BFF8BC08BC9E4670477B
:044ABC007501000878
:044AC0005101000898
:104AC40000B0710B02040608020C08100102030472
:104AD40006070809AAAAAAAA1C00002000000000D0
:104AE400304A0008504A0008104A0008000000003C
:104AF40000000000000000000000000000000000B2
:104B040000000000000000000000000000000000A1
:104B14000000000000000000000000000000000091
:104B24000000000000000000000000000000000081
:0C4B340000000000000000000000000075
:04000005080033AD0F
:00000001FF
