:020000040800F2
:1000000000C00020E95600080D3A0008113A000827
:10001000393A00083B3A00083D3A00080000000069
:10002000000000000000000000000000C1190008EE
:100030003F3A000800000000611A0008C51A0008D5
:100040002D5700082D5700082D5700082D57000880
:100050002D5700082D5700082D5700082D57000870
:100060002D5700082D5700082D5700082D57000860
:100070002D5700082D5700082D5700082D57000850
:100080002D5700082D5700082D5700082D57000840
:100090002D5700082D5700082D5700082D57000830
:1000A0002D5700082D5700082D5700082D57000820
:1000B0002D5700080D3600082D5700082D57000851
:1000C0002D5700082D5700082D5700082D57000800
:1000D0002D5700082D570008D93900082D57000862
:1000E0002D5700082D5700082D5700082D570008E0
:1000F0002D5700082D5700082D5700082D570008D0
:100100002D5700082D5700082D5700082D570008BF
:100110002D5700082D570008413A00082D570008B8
:100120002D5700082D5700082D5700082D5700089F
:100130002D5700082D5700082D5700082D5700088F
:100140002D5700082D5700082D5700082D5700087F
:1001500010B5054C237833B9044B13B10448AFF301
:1001600000800123237010BD8C00002000000000DF
:10017000506B000808B5034B1BB103490348AFF3AC
:10018000008008BD0000000090000020506B0008B7
:10019000034613F8012B002AFBD1181A01387047C7
:1001A00001F0FF01102A2BDB10F0070F08D010F828
:1001B000013B013A8B422DD010F0070F42B3F6D12C
:1001C000F0B441EA012141EA014122F007047FF045
:1001D00000070023F0E80256083C85EA010586EA9C
:1001E000010685FA47F5A3FA87F586FA47F6A5FAD8
:1001F00087F68EB9EED1F0BC01F0FF0102F00702E4
:1002000032B110F8013B013A83EA010313B1F8D18E
:100210000020704701387047002D06BF354603386F
:10022000073815F0010F07D1013015F4807F02BFA8
:10023000013015F4C03F0130F0BC0138704700BFF9
:1002400003685A004CBF43F0004323F000431844B6
:10025000704700BF61B32DE9F84F01F1FF3A9046B6
:100260000646D146002707EB090404EBD47464105A
:10027000E50071190846FFF7E3FFA245834605F143
:100280000800304409D0FFF7DBFFC34500F1FF3021
:1002900005D8404509D2671CE5E7C34505D9A74203
:1002A00002D004F1FF39DEE700210846BDE8F88FEF
:1002B00008467047012807D0022807D0044B0028C1
:1002C0000CBF18460020704702487047024870472C
:1002D000A1090008A5090008A909000830B5254BA7
:1002E00083B004468D1E4BB301A92846AFF30080AE
:1002F000F0B101992A46FFF7ADFF0146C0B1FFF703
:100300009FFF4B68A064012B2ED0002B01F104004D
:1003100026DBFFF795FF0023C4E913030368002BD6
:1003200012DBFFF78DFF00232061184603B030BDBC
:10033000002323610923184603B030BD0E490F483E
:10034000091AC9100191D5E7C3F30360FFF7B2FFA3
:10035000002814BF002309232061184603B030BDD4
:100360000123C4E91303D9E70023236105231846B9
:1003700003B030BD00000000286D0008C86B000805
:100380000368DA0710B5044606D49B0700F148005D
:1003900009D500F05FFC2368590709D51A070ED567
:1003A000DB0613D510BD00F04DFC23685907F5D4CA
:1003B00004F1D00000F056FC23681A07F0D404F5CD
:1003C000A87000F057FC2368DB06EBD404F5E87056
:1003D000BDE8104000F092BC036803B10344184626
:1003E000704700BF09207047704700BF70B50446D2
:1003F0000D4608E02B6C63612A46236921460120E3
:100400009847082808D1296C2046FFF767FF064661
:100410000028EFD006F054F90728FBD13046296CAC
:10042000FFF7E2FF281D00F001FC00BF2DE9F047B7
:100430000C1D054617460FCCADF5727D03AE0FC6F9
:100440000FCC0FC60FCC0FC694E80F0002ACD5F846
:100450000C80D5F8189086E80F000023236021E077
:10046000236C6B614FF4F07221467AA805F05FF9B6
:100470002B697AAA294630469847889BCDE90049DE
:100480008246636431462B462A460120C047074610
:10049000F8B94FF4F0727AA9204605F048F9BAF19C
:1004A000080F1CD1216C2846FFF718FF002F08BF4A
:1004B0000926074618BF0A260028D1D0A36B46F0AC
:1004C0001001CDE900492A46636401202B46C0474C
:1004D00000B1092738460DF5727DBDE8F087BAF105
:1004E000070FF6D13846216CFFF77EFF03A800F016
:1004F0009DFB00BF406C7047F0B5CB6B0B640D1DCE
:100500000F4606460FCDF9B001AC0FC40FCD0FC496
:100510000FCD0FC495E80F004FF0FF3584E80F00B2
:10052000009506E033696A46314698470828044634
:1005300008D110993046FFF7D1FE0028F2D00920EB
:1005400079B0F0BD6846FFF71BFF062CF7D139469E
:100550003046FFF74BFF00BF30B4DD6BC1608261F6
:1005600019461D64002230BC60E700BF70B5C66844
:1005700043690B64BEB903690A4604460D46014649
:1005800002209847072807D0082803D1294620468B
:10059000FFF72CFF06F094F83046296CFFF724FF94
:1005A000281D00F043FB0122FFF740FF06F088F80A
:1005B000C2681AB1CA6B0A64002237E79CE700BF21
:1005C000704700BF836813B1014601201847704788
:1005D000042907D8DFE801F00308060808000BB972
:1005E0000F2A03D9022070470120704700EB8202D6
:1005F00018465368009A1360704700BF10B584B066
:10060000002303AC0A4600941946FFF7E1FF039864
:1006100004B010BD042907D8DFE801F0030806087C
:1006200008000BB90F2A03D9022070470120704738
:1006300000EB8200009A126842601846704700BFC3
:1006400010B584B004AC002344F8042D0A4600948D
:100650001946FFF7DFFF04B010BD00BFF0B5D36B44
:100660001364151D07460E460FCDADF50F7D17AC73
:100670000FC40FCD0FC40FCD0FC495E80F004FF07E
:10068000FF3584E80F00169510E016A8FFF7D8FF95
:10069000314616A8B84716AA694678B9049B0820BF
:1006A0009847052804460AD0092807D026996846A5
:1006B000FFF714FE6A460C210028E6D0092416A88C
:1006C000FFF75EFE20460DF50F7DF0BD2DE9F04FE2
:1006D0000D46C96C89B00C1D164600F0030B0A6864
:1006E00006941F46002B68D0130CD9B212048DF863
:1006F0001D30022304EB810405928DF81C302B6D14
:10070000BBF1020F08BFAC6B13F0010346D101939C
:1007100000F008030093D4F80090B9F1000F00F046
:10072000F380022F45D0B4F80090B4F8028004346E
:10073000AB6C28F0010A0F2130469A44FFF75EFFA8
:10074000824534D829F001035344834294BF0020EA
:1007500001204FEA480808F0020809F0010948EAB8
:100760000908B8F1010F3AD031D3B8F1020F1AD10C
:10077000236823F0004ABBF1000F66D130B1009A24
:10078000002A6CD0BAF1000F00F09080002B00DA44
:1007900004340AF1010304EB8304BCE7304605A9E5
:1007A00000F046FB78B1092009B0BDE8F08F0020C9
:1007B000CFE7D4F804800834BAE712020323059285
:1007C000ADF81C309BE7082009B0BDE8F08FBBF105
:1007D000000F02D0002840F0B48004349BE7BBF146
:1007E000000F18D1A8B1D4E90023991C4FEAD272A6
:1007F000D9D005F158010133049100F0B580201DD6
:10080000FFF7EAFD04AB01462846AFF3008000285D
:1008100067D108347FE70D213046D5F82080FFF7F7
:10082000EDFE8045F5D1AB6A9C42F2D12046FFF740
:1008300007FD0F2102463046FFF702FF30462A46E9
:100840000021FFF7FDFE0720AEE70D213046D5F869
:100850002080FFF7D3FE804532D0236896E7BAF1B7
:10086000000F23D005F1580304F10408CDF808B0B7
:10087000DDF800900397A3461C4602E05745B946B1
:1008800040D040460494FFF7A7FD04AB0146002288
:100890002846AFF3008009F1010708F10408002899
:1008A000ECD0D1455C46DDE902B7D6D130460D210A
:1008B000FFF7A4FE049B2862C5E90934062073E70C
:1008C000AB6A9C42C9D104224FF00008A318C5E9C5
:1008D0000AA8C5E90C23236843454DDB0123019396
:1008E00057E780460D213046FFF788FEB8F1020F2A
:1008F00028623ED12B46049A43F82C2F6B62AC62DF
:10090000062051E75C46D1E705A9304600F090FA91
:1009100000287FF448AF019B002B3FF454AF0F2118
:100920003046FFF76BFE0E2102463046FFF788FE89
:1009300030461A4A0F21FFF783FE072009B0BDE8B1
:10094000F08F2046FFF77CFC04340746AC63284652
:10095000AFF3008000283FF426AF30463A460F211F
:10096000FFF76EFE07201FE730460D21FFF746FE1A
:100970002862049B6B62C2E70AF1010004EB80006D
:10098000FFF75EFC0F2102463046FFF759FE304666
:100990002A464146FFF754FE072005E70000000005
:1009A000002393E6012391E602238FE62DE9F0412F
:1009B0000546C4B0042906D8DFE801F04D2B050335
:1009C0000900032B5FD0022044B0BDE8F081002B6A
:1009D000F9D1102AF7D82B68DC0600F1F48022AC9C
:1009E0002046019200F094F9A86B019A0023012699
:1009F00006FA03F1114203D0016844F823100430D1
:100A00000133042BF4D1A863204600F077F90020CD
:100A1000DAE7012B4FEA124697B252D0052BD2D11A
:100A200006EB0708B8F1200FCDD80F2E40F29980C1
:100A3000B846002F40F0DB80AA6BAA630F2E40F26D
:100A4000BE80B8F1000F02D002A800F00BF9002020
:100A500044B0BDE8F081002BB5D1AC6B97B2281D36
:100A6000012606FA03F1394203F1010302D021689D
:100A700001600434102B00F10400F2D112F4005094
:100A8000E5D1AC63A0E7160C97B2F319102B9AD8F6
:100A90002B681A075DD422AC204600F00DF904EB58
:100AA000C601AB6B3FB103EBC702186841F8040BFA
:100AB00004339342F9D12046AB6300F0DBF8002009
:100AC00082E7F219102A3FF67EAF0F2E3FF67BAF7A
:100AD0002A68D10708D5284622F0030240F8482B9F
:100AE000019300F0B3F8019B019322AC204600F083
:100AF000ADF8A96B019B002F00F095807F0004EBFF
:100B0000C6044FF00008043C01EB870251F8040BC7
:100B100044F8040F9142F9D1B8F1000F0FD002ACA4
:100B2000102E314638BF102104EBC101843902EB8D
:100B3000C80452F8040B41F8040F9442F9D1012B78
:100B40007FF47BAF22AC0432AA63204600F07AF82F
:100B50007DE723F008032B6005F5A87000F0ACF8E2
:100B600099E7B8F1100F2A6843D9D007A8F1100807
:100B70000BD5284622F0010242F0020240F8482B31
:100B8000019300F06BF82A68019B510725D40F2EC2
:100B900004D822A8019300F061F8019B019302ACF4
:100BA000204600F063F8C6F110010029AA6B019BF2
:100BB000B6DD22AC4F0004EBC6041146A3E722A821
:100BC00000F048F83DE723F010032B6005F5E870CE
:100BD000019200F09DF8019A01E7284622F00402F4
:100BE00040F8D02B019300F041F8019BCFE72A6831
:100BF000CBE7D0070AD5284622F0010242F00202D4
:100C000040F8482B019300F029F8019B019322AC96
:100C1000204600F023F8B846A96B019B002F7FF413
:100C20006DAF0A4609E70A468DE700BF00F13401BF
:100C300091E838009C46A6464CF8045D90E8FF0F0A
:100C4000E54600BD90EC210B704700BF80EC210B06
:100C5000704700BF90EC200B704700BF80EC200B6A
:100C6000704700BFD0EC200B704700BFC0EC200BDA
:100C7000704700BFF0EC0201F0EC0211F0EC022131
:100C8000F0EC0231F0EC0241F0EC0251F0EC0261C8
:100C9000F0EC0271F0EC0281F0EC0291F0EC02A1B8
:100CA000F0EC02B1F0EC02C1F0EC02D1F0EC02E1A8
:100CB000F0EC02F1704700BFE0EC0201E0EC021141
:100CC000E0EC0221E0EC0231E0EC0241E0EC025108
:100CD000E0EC0261E0EC0271E0EC0281E0EC0291F8
:100CE000E0EC02A1E0EC02B1E0EC02C1E0EC02D1E8
:100CF000E0EC02E1E0EC02F1704700BFB0FC0181E2
:100D0000B0FC0191B0FC01A1B0FC01B1704700BF83
:100D1000A0FC0181A0FC0191A0FC01A1A0FC01B1FB
:100D2000704700BFEC4600B52DE900502DE9FF1FCC
:100D30004FF000032DE90C0001A9FFF7DDFBDDF802
:100D400040E012B0704700BFEC4600B52DE90050FE
:100D50002DE9FF1F4FF000032DE90C0001A9FFF75B
:100D600005FCDDF840E012B0704700BFEC4600B56E
:100D70002DE900502DE9FF1F4FF000032DE90C0075
:100D800001A9FFF715FCDDF840E012B0704700BF85
:100D9000EC4600B52DE900502DE9FF1F4FF0000390
:100DA0002DE90C0001ABFFF7D7FBDDF840E012B0F6
:100DB000704700BFEC4600B52DE900502DE9FF1F3C
:100DC0004FF000032DE90C0001AAFFF747FCDDF806
:100DD00040E012B0704700BF027A82B9437AABB1EB
:100DE0004268013B10B4437213680321141D017261
:100DF0001A02446002605DF8044B180E70470368E5
:100E0000013A02721A020260180E7047B020704751
:100E100000B585B003AA0023009219460C22FFF703
:100E2000D7FB039805B05DF804FB00BFF0E700BFF7
:100E30002DE9F043054685B00E464FF000083046D8
:100E4000FFF7CAFFB028044600F0B180070620D59E
:100E500000F0F003802B65D0902B36D0A02B78D0FB
:100E6000B02B47D0C02B00F08A8000F0F803D02BC5
:100E70000BD100F00702013242F4002205230121C8
:100E80002846FFF793FD0028D9D0092005B0BDE81A
:100E9000F0830DF10C09002319468700CDF800906E
:100EA0000D222846FFF794FBFFB2039BCDF800907C
:100EB000043760064CBFDF1BFF18002319460D22C4
:100EC00028460397FFF7A6FBB9E700F00D030D2BAB
:100ED000DBD003AF002300F00F021946009728462D
:100EE000FFF776FB0023009719460D222846FFF7EF
:100EF00091FBA4E7B1285FD0B22800F0CC80B328E2
:100F00007ED000F0FC03B42BBFD000F0070201320A
:100F1000012342F4002219462846FFF747FD002826
:100F20008DD0B2E73046FFF757FF24020443B4F5F3
:100F3000004FAAD024010023A2B219462846FFF789
:100F400035FD0028A1D114F4004F18BF4FF001085F
:100F500075E7C24302F007034FF47F621A410107AD
:100F600002F47F624FF0000348BF42F4804219460A
:100F70002846FFF71BFD00283FF461AF85E7C62830
:100F800051D0C7285AD000F0F803C02B69D0C82828
:100F900075D0C9287FF479AF3046FFF71DFF0203F3
:100FA00000F00F0002F470220130024366E7B8F14E
:100FB000000F14D0002069E73046FFF70DFF00282E
:100FC0003FF463AF10F0F0037FF45FAF02461946C1
:100FD0002846FFF7EBFC00283FF431AF55E703ACA0
:100FE00043460E22414600942846FFF7F1FA00944A
:100FF000284643460F224146FFF70CFB404645E793
:101000003046FFF7E9FE010300F00F0001F4702104
:10101000421C01230A4328461946FFF7C7FC002853
:101020003FF40DAF31E73046FFF7D6FE010300F085
:101030000F0001F47021421C0323EBE73046FFF759
:10104000CBFE024600283FF420AF10F0F0037FF4FF
:101050001CAF04212846FFF7A9FC00283FF4EFAE9F
:1010600013E700F00F020132032342F42022194655
:101070002846FFF79BFC00283FF4E1AE05E7304629
:10108000FFF7AAFE00F0F00200F00F031032013368
:1010900043EA0232F2E600230DF10C090D22194653
:1010A000CDF800902846FFF793FA3046FFF794FEFC
:1010B00002064FF002070CD5039B00F07F00B840FA
:1010C000034430460393FFF787FE030607F1070743
:1010D000F2D4039BCDF8009000F07F0403F5017279
:1010E000BC400023144419460D2228460394FFF700
:1010F00091FAA4E610B5C36C84B05A6803208DF849
:101100000C00DC798DF80D4012020833084601A965
:1011100001920293FFF78CFE04B010BD08B5FFF7F3
:1011200085FE806C08BD00BF08B5FFF77FFEC06C70
:10113000C37900EB8300083008BD00BF08B505F097
:10114000BFFA00BF08B5FFF7F9FF00BF10B50446AE
:1011500081B2054800F02BFB4021034800F02FFB33
:101160000028F9D0204610BD0044004070B5013879
:1011700001280CD80D461646002404E015F8010B92
:10118000FFF7E4FF0134B442F8DB204670BD4FF0B6
:10119000FF34FAE770B586B006460121042000F05E
:1011A000D7F901214FF4003000F0E0F905A800F074
:1011B0002CF90425ADF8145002238DF816301823AD
:1011C0008DF817301B4C05A9204600F0CFF80823F6
:1011D000ADF814308DF8175005A9204600F0C6F878
:1011E0000DEB050000F0AEFA01960023ADF80830D3
:1011F000ADF80A30ADF80C30ADF810300C23ADF876
:101200000E30A4F544440DEB0501204600F036FAFB
:10121000012240F22551204600F0ACFA012240F2B2
:101220002771204600F0A6FA0121204600F095FA29
:1012300006B070BD0008014082B000230193009306
:101240002C4A136843F4803313602A4B1B6803F461
:1012500000330093019B01330193009B1BB9019B59
:10126000B3F5A06FF1D1234B1B6813F4003F06D0F8
:1012700001230093009B012B04D002B07047002390
:101280000093F7E71B4B5A685A605A6822F4605281
:101290005A605A6842F400525A605A6822F4E06276
:1012A0005A605A6842F480625A605A6822F060427A
:1012B00022F47C125A605A6842F0204242F4E8124A
:1012C0005A601A6842F080721A600A4B1B6813F069
:1012D000007FFAD0074B5A6822F003025A605A681E
:1012E00042F002025A60034B5B6803F00C03082BC8
:1012F000F9D1C2E70010024008B5FFF79DFF08BD15
:1013000010B5164CD4F8883043F47003C4F8883014
:10131000134B1A6842F001021A605968114A0A40D8
:101320005A601A6822F0847222F480321A601A68B5
:1013300022F480221A605A6822F0684222F47F0266
:101340005A60196B084A0A401A634FF41F029A60E8
:10135000FFF7D2FF4FF00063A36010BD00ED00E087
:10136000001002400C00FFE800FFFEFEF0B4CB7856
:1013700003F00F02154613F0100F01D08D781543BE
:101380000B78E3B10668002301E042610133072BCB
:1013900014D801229A400C8832EA0404F6D19C0049
:1013A0000F27A74026EA070605FA04F42643CC785F
:1013B000282CEAD0482CE9D10261E7E706600B88C7
:1013C000FF2B20D94668002303E0426116E002614A
:1013D0000133072B16D803F108040122A2400C8820
:1013E00032EA0404F4D19C000F27A74026EA07063E
:1013F00005FA04F42643CC78282CE6D0CC78482C87
:10140000E6D1E4E74660F0BC70474FF6FF73038017
:10141000022383700423C3707047000010B4454B4F
:101420005B6803F00C03042B44D0082B45D013B1A8
:10143000414B036001E0404B03603E4A5368C3F3F5
:101440000213526812F0800F6ED03C4AD35CDBB2BC
:10145000026822FA03F3436036494A68C2F3012264
:10146000496811F4806F61D034498A5CD2B223FAA2
:1014700002F282602F494A68C2F3C122496811F41E
:10148000005F55D02D498A5CD2B2D340C360294950
:101490004A68C2F38132496811F0805F01D042F09E
:1014A000040227498A5CD2B2B3FBF2F303615DF810
:1014B000044B7047204B0360BFE71E4B5A68214C1A
:1014C0001440596801F48031C4F3834343EA546300
:1014D00012F0C04F08D102F47012B2F5701F01D0A3
:1014E000022202E0012200E00122134469B9164AF7
:1014F00002FB03F303600F4B5B68002B9DDB02686C
:10150000124B9A4299D9036097E70A4A526812F43B
:10151000003F04D00C4A02FB03F30360EBE7064AEA
:1015200002FB03F30360E6E7002391E700229EE756
:101530000022AAE70010024000127A000C000020EE
:101540000400002000003C6000093D0000A24A04A5
:1015500029B9054A936923EA000090617047024A5D
:1015600093691843906170470010024029B9054AF9
:10157000D36923EA0000D0617047024AD369184357
:10158000D06170470010024003889BB21F4A90420E
:1015900016D002F50062904212D0B0F1804F0FD009
:1015A00002F5406290420BD0A2F59E32904207D0E5
:1015B00002F58062904203D002F58062904204D12D
:1015C00023F070034A6813439BB2114A904208D03B
:1015D00002F58062904204D023F440739BB28A8962
:1015E000134303808B68C3620B880385074B9842C3
:1015F00007D003F50063984203D003F54063984297
:1016000001D18B7B0386012383827047002C01402C
:101610000010004031B903889BB223F001039BB254
:1016200003807047038843F001030380704722B9A9
:10163000838923EA0101818170478389194381816C
:10164000704731B903889BB223F080039BB20380BB
:101650007047038843F0800303807047028A8389C0
:101660000B40114202D01BB9002070470020704788
:1016700001207047C94389B20182704730B587B0F5
:1016800004460D46038A9BB2CA8823F44053134391
:10169000038283899BB2898828896A8901430A4326
:1016A00023F4B05323F00C031343A381A38A9BB20A
:1016B000AA8923F440731343A38201A8FFF7AEFE67
:1016C0001E4B9C4224D0039BA28912F4004F21D1CF
:1016D00003EB830303EB830329688900B3FBF1F178
:1016E000174BA3FB012358090501642300FB1313C7
:1016F000A28912F4004F16D11B013233104AA2FB0B
:101700000323C3F343132B439BB2238107B030BDA4
:10171000049BD9E703EB830303EB830329684900A8
:10172000B3FBF1F1DCE7DA003232054BA3FB023206
:10173000C2F3421242EA0503E6E700BF0038014067
:101740001F85EB514FF41653036000238380C38041
:1017500003810C2242818381704731B983899BB216
:1017600023F400539BB283817047838943F4005371
:101770008381704710B4C1F3421401F01F010123AB
:1017800003FA01F19C420AD0022C0AD0143052B95B
:10179000036823EA010101605DF8044B70470C30D7
:1017A000F5E71030F3E7036819430160F4E7C1F38C
:1017B0000801818070478088C0F308007047038863
:1017C000194201D10020704701207047C94389B2F6
:1017D0000180704710B4C1F3421201F01F040123CD
:1017E000A340012A0DD0022A0ED0828A1340090A92
:1017F000012202FA01F10288114043B159B90020D7
:1018000006E082891340F2E7028A1340EFE70020E6
:101810005DF8044B70470120FAE7000040F0BF601C
:1018200040F40030014BD860704700BF00ED00E08D
:10183000C37853B9037803F01F015B0901228A4082
:101840002033134941F82320704710B4114BDA6854
:10185000D243C2F30222C2F104040F2323FA02F29C
:101860004178A140837813400B431B010278DBB21F
:1018700007490A4482F80033037803F01F005B092C
:101880000122824041F823205DF8044B704700BFDD
:1018900000E100E000ED00E000F1080343604FF0DC
:1018A000FF328260C360036100230360704700233E
:1018B0000361704743684B609A688A609A68516018
:1018C00099600861036801330360704730B40D68A4
:1018D000B5F1FF3F02D000F1080202E0026904E026
:1018E0001A4653681C68AC42FAD953684B60996039
:1018F0008A605160086103680133036030BC70473F
:1019000003694268816891608268416851605A68E1
:10191000824205D0002202611868013818607047C1
:1019200082685A60F6E700000B4B1B68B3F1FF3F7B
:1019300008D04FF0100383F31188BFF36F8FBFF30C
:101940004F8FFEE74FF0100383F31188BFF36F8FC3
:10195000BFF34F8FFEE700BF140000200648006869
:10196000006880F3088862B661B6BFF34F8FBFF39B
:101970006F8F00DF00BF000008ED00E0DFF80C0013
:10198000016841F4700101607047000088ED00E0DB
:101990004FF0807340F8043C21F0010140F8081C2E
:1019A000054B40F80C3C40F8202C6FF0020340F847
:1019B000243C4438704700BF29190008000000008B
:1019C000074B19680868B0E8F04F80F30988BFF347
:1019D0006F8F4FF0000080F311887047AFF30080E5
:1019E000045100204FF0100383F31188BFF36F8F71
:1019F000BFF34F8F0A4A136801331360012B00D0E5
:101A00007047084B1B6813F0FF0FF9D04FF010031D
:101A100083F31188BFF36F8FBFF34F8FFEE700BFD3
:101A20001400002004ED00E0094B1B6843B94FF09F
:101A3000100383F31188BFF36F8FBFF34F8FFEE75F
:101A4000013B034A13600BB983F31188704700BF51
:101A50001400002000000000000000000000000052
:101A6000EFF30980BFF36F8F154B1A681EF0100F4C
:101A700008BF20ED108A20E9F04F10604DF8043DBA
:101A80004FF0100080F31188BFF34F8FBFF36F8FBB
:101A900001F0B8FA4FF0000080F3118808BC196813
:101AA0000868B0E8F04F1EF0100F08BFB0EC108AC5
:101AB00080F30988BFF36F8F704700BFAFF30080DA
:101AC0000451002008B54FF0100383F31188BFF3D1
:101AD0006F8FBFF34F8F01F027F918B1034B4FF011
:101AE00080521A60002383F3118808BD04ED00E0E2
:101AF000034B41F63F721A60043B07221A6070479D
:101B000014E000E0314B1A68314B9A420DD02F4B54
:101B10001A68304B9A4211D14FF0100383F31188A9
:101B2000BFF36F8FBFF34F8FFEE74FF0100383F3C8
:101B30001188BFF36F8FBFF34F8FFEE700B583B0FF
:101B4000254B1A78D2B20192FF221A701B78DBB2B1
:101B50008DF803309DF8033003F010031F4A137013
:101B60001F4B07221A609DF8033013F0800F0AD034
:101B70001B4A1368013B13609DF803305B00DBB226
:101B80008DF80330EFE7164A13681B0203F4E06395
:101B90001360019BDBB2104A1370124B1A6842F4B7
:101BA00070021A601A6842F070421A60FFF7A0FFD4
:101BB0000D4B00221A60FFF7E1FE0C4A136843F058
:101BC00040431360FFF7CAFEFFF7AEFE00ED00E0F2
:101BD00071C20F4170C20F4100E400E0A800002074
:101BE000AC00002020ED00E01400002034EF00E005
:101BF000EFF305830F2B0FD9104A9B5CDBB2104A21
:101C000012789A4208D94FF0100383F31188BFF37A
:101C10006F8FBFF34F8FFEE70A4B1B6803F4E0633F
:101C2000094A1268934208D94FF0100383F31188D0
:101C3000BFF36F8FBFF34F8FFEE77047F0E300E015
:101C4000A80000200CED00E0AC000020124A12F0C9
:101C5000070F1ED0D11D21F00701C1F5A043134489
:101C60000A460E480260002141601344083B23F0FD
:101C700007030B48036059601960991A516013609B
:101C8000084B1960084B1960084B4FF000421A606E
:101C900070474FF4A043E4E7B4000020C050002098
:101CA000B0000020BC500020B8500020B4500020EC
:101CB00010B4134B1A6882421BD359685C188442D3
:101CC00003D1406801445960184641684418A24253
:101CD00013D10C4C2468A2420DD0526811444160CB
:101CE0001A6812680260984200D018605DF8044BD0
:101CF00070471346DEE70460F5E70260F3E700BFD4
:101D0000C0500020B000002070B5044600F0FEFF77
:101D10003F4B1B68A3B13F4B1B681C4213D001F023
:101D20008FF8002602F002F916F0070F6ED04FF080
:101D3000100383F31188BFF36F8FBFF34F8FFEE75C
:101D4000FFF784FFE7E794B1083414F0070F0ED0D3
:101D500024F00704083404F0070343B14FF01003E4
:101D600083F31188BFF36F8FBFF34F8FFEE734B15A
:101D7000294B1B68A34206D3284B1D6809E001F0DC
:101D80005FF80026CEE701F05BF80026CAE72B4695
:101D900015466A68A24202D22A68002AF7D11C4A74
:101DA0001268AA4214D01E6808362A681A606B6846
:101DB0001B1B102B14D9281910F0070F0CD04FF053
:101DC000100383F31188BFF36F8FBFF34F8FFEE7CC
:101DD00001F036F80026A5E743606C60FFF768FF66
:101DE0006A680D490B689B1A0B600D4909688B42A4
:101DF00001D20B490B60074B1B6813436B60002338
:101E00002B6001F01DF8002E8ED18BE7304670BD9F
:101E1000B0000020B4500020B8500020C050002076
:101E2000BC50002080B338B50446A0F1080550F836
:101E3000042C164909680A4208D14FF0100383F3B5
:101E40001188BFF36F8FBFF34F8FFEE750F8080C78
:101E500040B14FF0100383F31188BFF36F8FBFF3CE
:101E60004F8FFEE722EA010244F8042C00F04EFFF7
:101E700054F8041C064A13680B4413602846FFF705
:101E800017FF00F0DDFF38BD704700BFB4500020E1
:101E9000B850002010B50446FFF7A4FDA26BE36B19
:101EA0009A4204D00024FFF7BFFD204610BD012454
:101EB000F9E710B50446FFF795FDA36B23B10024A5
:101EC000FFF7B2FD204610BD0124F9E770B50446C6
:101ED0001646856B026C5AB903681BB100200135A8
:101EE000A56370BD406801F039FA00236360F6E72E
:101EF0006EB9806803F01BFC226CA3681344A360D6
:101F00006268934219D32368A3600020E7E7C068A2
:101F100003F00DFC226C5242E3681344E360216835
:101F20008B4202D263681A44E260022E01D0002084
:101F3000D5E725B1013D0020D1E70020CFE7002003
:101F4000CDE7026C72B110B5C3681344C360446836
:101F5000A34201D30368C3600C46C168204603F066
:101F6000E6FB10BD704738B50546FFF73BFD95F819
:101F7000454064B203E001F08BF9013C64B2002CEF
:101F800008DD6B6A33B105F1240001F0E5F80028A3
:101F9000F3D0F0E7FF2385F84530FFF745FDFFF765
:101FA00021FD95F8444064B203E001F071F9013C71
:101FB00064B2002C08DD2B6933B105F1100001F08B
:101FC000CBF80028F3D0F0E7FF2385F84430FFF783
:101FD0002BFD38BD38B540B94FF0100383F311889D
:101FE000BFF36F8FBFF34F8FFEE704460D46FFF739
:101FF000F9FC2168E26B236C03FB02106060002097
:10200000A063A160013A02FB0313E360FF2384F89D
:10201000443084F84530A5B923691BB9FFF704FDA6
:10202000012038BD04F1100001F096F80028F5D029
:10203000084B4FF080521A60BFF34F8FBFF36F8F82
:10204000ECE704F11000FFF727FC04F12400FFF790
:1020500023FCE3E704ED00E038B51D46049C0B4685
:1020600049B12260E063236401212046FFF7B2FFFB
:1020700084F84C5038BD2460F4E740B94FF01003A9
:1020800083F31188BFF36F8FBFF34F8FFEE7F0B577
:1020900083B0054611B101FB00F000E000201746B7
:1020A0000C465030FFF730FE064638B100903B46F4
:1020B00000F1500221462846FFF7CEFF304603B01C
:1020C000F0BD0000F0B585B0019260B1044699B949
:1020D000026C8AB14FF0100383F31188BFF36F8F46
:1020E000BFF34F8FFEE74FF0100383F31188BFF368
:1020F0006F8FBFF34F8FFEE7022B0BD1E26B012AEC
:1021000008D04FF0100383F31188BFF36F8FBFF334
:102110004F8FFEE71E460F4601F0C0F850B9019BF5
:1021200053B14FF0100383F31188BFF36F8FBFF3E8
:102130004F8FFEE700253AE0002538E03246394669
:102140002046FFF7C3FE636A4BB9A8B13B4B4FF083
:1021500080521A60BFF34F8FBFF36F8F0CE004F112
:10216000240000F0F9FF38B1344B4FF080521A6070
:10217000BFF34F8FBFF36F8FFFF756FC012005B001
:10218000F0BDFFF751FC0020F9E702A801F02AF8A2
:10219000012519E0002384F8443021E0002384F86D
:1021A000453023E02046FFF7DEFE00F049FEFFF752
:1021B00019FCA26BE36B9A42C0D3022EBED0019BE6
:1021C000002BDED0002DE0D0FFF72EFC00F09EFDAE
:1021D000FFF708FC94F844305BB2B3F1FF3FD9D06D
:1021E00094F845305BB2B3F1FF3FD7D0FFF71CFC4A
:1021F00001A902A801F00CF8C8B92046FFF74AFE71
:102200000028CFD0019904F1100000F071FF2046A2
:10221000FFF7A9FE00F014FE0028C8D1074B4FF0CD
:1022200080521A60BFF34F8FBFF36F8FBFE7204616
:10223000FFF799FE00F004FE0020A0E704ED00E0A7
:1022400048B108B5002141600160C1600B460A46F3
:10225000FFF738FF08BD704710B502460021012086
:10226000FFF70BFF0446FFF7EBFF204610BD2DE9FB
:10227000F84360B1044699B9006C88B14FF010037F
:1022800083F31188BFF36F8FBFF34F8FFEE74FF0DB
:10229000100383F31188BFF36F8FBFF34F8FFEE7F7
:1022A000022B0BD1E06B012808D04FF0100383F311
:1022B0001188BFF36F8FBFF34F8FFEE71F46904625
:1022C0008946FFF795FCEFF311864FF0100383F377
:1022D0001188BFF36F8FBFF34F8FA26BE36B9A42EE
:1022E00003D3022F01D000200FE094F845506DB2C7
:1022F0003A4649462046FFF7E9FDB5F1FF3F08D0D1
:102300006B1C5BB284F84530012086F31188BDE870
:10231000F883636A5BB104F1240000F01DFF40B153
:10232000B8F1000F07D00120C8F80000EDE7012048
:10233000EBE70120E9E70120E7E700002DE9F041A4
:1023400084B0019260B1044699B9026C8AB14FF031
:10235000100383F31188BFF36F8FBFF34F8FFEE736
:102360004FF0100383F31188BFF36F8FBFF34F8FCC
:10237000FEE71F46884600F091FF50B9019B53B11C
:102380004FF0100383F31188BFF36F8FBFF34F8FAC
:10239000FEE700265FE000265DE0E6684146204655
:1023A000FFF7CFFDDFB9013DA563236813B901F045
:1023B0002DF86060236963B104F1100000F0CCFED9
:1023C00038B1464B4FF080521A60BFF34F8FBFF3C6
:1023D0006F8FFFF729FB012004B0BDE8F081E660B4
:1023E000636A002BF5D004F1240000F0B5FE00284C
:1023F000EFD03A4B4FF080521A60BFF34F8FBFF3CC
:102400006F8FE6E7FFF710FB0020E5E702A800F07A
:10241000E9FE012629E0002384F8443031E000235E
:1024200084F8453033E0FFF7DDFA606800F046FFDE
:10243000FFF7FAFA3BE02046FFF795FD00F000FDBC
:1024400009E02046FFF78FFD00F0FAFC2046FFF779
:1024500030FD002840D1FFF7C5FAA56B002D9CD1B7
:10246000019B002BCED0002ED0D0FFF7DDFA00F07C
:102470004DFCFFF7B7FA94F844305BB2B3F1FF3F7D
:10248000C9D094F845305BB2B3F1FF3FC7D0FFF736
:10249000CBFA01A902A800F0BBFE0028D1D120464A
:1024A000FFF707FD0028C6D02368002BBBD0019999
:1024B00004F1240000F01CFE2046FFF754FD00F05C
:1024C000BFFC0028C7D1054B4FF080521A60BFF304
:1024D0004F8FBFF36F8FBEE700207DE704ED00E074
:1024E0000023072B0CD8074A52F833200AB10133D6
:1024F000F7E7044A42F8331002EBC3035860704711
:10250000704700BF9467002070B504460D4616461C
:10251000FFF768FA94F844305BB2B3F1FF3F0DD097
:1025200094F845305BB2B3F1FF3F0BD0FFF77CFA74
:10253000A36B5BB12046FFF716FD70BD002384F846
:102540004430EDE7002384F84530EFE73246294672
:1025500004F1240000F0E4FDECE7842801D003300E
:10256000704700207047F0B585B00F464468056895
:102570000669B0F90800FFF7F0FF03AB0193009084
:102580003B46B2B22946204600F048FB012802D162
:10259000039805B0F0BD0020FBE708B5034600B97D
:1025A0000123184600F0C6FC002008BD064B1A683F
:1025B0001368B3FA83F35B09036013B9D36818682F
:1025C00070470020704700BFC850002008B5416028
:1025D000006191420CD8D21A83699A4201D301203A
:1025E00010E0011D094B1868FFF770F9002009E0A1
:1025F0009A4201D2994206D2011D054B1868FFF795
:1026000065F9002008BD0120FCE700BFCC50002088
:10261000C850002038B5FFF7E5F90F4B1B6813B120
:10262000FFF702FA38BD0D4D2846FFF735F90C4C7F
:102630002046FFF731F90B4B1D600B4B1C6000224D
:102640000C210A20FFF719FD034B18600028E7D082
:102650000649FFF745FFE3E7FC500020D05000207B
:10266000E4500020C8500020CC500020A067000893
:1026700000B583B0FFF7CEFF0D4B1B685BB10D4B70
:1026800001930123009300234FF482720A490B48FF
:1026900000F0C4FA40B94FF0100383F31188BFF380
:1026A0006F8FBFF34F8FFEE703B05DF804FB00BFF1
:1026B000FC50002000510020A8670008892900086C
:1026C000C8B130B585B015460446174A106840B306
:1026D0001A4601910295039405291DDC00F0DEFDE8
:1026E000022811D000231A4601A90F480068FFF7FD
:1026F000E9FC05B030BD4FF0100383F31188BFF340
:102700006F8FBFF34F8FFEE70023089A01A9064899
:102710000068FFF7D7FCECE7002301A9FFF7A7FD4E
:10272000E7E70020E5E700BFFC50002070B582B06D
:102730001A4B1B681A6852B3DB681E68DC68251DDB
:102740002846FFF7DDF8636A20469847E369012BC6
:10275000EED1A36933449E4207D2636024612946C7
:102760000E4B1868FFF7B2F8E2E7002100910B4624
:1027700032462046FFF7A4FF0028D9D14FF01003BE
:1027800083F31188BFF36F8FBFF34F8FFEE7044AC7
:10279000106802490860136002B070BDC850002084
:1027A000CC50002038B5054600F0B8FA0446074B77
:1027B0001B68834205D800232B60044B1C60204615
:1027C00038BDFFF7B3FF01232B60F6E7F850002078
:1027D00070B582B005460E46144B1B68DB68DC689A
:1027E000201DFFF78DF8E369012B04D0636A2046B2
:1027F000984702B070BDA1692B4632462944204655
:10280000FFF7E4FE0028F1D0002100910B462A4694
:102810002046FFF755FF0028E8D14FF0100383F35F
:102820001188BFF36F8FBFF34F8FFEE7C8500020B2
:1028300070B582B006460C4600F068FA01A8FFF7B2
:10284000B1FF019B1BBB05460CB9B04218D22CB19D
:10285000114B1B681C68B4FA84F464092246711B8E
:102860000E4B1868FFF750FE00F0EAFA88B90C4BDF
:102870004FF080521A60BFF34F8FBFF36F8F08E0A5
:1028800000F0DEFA29463046FFF7A2FF01E000F033
:10289000D7FA02B070BD00BFCC500020FC50002021
:1028A00004ED00E030B587B000231A4603A935488F
:1028B0000068FFF743FD002861D0039B002BF3DB8A
:1028C000059C636913B1201DFFF71AF802A8FFF7F2
:1028D00069FF039B092BE7D801A252F823F000BF40
:1028E000092900080929000809290008A928000861
:1028F000512900087729000809290008092900083A
:10290000A9280008512900080499A5690B46024628
:1029100029442046FFF75AFE0028C5D0636A2046A6
:102920009847E369012BBFD1A269002100910B46B2
:10293000049802442046FFF7C3FE0028B4D14FF0AC
:10294000100383F31188BFF36F8FBFF34F8FFEE740
:102950000499A16131B10346024601442046FFF7C4
:1029600035FEA1E74FF0100383F31188BFF36F8F9B
:10297000BFF34F8FFEE72046FFF754FA94E707B006
:1029800030BD00BFFC50002000B583B001A8FFF7A8
:102990000DFE0199FFF74CFFFFF784FFF6E70000FB
:1029A000084B1B681B683BB1064B1B68DB68DB6888
:1029B0005A68054B1A607047034B4FF0FF321A609C
:1029C000704700BF085100202052002010B5044677
:1029D000006BFFF727FA2046FFF724FA10BD2DE918
:1029E000F04781460D4617469A46089EDDF824803A
:1029F0000A9C9200A521206B02F0A4FE236B07F134
:102A00008042013A03EB820727F007070023132BCC
:102A100007D8E95CE21882F83410EA5C0AB10133A5
:102A2000F5E7002384F84730092E00D90926E6622D
:102A3000266500256565201DFEF739FF04F11800A5
:102A4000FEF735FF2461C6F10A06A6616462A5653A
:102A5000E56584F86050524649463846FEF798FFCF
:102A60002060B8F1000F01D0C8F80040BDE8F08741
:102A700038B5002407E004EB840293000E481844A4
:102A8000FEF70AFF0134092CF5D90C4D2846FEF754
:102A900003FF0B4C2046FEF7FFFE0A48FEF7FCFE44
:102AA0000948FEF7F9FE0948FEF7F6FE084B1D60DF
:102AB000084B1C6038BD00BF10510020F4510020AD
:102AC000085200202852002054520020405200207A
:102AD000085100200C51002010B50446FEF782FF7B
:102AE000214A136801331360204B1B685BB1204BF4
:102AF0001B686BB91D4B1B68DA6AE36A9A4207D8F8
:102B00001A4B1C6004E0194B1C601368012B27D082
:102B1000184A136801331360A364E36A01229A40E0
:102B20001549086802430A6003EB83039A00211DDC
:102B300012481044FEF7BEFEFEF776FF0C4B1B68F2
:102B40006BB10A4B1B68DA6AE36A9A4207D20C4BF4
:102B50004FF080521A60BFF34F8FBFF36F8F10BDDD
:102B6000FFF786FFD4E700BFDC51002004510020AE
:102B70003C520020EC510020F05100201051002068
:102B800004ED00E070B504460E461D4B1D681D4B5C
:102B900018680430FEF7B4FE50B91A4B1B68DA6AA5
:102BA000012303FA02F218490B6823EA02030B60BF
:102BB000B4F1FF3F13D02C44124B1B685C60A5425C
:102BC00016D8124B18680F4B19680431FEF77EFEB9
:102BD0000F4B1B68A34212D90D4B1C600FE0002E57
:102BE000E9D0084B196804310A48FEF763FE06E095
:102BF000094B1868034B19680431FEF767FE70BD76
:102C00006852002004510020F0510020085100209B
:102C100020520020405200200C5100202DE9F043AA
:102C200085B007468846154699469000FFF76CF830
:102C3000F8B106466420FFF767F80446A8B10663BA
:102C4000D4B10023039302940D9B01930C9B00933A
:102C50004B462A4641463846FFF7C1FE2046FFF75D
:102C60003BFF012005B0BDE8F0833046FFF7DAF8FE
:102C7000E6E74FF0FF30F5E74FF0FF30F2E70000F6
:102C800000B583B01A4B01930023009382221949A7
:102C90001948FFF7C3FF012807D0012808D0B0F179
:102CA000FF3F1CD003B05DF804FBFFF7E1FCF4E745
:102CB0004FF0100383F31188BFF36F8FBFF34F8F73
:102CC0000E4B4FF0FF321A600D4B01221A600023A9
:102CD0000C4A13600C4A1360FEF714FFE2E74FF052
:102CE000100383F31188BFF36F8FBFF34F8FFEE79D
:102CF0001C520020B0670008DD2F00082052002081
:102D00003C52002068520020C8620020024A13682A
:102D100001331360704700BFE8510020014B186871
:102D2000704700BF68520020F8B53A4B1B68002B73
:102D300064D1394B1D6801351D60C5B9374B1B681F
:102D40001B6843B14FF0100383F31188BFF36F8FFB
:102D5000BFF34F8FFEE7314A1168314B186810609E
:102D60001960304A136801331360FFF719FE2E4BC8
:102D70001B68AB4238D900242C4B1B68DB6A03EB81
:102D800083039A002A4B9B58012B3CD901243AE03B
:102D90000124224B1B681B6843B3204B1B68DB6874
:102DA000DE6873689D4226D3371D3846FEF7A8FDBE
:102DB000B36A1BB106F11800FEF7A2FDF36A012207
:102DC0009A401C49086802430A6003EB83039A0097
:102DD000394617481044FEF76DFDF26A134B1B6825
:102DE000DB6A9A42D4D2D4E70024D2E70E4B4FF0EC
:102DF000FF321A60C0E70C4A1360BDE70E4A136841
:102E00000133136000240D4B1B6803B101242046DD
:102E1000F8BD00BFE8510020685200200851002092
:102E20000C51002024520020205200200451002088
:102E300010510020F0510020E45100206C5200207D
:102E400038B5334B1B6843B94FF0100383F3118837
:102E5000BFF36F8FBFF34F8FFEE7FEF7C3FD2C4B21
:102E60001A68013A1A601B68002B4DD1294B1B6868
:102E700023B90024FEF7D8FD204638BD0024264B98
:102E80001B681BB3244BDB68DC6804F11800FEF7F9
:102E900037FD251D2846FEF733FDE36A01229A40DF
:102EA0001E49086802430A6003EB83039A0029461F
:102EB0001B481044FEF7FEFCE26A1A4B1B68DB6AF3
:102EC0009A42DCD3184B01221A60D8E70CB1FFF705
:102ED00067FD164B1C6854B1FFF726FF10B1124B6B
:102EE00001221A60013CF7D1104B00221A600E4BF0
:102EF0001B685BB10E4B4FF080521A60BFF34F8FCF
:102F0000BFF36F8F0124B5E70024B3E70024B1E7D6
:102F1000E8510020DC51002028520020F051002010
:102F200010510020045100206C520020E451002078
:102F300004ED00E010B5A8B104460F4B1B6843B187
:102F40004FF0100383F31188BFF36F8FBFF34F8FE0
:102F5000FEE7FFF7DBFE00212046FFF713FEFFF739
:102F60006FFF38B9054B4FF080521A60BFF34F8F97
:102F7000BFF36F8F10BD00BFE851002004ED00E0EB
:102F8000134B1B6813B310B5FFF7C0FE114B1C6841
:102F9000FFF756FF24B90E4B1B68002BF4D110BD70
:102FA000FEF720FD0B4BDB68DC68201DFEF7A8FC5C
:102FB000094A1368013B1360054A1368013B13601B
:102FC000FEF732FD2046FFF701FDE4E7704700BF42
:102FD000E051002054520020DC51002008B5FFF7DA
:102FE000CFFF064B1B68012BF9D9054B4FF08052E0
:102FF0001A60BFF34F8FBFF36F8FF0E710510020BF
:1030000004ED00E0334B1B681BB1334B01221A6007
:10301000704710B5304B00221A60304B1A68304BA5
:103020001B689A4205D92F490868D31A816D0B4451
:1030300083652B4B1A602B4B1B681B6B1A68B2F114
:10304000A53F03D15A68B2F1A53F1BD0254B1868A4
:103050001968343100F072FF234B1B68B3FA83F315
:10306000DBB2C3F11F0303EB83018A001F498A58B7
:103070008AB94FF0100383F31188BFF36F8FBFF34A
:103080004F8FFEE79A68B2F1A53FDFD1DB68B3F15D
:10309000A53FDBD1E0E715489A00D418A100014410
:1030A0004C6864684C601A449100083108448442BA
:1030B00009D003EB83039A000C4B13445B68DA6876
:1030C000084B1A6010BD61680848142202FB030215
:1030D0005160EEE7E85100206C520020C8620020E9
:1030E000D851002004510020F05100201051002040
:1030F00040B94FF0100383F31188BFF36F8FBFF314
:103100004F8FFEE710B50C46044B19681831FEF7D7
:10311000DDFB01212046FFF735FD10BD04510020E5
:1031200038B540B94FF0100383F31188BFF36F8FA8
:10313000BFF34F8FFEE70C461546064A116818315B
:10314000FEF7B8FB0DB14FF0FF3429462046FFF7DC
:1031500019FD38BD0451002038B5C368DC6844B996
:103160004FF0100383F31188BFF36F8FBFF34F8FBE
:10317000FEE704F118052846FEF7C2FB134B1B6857
:10318000E3B9251D2846FEF7BBFBE36A01229A40FE
:103190000F49086802430A6003EB83039A0029463B
:1031A0000C481044FEF786FBE26A0B4B1B68DB6A97
:1031B0009A4208D90120094B186038BD29460848B1
:1031C000FEF778FBF0E70020F7E700BFE8510020AA
:1031D000F051002010510020045100206C520020BA
:1031E0002852002030B1084A12680260074A12686B
:1031F000426070474FF0100383F31188BFF36F8F65
:10320000BFF34F8FFEE700BF24520020685200201A
:1032100038B550B1044689B94FF0100383F31188D3
:10322000BFF36F8FBFF34F8FFEE74FF0100383F3B1
:103230001188BFF36F8FBFF34F8FFEE70D46FEF788
:10324000D1FB114B19682B68B3F1FF3F18D02068F0
:103250000E4A1268904202D062688A4212D96268AD
:10326000881A834204D80124FEF7DEFB204638BDCD
:10327000521A13442B602046FFF7B4FF0024F3E7F3
:103280000024F1E70124EFE76852002024520020D7
:10329000014B01221A6070476C520020054B1B68DD
:1032A00033B1054B1B680BB10020704702207047FB
:1032B000012070473C520020E8510020002845D0F2
:1032C00038B50446C26A22490968C96A8A4214D2DA
:1032D0008169002905DB1E490968C96AC1F10A0133
:1032E0008161606902EB820291001A4A0A449042AD
:1032F00004D0174A1268D26AE26238BD251D2846FA
:10330000FEF7FEFA90B1124B1B68DB6AE362012202
:103310009A401149086802430A6003EB83039A004C
:1033200029460C481044FEF7C5FAE6E7E36A03EBCA
:1033300083018A0007498A58002AE4D101229A4071
:1033400005490B6823EA02030B60DCE7704700BF06
:103350000451002010510020F0510020002849D0D5
:1033600038B50446264A1268824208D04FF010034E
:1033700083F31188BFF36F8FBFF34F8FFEE7426D6A
:1033800042B94FF0100383F31188BFF36F8FBFF37F
:103390004F8FFEE7013A4265C06A216D88422BD00B
:1033A00062BB251D2846FEF7ABFA70B9E26A14230A
:1033B00003FB02F31349CB583BB9012303FA02F292
:1033C00011490B6823EA02030B60236DE362C3F12A
:1033D0000A02A261012404FA03F20B4908680243BD
:1033E0000A602946074A142000FB0320FEF762FA10
:1033F000204638BD002070470020FAE70020F8E79B
:103400000451002010510020F0510020054B1B6892
:1034100023B1044B1A68536D01335365014B18688F
:10342000704700BF04510020044B9B6813F0010F4C
:1034300001D1002070470120704700BF0008014003
:103440000B4A00239372D3721BB10A4B0A4A1A60CB
:103450007047084A02EB03126421118102211171A5
:1034600000219172D17211730133DBB2ECE700BF1E
:1034700080520020705200202934000800B583B02B
:1034800001210420FEF764F802238DF8063028237A
:103490008DF8073002A9012321F8043D0248FDF709
:1034A00065FF03B05DF804FB0008014008B5FFF7B5
:1034B000C7FFFFF7E3FF08BD032809D004280CD09D
:1034C000022800D07047074B4FF400521A61704732
:1034D000044B4FF480421A617047024B4FF4004294
:1034E0001A61EFE70010014030B583B001211020D0
:1034F000FEF72EF801211020FEF72AF801211020F6
:10350000FEF726F80220FFF7D7FF0320FFF7D4FFCE
:103510000420FFF7D1FF02238DF8063010238DF829
:10352000073002AC4FF4005324F8043D0B4D214604
:103530002846FDF71BFF4FF48043ADF804302146C9
:103540002846FDF713FF4FF40043ADF80430214641
:103550002846FDF70BFF03B030BD00BF001001404F
:1035600003280AD004280ED0022800D07047094A48
:10357000D36883F40053D3607047064AD36883F45A
:103580008043D3607047034AD36883F40043D36019
:10359000ECE700BF0010014030B587B001210220E8
:1035A000FDF7E4FF164B1B68164AA2FB0323DB0C56
:1035B0004FF47A720492013BADF808300024ADF864
:1035C00014400394104D02A92846FDF7DDFF0121A8
:1035D0002846FEF736F801212846FEF71BF81D2382
:1035E0008DF8043004238DF805308DF80640012352
:1035F0008DF8073001A8FEF71BF907B030BD00BFFA
:103600000000002083DE1B430004004010B50221AF
:103610002548FEF723F878B904212348FEF71EF861
:10362000C0B908212048FEF719F808BB10211E4830
:10363000FEF714F850BB10BD1B4C02212046FEF7CC
:1036400019F8002202212046FDF7F1FF174B1B68F5
:103650009847E1E7144C04212046FEF70BF80022BE
:1036600004212046FDF7E3FF114B1B689847D8E77C
:103670000D4C08212046FDF7FDFF002208212046C1
:10368000FDF7D5FF0B4B1B689847CFE7064C102181
:103690002046FDF7EFFF002210212046FDF7C7FF6F
:1036A000054B1B689847C6E7000400409052002075
:1036B00094520020985200209C5200200A4B0B4A42
:1036C0001A600B4A5A600B4A9A604FF400629A8162
:1036D000DA8100221A825A82DA821A835A839A8203
:1036E000DA611A625A627047A0620020004400400A
:1036F000A05A0020A052002030B587B0012104203C
:10370000FDF726FF01214FF40030FDF72FFF05A83C
:10371000FDF77BFE0425ADF8145002238DF816301A
:1037200018238DF817301F4C05A92046FDF71EFE03
:103730000823ADF814308DF8175005A92046FDF781
:1037400015FE0DEB0500FDF7FDFF4FF4E13301938E
:103750000023ADF80830ADF80A30ADF80C30ADF804
:1037600010300C23ADF80E30A4F544440DEB0501E8
:103770002046FDF783FF012240F225512046FDF748
:10378000F9FF012240F227712046FDF7F3FF0121E6
:103790002046FDF7E2FF40212046FEF717F807B06C
:1037A00030BD00BF0008014000B583B026238DF86E
:1037B000043001238DF8053000228DF806208DF8A5
:1037C000073001A8FEF734F803B05DF804FBF0B54C
:1037D00083B004460F461646002507E0A38A01334E
:1037E0009BB2A382FEF720F90135ADB2B5421ED2DD
:1037F000FEF7F8F8A38A9BB2ADF80630FEF714F98D
:10380000A289BDF806309BB29A42F1D96268238A38
:103810009BB2795DD154FEF7E5F8238A01339BB260
:103820002382A2899342D9D300232382D6E701229F
:1038300040F227712068FDF79DFF03B0F0BD70B521
:1038400004460E46FEF7CEF8658BADB2FEF7ECF8F7
:103850000DB9002070BDA268238B9BB2D35C33707E
:10386000FEF7C0F8238B01339BB22383E289934296
:1038700001D300232383638B013B9BB26383FEF759
:10388000D3F80120E6E710B5044640F22551006860
:10389000FDF7A0FFF8B940F227712068FDF79AFF05
:1038A000002843D0A38A9BB2002B32D06268638A7F
:1038B0009BB2D15C2068FDF77AFF638A01339BB22B
:1038C0006382A289934201D300236382A38A013BCE
:1038D0009BB2A38210BD2068FDF76DFFC0B2A26845
:1038E000E38A9BB2D054E38A01339BB2E382E2893C
:1038F000934201D30023E382638B9BB29A4203D9A4
:10390000638B01339BB26383636A002BC3D09847F8
:10391000C1E7002240F227712068FDF72BFF01224A
:1039200040F226612068FDF725FFD3E740F22661CB
:103930002068FDF74FFF0028CCD0A38A9BB253B973
:10394000002240F226612068FDF714FF236A002B55
:10395000C0D09847BEE76268638A9BB2D15C20689A
:10396000FDF725FF638A01339BB26382A2899342EC
:1039700001D300236382A38A013B9BB2A382A9E700
:1039800008B5FFF79BFEFFF7B7FEFFF70DFF08BD79
:1039900008B9024870470020704700BFA0620020AD
:1039A00070B50D461646FFF7F3FF40B10446C369F4
:1039B00003B19847324629462046FFF708FF70BDFD
:1039C00010B50C46FFF7E4FF18B12146FFF737FFAB
:1039D00010BD0020FCE7000008B50248FFF753FFC8
:1039E00008BD00BFA062002008B54FF44070FDF78D
:1039F00015FF4FF4E130FDF7CDFBFFF7C1FFFFF7F7
:103A000073FDFFF753FDFFF7C7FD08BD70470000CA
:103A100000220AE0064B995C064B9980054B1B88F7
:103A200013F0400FFAD00132D2B2292AF2D9FEE7C0
:103A3000B867000800380140FEE7FEE7FEE7704780
:103A400008B501210648FDF709FE00B908BD054A81
:103A500013680133136001210148FDF70BFEF5E700
:103A600000100040C862002043680B7043681B0AC6
:103A70004B70C3888B70C379CB7083680B7183687C
:103A80001B0A4B7143898B71C37ACB710820704735
:103A90000B7843604A7843EA022343608A7843EA1A
:103AA00002434360CA7843EA026343600B79836050
:103AB0004A7943EA022383608A7943EA02438360B6
:103AC000CA7943EA02638360082070470048704760
:103AD00094690008004870477069000870B40B785A
:103AE00083804A7843EA02238380D1F80250062378
:103AF000AA1D9A4204D95A1ECC5C8C540133F7E7B4
:103B0000053500234B554B1D83608E58141D2346ED
:103B100032199A4204D95A1ECD5C8D540133F7E70D
:103B2000531E0025CD54013C0C44C4608E58043211
:103B30001346B4189C4204D95C1ECD5C0D5501336C
:103B4000F7E7631E0025CD54013A0A4402610B5D7C
:103B5000621C8A5C43EA0223A21C8A5C43EA024399
:103B6000E21C8A5C43EA02634361201D70BC70471B
:103B700000487047FC68000800487047D868000893
:103B800030B40B780371D1F8015005236A1D9A42B5
:103B900004D95A1ECC5C8C540133F7E7043500235A
:103BA0004B5504318160104630BC70470048704767
:103BB000C468000800487047A068000800487047C3
:103BC00018690008004870477C680008012800D088
:103BD00070474FF6FF739942FAD1204A204B136089
:103BE000002382F854341F49C2F86814042B07D804
:103BF00003F58371194A002042F821000133F5E7EB
:103C00000023042B08D803F58571144A02EB8102C6
:103C1000002151600133F4E70023B3F5007F05D2A2
:103C20000E4A1A44002111760133F6E70023B3F55A
:103C3000007F06D2094A1A44002182F81812013383
:103C4000F5E7064B002283F86C24C3F8742483F84C
:103C50007824C3F880245A61BAE700BFD0620020FC
:103C60004C6800083468000890F85404704700005D
:103C700008B50120FEF7F0FA034B186010B90348AD
:103C800001F0DCFD08BD00BFCC62002058680008D0
:103C90002DE9F04106460C4683880B7083881B0A89
:103CA0004B708068FCF774FA0746C4F802000246BD
:103CB000B168A01D01F03BFD07F10608F068FCF7B4
:103CC00067FA054644F808000A370246F168E01929
:103CD00001F02DFD2F443069FCF75AFA0546E051FA
:103CE000043702463169E01901F021FDE8197369D2
:103CF0002354190A421CA154190C821CA1541B0EF6
:103D0000C21CA3540430BDE8F08170B506460D46D0
:103D100003790B708068FCF73BFA0446C5F8010094
:103D20000246B168681D01F002FD601D70BD2DE9FD
:103D3000F04105460C4603790B7000224A708A70E8
:103D4000CA7004232979914210D9E96851F82210E8
:103D5000E1540E0A581C26540E0C981C2654090EC9
:103D6000D81C215404330132D2B2EBE7591C2A7C0F
:103D7000E254981C00226254D91C22540433625429
:103D8000297C914210D9A96951F82210E1540E0AF8
:103D9000581C26540E0C981C2654090ED81C21546D
:103DA00004330132D2B2EBE75A1C297FE154991C4B
:103DB0004FF0000804F80280DA1C04F801801E1D90
:103DC00004F802802B7F434514D96B6A53F828000E
:103DD000FCF7DEF90746A05104366B6A024653F839
:103DE0002810A01901F0A3FC3E4408F101085FFA75
:103DF00088F8E7E73046BDE8F081F8B506460D469D
:103E00000C780379A3421AD3347100220424337945
:103E100093421AD92B5D611C695C43EA0123A11C02
:103E2000695C43EA0143E11C695C43EA0163B360F6
:103E30000434F16841F822300132D2B2E7E7A10040
:103E4000C06801F003FDF060DEE72F5D337CBB420C
:103E50001AD3043437740022337C93421AD92B5D71
:103E6000611C695C43EA0123A11C695C43EA0143CC
:103E7000E11C695C43EA016373610434B16941F890
:103E800022300132D2B2E7E7B900B06901F0DEFCBE
:103E9000B061DEE72F5D337FBB4204D3201D37774F
:103EA0004FF0000C12E0B900706A01F0CFFC7062B4
:103EB000F4E7431E0022EA54013C2C443462736A46
:103EC00043F82C400CF1010C5FFA8CFC337F634506
:103ED0000AD92F58041D234638199842E9D95A1E89
:103EE000E95CA9540133F7E7F8BD000008B50123E8
:103EF00083F31088FFF778FD0B480023C0F84034A7
:103F0000C0F84434C0F84C34C0F8483400F0ECFD3C
:103F100000B1FEE7044801F0EFFA00B1FEE7FFF759
:103F2000A7FEFEF7ADFEFEE7D062002008B502480E
:103F300001F084FCFEE700BFA469000808B5024850
:103F400001F008FC08BD00BFB869000830B585B0B5
:103F5000632903DD90F85434002B50D00D460446FD
:103F600013681B6800F21F2110469847FF2384F84E
:103F70001832FE2384F81932C3B284F81A32C0F31F
:103F8000072284F81B221344DBB2DB4384F81C3283
:103F900084F81D5245F3072184F81E1205230022E0
:103FA000C11D994205DDE11891F818120A44013348
:103FB000F6E75342D2B2DBB258BF5A4200F10805CD
:103FC000D243214481F81822B5F5007F08DCAAB25B
:103FD00004F506710020FFF7E3FC284605B030BD6C
:103FE000084B019303238DF80830074B039301AA74
:103FF00007212046FFF7AAFF4FF0FF35EDE7002528
:10400000EBE700BF1C6800083469000830B587B0D2
:10401000632904DD90F85434002B00F094800D46A1
:10402000044613681B6800F21F2110469847FF23BF
:1040300084F81832FE2384F81932C3B284F81A3295
:10404000C0F3072284F81B221344DBB2DB4384F85D
:104050001C3284F81D5245F3072184F81E120523F3
:104060000022C11D994205DDE11891F818120A4499
:104070000133F6E75342D2B2DBB258BF5A4200F1E5
:104080000805D243214481F81822B5F5007F08DCE9
:10409000AAB204F506710020FFF782FC284607B09B
:1040A00030BD2A4B009303228DF80420284A029247
:1040B0001B6804F21F2168469847FF2384F81832D2
:1040C000FE2384F81932C3B284F81A32C0F30722EF
:1040D00084F81B221344DBB2DB4384F81C32072331
:1040E00084F81D32002384F81E320522C11D91423E
:1040F00005DDA11891F818120B440132F6E75A4277
:10410000DBB2D2B258BF534200F10802DB43214474
:1041100081F81832B2F5007F08DC92B204F506711E
:104120000020FFF73DFC4FF0FF35B7E7074B039347
:1041300003238DF81030064B059303AA0721204670
:10414000FFF704FFEFE70025A8E700BF1C680008A1
:104150003469000830B58BB005464A4B07930024FC
:10416000089409941B6800F21F2107A89847FF23B1
:1041700085F81832FE2385F81932C3B285F81A3251
:10418000C0F3072285F81B221344DBB2DB4385F81A
:104190001C320A2385F81D3285F81E42052123466C
:1041A000C41D8C4205DD6A1892F8182213440131AF
:1041B000F6E75A42DBB2D2B258BF534200F10802CE
:1041C000DB432C4484F81832B2F5007F0ADC92B24B
:1041D00005F506710020FFF7E3FBFEF79FFDA860E1
:1041E0000BB030BD284B019303228DF80820274ADD
:1041F00003921B6805F21F2101A89847FF2385F849
:104200001832FE2385F81932C3B285F81A32C0F38A
:10421000072285F81B221344DBB2DB4385F81C32EE
:10422000072385F81D32002385F81E320522C11DA3
:10423000914205DDA91891F818120B440132F6E7F6
:104240005A42DBB2D2B258BF534200F10802DB43FC
:10425000294481F81832B2F5007F06DC92B205F5E8
:1042600006710020FFF79CFBB7E7074B049303237D
:104270008DF81430054B069304AA07212846FFF752
:1042800065FEAAE7EC6700081C68000834690008AE
:1042900070B58CB00446BC4B0693002614E04B422C
:1042A000C9B2DBB258BF594200F10802C9432544E4
:1042B00085F81812B2F5007F57DC92B204F506714A
:1042C0000020FFF76DFB0136042E00F39E8006F5FB
:1042D000837354F82330002BF5D09A68ADF81C2076
:1042E0001A680892586803689B689847099006F511
:1042F000837554F8253058680368DB6898470A903E
:104300004FF400730B9354F825301D69632D03DDC2
:1043100094F85434002BD6D0069B1B6804F21F215E
:1043200006A89847FF2384F81832FE2384F8193230
:10433000C3B284F81A32C0F3072284F81B22134454
:10434000DBB2DB4384F81C3284F81D5245F30725A9
:1043500084F81E5205230021C51D9D429FDDE218F1
:1043600092F8182211440133F6E7884B0093032298
:104370008DF80420864A02921B6804F21F216846C9
:104380009847FF2384F81832FE2384F81932C3B209
:1043900084F81A32C0F3072284F81B221344DBB2DC
:1043A000DB4384F81C32072384F81D32002384F891
:1043B0001E320522C11D914205DDA11891F8181287
:1043C0000B440132F6E75A42DBB2D2B258BF534235
:1043D00000F10802DB43214481F81832B2F5007F76
:1043E00006DC92B204F506710020FFF7D9FA6AE7FD
:1043F000664B039303238DF81030654B059303AA96
:1044000007212046FFF7A2FD5DE7002614E04B429E
:10441000C9B2DBB258BF594200F10802C943254472
:1044200085F81812B2F5007F59DC92B204F50671D6
:104430000020FFF7B5FA0136042E00F3A08006F540
:10444000857304EB830358680028F4D04368ADF803
:104450001C308368089303689B689847099006F5A9
:10446000857504EB850568680368DB6898470A90E2
:104470004FF400730B93686803685B6898470546C0
:10448000632803DD94F85434002BD4D0069B1B68BA
:1044900004F21F2106A89847FF2384F81832FE2350
:1044A00084F81932C3B284F81A32C0F3072284F8B0
:1044B0001B221344DBB2DB4384F81C3284F81D5208
:1044C00045F3072584F81E5205230021C51D9D4292
:1044D0009DDDE21892F8182211440133F6E72B4BC8
:1044E000009303228DF80420294A02921B6804F2EB
:1044F0001F2168469847FF2384F81832FE2384F86A
:104500001932C3B284F81A32C0F3072284F81B228E
:104510001344DBB2DB4384F81C32072384F81D32DA
:10452000002384F81E320522C11D914205DDA11829
:1045300091F818120B440132F6E75A42DBB2D2B2BC
:1045400058BF534200F10802DB43214481F818327E
:10455000B2F5007F06DC92B204F506710020FFF789
:104560001FFA68E7094B039303238DF81030084BBB
:10457000059303AA07212046FFF7E8FC5BE7012328
:1045800084F854340CB070BD046800081C6800083E
:10459000346900082DE9F04387B00446FEF7BEFBFE
:1045A0000546D4F85C34C31A42F6F822934202D985
:1045B000002384F85434D4F8403433B3D4F860344E
:1045C0009D4222D90023C4F840341EE094F85434AC
:1045D000002B00F07782D4F85834EB1A40F6C4125E
:1045E000934200F2198200206CE2D4F84C345A1C39
:1045F000C4F84C2423441976D4F84434013BC4F85D
:10460000443413B90823C4F84034636933B1FEF766
:1046100085FB401B6369984200F2528206A9FF2382
:1046200001F80C3D0020FFF7CBF90028CED09DF813
:104630000C10D4F850240A44C4F85024D4F8403460
:10464000072BD2D0B3B9FF2907D10133C4F84034C6
:1046500005F11403C4F86034D7E7FEF75FFB401B95
:1046600041F288339842D0D9002384F854346FF053
:10467000010027E2012B3BD0022B00F09780032B97
:1046800000F09F80042B00F0A680052B00F0B28084
:10469000062B00F0B780082BB7D10023C4F84034B4
:1046A0009B1AD2B2DBB258BF5A42FF2AADD1D4F81E
:1046B0004834002B00F0B8800A2B00F0C280062B93
:1046C00000F004810B2B00F09681A3F16402A63365
:1046D00004EB83035968002997D002F5857304EB36
:1046E00083030A68126804F11801586890478CE740
:1046F000FE2932D00023C4F8403494F85434002BFF
:1047000083D1BF4B00930026019602961B6804F2EA
:104710001F2168469847FF2384F81832FE2384F847
:104720001932C3B284F81A32C0F3072284F81B226C
:104730001344DBB2DB4384F81C320A2384F81D32B5
:1047400084F81E6205223346C11D914209DDA1187D
:1047500091F818120B440132F6E70133C4F84034E3
:1047600053E75A42DBB2D2B258BF534200F10802BB
:10477000DB43214481F81832B2F5007F09DC92B2A4
:1047800004F506710020FFF70BF9FEF7C7FAA060E9
:104790003BE79C4B039303238DF810309A4B059312
:1047A00003AA07212046FFF7D1FBEEE7C4F8441423
:1047B0000022C4F84C240133C4F84034C4F8501427
:1047C00023E7D4F8442402EB0121C4F84414013354
:1047D000C4F8403419E75142D2B2C9B258BF4A4274
:1047E000FF2A03D00023C4F840340EE70133C4F895
:1047F00040340AE7C4F848140133C4F84034C4F81C
:10480000501402E7D4F8483403EB0123C4F84834C9
:104810000723C4F84034D4F84434002B7FF4F5AEB9
:104820000823C4F84034F0E62046FFF793FC204606
:10483000FFF72EFDC4F85854C4F85C544FF0FF3015
:1048400040E104F11806FEF769FAA368C01A227E57
:104850003346717842EA0122B17842EA0142F178A6
:1048600042EA01613279767942EA06229E7942EA89
:104870000642DB7942EA0362644EA6FB00739B09A1
:10488000194404914FF47A7808FB1303604F07FB37
:1048900003230593FEF742FAA6FB00239B09049A23
:1048A000D21A013AE26008FB1303059A07FB1323AF
:1048B000584A1A44214641F8102F04F10C0000F028
:1048C000FDFEFEF72BFAC4F85C049EE604F58D6845
:1048D00004F11807267E98F804309E421ED888F806
:1048E00004600022042698F8043093421ED9BB5D70
:1048F000711C795C43EA0123B11C795C43EA0143F2
:10490000F11C795C43EA0163C8F808300436D8F832
:104910000C1041F822300132D2B2E4E7B100D8F8ED
:104920000C0000F093FFC8F80C00D8E717F80690C9
:1049300098F8103099451ED8043688F81090002257
:1049400098F8103093421FD9BB5D711C795C43EA23
:104950000123B11C795C43EA0143F11C795C43EA11
:104960000163C8F814300436D8F8181041F8223022
:104970000132D2B2E4E74FEA8901D8F8180000F01A
:1049800065FFC8F81800D7E717F8069098F81C30AC
:10499000994505D8321D88F81C904FF0000C17E09F
:1049A0004FEA8901D8F8240000F050FFC8F824002D
:1049B000F0E7531E0021F954731E3B44C8F8203021
:1049C000D8F8241041F82C300CF1010C5FFA8CFC63
:1049D00098F81C3063450AD9B858161D3346821919
:1049E0009A42E6D95A1EF95CB9540133F7E701231C
:1049F00084F8643409E6002384F8543405E600BFE3
:104A0000EC6700081C68000834690008D34D621088
:104A100040420F0000CA9A3B2C4B0093002601969F
:104A200002961B6804F21F2168469847FF2384F80A
:104A30001832FE2384F81932C3B284F81A32C0F354
:104A4000072284F81B221344DBB2DB4384F81C32B8
:104A50000A2384F81D3284F81E620522334604E0DE
:104A6000A11891F818120B440132C11D9142F7DCD4
:104A70005A42DBB2D2B258BF534200F10802DB43C4
:104A8000214481F81832B2F5007F0CDC92B204F5B3
:104A900006710020FEF784FFFEF740F9A060C4F81D
:104AA000585400200EE00A4B039303238DF8103076
:104AB000084B059303AA07212046FFF747FAEBE7C7
:104AC0006FF0010007B0BDE8F08300BFEC6700089D
:104AD0001C6800083469000808B54FF6FF71012012
:104AE000FFF774F808BD000030B587B0084B1860B8
:104AF00001AC084D0FCD0FC42B682360002101A825
:104B0000FDF731FD10B1002007B030BD0120FBE7FB
:104B100060670020786700082DE9F0438DB00AE057
:104B200094F854343BB1D4F85834EB1A40F6C4121C
:104B3000934200F2B4834FF47A70FDF72EFDBC4B24
:104B40001C68FEF7EBF80546D4F85C34C31A42F64D
:104B5000F822934202D9002384F85434D4F8403424
:104B6000BBB1D4F860349D4213D90023C4F840345B
:104B70000FE0D4F84C345A1CC4F84C242344197662
:104B8000D4F84434013BC4F8443413B90823C4F8BE
:104B9000403463692BB1FEF7C1F8401B636998424A
:104BA000C9D80CA9FF2301F8183D0020FEF708FF23
:104BB0000028B5D09DF81810D4F850240A44C4F841
:104BC0005024D4F84034072BD3D0A3B9FF2907D100
:104BD0000133C4F8403405F11403C4F86034D8E755
:104BE000FEF79CF8401B41F288339842D1D900234C
:104BF00084F854349FE7012B3AD0022B00F0D9807F
:104C0000032B00F0E180042B00F0E880052B00F07E
:104C1000F480062B00F0F980082BBAD10023C4F8E9
:104C200040349B1AD2B2DBB258BF5A42FF2AB0D1ED
:104C3000D4F84864002E00F003810A2E00F0508260
:104C4000062E00F093820B2E00F0258306F1A602BB
:104C500004EB82025268002A9BD006F1A60304EB03
:104C600083031268126804F118015868904790E7AE
:104C7000FE2932D00023C4F8403494F85434002B79
:104C800087D16C4B00930026019602961B6804F2B4
:104C90001F2168469847FF2384F81832FE2384F8C2
:104CA0001932C3B284F81A32C0F3072284F81B22E7
:104CB0001344DBB2DB4384F81C320A2384F81D3230
:104CC00084F81E6205223346C11D914209DDA118F8
:104CD00091F818120B440132F6E70133C4F840345E
:104CE00057E75A42DBB2D2B258BF534200F1080232
:104CF000DB43214481F81832B2F5007F09DC92B21F
:104D000004F506710020FEF74BFEFEF707F8A060E1
:104D10003FE7494B039303228DF81020474A059241
:104D20001B6804F21F2103A89847FF2384F8183258
:104D3000FE2384F81932C3B284F81A32C0F3072272
:104D400084F81B221344DBB2DB4384F81C320723B4
:104D500084F81D32002384F81E320522C11D9142C1
:104D600005DDA11891F818120B440132F6E75A42FA
:104D7000DBB2D2B258BF534200F10802DB432144F8
:104D800081F81832B2F5007F06DC92B204F50671A4
:104D90000020FEF705FEB8E7274B069303238DF8A6
:104DA0001C30264B089306AA07212046FFF7CEF8B1
:104DB000ABE7C4F844140022C4F84C240133C4F80F
:104DC0004034C4F85014E4E6D4F8442402EB012142
:104DD000C4F844140133C4F84034DAE65142D2B284
:104DE000C9B258BF4A42FF2A03D00023C4F8403456
:104DF000CFE60133C4F84034CBE6C4F8481401339D
:104E0000C4F84034C4F85014C3E6D4F8483403EB73
:104E10000123C4F848340723C4F84034D4F8443498
:104E2000002B7FF4B6AE0823C4F84034B1E600BFCF
:104E300060670020EC6700081C68000834690008FF
:104E4000A34B03930027049705971B6804F21F21C7
:104E500003A89847FF2384F81832FE2384F81932F8
:104E6000C3B284F81A32C0F3072284F81B22134419
:104E7000DBB2DB4384F81C320A2384F81D3284F849
:104E80001E7233460527C11DB94205DDE21992F8AD
:104E9000182213440137F6E75A42DBB2D2B258BFA8
:104EA000534200F10802DB43214481F81832B2F585
:104EB000007F0CDC92B204F506710020FEF770FD55
:104EC000FDF72CFFA060834B0693374621E0824B11
:104ED000069303238DF81C30804B089306AA072104
:104EE0002046FFF733F8EBE75A42DBB2D2B258BFA5
:104EF000534200F10802DB43214481F81832B2F535
:104F0000007F58DC92B204F506710020FEF748FDE0
:104F10000137042F5CDC07F5837354F82330002B32
:104F2000F6D09A68ADF81C201A6808925868036891
:104F30009B689847099007F5837854F8283058689B
:104F40000368DB6898470A904FF400730B9354F89A
:104F50002830D3F81080B8F1630F03DD94F854348F
:104F6000002BD5D0069B1B6804F21F2106A898478A
:104F7000FF2384F81832FE2384F81932C3B284F870
:104F80001A32C0F3072284F81B221344DBB2DB433E
:104F900084F81C3284F81D8248F3072884F81E82A6
:104FA00033460522C11D91429EDDA11891F81812C9
:104FB0000B440132F6E7484B039303238DF810307E
:104FC000464B059303AA07212046FEF7BFFF9FE744
:104FD000374614E05A42DBB2D2B258BF534200F116
:104FE0000802DB43214481F81832B2F5007F5ADC15
:104FF00092B204F506710020FEF7D2FC0137042FAF
:105000005EDC07F5857304EB830358680028F5D050
:105010004368ADF81C308368089303689B68984721
:10502000099007F5857804EB8808D8F80400036830
:10503000DB6898470A904FF400730B93D8F804008C
:1050400003685B6898478046632803DD94F854340E
:10505000002BD3D0069B1B6804F21F2106A898479B
:10506000FF2384F81832FE2384F81932C3B284F87F
:105070001A32C0F3072284F81B221344DBB2DB434D
:1050800084F81C3284F81D8248F3072884F81E82B5
:1050900033460522C11D91429CDDA11891F81812DA
:1050A0000B440132F6E70C4B039303238DF81030C9
:1050B0000A4B059303AA07212046FEF747FF9DE709
:1050C000012384F85434C4F85854C4F85C5432E5CD
:1050D000EC670008046800081C68000834690008D0
:1050E00004F11806FDF71AFEA368C01A237E3246A3
:1050F000717843EA0123B17843EA0143F17843EA46
:10510000016307933179767941EA0621967941EA7C
:105110000641D27941EA0261AC4EA6FB00729209C7
:10512000134407934FF47A7808FB1203A84F07FB48
:1051300003130893FDF7F2FDA6FB00239B09079AD2
:10514000D21A013AE26008FB1303089A07FB132303
:10515000A04A1A44214641F8102F04F10C0000F037
:10516000ADFAFDF7DBFDC4F85C0412E504F58D68CB
:1051700004F11807267E98F804309E421ED888F85D
:1051800004600022042698F8043093421ED9BB5DC7
:10519000711C795C43EA0123B11C795C43EA014349
:1051A000F11C795C43EA0163C8F808300436D8F88A
:1051B0000C1041F822300132D2B2E4E7B100D8F845
:1051C0000C0000F043FBC8F80C00D8E717F8069075
:1051D00098F8103099451ED8043688F810900022AF
:1051E00098F8103093421FD9BB5D711C795C43EA7B
:1051F0000123B11C795C43EA0143F11C795C43EA69
:105200000163C8F814300436D8F8181041F8223079
:105210000132D2B2E4E74FEA8901D8F8180000F071
:1052200015FBC8F81800D7E717F8069098F81C3057
:10523000994505D8321D88F81C904FF0000C17E0F6
:105240004FEA8901D8F8240000F000FBC8F82400D8
:10525000F0E7531E0021F954731E3B44C8F8203078
:10526000D8F8241041F82C300CF1010C5FFA8CFCBA
:1052700098F81C3063450AD9B858161D3346821970
:105280009A42E6D95A1EF95CB9540133F7E7012373
:1052900084F864347DE4002384F8543479E44E4B7C
:1052A00000930026019602961B6804F21F216846AF
:1052B0009847FF2384F81832FE2384F81932C3B2CA
:1052C00084F81A32C0F3072284F81B221344DBB29D
:1052D000DB4384F81C320A2384F81D3284F81E62F2
:1052E0000522334604E0A11891F818120B4401324C
:1052F000C11D9142F7DC5A42DBB2D2B258BF5342D1
:1053000000F10802DB43214481F81832B2F5007F36
:105310000BDC92B204F506710020FEF741FBFDF7AD
:10532000FDFCA060C4F8585405E42C4B0393032201
:105330008DF810202A4A05921B6804F21F2103A849
:105340009847FF2384F81832FE2384F81932C3B239
:1053500084F81A32C0F3072284F81B221344DBB20C
:10536000DB4384F81C32072384F81D32002384F8C1
:105370001E320526C11DB14205DDA21992F8182280
:1053800013440136F6E75A42DBB2D2B258BF534259
:1053900000F10802DB43214481F81832B2F5007FA6
:1053A00006DC92B204F506710020FEF7F9FAB6E7C2
:1053B0000A4B069303238DF81C30094B089306AA69
:1053C00007212046FEF7C2FDA9E700BFD34D6210BA
:1053D00040420F0000CA9A3BEC6700081C680008B6
:1053E0003469000883880B7083881B0A4B70022085
:1053F00070470B7883804A7843EA02238380022037
:105400007047000000487047406A00080048704735
:105410001C6A0008012800D070474FF6FF739942BC
:10542000FAD1064B064A1A60064ADA60064A5A6101
:1054300001229A61054A9A60EEE700BF6467002086
:10544000086A0008F06900087D540008186A00081E
:1054500008B50B7803824A7843EA02230382436942
:105460000C30984708BD80697047000000487047BD
:10547000406A0008004870471C6A000808B500230D
:105480004FF0FF32011D02480068FCF71BFE08BD0B
:105490008067002008B54FF6FF710120FFF7BAFFC3
:1054A00008BD30B40D6804232A1D9A4204D95A1E3F
:1054B000CC5C8C540133F7E7033500234B550331A3
:1054C0004160104630BC704700487047946A00083D
:1054D00000487047706A000870B506460C46406880
:1054E000FAF756FE0546204640F8045B2A467168E6
:1054F00000F01DF9281D70BD30B587B0084B18604D
:1055000001AC084D0FCD0FC42B682360002101A80A
:10551000FDF729F810B1002007B030BD0120FBE7EE
:10552000846700208C67000830B58FB05D4B0C930A
:105530005D4B07930CAB089300230B935B4A1268F7
:10554000042B27DC03F5837152F8211009B10133D4
:10555000F6E703F5837107A842F821006933099340
:105560000A9217E04B42C9B2DBB258BF594200F170
:105570000802C943254485F81812B2F5007F40DCC3
:1055800092B204F506710020FEF70AFA40F2DC50F0
:10559000FDF703F8464B0D930220FDF7E1FF434B67
:1055A0001C68099D632D03DD94F85434002BEDD065
:1055B0000C9B1B6804F21F210CA89847FF2384F85A
:1055C0001832FE2384F81932C3B284F81A32C0F3B9
:1055D000072284F81B221344DBB2DB4384F81C321D
:1055E00084F81D5245F3072584F81E520523002137
:1055F000C51D9D42B6DDE21892F818221144013310
:10560000F6E72C4B019303228DF808202A4A0392D7
:105610001B6804F21F2101A89847FF2384F8183261
:10562000FE2384F81932C3B284F81A32C0F3072279
:1056300084F81B221344DBB2DB4384F81C320723BB
:1056400084F81D32002384F81E320522C11D9142C8
:1056500005DDA11891F818120B440132F6E75A4201
:10566000DBB2D2B258BF534200F10802DB432144FF
:1056700081F81832B2F5007F06DC92B204F50671AB
:105680000020FEF78DF981E70A4B049303238DF880
:105690001430094B069304AA07212046FEF756FC56
:1056A00074E700BF586A0008686A00088467002031
:1056B000180000201C6800083469000830B40C6829
:1056C000630A074AA2FB0323DA09064D05FB1242CF
:1056D000046804EBD31303600A6030BC704700BF5A
:1056E000834B040000CA9A3B002103E00A4B5B583D
:1056F0004350043109480A4B42189A42F6D3094AEA
:1057000002E0002342F8043B074B9A42F9D3FBF72F
:10571000F7FDFEF7EBFB7047386D00080000002036
:105720008C0000208C000020D8670020FEE710B518
:10573000431E0A44914200D110BD11F8014B03F8F9
:10574000014FF7E702440346934200D1704703F844
:10575000011BF9E70FB40A4B13B51C6824B1A36908
:1057600013B9204600F02AFA05AB049AA168019308
:10577000204600F009FC02B0BDE8104004B07047BC
:105780002800002070B50E46054618B183690BB994
:1057900000F014FAAB69AC6813B9284600F00EFAB1
:1057A000234B9C4217D16C68A3891B071DD5236925
:1057B000DBB1013EA36816F8011F013BA360E9B904
:1057C000002B2EDA22460A21284600F047F8013045
:1057D00011D00A2011E0174B9C4201D1AC68E3E7DD
:1057E000154B9C4208BFEC68DEE72146284600F0D6
:1057F00087F80028DDD04FF0FF3070BD002B04DAB1
:10580000A2699A4206DC0A2904D023685A1C226045
:105810001970CFE72246284600F020F80130C9D1A0
:10582000E9E723680A205A1C22601870E5E700BFE8
:10583000DC6A0008FC6A0008BC6A0008024B0146EA
:105840001868FFF79FBF00BF28000020024B0A46E0
:105850000146186800F048BB28000020F8B50E4645
:105860001446054618B183690BB900F0A7F9214B1E
:105870009C422AD16C68A369A360A3891A072ED51C
:10588000236963B323692068C01A6369F6B283424F
:10589000374604DC2146284600F026F928BBA368D9
:1058A000013BA36023685A1C22601E7063690130AB
:1058B000834204D0A389DB0719D50A2E17D12146CC
:1058C000284600F011F990B10FE00B4B9C4201D13A
:1058D000AC68D0E7094B9C4208BFEC68CBE7214697
:1058E000284600F00DF80028CCD04FF0FF3738469E
:1058F000F8BD00BFDC6A0008FC6A0008BC6A00084A
:10590000324B70B51D6806460C4625B1AB6913B91C
:10591000284600F053F92E4B9C420FD16C68B4F925
:105920000C309AB215072CD4D00611D4092232605B
:1059300043F04003A3814FF0FF303EE0254B9C42F3
:1059400001D1AC68EBE7244B9C4208BFEC68E6E76A
:10595000510712D5616B41B104F14403994202D061
:10596000304600F019FA00236363A38923F024036F
:10597000A3810023636023692360A38943F00803A4
:10598000A38123694BB9A38903F42073B3F5007F86
:1059900003D02146304600F0BFF9A28912F001037E
:1059A0000CD00023A36063695B42A361236953B9F0
:1059B000B4F90C3013F08000BAD170BD920758BF13
:1059C0006369A360F2E70020F7E700BF280000202A
:1059D000DC6A0008FC6A0008BC6A00088A892DE9B4
:1059E000F041054610070C4658D44B68002B05DCE7
:1059F0000B6C002B02DC0020BDE8F081E66A002E73
:105A0000F9D0002312F480522F68216A2B6032D023
:105A1000606DA3895A0705D56368C01A636B0BB123
:105A2000236CC01A00230246E66A216A2846B04762
:105A3000431CA38906D129681D2948D8294ACA4090
:105A4000D60744D500226260D9042269226004D5B9
:105A5000421C01D12B6803B96065616B2F6000297E
:105A6000C9D004F14403994202D0284600F094F9C9
:105A700000206063C0E701232846B047411CC8D11D
:105A80002B68002BC5D01D2B01D0162B01D12F6008
:105A9000B1E7A38943F04003A381ADE70F69002F6D
:105AA000A9D093070E6808BF4B690F6018BF002389
:105AB000A6EB07088B60B8F1000F9CDD43463A4621
:105AC000216AA66A2846B047002806DCA38943F06D
:105AD0004003A3814FF0FF308EE70744A8EB000896
