:020000040800F2
:1000000000C00020E5050008D3050008D50500085C
:10001000D7050008D9050008DB050008000000002E
:10002000000000000000000000000000DD050008E6
:10003000DF05000800000000E1050008E3050008F6
:1000400029060008290600082906000829060008D4
:1000500029060008290600082906000829060008C4
:1000600029060008290600082906000829060008B4
:1000700029060008290600082906000829060008A4
:100080002906000829060008290600082906000894
:100090002906000829060008290600082906000884
:1000A0002906000829060008290600082906000874
:1000B0002906000829060008290600082906000864
:1000C0002906000829060008290600082906000854
:1000D0002906000829060008290600082906000844
:1000E0002906000829060008290600082906000834
:1000F0002906000829060008290600082906000824
:100100002906000829060008290600082906000813
:100110002906000829060008290600082906000803
:1001200029060008290600082906000829060008F3
:1001300029060008290600082906000829060008E3
:1001400029060008290600082906000829060008D3
:1001500010B5054C237833B9044B13B10448AFF301
:1001600000800123237010BD40000020000000002B
:100170002C06000808B5034B1BB103490348AFF335
:10018000008008BD00000000440000202C0600088C
:1001900000B583B00121042000F0F2F901A800F0BD
:1001A000E6F92023ADF8043048238DF8073001A983
:1001B000024800F08DF903B05DF804FB000801402F
:1001C00010B582B0044601210B4B53F8200000F01B
:1001D000D7F901A800F0CBF9084B33F81430ADF88B
:1001E000043028238DF8073001A9054B53F824006B
:1001F00000F06EF902B010BD0C00002000000020DD
:100200000400002010B582B0044601210D4B53F8C4
:10021000200000F0B5F901A800F0A9F90A4B33F865
:100220001430ADF8043010238DF8073002238DF818
:10023000063001A9054B53F8240000F049F902B03B
:1002400010BD00BF2C000020140000201C00002066
:10025000032807D8044B33F810301BB1034A52F877
:1002600020201361704700BF140000201C000020F4
:10027000032809D8054B33F810302BB1044A52F843
:100280002010CA685340CB60704700BF14000020A4
:100290001C00002008B56FF0040000F07FF90B4B44
:1002A000D3ED007AF8EE677ADFED096A87EEA67A79
:1002B000084B83ED007AD3ED007A9FED077A67EE65
:1002C000877A064BC3ED007A08BD00BF3C000020D2
:1002D000001B374D6000002000007A445C000020C5
:1002E00008B5FFF7D7FFFFF753FF0120FFF78AFF9D
:1002F0000220FFF787FF0320FFF784FF0120FFF7AD
:10030000A7FF0220FFF7A4FF0320FFF7A1FF0020B3
:10031000FFF756FF0120FFF753FF08BD22E01C4BFB
:1003200093ED007A07EE900AF8EE677A67EE877A27
:10033000FCEEE77A174BC3ED017A0020154B002243
:100340009A601A6842F001021A60124B1B6803F0AF
:100350000113012BF9D00F4B1A6822F001021A6029
:1003600000229A6090B1B0F5FA7FD8D9084BD3ED4E
:10037000007A9FED097A67EE877AFCEEE77A054B03
:10038000C3ED017AA0F5FA7080B2D7E7704700BFDD
:100390005C00002010E000E00000FA4382B000237F
:1003A000019300932C4A136843F4803313602A4B63
:1003B0001B6803F400330093019B01330193009BFE
:1003C0001BB9019BB3F5A06FF1D1234B1B6813F44C
:1003D000003F06D001230093009B012B04D002B004
:1003E000704700230093F7E71B4B5A685A605A681E
:1003F00022F460525A605A6842F400525A605A68B5
:1004000022F4E0625A605A6842F480625A605A6884
:1004100022F0604222F47C125A605A6842F0204274
:1004200042F4E8125A601A6842F080721A600A4B6D
:100430001B6813F0007FFAD0074B5A6822F00302C2
:100440005A605A6842F002025A60034B5B6803F03C
:100450000C03082BF9D1C2E70010024008B5FFF7E2
:100460009DFF08BD10B5164CD4F8883043F47003D6
:10047000C4F88830134B1A6842F001021A605968B8
:10048000114A0A405A601A6822F0847222F48032BB
:100490001A601A6822F480221A605A6822F06842B0
:1004A00022F47F025A60196B084A0A401A634FF41B
:1004B0001F029A60FFF7D2FF4FF00063A36010BDE8
:1004C00000ED00E0001002400C00FFE800FFFEFE1F
:1004D000F0B4CB7803F00F02154613F0100F01D0E3
:1004E0008D7815430B78E3B10668002301E0426183
:1004F0000133072B14D801229A400C8832EA0404F5
:10050000F6D19C000F27A74026EA070605FA04F457
:100510002643CC78282CEAD0482CE9D10261E7E7C1
:1005200006600B88FF2B20D94668002303E0426158
:1005300016E002610133072B16D803F108040122EB
:10054000A2400C8832EA0404F4D19C000F27A74093
:1005500026EA070605FA04F42643CC78282CE6D0D0
:10056000CC78482CE6D1E4E74660F0BC70474FF603
:10057000FF730380022383700423C370704700005D
:1005800029B9054A936923EA000090617047024A3D
:10059000936918439061704700100240042805D009
:1005A000054A136823F0040313607047024A136876
:1005B00043F004031360704710E000E008B5FFF754
:1005C0008FFE0120FFF754FE4FF47A70FFF7A6FE6E
:1005D000F7E77047FEE7FEE7FEE7FEE77047704784
:1005E00070477047002103E00A4B5B5843500431C9
:1005F00009480A4B42189A42F6D3094A02E00023FE
:1006000042F8043B074B9A42F9D3FFF72BFFFFF761
:10061000D5FF70474C060008000000204000002075
:100620004000002064000020FEE70000F8B500BF95
:10063000F8BC08BC9E467047F8B500BFF8BC08BCC3
:040640009E4670471B
:040644007501000834
:040648005101000854
:10064C000100000200080140000C01400400000001
:10065C0008000000000000200040008000000000A6
:10066C00001001400010014000100140000000008B
:10067C0010000000100000001000000000B0710B12
:04000005080005E505
:00000001FF
