:020000040800F2
:1000000000C00020F50C0008990200089B020008BF
:100010009D0200089F020008A102000800000000E5
:10002000000000000000000000000000A302000823
:10003000A502000800000000A7020008A9020008AD
:10004000390D0008390D0008390D0008390D000878
:10005000390D0008390D0008390D0008390D000868
:10006000390D0008390D0008390D0008390D000858
:10007000390D0008390D0008390D0008390D000848
:10008000390D0008390D0008390D0008390D000838
:10009000390D0008390D0008390D0008390D000828
:1000A000390D0008390D0008390D0008390D000818
:1000B000390D0008390D0008390D0008390D000808
:1000C000390D0008390D0008390D0008390D0008F8
:1000D000390D0008390D0008390D0008390D0008E8
:1000E000390D0008390D0008390D0008390D0008D8
:1000F000390D0008390D0008390D0008390D0008C8
:10010000390D0008390D0008390D0008390D0008B7
:10011000390D0008390D0008390D0008390D0008A7
:10012000390D0008390D0008390D0008390D000897
:10013000390D0008390D0008390D0008390D000887
:10014000390D0008390D0008390D0008390D000877
:1001500010B5054C237833B9044B13B10448AFF301
:1001600000800123237010BD140000200000000057
:10017000600D000808B5034B1BB103490348AFF3FA
:10018000008008BD0000000018000020600D00087D
:10019000F0B589B0002404940594069407941D4B8F
:1001A0009A6942F004029A619A6902F0040201928B
:1001B000019A9A6942F008029A619A6902F008026B
:1001C0000292029A9A6942F010029A619B6903F0C6
:1001D00010030393039B104F22464FF400513846FF
:1001E00000F088FC4FF40053049301260596069412
:1001F0000225079504A9384600F084FB20230493C8
:1002000005960694079504A9044800F07BFB09B005
:10021000F0BD00BF00100240001001400008014086
:1002200010B590B02422002107A800F086FD00241C
:1002300001940294039404940594022306930123E9
:100240000A9310230B9306A800F0A8F80F2301933C
:100250000294039404940594214601A800F0BEFA88
:1002600010B010BD08B500F051F8FFF7D9FFFFF747
:100270008FFF01222021064800F03CFC4FF4005182
:10028000044800F03DFC4FF4FA6000F05FF8F5E739
:1002900000080140001001407047FEE7FEE7FEE75E
:1002A000FEE770477047704708B500F041F808BD99
:1002B00082B00A4B9A6942F001029A619A6902F08F
:1002C00001020092009ADA6942F08052DA61DB6939
:1002D00003F080530193019B02B07047001002406D
:1002E00010B50446074B1868074BA3FB0030800984
:1002F00000F050FC002221464FF0FF3000F016FCC9
:10030000002010BD10000020D34D621008B5074A30
:10031000136843F010031360032000F0F5FB002086
:10032000FFF7DEFFFFF7C4FF002008BD00200240FA
:10033000024A136801331360704700BF3000002089
:10034000014B1868704700BF3000002030B583B003
:100350000190FFF7F5FF0546019CB4F1FF3F00D087
:100360000134FFF7EDFF401BA042FAD303B030BDCC
:1003700082B0084B1B68084AA2FB03235B0A00FB00
:1003800003F0019000BF019B5A1E0192002BF9D18E
:1003900002B0704710000020D34D621070B582B0DB
:1003A0000446036813F0010F2CD0AC4B5B6803F0DC
:1003B0000C03042B1DD0A94B5B6803F00C03082B26
:1003C00012D06368B3F5803F41D0002B56D103F1C2
:1003D000804303F504331A6822F480321A601A68E5
:1003E00022F480221A6037E09C4B5B6813F4803F54
:1003F000E7D09A4B1B6813F4003F03D06368002BCF
:1004000000F0A681236813F0020F78D0934B5B684D
:1004100013F00C0F61D0914B5B6803F00C03082BB9
:1004200056D02369002B00F08C808D4B01221A607E
:10043000FFF786FF0546894B1B6813F0020F77D143
:10044000FFF77EFF401B0228F5D9032083E1834A92
:10045000136843F48033136063684BB3FFF770FF96
:1004600005467E4B1B6813F4003FCBD1FFF768FFB6
:10047000401BB0F5A06FF4D903206CE1B3F5A02FB9
:1004800009D0764B1A6822F480321A601A6822F476
:1004900080221A60E0E703F18043A3F53C331A6839
:1004A00042F480221A601A6842F480321A60D3E75C
:1004B000FFF746FF0546694B1B6813F4003FA1D0C8
:1004C000FFF73EFF401BB0F5A06FF4D9032042E1D7
:1004D000624B5B6813F4803FA3D1604B1B6813F041
:1004E000020F04D02369012B01D0012033E15B4AC4
:1004F000136823F47F43616943EAC10313602368EF
:1005000013F0080F32D0A369002B5BD0554B0122AA
:100510001A60FFF715FF0546504B5B6A13F0020F98
:1005200021D1FFF70DFF401B0228F5D9032012E16E
:100530004A4A136823F47F43616943EAC1031360A5
:10054000DDE7474B00221A60FFF7FAFE0546434BF2
:100550001B6813F0020FD2D0FFF7F2FE401B0228F7
:10056000F5D90320F7E00120FFF702FF236813F01D
:10057000040F00F09780394BDB6913F0805F33D1B3
:10058000364BDA6942F08052DA61DB6903F080535E
:100590000193019B0125344B1B6813F4807F25D008
:1005A000E368012B36D0002B4CD103F1804303F5D7
:1005B00004331A6A22F001021A621A6A22F0040253
:1005C0001A622CE0274B00221A60FFF7B9FE05469D
:1005D000224B5B6A13F0020FC8D0FFF7B1FE401B3D
:1005E0000228F5D90320B6E00025D4E71E4A136897
:1005F00043F480731360FFF7A3FE06461A4B1B6893
:1006000013F4807FCCD1FFF79BFE801B6428F5D9C3
:100610000320A0E0114A136A43F001031362E36868
:1006200073B3FFF78DFE06460C4B1B6A13F0020FE7
:1006300037D1FFF785FE801B41F288339842F3D90A
:10064000032088E0052B11D0044B1A6A22F0010226
:100650001A621A6A22F004021A62E0E700100240ED
:100660000000424280044242007000403C4B1A6A43
:1006700042F004021A621A6A42F001021A62CEE7DC
:10068000FFF75EFE0646364B1B6A13F0020F08D0DA
:10069000FFF756FE801B41F288339842F3D90320BE
:1006A00059E0E5B9E369002B54D02D4A526802F0B5
:1006B0000C02082A51D0022B17D02A4B00221A60B4
:1006C000FFF73EFE0446264B1B6813F0007F3DD02B
:1006D000FFF736FE001B0228F5D903203BE0204A35
:1006E000D36923F08053D361DCE71E4B00221A60EC
:1006F000FFF726FE05461A4B1B6813F0007F06D055
:10070000FFF71EFE401B0228F5D9032023E0226AD2
:1007100013494B6823F0C04323F47413606A024307
:1007200013434B600F4B01221A60FFF709FE04468A
:100730000B4B1B6813F0007F06D1FFF701FE001B77
:100740000228F5D9032006E0002004E0002002E0A2
:10075000012000E0002002B070BD0120FBE700BFD7
:10076000001002406000424210B487B0174C94E879
:100770000F000DF1180C0CE90F00238AADF80430BE
:10078000134B5A6802F00C03082B1DD141F60F03DE
:1007900003EA9243634413F8100C12F4803F06D12D
:1007A0000C4B03FB00F007B05DF8044B7047084B9F
:1007B0005B68C3F34043634413F8142C064BB3FB4C
:1007C000F2F300FB03F0EEE70348ECE74C0D000802
:1007D0000010024000093D0000127A0038B50446BE
:1007E000036813F0020F06D0434A536823F0F00366
:1007F00081680B435360236813F0010F51D0636885
:10080000012B22D0022B27D03B4A126812F0020F94
:100810006FD039494A6822F0030213434B60FFF757
:100820008FFD05466368012B1DD0022B2AD0324B69
:100830005B6813F00C0F34D0FFF782FD401B41F2D0
:1008400088339842F3D9032052E02B4A126812F4FD
:10085000003FDED101204BE0274A126812F0007FF2
:10086000D7D1012044E0244B5B6803F00C03042B38
:1008700017D0FFF765FD401B41F288339842F2D94B
:10088000032035E01C4B5B6803F00C03082B08D0F9
:10089000FFF756FD401B41F288339842F2D90320FE
:1008A00026E0236813F0040F06D0134A536823F49C
:1008B000E063E1680B435360236813F0080F07D02F
:1008C0000D4A536823F46053216943EAC10353601E
:1008D000FFF74AFF084B5B68C3F30313074AD35C77
:1008E000DBB2D840064B18600020FFF7F9FC00206F
:1008F00038BD0120FCE700BF0010024000000020CE
:1009000010000020F0B482B000263546ABE0002C89
:1009100063D0012C00D1CE68FF2B72D88446FF2B08
:1009200072D8AC00DCF800200F27A74022EA0702AB
:1009300006FA04F42243CCF800204A6812F0805FE3
:1009400000F09080654A946944F0010494619269D2
:1009500002F001020192019AAC08A71C604A52F809
:1009600027C005F0030297000F22BA402CEA020CC0
:100970005C4A90424ED002F58062904200F08B803B
:1009800002F58062904200F0888002F58062904219
:1009900000F0858002F58062904200F0828002F5CE
:1009A0008062904234D0062235E04F4FBC4214D0D2
:1009B0000BD94E4FBC4210D007F58037BC420CD04B
:1009C000A7F58017BC42A7D107E0A7F58017BC4266
:1009D00003D007F58037BC429ED18C687CB1012CD6
:1009E00008D04261082697E7CE68083694E7CE68BB
:1009F0000C3691E7026108268EE700268CE7042674
:100A00008AE700F1040C8AE7A5F10804A40089E74D
:100A1000052200E00022BA4042EA0C020234304FC4
:100A200047F824204A6812F4803F3CD0304C2268BA
:100A30001A4322604A6812F4003F3AD02C4C626894
:100A40001A4362604A6812F4801F38D0284CA268AA
:100A50001A43A2604A6812F4001F36D0244CE268A0
:100A60001343E36001350F2D35D80122AA400B68EE
:100A700013409A42F6D14C68122CB8D095D8022C6B
:100A8000B2D07FF644AF032CB7D0112C7FF444AF23
:100A9000CE68043640E70122BDE70222BBE703220D
:100AA000B9E70422B7E7124C226822EA0302226067
:100AB000C0E70F4C626822EA03026260C2E70C4C96
:100AC000A26822EA0302A260C4E7094CE26822EAB3
:100AD0000303E360C6E702B0F0BC704700100240B9
:100AE000000001400008014000002110000031100A
:100AF0000004014012B909040161704701617047A7
:100B0000C3685940C1607047074AD36823F4E06363
:100B10001B041B0C000200F4E060184340F0BF60AF
:100B200040F40030D060704700ED00E030B4174B67
:100B3000DB68C3F30223C3F10704042C28BF042499
:100B40001D1D062D18D9033B4FF0FF3505FA04F49F
:100B500021EA0401994005FA03F322EA0303194349
:100B600000280BDB0901C9B200F1604000F56140CB
:100B700080F8001330BC70470023E5E700F00F0059
:100B80000901C9B2024B1954F4E700BF00ED00E0BF
:100B900014ED00E00138B0F1807F0AD2064B5860B6
:100BA000064AF02182F823100020986007221A607C
:100BB00070470120704700BF10E000E000ED00E04A
:100BC00082B00023019300932C4A136843F0010381
:100BD00013602A4B1B6803F002030093019B01334F
:100BE0000193009B23B9019A4FF6FF739A42F0D10B
:100BF000224B1B6813F0020F06D001230093009BC9
:100C0000012B04D002B0704700230093F7E71B4B81
:100C10005A685A605A6822F460525A605A685A6098
:100C20005A6822F4E0625A605A6842F480625A605C
:100C30005A6822F0604222F47C125A605A6842F0EC
:100C4000005242F480225A601A6842F080721A60A0
:100C50000A4B1B6813F0007FFAD0084B5A6822F049
:100C600003025A605A6842F002025A60034B5B6802
:100C700003F00C03082BF9D1C4E700BF00100240B9
:100C800008B5FFF79DFF08BD10B5164CD4F88830A5
:100C900043F47003C4F88830134B1A6842F0010221
:100CA0001A605968114A0A405A601A6822F0847220
:100CB00022F480321A601A6822F480221A605A687C
:100CC00022F0684222F47F025A60196B084A0A40F7
:100CD0001A634FF41F029A60FFF7D2FF4FF00063D0
:100CE000A36010BD00ED00E0001002400C00FFE822
:100CF00000FFFEFE002103E00A4B5B584350043125
:100D000009480A4B42189A42F6D3094A02E00023E6
:100D100042F8043B074B9A42F9D3FFF7B5FFFFF7C0
:100D2000A1FA7047800D0008000000201400002088
:100D30001400002034000020FEE7024403469342E2
:100D400000D1704703F8011BF9E700000203040516
:100D5000060708090A0B0C0D0E0F10100102000007
:100D6000F8B500BFF8BC08BC9E467047F8B500BF98
:080D7000F8BC08BC9E46704768
:040D780075010008F9
:040D7C005101000819
:100D8000000000000000000001020304060708093B
:040D900000A24A046F
:0400000508000CF5EE
:00000001FF
