:020000040800F2
:1000000000C00020190D0008050D0008070D0008AC
:10001000090D00080B0D00080D0D00080000000080
:100020000000000000000000000000000F0D0008AC
:10003000110D000800000000130D0008150D000848
:100040005D0D00085D0D00085D0D00085D0D0008E8
:100050005D0D00085D0D00085D0D00085D0D0008D8
:100060005D0D00085D0D00085D0D00085D0D0008C8
:100070005D0D00085D0D00085D0D00085D0D0008B8
:100080005D0D00085D0D00085D0D00085D0D0008A8
:100090005D0D00085D0D00085D0D00085D0D000898
:1000A0005D0D00085D0D00085D0D00085D0D000888
:1000B0005D0D00085D0D00085D0D00085D0D000878
:1000C0005D0D00085D0D00085D0D00085D0D000868
:1000D0005D0D00085D0D0008E50C0008F50C00083A
:1000E0005D0D00085D0D00085D0D00085D0D000848
:1000F0005D0D00085D0D00085D0D00085D0D000838
:100100005D0D00085D0D00085D0D00085D0D000827
:100110005D0D00085D0D00085D0D00085D0D000817
:100120005D0D00085D0D00085D0D00085D0D000807
:100130005D0D00085D0D00085D0D00085D0D0008F7
:100140005D0D00085D0D00085D0D00085D0D0008E7
:1001500010B5054C237833B9044B13B10448AFF301
:1001600000800123237010BD7800002000000000F3
:10017000C815000808B5034B1BB103490348AFF38A
:10018000008008BD000000007C000020C8150008A9
:10019000034613F8012B002AFBD1181A01387047C7
:1001A00001F0FF01102A2BDB10F0070F08D010F828
:1001B000013B013A8B422DD010F0070F42B3F6D12C
:1001C000F0B441EA012141EA014122F007047FF045
:1001D00000070023F0E80256083C85EA010586EA9C
:1001E000010685FA47F5A3FA87F586FA47F6A5FAD8
:1001F00087F68EB9EED1F0BC01F0FF0102F00702E4
:1002000032B110F8013B013A83EA010313B1F8D18E
:100210000020704701387047002D06BF354603386F
:10022000073815F0010F07D1013015F4807F02BFA8
:10023000013015F4C03F0130F0BC0138704700BFF9
:1002400082B00023019300932C4A136843F4803357
:1002500013602A4B1B6803F400330093019B0133A6
:100260000193009B1BB9019BB3F5A06FF1D1234B08
:100270001B6813F4003F06D001230093009B012B61
:1002800004D002B0704700230093F7E71B4B5A6875
:100290005A605A6822F460525A605A6842F4005216
:1002A0005A605A6822F4E0625A605A6842F48062E6
:1002B0005A605A6822F0604222F47C125A605A68EE
:1002C00042F0204242F4E8125A601A6842F080720A
:1002D0001A600A4B1B6813F0007FFAD0074B5A686C
:1002E00022F003025A605A6842F002025A60034B3D
:1002F0005B6803F00C03082BF9D1C2E70010024041
:1003000008B5FFF79DFF08BD10B5164CD4F888302E
:1003100043F47003C4F88830134B1A6842F00102AA
:100320001A605968114A0A405A601A6822F08472A9
:1003300022F480321A601A6822F480221A605A6805
:1003400022F0684222F47F025A60196B084A0A4080
:100350001A634FF41F029A60FFF7D2FF4FF0006359
:10036000A36010BD00ED00E0001002400C00FFE8AB
:1003700000FFFEFEF0B4CB7803F00F02154613F039
:10038000100F01D08D7815430B78E3B10668002378
:1003900001E042610133072B14D801229A400C88F6
:1003A00032EA0404F6D19C000F27A74026EA07068C
:1003B00005FA04F42643CC78282CEAD0482CE9D15D
:1003C0000261E7E706600B88FF2B20D9466800230F
:1003D00003E0426116E002610133072B16D803F1F6
:1003E00008040122A2400C8832EA0404F4D19C00E3
:1003F0000F27A74026EA070605FA04F42643CC781F
:10040000282CE6D0CC78482CE6D1E4E74660F0BC56
:100410007047000010B4454B5B6803F00C03042BDD
:1004200044D0082B45D013B1414B036001E0404B51
:1004300003603E4A5368C3F30213526812F0800F00
:100440006ED03C4AD35CDBB2026822FA03F343600D
:1004500036494A68C2F30122496811F4806F61D0BD
:1004600034498A5CD2B223FA02F282602F494A6888
:10047000C2F3C122496811F4005F55D02D498A5C4E
:10048000D2B2D340C36029494A68C2F38132496875
:1004900011F0805F01D042F0040227498A5CD2B299
:1004A000B3FBF2F303615DF8044B7047204B03602C
:1004B000BFE71E4B5A68214C1440596801F4803143
:1004C000C4F3834343EA546312F0C04F08D102F4EB
:1004D0007012B2F5701F01D0022202E0012200E08A
:1004E0000122134469B9164A02FB03F303600F4B60
:1004F0005B68002B9DDB0268124B9A4299D903601E
:1005000097E70A4A526812F4003F04D00C4A02FBF3
:1005100003F30360EBE7064A02FB03F30360E6E73D
:10052000002391E700229EE70022AAE70010024084
:1005300000127A000C0000200400002000003C6043
:1005400000093D0000A24A0429B9054A936923EA3B
:10055000000090617047024A9369184390617047A8
:100560000010024029B9054AD36923EA0000D0618E
:100570007047024AD3691843D061704700100240A7
:1005800030B587B004460D46038A9BB2CA8823F46F
:1005900040531343038283899BB2898828896A89DF
:1005A00001430A4323F4B05323F00C031343A38104
:1005B000A38A9BB2AA8923F440731343A38201A8A0
:1005C000FFF728FF1E4B9C4224D0039BA28912F404
:1005D000004F21D103EB830303EB830329688900D8
:1005E000B3FBF1F1174BA3FB012358090501642369
:1005F00000FB1313A28912F4004F16D11B013233F2
:10060000104AA2FB0323C3F343132B439BB2238162
:1006100007B030BD049BD9E703EB830303EB8303EF
:1006200029684900B3FBF1F1DCE7DA003232054B0F
:10063000A3FB0232C2F3421242EA0503E6E700BF1F
:10064000003801401F85EB5131B983899BB223F4F7
:1006500000539BB283817047838943F400538381A5
:10066000704710B4C1F3421401F01F01012303FAD3
:1006700001F19C420AD0022C0AD0143052B903680E
:1006800023EA010101605DF8044B70470C30F5E787
:100690001030F3E7036819430160F4E7C1F3080180
:1006A000818070478088C0F30800704710B4C1F3A0
:1006B000421201F01F040123A340012A0DD0022A97
:1006C0000ED0828A1340090A012202FA01F102883F
:1006D000114043B159B9002006E082891340F2E786
:1006E000028A1340EFE700205DF8044B70470120B9
:1006F000FAE7000040F0BF6040F40030014BD860E2
:10070000704700BF00ED00E0C37853B9037803F0F1
:100710001F015B0901228A402033134941F823203D
:10072000704710B4114BDA68D243C2F30222C2F10F
:1007300004040F2323FA02F24178A1408378134086
:100740000B431B010278DBB207490A4482F80033ED
:10075000037803F01F005B090122824041F8232047
:100760005DF8044B704700BF00E100E000ED00E0E1
:10077000042805D0054A136823F00403136070476A
:10078000024A136843F004031360704710E000E06E
:1007900008B56FF00400FFF7EBFF0B4BD3ED007AC9
:1007A000F8EE677ADFED096A87EEA67A084B83EDEB
:1007B000007AD3ED007A9FED077A67EE877A064BD1
:1007C000C3ED007A08BD00BF00000020001B374DBC
:1007D0009800002000007A449400002022E01C4B86
:1007E00093ED007A07EE900AF8EE677A67EE877A63
:1007F000FCEEE77A174BC3ED017A0020154B00227F
:100800009A601A6842F001021A60124B1B6803F0EA
:100810000113012BF9D00F4B1A6822F001021A6064
:1008200000229A6090B1B0F5FA7FD8D9084BD3ED89
:10083000007A9FED097A67EE877AFCEEE77A054B3E
:10084000C3ED017AA0F5FA7080B2D7E7704700BF18
:100850009400002010E000E00000FA4370B5ADF510
:10086000027DFFF795FF00F02DFA00261CE03246CE
:10087000164902A800F074FA1CE09DF80710012048
:1008800000F090F99DF8072002AB1A5501252C4481
:100890000DF10701012000F091F90128EDD01DB103
:1008A0000A21012000F07EF94FF47A70FFF796FFDD
:1008B0000136DCD002A8FFF76BFC82B202A902204D
:1008C00000F060F900242546E2E700BF8815000823
:1008D000134A144B1360144B5360144B93604FF442
:1008E00000719181D181002313825382D3821383BB
:1008F00053839382D361136253620D4A0D48106093
:100900000D4850600D4890609181D18113825382CF
:10091000D382138353839382D361136253627047EC
:100920009C080020004400409C0400209C00002003
:10093000C4080020004800409C0600209C020020C3
:10094000012383F31088438B9BB2002282F310882B
:10095000CBB18268038B9BB2D35C0B70012383F312
:100960001088038B01339BB20383C289934201D366
:1009700000230383438B013B9BB24383002383F318
:100980001088012070470020704730B583B04FF4C5
:10099000E060FFF7AFFE26238DF8043000258DF8C8
:1009A00005508DF8065001248DF8074001A8FFF787
:1009B000ABFE27238DF804308DF805508DF80640E6
:1009C0008DF8074001A8FFF79FFE03B030BD70B55A
:1009D00082B0002508E0838A01339BB28382002322
:1009E00083F310880135ADB2954221D2012383F300
:1009F0001088838A9BB2ADF80630002383F31088F9
:100A00008489BDF806309BB29C42EFD94468038AC2
:100A10009BB24E5DE654012383F31088038A0133B1
:100A20009BB203828489A342D5D300230382D2E7F9
:100A3000012240F227710068FFF713FE02B070BD7B
:100A400010B5044640F225510068FFF72FFEF8B9B3
:100A500040F227712068FFF729FE002843D0A38ABF
:100A60009BB2002B32D06268638A9BB2D15C206853
:100A7000FFF714FE638A01339BB26382A28993421B
:100A800001D300236382A38A013B9BB2A38210BDE2
:100A90002068FFF707FEC0B2A268E38A9BB2D05479
:100AA000E38A01339BB2E382E289934201D30023BC
:100AB000E382638B9BB29A4203D9638B01339BB26F
:100AC0006383636A002BC3D09847C1E7002240F2DA
:100AD00027712068FFF7C5FD012240F226612068DA
:100AE000FFF7BFFDD3E740F226612068FFF7DEFD88
:100AF0000028CCD0A38A9BB253B9002240F22661D1
:100B00002068FFF7AEFD236A002BC0D09847BEE7F0
:100B10006268638A9BB2D15C2068FFF7BFFD638A7D
:100B200001339BB26382A289934201D30023638283
:100B3000A38A013B9BB2A382A9E70000012803D04E
:100B4000022803D1024870470248704700207047CE
:100B5000C40800209C08002010B5FFF7EFFF80B10B
:100B60000446012240F225510068FFF77AFD012278
:100B700040F227712068FFF774FD01212068FFF71C
:100B800063FD10BD70B50D461646FFF7D7FF40B1A7
:100B90000446C36903B19847324629462046FFF709
:100BA00016FF70BD00B583B002AB03F8011D012232
:100BB0001946FFF7E7FF03B05DF804FB10B50C46DC
:100BC000FFF7BCFF18B12146FFF7BAFE10BD0020A9
:100BD000FCE710B584B00C46FFF7B0FF08B904B0CD
:100BE00010BD00940023ADF80430ADF80630ADF828
:100BF0000830ADF80C300C23ADF80A3069460068B7
:100C0000FFF7BEFCEBE7000030B583B00121042004
:100C1000FFF79AFC01214FF40030FFF7A3FC0823F3
:100C2000ADF8043004258DF807500D4C0DEB05018F
:100C30002046FFF79FFBADF8045002238DF80630E5
:100C400018238DF807300DEB05012046FFF792FBC6
:100C50004FF4E1310120FFF7BCFF03B030BD00BF0E
:100C60000008014030B583B001210820FFF76CFC7B
:100C700001214FF48020FFF775FC4FF40063ADF8BD
:100C8000043004238DF807300D4D0DEB0301284689
:100C9000FFF770FB4FF48063ADF8043002248DF849
:100CA000064018238DF8073001A92846FFF762FB9C
:100CB0004FF4E1312046FFF78CFF03B030BD00BF99
:100CC000000C014008B5FFF703FEFFF79DFFFFF79B
:100CD000C9FFFFF75AFE0120FFF73EFF0220FFF792
:100CE0003BFF08BD08B50248FFF7AAFE08BD00BFDC
:100CF0009C08002008B50248FFF7A2FE08BD00BF0F
:100D0000C40800207047FEE7FEE7FEE7FEE77047F5
:100D10007047704770470000002103E00A4B5B58A2
:100D20004350043109480A4B42189A42F6D3094A03
:100D300002E0002342F8043B074B9A42F9D3FFF745
:100D4000E3FAFFF78BFD7047E8150008000000206C
:100D50007800002078000020FC080020FEE700005A
:100D60000EB400B59CB01DAB029006906FF0004130
:100D7000094807910491094953F8042B059100682B
:100D8000019302A900F066F8029B00221A701CB0C1
:100D90005DF804EB03B07047140000200802FFFF69
:100DA0002DE9F0478E689E4282460C469046994651
:100DB00037D88A8912F4906F31D0256809696F1A83
:100DC0006569022305EB450595FBF3F509F1010380
:100DD0003B449D4238BF1D46530530D5294600F09F
:100DE0002BFB064650B90C23CAF80030A38943F008
:100DF0004003A3814FF0FF30BDE8F0873A462169F8
:100E000000F0A8FAA38923F4906343F08003A38140
:100E1000266165613E44ED1B2660A5604E464E4549
:100E200000D94E4632464146206800F09EFAA3683B
:100E30009B1BA36023681E4426600020DCE72A4633
:100E400000F054FB06460028E2D12169504600F02C
:100E5000A5FAC8E72DE9F04F1D468B891F069DB006
:100E600080460C4616460FD50B696BB9402100F041
:100E7000E3FA2060206128B90C23C8F800304FF055
:100E8000FF30C8E0402363610023099320238DF8DD
:100E9000293030238DF82A3003954FF0010B374667
:100EA0003D4615F8013B0BB1252B3ED1B7EB060AA9
:100EB0000BD05346324621464046FFF771FF0130C2
:100EC00000F0A480099B534409933B78002B00F069
:100ED0009D8000234FF0FF32CDE905230493079353
:100EE0008DF853301A932F46052217F8011B5048EE
:100EF000FFF756F9049BD0B9D90644BF20228DF8DC
:100F000053201A0744BF2B228DF853202A782A2A0F
:100F100015D0079A2F4600200A25394611F8013BC3
:100F2000303B092B4DD9B8B10FE02F46B8E7404A06
:100F3000801A0BFA00F0184304903D46D3E7039A59
:100F4000111D12680391002A01DB079204E052424E
:100F500043F00203079204933B782E2B0CD17B784D
:100F60002A2B33D1039B1A1D1B680392002BB8BF99
:100F70004FF0FF33023705932E4D39780322284670
:100F8000FFF70EF938B14023401B03FA00F0049B31
:100F9000034301370493397827488DF82810062237
:100FA0007E1CFFF7FDF8002838D0244B13BB039BB1
:100FB000073323F0070308330393099B4B4409933A
:100FC0006DE705FB023201200F46A6E7002301373B
:100FD000059319460A25384610F8012B303A092A9C
:100FE00003D9002BC8D00591C6E705FB01210123D9
:100FF0000746F0E703AB00932246114B04A9404695
:10100000AFF30080B0F1FF3F8146D6D1A3895B06E4
:101010003FF535AF09981DB0BDE8F08F03AB0093E5
:101020002246074B04A9404600F082F8EAE700BFD9
:10103000941500089A1500089E150008000000008D
:10104000A10D00082DE9F04791461F468A680B69FB
:10105000DDF820809342B8BF1346C9F8003091F8FC
:10106000432006460C4612B10133C9F8003023680C
:10107000990642BFD9F800300233C9F8003025681C
:1010800015F0060507D104F1190AE368D9F8002024
:101090009B1AAB4228DC94F843302268003318BF17
:1010A000012392062DD404F1430239463046C0474D
:1010B000013020D02368E568D9F8002003F006034A
:1010C000042B08BFAD1AA36822690CBF25EAE57599
:1010D00000259342C4BF9B1AED184FF000091A3443
:1010E0004D451AD1002008E00123524639463046CA
:1010F000C047013003D14FF0FF30BDE8F087013524
:10110000C3E7E1185A1C302081F84300224494F8C8
:10111000451082F843100233C5E7012322463946C1
:101120003046C0470130E6D009F10109D8E7000098
:101130002DE9F04301F1430C0C46097E85B06E2980
:101140001746064698460C9A00F0B38022D86329C9
:1011500036D00AD8002900F0B980582900F08380E1
:1011600004F1420584F8421032E0642901D0692973
:10117000F6D120681368050603F104012AD51B681F
:101180001160002B03DA2D225B4284F843206F4864
:101190000A2239E0732900F09D8008D86F2920D0F9
:1011A0007029DDD1236843F02003236003E0752913
:1011B00017D07829D4D1782384F84530644855E095
:1011C0001368191D1B68116004F1420584F8423050
:1011D00001238CE01B68116010F0400F18BF1BB298
:1011E000CFE713682568181D1060280601D51B6815
:1011F00002E06806FBD51B8854486F2914BF0A22F9
:101200000822002184F843106568A560002DC0F213
:101210009580216821F004012160002B3DD1002D33
:1012200040F08E806546082A0BD12368DB0708D57D
:10123000236962689A42DEBF302305F8013C05F15C
:10124000FF35ACEB05032361CDF800803B4603AAD4
:1012500021463046FFF7F6FE01304DD14FF0FF300A
:1012600005B0BDE8F083394884F84510136821685B
:101270001D1D1B6815600A060BD5CA0744BF41F047
:10128000200121601BB9226822F020022260102276
:10129000B7E74D0648BF9BB2EFE76546B3FBF2F1F7
:1012A00002FB1133C35C05F8013D0B460029F5D163
:1012B000B9E7136825686169181D106028061B6866
:1012C00001D5196002E06A06FBD51980002323616D
:1012D0006546B9E71368191D11601D686268002131
:1012E0002846FEF75DFF08B1401B6060636823611C
:1012F000002384F84330A7E723692A46394630465D
:10130000C0470130AAD023689B0713D4E068039B31
:101310009842B8BF1846A3E701234A4639463046EB
:10132000C04701309AD00135E368039A9B1AAB425B
:10133000F2DCEBE7002504F11909F5E7002BACD14D
:10134000037884F8423004F142056CE7A5150008E3
:10135000B615000810B5431E0A44914200D110BDD5
:1013600011F8014B03F8014FF7E7884210B501EB84
:10137000020307D8421E99420AD011F8014B02F825
:10138000014FF8E78342F5D98118D21AD34200D130
:1013900010BD13F8014D01F8014DF7E738B50546CA
:1013A000002945D051F8043C0C1F002BB8BFE418AD
:1013B00000F0D2F81F4A1368104633B96360146016
:1013C0002846BDE8384000F0C8B8A3420CD92168CF
:1013D0006218934204BF1A685B68636004BF5218C6
:1013E00022600460ECE713465A680AB1A242FAD9B7
:1013F00019685818A0420BD120680144581882423D
:101400001960DDD1106852685A6001441960D7E74D
:1014100002D90C232B60D3E7206821188A4204BF2D
:1014200011685268626004BF091821605C60C7E7F8
:1014300038BD00BFEC08002070B5CD1C25F00305B9
:1014400008350C2D38BF0C25002D064601DBA942BE
:1014500003D90C233360002070BD00F07DF8214AD1
:101460001468214691B9204C23681BB9304600F01E
:1014700063F820602946304600F05EF8431C24D112
:101480000C233360304600F068F8E4E70B685B1B20
:1014900018D40B2B0FD90B60CD50CC18304600F070
:1014A0005CF804F10B00231D20F00700C31AD3D011
:1014B0005A42E250D0E78C424B6816BF636013601B
:1014C0000C46EBE70C464968CCE7C41C24F0030447
:1014D000A04205D0211A304600F02EF80130CFD0BE
:1014E0002560DBE7EC080020F0080020F8B507468F
:1014F00014460E4621B91146BDE8F840FFF79CBFDF
:1015000022B9FFF74BFF25462846F8BD00F026F824
:10151000A0420FD221463846FFF78EFF054600282D
:10152000F2D031462246FFF715FF31463846FFF725
:1015300035FFE9E73546E7E738B5064C00230546B1
:101540000846236000F012F8431C02D1236803B15F
:101550002B6038BDF80800207047704751F8043CF4
:10156000181F002BBCBF0B58C0187047044A054910
:101570001368002B08BF0B461844106018467047CC
:10158000F4080020FC08002054657374696E67201D
:1015900025640A00232D302B2000686C4C00656602
:1015A00067454647003031323334353637383941B4
:1015B00042434445460030313233343536373839CA
:1015C0006162636465660000F8B500BFF8BC08BCE2
:1015D0009E467047F8B500BFF8BC08BC9E467047F1
:0415E0007501000889
:0415E40051010008A9
:1015E80000B0710B02040608020C08100102030483
:1015F800060708091800002000000000000000008D
:1016080000000000000000000000000000000000D2
:1016180000000000000000000000000000000000C2
:1016280000000000000000000000000000000000B2
:1016380000000000000000000000000000000000A2
:101648000000000000000000000000000000000092
:0816580000000000000000008A
:0400000508000D19C9
:00000001FF
