:020000040800F2
:1000000000C00020D1370008E91D0008EB1D0008E2
:10001000ED1D0008EF1D0008F11D000800000000A4
:10002000000000000000000000000000F31D0008B8
:10003000F51D000800000000F71D0008F91D00086C
:10004000153800081538000815380008153800085C
:10005000153800081538000815380008153800084C
:10006000153800081538000815380008153800083C
:10007000153800081538000815380008153800082C
:10008000153800081538000815380008153800081C
:10009000153800081538000815380008153800080C
:1000A00015380008153800081538000815380008FC
:1000B00015380008451D00081538000815380008D7
:1000C00015380008153800081538000815380008DC
:1000D0001538000815380008911B0008A11B0008FE
:1000E00015380008153800081538000815380008BC
:1000F00015380008153800081538000815380008AC
:10010000153800081538000815380008153800089B
:10011000153800081538000815380008153800088B
:10012000153800081538000815380008153800087B
:10013000153800081538000815380008153800086B
:10014000153800081538000815380008153800085B
:1001500010B5054C237833B9044B13B10448AFF301
:1001600000800123237010BD7400002000000000F7
:10017000B04A000808B5034B1BB103490348AFF36D
:10018000008008BD0000000078000020B04A000890
:10019000034613F8012B002AFBD1181A01387047C7
:1001A00001F0FF01102A2BDB10F0070F08D010F828
:1001B000013B013A8B422DD010F0070F42B3F6D12C
:1001C000F0B441EA012141EA014122F007047FF045
:1001D00000070023F0E80256083C85EA010586EA9C
:1001E000010685FA47F5A3FA87F586FA47F6A5FAD8
:1001F00087F68EB9EED1F0BC01F0FF0102F00702E4
:1002000032B110F8013B013A83EA010313B1F8D18E
:100210000020704701387047002D06BF354603386F
:10022000073815F0010F07D1013015F4807F02BFA8
:10023000013015F4C03F0130F0BC0138704700BFF9
:1002400003685A004CBF43F0004323F000431844B6
:10025000704700BF61B32DE9F84F01F1FF3A9046B6
:100260000646D146002707EB090404EBD47464105A
:10027000E50071190846FFF7E3FFA245834605F143
:100280000800304409D0FFF7DBFFC34500F1FF3021
:1002900005D8404509D2671CE5E7C34505D9A74203
:1002A00002D004F1FF39DEE700210846BDE8F88FEF
:1002B00008467047012807D0022807D0044B0028C1
:1002C0000CBF18460020704702487047024870472C
:1002D000A1090008A5090008A909000830B5254BA7
:1002E00083B004468D1E4BB301A92846AFF30080AE
:1002F000F0B101992A46FFF7ADFF0146C0B1FFF703
:100300009FFF4B68A064012B2ED0002B01F104004D
:1003100026DBFFF795FF0023C4E913030368002BD6
:1003200012DBFFF78DFF00232061184603B030BDBC
:10033000002323610923184603B030BD0E490F483E
:10034000091AC9100191D5E7C3F30360FFF7B2FFA3
:10035000002814BF002309232061184603B030BDD4
:100360000123C4E91303D9E70023236105231846B9
:1003700003B030BD00000000E44B0008EC4A000868
:100380000368DA0710B5044606D49B0700F148005D
:1003900009D500F05FFC2368590709D51A070ED567
:1003A000DB0613D510BD00F04DFC23685907F5D4CA
:1003B00004F1D00000F056FC23681A07F0D404F5CD
:1003C000A87000F057FC2368DB06EBD404F5E87056
:1003D000BDE8104000F092BC036803B10344184626
:1003E000704700BF09207047704700BF70B50446D2
:1003F0000D4608E02B6C63612A46236921460120E3
:100400009847082808D1296C2046FFF767FF064661
:100410000028EFD004F0C8F90728FBD13046296C3A
:10042000FFF7E2FF281D00F001FC00BF2DE9F047B7
:100430000C1D054617460FCCADF5727D03AE0FC6F9
:100440000FCC0FC60FCC0FC694E80F0002ACD5F846
:100450000C80D5F8189086E80F000023236021E077
:10046000236C6B614FF4F07221467AA803F0D3F944
:100470002B697AAA294630469847889BCDE90049DE
:100480008246636431462B462A460120C047074610
:10049000F8B94FF4F0727AA9204603F0BCF9BAF12A
:1004A000080F1CD1216C2846FFF718FF002F08BF4A
:1004B0000926074618BF0A260028D1D0A36B46F0AC
:1004C0001001CDE900492A46636401202B46C0474C
:1004D00000B1092738460DF5727DBDE8F087BAF105
:1004E000070FF6D13846216CFFF77EFF03A800F016
:1004F0009DFB00BF406C7047F0B5CB6B0B640D1DCE
:100500000F4606460FCDF9B001AC0FC40FCD0FC496
:100510000FCD0FC495E80F004FF0FF3584E80F00B2
:10052000009506E033696A46314698470828044634
:1005300008D110993046FFF7D1FE0028F2D00920EB
:1005400079B0F0BD6846FFF71BFF062CF7D139469E
:100550003046FFF74BFF00BF30B4DD6BC1608261F6
:1005600019461D64002230BC60E700BF70B5C66844
:1005700043690B64BEB903690A4604460D46014649
:1005800002209847072807D0082803D1294620468B
:10059000FFF72CFF04F008F93046296CFFF724FF21
:1005A000281D00F043FB0122FFF740FF04F0FCF898
:1005B000C2681AB1CA6B0A64002237E79CE700BF21
:1005C000704700BF836813B1014601201847704788
:1005D000042907D8DFE801F00308060808000BB972
:1005E0000F2A03D9022070470120704700EB8202D6
:1005F00018465368009A1360704700BF10B584B066
:10060000002303AC0A4600941946FFF7E1FF039864
:1006100004B010BD042907D8DFE801F0030806087C
:1006200008000BB90F2A03D9022070470120704738
:1006300000EB8200009A126842601846704700BFC3
:1006400010B584B004AC002344F8042D0A4600948D
:100650001946FFF7DFFF04B010BD00BFF0B5D36B44
:100660001364151D07460E460FCDADF50F7D17AC73
:100670000FC40FCD0FC40FCD0FC495E80F004FF07E
:10068000FF3584E80F00169510E016A8FFF7D8FF95
:10069000314616A8B84716AA694678B9049B0820BF
:1006A0009847052804460AD0092807D026996846A5
:1006B000FFF714FE6A460C210028E6D0092416A88C
:1006C000FFF75EFE20460DF50F7DF0BD2DE9F04FE2
:1006D0000D46C96C89B00C1D164600F0030B0A6864
:1006E00006941F46002B68D0130CD9B212048DF863
:1006F0001D30022304EB810405928DF81C302B6D14
:10070000BBF1020F08BFAC6B13F0010346D101939C
:1007100000F008030093D4F80090B9F1000F00F046
:10072000F380022F45D0B4F80090B4F8028004346E
:10073000AB6C28F0010A0F2130469A44FFF75EFFA8
:10074000824534D829F001035344834294BF0020EA
:1007500001204FEA480808F0020809F0010948EAB8
:100760000908B8F1010F3AD031D3B8F1020F1AD10C
:10077000236823F0004ABBF1000F66D130B1009A24
:10078000002A6CD0BAF1000F00F09080002B00DA44
:1007900004340AF1010304EB8304BCE7304605A9E5
:1007A00000F046FB78B1092009B0BDE8F08F0020C9
:1007B000CFE7D4F804800834BAE712020323059285
:1007C000ADF81C309BE7082009B0BDE8F08FBBF105
:1007D000000F02D0002840F0B48004349BE7BBF146
:1007E000000F18D1A8B1D4E90023991C4FEAD272A6
:1007F000D9D005F158010133049100F0B580201DD6
:10080000FFF7EAFD04AB01462846AFF3008000285D
:1008100067D108347FE70D213046D5F82080FFF7F7
:10082000EDFE8045F5D1AB6A9C42F2D12046FFF740
:1008300007FD0F2102463046FFF702FF30462A46E9
:100840000021FFF7FDFE0720AEE70D213046D5F869
:100850002080FFF7D3FE804532D0236896E7BAF1B7
:10086000000F23D005F1580304F10408CDF808B0B7
:10087000DDF800900397A3461C4602E05745B946B1
:1008800040D040460494FFF7A7FD04AB0146002288
:100890002846AFF3008009F1010708F10408002899
:1008A000ECD0D1455C46DDE902B7D6D130460D210A
:1008B000FFF7A4FE049B2862C5E90934062073E70C
:1008C000AB6A9C42C9D104224FF00008A318C5E9C5
:1008D0000AA8C5E90C23236843454DDB0123019396
:1008E00057E780460D213046FFF788FEB8F1020F2A
:1008F00028623ED12B46049A43F82C2F6B62AC62DF
:10090000062051E75C46D1E705A9304600F090FA91
:1009100000287FF448AF019B002B3FF454AF0F2118
:100920003046FFF76BFE0E2102463046FFF788FE89
:1009300030461A4A0F21FFF783FE072009B0BDE8B1
:10094000F08F2046FFF77CFC04340746AC63284652
:10095000AFF3008000283FF426AF30463A460F211F
:10096000FFF76EFE07201FE730460D21FFF746FE1A
:100970002862049B6B62C2E70AF1010004EB80006D
:10098000FFF75EFC0F2102463046FFF759FE304666
:100990002A464146FFF754FE072005E70000000005
:1009A000002393E6012391E602238FE62DE9F0412F
:1009B0000546C4B0042906D8DFE801F04D2B050335
:1009C0000900032B5FD0022044B0BDE8F081002B6A
:1009D000F9D1102AF7D82B68DC0600F1F48022AC9C
:1009E0002046019200F094F9A86B019A0023012699
:1009F00006FA03F1114203D0016844F823100430D1
:100A00000133042BF4D1A863204600F077F90020CD
:100A1000DAE7012B4FEA124697B252D0052BD2D11A
:100A200006EB0708B8F1200FCDD80F2E40F29980C1
:100A3000B846002F40F0DB80AA6BAA630F2E40F26D
:100A4000BE80B8F1000F02D002A800F00BF9002020
:100A500044B0BDE8F081002BB5D1AC6B97B2281D36
:100A6000012606FA03F1394203F1010302D021689D
:100A700001600434102B00F10400F2D112F4005094
:100A8000E5D1AC63A0E7160C97B2F319102B9AD8F6
:100A90002B681A075DD422AC204600F00DF904EB58
:100AA000C601AB6B3FB103EBC702186841F8040BFA
:100AB00004339342F9D12046AB6300F0DBF8002009
:100AC00082E7F219102A3FF67EAF0F2E3FF67BAF7A
:100AD0002A68D10708D5284622F0030240F8482B9F
:100AE000019300F0B3F8019B019322AC204600F083
:100AF000ADF8A96B019B002F00F095807F0004EBFF
:100B0000C6044FF00008043C01EB870251F8040BC7
:100B100044F8040F9142F9D1B8F1000F0FD002ACA4
:100B2000102E314638BF102104EBC101843902EB8D
:100B3000C80452F8040B41F8040F9442F9D1012B78
:100B40007FF47BAF22AC0432AA63204600F07AF82F
:100B50007DE723F008032B6005F5A87000F0ACF8E2
:100B600099E7B8F1100F2A6843D9D007A8F1100807
:100B70000BD5284622F0010242F0020240F8482B31
:100B8000019300F06BF82A68019B510725D40F2EC2
:100B900004D822A8019300F061F8019B019302ACF4
:100BA000204600F063F8C6F110010029AA6B019BF2
:100BB000B6DD22AC4F0004EBC6041146A3E722A821
:100BC00000F048F83DE723F010032B6005F5E870CE
:100BD000019200F09DF8019A01E7284622F00402F4
:100BE00040F8D02B019300F041F8019BCFE72A6831
:100BF000CBE7D0070AD5284622F0010242F00202D4
:100C000040F8482B019300F029F8019B019322AC96
:100C1000204600F023F8B846A96B019B002F7FF413
:100C20006DAF0A4609E70A468DE700BF00F13401BF
:100C300091E838009C46A6464CF8045D90E8FF0F0A
:100C4000E54600BD90EC210B704700BF80EC210B06
:100C5000704700BF90EC200B704700BF80EC200B6A
:100C6000704700BFD0EC200B704700BFC0EC200BDA
:100C7000704700BFF0EC0201F0EC0211F0EC022131
:100C8000F0EC0231F0EC0241F0EC0251F0EC0261C8
:100C9000F0EC0271F0EC0281F0EC0291F0EC02A1B8
:100CA000F0EC02B1F0EC02C1F0EC02D1F0EC02E1A8
:100CB000F0EC02F1704700BFE0EC0201E0EC021141
:100CC000E0EC0221E0EC0231E0EC0241E0EC025108
:100CD000E0EC0261E0EC0271E0EC0281E0EC0291F8
:100CE000E0EC02A1E0EC02B1E0EC02C1E0EC02D1E8
:100CF000E0EC02E1E0EC02F1704700BFB0FC0181E2
:100D0000B0FC0191B0FC01A1B0FC01B1704700BF83
:100D1000A0FC0181A0FC0191A0FC01A1A0FC01B1FB
:100D2000704700BFEC4600B52DE900502DE9FF1FCC
:100D30004FF000032DE90C0001A9FFF7DDFBDDF802
:100D400040E012B0704700BFEC4600B52DE90050FE
:100D50002DE9FF1F4FF000032DE90C0001A9FFF75B
:100D600005FCDDF840E012B0704700BFEC4600B56E
:100D70002DE900502DE9FF1F4FF000032DE90C0075
:100D800001A9FFF715FCDDF840E012B0704700BF85
:100D9000EC4600B52DE900502DE9FF1F4FF0000390
:100DA0002DE90C0001ABFFF7D7FBDDF840E012B0F6
:100DB000704700BFEC4600B52DE900502DE9FF1F3C
:100DC0004FF000032DE90C0001AAFFF747FCDDF806
:100DD00040E012B0704700BF027A82B9437AABB1EB
:100DE0004268013B10B4437213680321141D017261
:100DF0001A02446002605DF8044B180E70470368E5
:100E0000013A02721A020260180E7047B020704751
:100E100000B585B003AA0023009219460C22FFF703
:100E2000D7FB039805B05DF804FB00BFF0E700BFF7
:100E30002DE9F043054685B00E464FF000083046D8
:100E4000FFF7CAFFB028044600F0B180070620D59E
:100E500000F0F003802B65D0902B36D0A02B78D0FB
:100E6000B02B47D0C02B00F08A8000F0F803D02BC5
:100E70000BD100F00702013242F4002205230121C8
:100E80002846FFF793FD0028D9D0092005B0BDE81A
:100E9000F0830DF10C09002319468700CDF800906E
:100EA0000D222846FFF794FBFFB2039BCDF800907C
:100EB000043760064CBFDF1BFF18002319460D22C4
:100EC00028460397FFF7A6FBB9E700F00D030D2BAB
:100ED000DBD003AF002300F00F021946009728462D
:100EE000FFF776FB0023009719460D222846FFF7EF
:100EF00091FBA4E7B1285FD0B22800F0CC80B328E2
:100F00007ED000F0FC03B42BBFD000F0070201320A
:100F1000012342F4002219462846FFF747FD002826
:100F20008DD0B2E73046FFF757FF24020443B4F5F3
:100F3000004FAAD024010023A2B219462846FFF789
:100F400035FD0028A1D114F4004F18BF4FF001085F
:100F500075E7C24302F007034FF47F621A410107AD
:100F600002F47F624FF0000348BF42F4804219460A
:100F70002846FFF71BFD00283FF461AF85E7C62830
:100F800051D0C7285AD000F0F803C02B69D0C82828
:100F900075D0C9287FF479AF3046FFF71DFF0203F3
:100FA00000F00F0002F470220130024366E7B8F14E
:100FB000000F14D0002069E73046FFF70DFF00282E
:100FC0003FF463AF10F0F0037FF45FAF02461946C1
:100FD0002846FFF7EBFC00283FF431AF55E703ACA0
:100FE00043460E22414600942846FFF7F1FA00944A
:100FF000284643460F224146FFF70CFB404645E793
:101000003046FFF7E9FE010300F00F0001F4702104
:10101000421C01230A4328461946FFF7C7FC002853
:101020003FF40DAF31E73046FFF7D6FE010300F085
:101030000F0001F47021421C0323EBE73046FFF759
:10104000CBFE024600283FF420AF10F0F0037FF4FF
:101050001CAF04212846FFF7A9FC00283FF4EFAE9F
:1010600013E700F00F020132032342F42022194655
:101070002846FFF79BFC00283FF4E1AE05E7304629
:10108000FFF7AAFE00F0F00200F00F031032013368
:1010900043EA0232F2E600230DF10C090D22194653
:1010A000CDF800902846FFF793FA3046FFF794FEFC
:1010B00002064FF002070CD5039B00F07F00B840FA
:1010C000034430460393FFF787FE030607F1070743
:1010D000F2D4039BCDF8009000F07F0403F5017279
:1010E000BC400023144419460D2228460394FFF700
:1010F00091FAA4E610B5C36C84B05A6803208DF849
:101100000C00DC798DF80D4012020833084601A965
:1011100001920293FFF78CFE04B010BD08B5FFF7F3
:1011200085FE806C08BD00BF08B5FFF77FFEC06C70
:10113000C37900EB8300083008BD00BF08B503F099
:1011400033FB00BF08B5FFF7F9FF00BF82B00023F3
:10115000019300932C4A136843F4803313602A4BA5
:101160001B6803F400330093019B01330193009B40
:101170001BB9019BB3F5A06FF1D1234B1B6813F48E
:10118000003F06D001230093009B012B04D002B046
:10119000704700230093F7E71B4B5A685A605A6860
:1011A00022F460525A605A6842F400525A605A68F7
:1011B00022F4E0625A605A6842F480625A605A68C7
:1011C00022F0604222F47C125A605A6842F02042B7
:1011D00042F4E8125A601A6842F080721A600A4BB0
:1011E0001B6813F0007FFAD0074B5A6822F0030205
:1011F0005A605A6842F002025A60034B5B6803F07F
:101200000C03082BF9D1C2E70010024008B5FFF724
:101210009DFF08BD10B5164CD4F8883043F4700318
:10122000C4F88830134B1A6842F001021A605968FA
:10123000114A0A405A601A6822F0847222F48032FD
:101240001A601A6822F480221A605A6822F06842F2
:1012500022F47F025A60196B084A0A401A634FF45D
:101260001F029A60FFF7D2FF4FF00063A36010BD2A
:1012700000ED00E0001002400C00FFE800FFFEFE61
:10128000F0B4CB7803F00F02154613F0100F01D025
:101290008D7815430B78E3B10668002301E04261C5
:1012A0000133072B14D801229A400C8832EA040437
:1012B000F6D19C000F27A74026EA070605FA04F49A
:1012C0002643CC78282CEAD0482CE9D10261E7E704
:1012D00006600B88FF2B20D94668002303E042619B
:1012E00016E002610133072B16D803F1080401222E
:1012F000A2400C8832EA0404F4D19C000F27A740D6
:1013000026EA070605FA04F42643CC78282CE6D012
:10131000CC78482CE6D1E4E74660F0BC704700008A
:1013200010B4454B5B6803F00C03042B44D0082B2E
:1013300045D013B1414B036001E0404B03603E4A8E
:101340005368C3F30213526812F0800F6ED03C4A08
:10135000D35CDBB2026822FA03F3436036494A6881
:10136000C2F30122496811F4806F61D034498A5C6C
:10137000D2B223FA02F282602F494A68C2F3C12234
:10138000496811F4005F55D02D498A5CD2B2D34030
:10139000C36029494A68C2F38132496811F0805F0D
:1013A00001D042F0040227498A5CD2B2B3FBF2F3C7
:1013B00003615DF8044B7047204B0360BFE71E4B91
:1013C0005A68214C1440596801F48031C4F38343B6
:1013D00043EA546312F0C04F08D102F47012B2F520
:1013E000701F01D0022202E0012200E0012213441A
:1013F00069B9164A02FB03F303600F4B5B68002BCD
:101400009DDB0268124B9A4299D9036097E70A4A1A
:10141000526812F4003F04D00C4A02FB03F303604D
:10142000EBE7064A02FB03F30360E6E7002391E7DC
:1014300000229EE70022AAE70010024000127A0074
:10144000080000200000002000003C6000093D0072
:1014500000A24A0429B9054A936923EA0000906171
:101460007047024A93691843906170470010024028
:1014700029B9054AD36923EA0000D0617047024ABE
:10148000D3691843D06170470010024030B587B06F
:1014900004460D46038A9BB2CA8823F44053134383
:1014A000038283899BB2898828896A8901430A4318
:1014B00023F4B05323F00C031343A381A38A9BB2FC
:1014C000AA8923F440731343A38201A8FFF728FFDE
:1014D0001E4B9C4224D0039BA28912F4004F21D1C1
:1014E00003EB830303EB830329688900B3FBF1F16A
:1014F000174BA3FB012358090501642300FB1313B9
:10150000A28912F4004F16D11B013233104AA2FBFC
:101510000323C3F343132B439BB2238107B030BD96
:10152000049BD9E703EB830303EB8303296849009A
:10153000B3FBF1F1DCE7DA003232054BA3FB0232F8
:10154000C2F3421242EA0503E6E700BF0038014059
:101550001F85EB5131B983899BB223F400539BB2B1
:1015600083817047838943F400538381704710B4AB
:10157000C1F3421401F01F01012303FA01F19C425F
:101580000AD0022C0AD0143052B9036823EA0101B0
:1015900001605DF8044B70470C30F5E71030F3E75D
:1015A000036819430160F4E7C1F3080181807047C3
:1015B0008088C0F30800704710B4C1F3421201F0F4
:1015C0001F040123A340012A0DD0022A0ED0828AD3
:1015D0001340090A012202FA01F10288114043B1C5
:1015E00059B9002006E082891340F2E7028A1340CD
:1015F000EFE700205DF8044B70470120FAE7000098
:1016000003889BB21F4A904216D002F500629042B6
:1016100012D0B0F1804F0FD002F5406290420BD053
:10162000A2F59E32904207D002F58062904203D02C
:1016300002F58062904204D123F070034A6813439C
:101640009BB2114A904208D002F58062904204D0C9
:1016500023F440739BB28A89134303808B68C3626F
:101660000B880385074B984207D003F50063984227
:1016700003D003F54063984201D18B7B038601239D
:1016800083827047002C01400010004031B903886C
:101690009BB223F001039BB203807047038843F0A1
:1016A00001030380704722B9838923EA0101818104
:1016B0007047838919438181704731B903889BB290
:1016C00023F080039BB203807047038843F08003BC
:1016D000038070474163704781637047C1637047FF
:1016E00001647047406A7047028A83890B40114247
:1016F00002D01BB9002070470020704701207047BE
:10170000C94389B20182704740F0BF6040F40030A5
:10171000014BD860704700BF00ED00E0C37853B9BB
:10172000037803F01F015B0901228A40203313492B
:1017300041F82320704710B4114BDA68D243C2F34A
:101740000222C2F104040F2323FA02F24178A140DD
:10175000837813400B431B010278DBB207490A442C
:1017600082F80033037803F01F005B0901228240F6
:1017700041F823205DF8044B704700BF00E100E012
:1017800000ED00E0134A144B1360144B5360144BEC
:1017900093604FF400719181D181002313825382B1
:1017A000D382138353839382D361136253620D4AAE
:1017B0000D4810600D4850600D4890609181D181B6
:1017C00013825382D382138353839382D361136230
:1017D00053627047900800200044004090040020AD
:1017E00090000020B808002000480040900600202B
:1017F00090020020012383F31088438B9BB20022C8
:1018000082F31088CBB18268038B9BB2D35C0B70E0
:10181000012383F31088038B01339BB20383C289B6
:10182000934201D300230383438B013B9BB2438349
:10183000002383F31088012070470020704730B5E3
:1018400083B026238DF8043000258DF805508DF8DF
:10185000065001248DF8074001A8FFF75FFF2723FA
:101860008DF804308DF805408DF806508DF807404E
:1018700001A8FFF753FF03B030BD70B582B000255B
:1018800008E0838A01339BB28382002383F31088AC
:101890000135ADB2954221D2012383F31088838AAA
:1018A0009BB2ADF80630002383F310888489BDF81D
:1018B00006309BB29C42EFD94468038A9BB24E5DCE
:1018C000E654012383F31088038A01339BB2038219
:1018D0008489A342D5D300230382D2E7012240F2B8
:1018E00027710068FFF743FE02B070BD10B50446D3
:1018F00040F225510068FFF75FFEF8B940F227710A
:101900002068FFF759FE002843D0A38A9BB2002B22
:1019100032D06268638A9BB2D15C2068FFF744FED4
:10192000638A01339BB26382A289934201D300236D
:101930006382A38A013B9BB2A38210BD2068FFF79C
:1019400037FEC0B2A268E38A9BB2D054E38A013367
:101950009BB2E382E289934201D30023E382638B4B
:101960009BB29A4203D9638B01339BB26383636A50
:10197000002BC3D09847C1E7002240F227712068AE
:10198000FFF7F5FD012240F226612068FFF7EFFD29
:10199000D3E740F226612068FFF70EFE0028CCD086
:1019A000A38A9BB253B9002240F226612068FFF758
:1019B000DEFD236A002BC0D09847BEE76268638AC9
:1019C0009BB2D15C2068FFF7EFFD638A01339BB2C5
:1019D0006382A289934201D300236382A38A013BDD
:1019E0009BB2A382A9E70000012803D0022803D1FB
:1019F000024870470248704700207047B80800202E
:101A00009008002010B5FFF7EFFF80B104460122D7
:101A100040F225510068FFF7AAFD012240F227712C
:101A20002068FFF7A4FD01212068FFF793FD10BD9A
:101A300070B50D461646FFF7D7FF40B10446C3699F
:101A400003B19847324629462046FFF716FF70BD7E
:101A500000B583B002AB03F8011D01221946FFF760
:101A6000E7FF03B05DF804FB10B50C46FFF7BCFFC1
:101A700018B12146FFF7BEFE10BD0020FCE710B5EF
:101A800084B00C46FFF7B0FF08B904B010BD009455
:101A90000023ADF80430ADF80630ADF80830ADF8ED
:101AA0000C300C23ADF80A3069460068FFF7EEFCF5
:101AB000EBE7000030B583B001210420FFF7CAFC3A
:101AC00001214FF40030FFF7D3FC0823ADF80430B8
:101AD00004258DF807500D4C0DEB05012046FFF74E
:101AE000CFFBADF8045002238DF8063018238DF893
:101AF00007300DEB05012046FFF7C2FB4FF4E13143
:101B00000120FFF7BCFF03B030BD00BF000801405B
:101B100030B583B001210820FFF79CFC01214FF470
:101B20008020FFF7A5FC4FF40063ADF804300423D8
:101B30008DF807300D4D0DEB03012846FFF7A0FB94
:101B40004FF48063ADF8043002248DF8064018236A
:101B50008DF8073001A92846FFF792FB4FF4E131D9
:101B60002046FFF78CFF03B030BD00BF000C0140E2
:101B700008B5FFF707FEFFF79DFFFFF7C9FFFFF767
:101B80005EFE0120FFF73EFF0220FFF73BFF08BD8E
:101B900008B50248FFF7AAFE08BD00BF9008002064
:101BA00008B50248FFF7A2FE08BD00BFB808002034
:101BB00010B50446C1B20220FFF74AFF204610BD0F
:101BC00070B5013801280CD80D461646002404E0F3
:101BD00015F8010BFFF7ECFF0134B442F8DB2046A7
:101BE00070BD4FF0FF34FAE7024A13680133136007
:101BF000704700BFF0080020014B1868704700BF15
:101C0000F0080020034B1A68024B1B689B1A8342A2
:101C1000FAD37047F008002070B505460C4616460A
:101C2000042900D94C1F2648FFF75CFD2118012D1F
:101C300006D0022D14D0032D22D0042D30D070BD3B
:101C4000204B1E601E4C2046FFF744FD022120461B
:101C5000FFF756FD012202212046FFF724FDEEE7A3
:101C6000194B1E60164C2046FFF736FD0421204616
:101C7000FFF746FD012204212046FFF714FDDEE7B1
:101C8000124B1E600E4C2046FFF728FD082120460F
:101C9000FFF736FD012208212046FFF704FDCEE7BD
:101CA0000B4B1E60064C2046FFF71AFD1021204604
:101CB000FFF726FD012210212046FFF7F4FCBEE7C6
:101CC00000040040E0080020E4080020E8080020AC
:101CD000EC08002070B586B001210220FFF7C8FB98
:101CE0004FF47A7604960723ADF808300024ADF857
:101CF00014400394114D02A92846FFF781FC0121ED
:101D00002846FFF7DAFC01212846FFF7BFFC1D2318
:101D10008DF8043004238DF805308DF80640012439
:101D20008DF807400DEB0300FFF7F8FC044A31463D
:101D30002046FFF771FF06B070BD00BF00040040F1
:101D4000E91B000810B502212248FFF7CDFC78B945
:101D500004212048FFF7C8FC90B908211D48FFF76F
:101D6000C3FCD8B910211B48FFF7BEFC20BB10BD37
:101D700002211848FFF7C4FC174B1B689847E7E798
:101D8000144C04212046FFF7BBFC0022042120460E
:101D9000FFF789FC114B1B689847DEE70D4C0821C3
:101DA0002046FFF7ADFC002208212046FFF77BFC10
:101DB0000B4B1B689847D5E7064C10212046FFF7D0
:101DC0009FFC002210212046FFF76DFC054B1B688D
:101DD0009847CCE700040040E0080020E408002019
:101DE000E8080020EC0800207047FEE7FEE7FEE769
:101DF000FEE77047704770477047000030B40C68CA
:101E0000630A074AA2FB0323DA09064D05FB1242C7
:101E1000046804EBD31303600A6030BC704700BF52
:101E2000834B040000CA9A3B43680B7043681B0A4B
:101E30004B70C3888B70C379CB7083680B718368D8
:101E40001B0A4B7143898B71C37ACB710820704791
:101E50000B7843604A7843EA022343608A7843EA76
:101E600002434360CA7843EA026343600B798360AC
:101E70004A7943EA022383608A7943EA0243836012
:101E8000CA7943EA026383600820704700487047BC
:101E9000F849000800487047D449000870B40B782E
:101EA00083804A7843EA02238380D1F802500623D4
:101EB000AA1D9A4204D95A1ECC5C8C540133F7E710
:101EC000053500234B554B1D83608E58141D23464A
:101ED00032199A4204D95A1ECD5C8D540133F7E76A
:101EE000531E0025CD54013C0C44C4608E5804326E
:101EF0001346B4189C4204D95C1ECD5C0D550133C9
:101F0000F7E7631E0025CD54013A0A4402610B5DD8
:101F1000621C8A5C43EA0223A21C8A5C43EA0243F5
:101F2000E21C8A5C43EA02634361201D70BC704777
:101F30000048704760490008004870473C49000865
:101F400030B40B780371D1F8015005236A1D9A4211
:101F500004D95A1ECC5C8C540133F7E704350023B6
:101F60004B5504318160104630BC704700487047C3
:101F70002849000800487047044900080048704795
:101F80007C49000800487047E0480008012800D05C
:101F900070474FF6FF739942FAD110B4234A244B8D
:101FA0001360002382F8B8342249C2F8CC14042B01
:101FB00007D803F583711D4A002042F82100013340
:101FC000F5E70023042B0DD8184C03F5857104EBBD
:101FD000810100204860142202FB0342A2F8400461
:101FE0000133EFE70023B3F5007F05D20F4A1A440F
:101FF000002111760133F6E70023B3F5007F06D206
:102000000A4A1A44002182F818120133F5E7074BF7
:10201000002283F8D024C3F8D82483F8DC24C3F842
:10202000E4245A615DF8044B704700BFF8080020B3
:10203000C8480008B048000890F8B80470472DE977
:10204000F04106460C4683880B7083881B0A4B7050
:102050008068FEF79DF80746C4F802000246B168A2
:10206000A01D01F0D8FB07F10608F068FEF790F814
:10207000054644F808000A370246F168E01901F005
:10208000CAFB2F443069FEF783F80546E051043758
:1020900002463169E01901F0BEFBE8197369235467
:1020A000190A421CA154190C821CA1541B0EC21CFB
:1020B000A3540430BDE8F08170B506460D4603799F
:1020C0000B708068FEF764F80446C5F8010002460C
:1020D000B168681D01F09FFB601D70BD2DE9F041E6
:1020E00005460C4603790B7000224A708A70CA704C
:1020F00004232979914210D9E96851F82210E1545A
:102100000E0A581C26540E0C981C2654090ED81C76
:10211000215404330132D2B2EBE7591C2A7CE25439
:10212000981C00226254D91C225404336254297C26
:10213000914210D9A96951F82210E1540E0A581C95
:1021400026540E0C981C2654090ED81C2154043316
:102150000132D2B2EBE75A1C297FE154991C4FF0AF
:10216000000804F80280DA1C04F801801E1D04F83F
:1021700002802B7F434514D96B6A53F82800FEF781
:1021800007F80746A05104366B6A024653F8281038
:10219000A01901F040FB3E4408F101085FFA88F8FD
:1021A000E7E73046BDE8F081F8B506460D460C7805
:1021B0000379A3421AD33471002204243379934261
:1021C0001AD92B5D611C695C43EA0123A11C695C7F
:1021D00043EA0143E11C695C43EA0163B3600434F0
:1021E000F16841F822300132D2B2E7E7A100C068BD
:1021F00001F0A0FBF060DEE72F5D337CBB421AD319
:10220000043437740022337C93421AD92B5D611C4D
:10221000695C43EA0123A11C695C43EA0143E11CB8
:10222000695C43EA016373610434B16941F82230A7
:102230000132D2B2E7E7B900B06901F07BFBB061CF
:10224000DEE72F5D337FBB4204D3201D37774FF08D
:10225000000C12E0B900706A01F06CFB7062F4E7E8
:10226000431E0022EA54013C2C443462736A43F852
:102270002C400CF1010C5FFA8CFC337F63450AD9CA
:102280002F58041D234638199842E9D95A1EE95C93
:10229000A9540133F7E7F8BD08B54FF44070FFF7D4
:1022A00033FAFFF717FDFFF763FC074B0022C3F873
:1022B000A424C3F8A824C3F8B024C3F8AC2403486A
:1022C00001F030FB08BD00BFF8080020D44800082A
:1022D00030B585B0632903DD90F8B834002B50D0B9
:1022E0000D46044613681B6800F21F2110469847EC
:1022F000FF2384F81832FE2384F81932C3B284F81D
:102300001A32C0F3072284F81B221344DBB2DB43EA
:1023100084F81C3284F81D5245F3072184F81E12FC
:1023200005230022C11D994205DDE11891F818121C
:102330000A440133F6E75342D2B2DBB258BF5A42E5
:1023400000F10805D243214481F81822B5F5007F39
:1023500008DCAAB204F506710120FFF769FB2846E4
:1023600005B030BD084B019303238DF80830074BAF
:10237000039301AA07212046FFF7AAFF4FF0FF357C
:10238000EDE70025EBE700BF9848000898490008F2
:102390002DE9F0418CB0FFF77FFF10E0BD4B93F8C3
:1023A000B83443B1BB4BD3F8BC34E31A40F6C41283
:1023B000934200F2ED834FF47A70FFF723FCFFF7AE
:1023C0001BFC04460146B44801F038FAB14BD3F87F
:1023D000C034E31A42F6F822934203D9AD4B0022EF
:1023E00083F8B824AB4BD3F8A434D3B1A94BD3F8BA
:1023F000C4349C4215D9A74B0022C3F8A42410E092
:10240000A44BD3F8B024501CC3F8B0041A4411767E
:10241000D3F8A824013AC3F8A82412B90822C3F8B3
:10242000A4249C4B5B6933B1FFF7E6FB001B994B7F
:102430005B699842BFD80CA9FF2301F8183D012021
:10244000FFF712FB0028A9D09DF81810914BD3F884
:10245000B4240A44C3F8B424D3F8A434072BCFD04F
:10246000B3B9FF2908D18B4A0133C2F8A43404F16F
:102470001403C2F8C434D4E7FFF7BEFB001B41F2DB
:1024800088339842CDD9834B002283F8B82492E751
:10249000012B3ED0022B00F0E680032B00F0EF80F2
:1024A000042B00F00581052B00F01381062B00F0B2
:1024B0001981082BB5D1774B0021C3F8A4148B1ACE
:1024C000D2B2DBB258BF5A42FF2AAAD1714BD3F81D
:1024D000AC54002D00F01A810A2D00F06582062D03
:1024E00000F0A5820B2D00F04E83643D05EB8502C4
:1024F000684B03EB8203B3F84034002B91D065485E
:1025000000EB8205D5F85034644A136018309847C0
:1025100087E7FE2936D05F4B0022C3F8A42493F846
:10252000B834002B7FF47DAF5D4B009315460192CC
:102530000292584E1B6806F21F2168469847FF23F7
:1025400086F81832FE2386F81932C3B286F81A329A
:10255000C0F3072286F81B221344DBB2DB4386F864
:102560001C320A2386F81D3286F81E5205222B469D
:10257000C11D91420BDD4749114491F818120B44DB
:102580000132F5E70133434AC2F8A43449E75A421D
:10259000DBB2D2B258BF534200F10802DB433D48E0
:1025A000014481F81832B2F5007F0ADC92B200F5DE
:1025B00006710120FFF73CFAFFF71EFB354B9860D0
:1025C0002FE7384B039303228DF81020364A0592EB
:1025D000304D1B6805F21F2103A89847FF2385F89B
:1025E0001832FE2385F81932C3B285F81A32C0F3C7
:1025F000072285F81B221344DBB2DB4385F81C322B
:10260000072385F81D32002385F81E320522C51DDB
:10261000954206DD1F49114491F818120B4401320E
:10262000F5E75A42DBB2D2B258BF534200F108027A
:10263000DB431849294481F81832B2F5007F05DCE4
:1026400092B21A490120FFF7F3F9B5E7154B06934B
:1026500003238DF81C30144B089306AA07210D485C
:10266000FFF736FEA8E70B4AC2F8A8140020C2F80C
:10267000B0040133C2F8A434C2F8B414D1E6054A58
:10268000D2F8A80400EB0121C2F8A8140133C2F863
:10269000A434C6E6F8080020084A0008F408002020
:1026A000684800089848000898490008100B002066
:1026B0005142D2B2C9B258BF4A42FF2A04D0B44BE9
:1026C0000022C3F8A424ACE60133B14AC2F8A43412
:1026D000A7E6AF4AC2F8AC140133C2F8A434C2F87A
:1026E000B4149EE6AA4BD3F8AC2402EB0122C3F843
:1026F000AC240722C3F8A424D3F8A834002B7FF419
:1027000090AEA34B0822C3F8A4248AE6A14B0393FE
:102710000F46049105919E4E1B6806F21F2103A8E7
:102720009847FF2386F81832FE2386F81932C3B281
:1027300086F81A32C0F3072286F81B221344DBB254
:10274000DB4386F81C320A2386F81D3286F81E7297
:102750002B460522C61D964206DD8D49114491F88F
:1027600018120B440132F5E75A42DBB2D2B258BF1D
:10277000534200F10802DB438549314481F81832A5
:10278000B2F5007F0CDC92B283490120FFF750F9CB
:10279000FFF732FA7E4B9860804B06932F4621E07C
:1027A0007F4B069303238DF81C307E4B089306AABB
:1027B00007217748FFF78CFDEAE75A42DBB2D2B235
:1027C00058BF534200F10802DB437149314481F89C
:1027D0001832B2F5007F5BDC92B26F490120FFF73F
:1027E00027F90137042F60DC07F58373684A52F834
:1027F0002330002BF5D09A68ADF81C201A68089297
:10280000586803689B6898470990614E07F583787C
:1028100056F8283058680368DB6898470A904FF4E8
:1028200000730B9356F82830D3F81080B8F1630F7B
:1028300003DD96F8B834002BD3D0554E069B1B68A9
:1028400006F21F2106A89847FF2386F81832FE23B8
:1028500086F81932C3B286F81A32C0F3072286F816
:102860001B221344DBB2DB4386F81C3286F81D8240
:1028700048F3072886F81E822B460522C61D96427D
:102880009BDD4349114491F818120B440132F5E7DE
:10289000434B039303238DF81030424B059303AA57
:1028A00007213B48FFF714FD9BE72F4614E05A42EF
:1028B000DBB2D2B258BF534200F10802DB433449C5
:1028C000314481F81832B2F5007F4BDC92B23249C4
:1028D0000120FFF7ADF80137042F50DC07EB87022A
:1028E0002B4B03EB8203B3F84034002BF3D0ADF84D
:1028F0001C30274E06EB8203D3F844240892D3F809
:1029000048240992D3F84C340A934FF400730B9384
:10291000069B1B6806F21F2106A89847FF2386F82E
:102920001832FE2386F81932C3B286F81A32C0F381
:10293000072286F81B221344DBB2DB4386F81C32E5
:10294000012386F81D32002386F81E322B4605220D
:10295000C61D9642ABDD0E49114491F818120B4486
:102960000132F5E70E4B039303238DF810300D4B26
:10297000059303AA07210648FFF7AAFCABE7044B1F
:10298000012283F8B824C3F8BC44C3F8C04412E55C
:10299000F808002068480008100B00208048000854
:1029A0009848000898490008FFF726F9C04DAB6821
:1029B000C01A2B7E6A7E43EA0223AA7E43EA0243C0
:1029C000EA7E43EA0263297F6A7F41EA0221AA7F05
:1029D00041EA0241EA7F41EA0261B64EA6FB00727B
:1029E0009209134407934FF47A7808FB1203B24F0D
:1029F00007FB03130893FFF7FFF8A6FB00239B09CF
:102A0000079AD21A013AEA6008FB1303089A07FBF7
:102A10001323AA4A1A44294641F8102F05F10C0045
:102A2000FFF7ECF9FFF7E8F8C5F8C004F9E4A04BAC
:102A30001D7E93F8D0349D4223D89D4B83F8D0540B
:102A4000002204259A4B93F8D034934222D9984817
:102A500000F118014B5D6E1C8E5D43EA0623AE1C2F
:102A60008E5D43EA0643EE1C895D43EA0163C0F8CC
:102A7000D4340435D0F8D81441F822300132D2B21F
:102A8000E0E78B4EA900D6F8D80400F053FFC6F853
:102A9000D804D2E7864B03F11802565D93F8DC3474
:102AA0009E4224D80435824B83F8DC640022804B9C
:102AB00093F8DC34934224D97D4800F118014B5D32
:102AC0006E1C8E5D43EA0623AE1C8E5D43EA064310
:102AD000EE1C895D43EA016300F59C610B600435DF
:102AE000D0F8E41441F822300132D2B2DFE7A2F18B
:102AF0001807B100D7F8E40400F01CFFC7F8E4049D
:102B0000D0E76B4B03F11802565D93F8E8349E4210
:102B100005D82A1D664B83F8E864002719E0A2F166
:102B20001807B100D7F8F00400F004FFC7F8F0046C
:102B3000EFE75F4901F11803501E00261E54013DC6
:102B40001D44C1F8EC54D1F8F03443F82750013754
:102B5000FFB2574B93F8E834BB420FD9584B9E58FD
:102B6000151D2B4672199A42E3D9514A02F11800F9
:102B7000591E1A44127E42540133F3E74C4B012292
:102B800083F8C8244DE44A4B002283F8B82448E473
:102B90004C4B0093002501950295454E1B6806F2AB
:102BA0001F2168469847FF2386F81832FE2386F8CF
:102BB0001932C3B286F81A32C0F3072286F81B22F4
:102BC0001344DBB2DB4386F81C320A2386F81D323D
:102BD00086F81E5205222B4605E03549114491F82E
:102BE00018120B440132C11D9142F6DC5A42DBB28D
:102BF000D2B258BF534200F10802DB432C480144D3
:102C000081F81832B2F5007F0DDC92B200F5067142
:102C10000120FEF70DFFFEF7EFFF254B9860C3F88C
:102C2000BC44FFF7C8BB284B039303228DF8102048
:102C3000264A05921E4D1B6805F21F2103A89847DE
:102C4000FF2385F81832FE2385F81932C3B285F8C0
:102C50001A32C0F3072285F81B221344DBB2DB4390
:102C600085F81C32072385F81D32002385F81E32B3
:102C70000522C51D954206DD0D49114491F8181233
:102C80000B440132F5E75A42DBB2D2B258BF53428D
:102C900000F10802DB430649294481F81832B2F5F5
:102CA000007F17DC92B20A490120FEF7C1FEB2E7AD
:102CB000F8080020D34D621040420F0000CA9A3B32
:102CC0001009002068480008984800089849000842
:102CD000100B0020064B069303238DF81C30054B88
:102CE000089306AA07210448FFF7F2FA93E700BF0A
:102CF0009848000898490008F808002030B587B0C7
:102D0000632904DD90F8B834002B00F094800D4660
:102D1000044613681B6800F21F2110469847FF23E2
:102D200084F81832FE2384F81932C3B284F81A32B8
:102D3000C0F3072284F81B221344DBB2DB4384F880
:102D40001C3284F81D5245F3072184F81E12052316
:102D50000022C11D994205DDE11891F818120A44BC
:102D60000133F6E75342D2B2DBB258BF5A4200F108
:102D70000805D243214481F81822B5F5007F08DC0C
:102D8000AAB204F506710120FEF752FE284607B0EC
:102D900030BD2A4B009303228DF80420284A02926A
:102DA0001B6804F21F2168469847FF2384F81832F5
:102DB000FE2384F81932C3B284F81A32C0F3072212
:102DC00084F81B221344DBB2DB4384F81C32072354
:102DD00084F81D32002384F81E320522C11D914261
:102DE00005DDA11891F818120B440132F6E75A429A
:102DF000DBB2D2B258BF534200F10802DB43214498
:102E000081F81832B2F5007F08DC92B204F5067141
:102E10000120FEF70DFE4FF0FF35B7E7074B039398
:102E200003238DF81030064B059303AA0721204693
:102E3000FFF74EFAEFE70025A8E700BF9848000823
:102E40009849000830B58BB005464A4B07930024DB
:102E5000089409941B6800F21F2107A89847FF23D4
:102E600085F81832FE2385F81932C3B285F81A3274
:102E7000C0F3072285F81B221344DBB2DB4385F83D
:102E80001C320A2385F81D3285F81E42052123468F
:102E9000C41D8C4205DD6A1892F8182213440131D2
:102EA000F6E75A42DBB2D2B258BF534200F10802F1
:102EB000DB432C4484F81832B2F5007F0ADC92B26E
:102EC00005F506710120FEF7B3FDFEF795FEA8603B
:102ED0000BB030BD284B019303228DF80820274A00
:102EE00003921B6805F21F2101A89847FF2385F86C
:102EF0001832FE2385F81932C3B285F81A32C0F3AE
:102F0000072285F81B221344DBB2DB4385F81C3211
:102F1000072385F81D32002385F81E320522C11DC6
:102F2000914205DDA91891F818120B440132F6E719
:102F30005A42DBB2D2B258BF534200F10802DB431F
:102F4000294481F81832B2F5007F06DC92B205F50B
:102F500006710120FEF76CFDB7E7074B04930323CE
:102F60008DF81430054B069304AA07212846FFF775
:102F7000AFF9AAE76848000898480008984900088F
:102F800070B58CB00446B54B0693002614E04B4256
:102F9000C9B2DBB258BF594200F10802C943254407
:102FA00085F81812B2F5007F57DC92B204F506716D
:102FB0000120FEF73DFD0136042E00F39E8006F54C
:102FC000837354F82330002BF5D09A68ADF81C2099
:102FD0001A680892586803689B689847099006F534
:102FE000837554F8253058680368DB6898470A9061
:102FF0004FF400730B9354F825301D69632D03DDE6
:1030000094F8B834002BD6D0069B1B6804F21F211D
:1030100006A89847FF2384F81832FE2384F8193253
:10302000C3B284F81A32C0F3072284F81B22134477
:10303000DBB2DB4384F81C3284F81D5245F30725CC
:1030400084F81E5205230021C51D9D429FDDE21814
:1030500092F8182211440133F6E7814B00930322C2
:103060008DF804207F4A02921B6804F21F216846F3
:103070009847FF2384F81832FE2384F81932C3B22C
:1030800084F81A32C0F3072284F81B221344DBB2FF
:10309000DB4384F81C32072384F81D32002384F8B4
:1030A0001E320522C11D914205DDA11891F81812AA
:1030B0000B440132F6E75A42DBB2D2B258BF534258
:1030C00000F10802DB43214481F81832B2F5007F99
:1030D00006DC92B204F506710120FEF7A9FC6AE74E
:1030E0005F4B039303238DF810305E4B059303AAC7
:1030F00007212046FFF7ECF85DE7002514E04B427E
:10310000C9B2DBB258BF594200F10802C943264494
:1031100086F81812B2F5007F4BDC92B204F5067106
:103120000120FEF785FC0135042D00F3928005EBAC
:10313000850293002344B3F84034002BF3D0ADF85C
:103140001C30AA002A4493002344D3F84424089254
:10315000D3F848240992D3F84C340A934FF40073FF
:103160000B93069B1B6804F21F2106A89847FF23B8
:1031700084F81832FE2384F81932C3B284F81A3264
:10318000C0F3072284F81B221344DBB2DB4384F82C
:103190001C32012384F81D32002184F81E120523FD
:1031A000C61D9E42ABDDE21892F81822114401338D
:1031B000F6E72B4B009303228DF80420294A029254
:1031C0001B6804F21F2168469847FF2384F81832D1
:1031D000FE2384F81932C3B284F81A32C0F30722EE
:1031E00084F81B221344DBB2DB4384F81C32072330
:1031F00084F81D32002384F81E320522C11D91423D
:1032000005DDA11891F818120B440132F6E75A4275
:10321000DBB2D2B258BF534200F10802DB43214473
:1032200081F81832B2F5007F06DC92B204F506711F
:103230000120FEF7FDFB76E7094B039303238DF88E
:103240001030084B059303AA07212046FFF740F8EA
:1032500069E7012384F8B8340CB070BD80480008D9
:1032600098480008984900082DE9F04387B00446C3
:10327000FEF7C2FC05460146AA4800F0DFFAD4F882
:10328000C034EB1A42F6F822934202D9002384F8A4
:10329000B834D4F8A43433B3D4F8C4349D4222D91A
:1032A0000023C4F8A4341EE094F8B834002B00F0D6
:1032B0007782D4F8BC34EB1A40F6C412934200F281
:1032C000198200206CE2D4F8B0345A1CC4F8B0243F
:1032D00023441976D4F8A834013BC4F8A83413B9B0
:1032E0000823C4F8A434636933B1FEF785FC401B9E
:1032F0006369984200F2528206A9FF2301F80C3D4F
:103300000120FEF7B1FB0028CED09DF80C10D4F8B8
:10331000B4240A44C4F8B424D4F8A434072BD2D07B
:10332000B3B9FF2907D10133C4F8A43405F114035C
:10333000C4F8C434D7E7FEF75FFC401B41F2883382
:103340009842D0D9002384F8B8346FF0010027E206
:10335000012B3DD0022B00F09980032B00F0A180BF
:10336000042B00F0A880052B00F0B480062B00F0A1
:10337000B980082BB7D10023C4F8A4349B1AD2B269
:10338000DBB258BF5A42FF2AADD1D4F8AC34002B7F
:1033900000F0BA800A2B00F0CF80062B00F01181DC
:1033A0000B2B00F0A381643B03EB830204EB82024E
:1033B000B2F84024002A96D003EB830304EB830386
:1033C000D3F85034584A136004F1180098478AE73C
:1033D000FE2932D00023C4F8A43494F8B834002B6A
:1033E00081D1524B00930026019602961B6804F28D
:1033F0001F2168469847FF2384F81832FE2384F87B
:103400001932C3B284F81A32C0F3072284F81B229F
:103410001344DBB2DB4384F81C320A2384F81D32E8
:1034200084F81E6205223346C11D914209DDA118B0
:1034300091F818120B440132F6E70133C4F8A434B2
:1034400051E75A42DBB2D2B258BF534200F10802F0
:10345000DB43214481F81832B2F5007F09DC92B2D7
:1034600004F506710120FEF7E3FAFEF7C5FBA06044
:1034700039E72F4B039303238DF810302D4B059321
:1034800003AA07212046FEF723FFEEE7C4F8A8149D
:103490000022C4F8B0240133C4F8A434C4F8B4142E
:1034A00021E7D4F8A82402EB0121C4F8A8140133C1
:1034B000C4F8A43417E75142D2B2C9B258BF4A4245
:1034C000FF2A03D00023C4F8A4340CE70133C4F866
:1034D000A43408E7C4F8AC140133C4F8A434C4F825
:1034E000B41400E7D4F8AC3403EB0123C4F8AC34D3
:1034F0000723C4F8A434D4F8A834002B7FF4F3AE27
:103500000823C4F8A434EEE62046FFF79BFC2046CF
:10351000FFF736FDC4F8BC54C4F8C0544FF0FF3078
:103520003EE100BF084A0008F4080020684800088F
:10353000984800089849000804F11806FEF75CFB5B
:10354000A368C01A227E3346717842EA0122B1781C
:1035500042EA0142F17842EA01613279767942EA3F
:1035600006229E7942EA0642DB7942EA03628E4EE7
:10357000A6FB00739B09194404914FF47A7808FB69
:1035800013038A4F07FB03230593FEF735FBA6FBC6
:1035900000239B09049AD21A013AE26008FB130344
:1035A000059A07FB1323824A1A44214641F8102F3B
:1035B00004F10C00FEF722FCFEF71EFBC4F8C00469
:1035C00091E604F2CC4804F11807267E98F80430FE
:1035D0009E421ED888F804600022042698F8043021
:1035E00093421ED9BB5D711C795C43EA0123B11C77
:1035F000795C43EA0143F11C795C43EA0163C8F852
:1036000008300436D8F80C1041F822300132D2B21A
:10361000E4E7B100D8F80C0000F08CF9C8F80C0011
:10362000D8E717F8069098F8103099451ED8043658
:1036300088F81090002298F8103093421FD9BB5D93
:10364000711C795C43EA0123B11C795C43EA0143B4
:10365000F11C795C43EA0163C8F814300436D8F8E9
:10366000181041F822300132D2B2E4E74FEA890162
:10367000D8F8180000F05EF9C8F81800D7E717F876
:10368000069098F81C30994505D8321D88F81C9092
:103690004FF0000C17E04FEA8901D8F8240000F041
:1036A00049F9C8F82400F0E7531E0021F954731EAD
:1036B0003B44C8F82030D8F8241041F82C300CF1E5
:1036C000010C5FFA8CFC98F81C3063450AD9B85895
:1036D000161D334682199A42E6D95A1EF95CB9542E
:1036E0000133F7E7012384F8C834FCE5002384F8AC
:1036F000B834F8E52F4B00930026019602961B681C
:1037000004F21F2168469847FF2384F81832FE23ED
:1037100084F81932C3B284F81A32C0F3072284F84D
:103720001B221344DBB2DB4384F81C320A2384F8E7
:103730001D3284F81E620522334604E0A11891F878
:1037400018120B440132C11D9142F7DC5A42DBB220
:10375000D2B258BF534200F10802DB43214481F842
:103760001832B2F5007F0CDC92B204F5067101202C
:10377000FEF75EF9FEF740FAA060C4F8BC540020E2
:103780000EE00D4B039303238DF810300B4B059384
:1037900003AA07212046FEF79BFDEBE76FF001002F
:1037A00007B0BDE8F08300BFD34D621040420F0068
:1037B00000CA9A3B684800089848000898490008E1
:1037C00008B54FF6FF710120FEF7E0FB08BD0000D1
:1037D000002103E00A4B5B584350043109480A4B6F
:1037E00042189A42F6D3094A02E0002342F8043B09
:1037F000074B9A42F9D3FDF70DFDFEF7C9FD70475F
:10380000F04B00080000002074000020740000202D
:10381000FC0D0020FEE710B5431E0A44914200D182
:1038200010BD11F8014B03F8014FF7E702440346BE
:10383000934200D1704703F8011BF9E70FB40A4B1C
:1038400013B51C6824B1A36913B9204600F02AFA05
:1038500005AB049AA1680193204600F009FC02B070
:10386000BDE8104004B070471000002070B50E464F
:10387000054618B183690BB900F014FAAB69AC685E
:1038800013B9284600F00EFA234B9C4217D16C68FE
:10389000A3891B071DD52369DBB1013EA36816F878
:1038A000011F013BA360E9B9002B2EDA22460A2151
:1038B000284600F047F8013011D00A2011E0174BDC
:1038C0009C4201D1AC68E3E7154B9C4208BFEC6811
:1038D000DEE72146284600F087F80028DDD04FF0CB
:1038E000FF3070BD002B04DAA2699A4206DC0A2977
:1038F00004D023685A1C22601970CFE7224628465C
:1039000000F020F80130C9D1E9E723680A205A1CE9
:1039100022601870E5E700BF3C4A00085C4A0008D6
:103920001C4A0008024B01461868FFF79FBF00BF02
:1039300010000020024B0A460146186800F048BB00
:1039400010000020F8B50E461446054618B18369EC
:103950000BB900F0A7F9214B9C422AD16C68A369EE
:10396000A360A3891A072ED5236963B3236920684E
:10397000C01A6369F6B28342374604DC2146284602
:1039800000F026F928BBA368013BA36023685A1CFA
:1039900022601E7063690130834204D0A389DB0773
:1039A00019D50A2E17D12146284600F011F990B1F9
:1039B0000FE00B4B9C4201D1AC68D0E7094B9C4215
:1039C00008BFEC68CBE72146284600F00DF8002838
:1039D000CCD04FF0FF373846F8BD00BF3C4A000856
:1039E0005C4A00081C4A0008324B70B51D68064648
:1039F0000C4625B1AB6913B9284600F053F92E4B9C
:103A00009C420FD16C68B4F90C309AB215072CD4D3
:103A1000D00611D40922326043F04003A3814FF055
:103A2000FF303EE0254B9C4201D1AC68EBE7244BD4
:103A30009C4208BFEC68E6E7510712D5616B41B1C3
:103A400004F14403994202D0304600F019FA0023F1
:103A50006363A38923F02403A381002363602369A4
:103A60002360A38943F00803A38123694BB9A38989
:103A700003F42073B3F5007F03D02146304600F0F5
:103A8000BFF9A28912F001030CD00023A36063697F
:103A90005B42A361236953B9B4F90C3013F0800081
:103AA000BAD170BD920758BF6369A360F2E70020E6
:103AB000F7E700BF100000203C4A00085C4A0008FD
:103AC0001C4A00088A892DE9F041054610070C467A
:103AD00058D44B68002B05DC0B6C002B02DC00205B
:103AE000BDE8F081E66A002EF9D0002312F480527E
:103AF0002F68216A2B6032D0606DA3895A0705D5E3
:103B00006368C01A636B0BB1236CC01A00230246B2
:103B1000E66A216A2846B047431CA38906D1296872
:103B20001D2948D8294ACA40D60744D500226260D8
:103B3000D9042269226004D5421C01D12B6803B943
:103B40006065616B2F600029C9D004F1440399427C
:103B500002D0284600F094F900206063C0E70123FA
:103B60002846B047411CC8D12B68002BC5D01D2B5F
:103B700001D0162B01D12F60B1E7A38943F0400398
:103B8000A381ADE70F69002FA9D093070E6808BF86
:103B90004B690F6018BF0023A6EB07088B60B8F1D4
:103BA000000F9CDD43463A46216AA66A2846B04784
:103BB000002806DCA38943F04003A3814FF0FF30C7
:103BC0008EE70744A8EB0008E9E700BF01004020AA
:103BD00038B50B6905460C46DBB118B183690BB9E2
:103BE00000F060F80C4B9C4209D16C68B4F90C30C1
:103BF0007BB121462846BDE83840FFF763BF074B3D
:103C00009C4201D1AC68F1E7054B9C4208BFEC68CF
:103C1000ECE7002038BD00BF3C4A00085C4A0008C1
:103C20001C4A0008002310B50446C0E90033836035
:103C300081814366C281C0E9043383611946082249
:103C40005C30FFF7F3FD054B6362054BA362054B48
:103C5000E362054B2462236310BD00BFCD4500081D
:103C6000EF450008274600084B460008014900F0D0
:103C700085B800BFD13B000870B54A1E6825554382
:103C80000E4605F1740100F049F9044640B10021E7
:103C9000C0E900160C30A06005F16802FFF7C6FD10
:103CA000204670BD836910B5044633BBC0E91233AA
:103CB0000365124B124A1B688262984204BF0123BB
:103CC000836100F01FF86060204600F01BF8A060E0
:103CD000204600F017F80022E06004216068FFF73A
:103CE000A1FF01220921A068FFF79CFF02221221F7
:103CF000E068FFF797FF0123A36110BD184A000891
:103D00006D3C0008F8B51B4B1E68B369074613B934
:103D10003046FFF7C7FF4836D6E90134013B03D5EB
:103D2000336833B13668F7E7B4F90C506DB16834D5
:103D3000F4E704213846FFF79FFF30600028F1D1F7
:103D40000C233B6004462046F8BD0B4B6566C4E976
:103D50000055A560C4E90335C4E905550822294684
:103D600004F15C00FFF762FDC4E90D55C4E912558A
:103D7000E9E700BF184A00080100FFFF2DE9F843FA
:103D80008046894600F14804002614B93046BDE853
:103D9000F883D4E90175013F01D52468F5E7AB89C3
:103DA000012B07D9B5F90E30013303D0294640461F
:103DB000C84706436835EEE770B50E46B1F90E10F8
:103DC000002996B014461D4607DA00232B60B389FC
:103DD0001A0610D44FF480630EE06A4600F05CFCD3
:103DE0000028F2DB019A02F47042A2F500535A4215
:103DF0005A412A60EEE740230020236016B070BDD0
:103E00008B8973B59D0706460C4607D504F1470319
:103E1000236023610123636102B070BD01AB6A4678
:103E2000FFF7CAFF00990546304600F077F848B919
:103E3000B4F90C309A05EFD423F0030343F00203E6
:103E4000A381E3E70D4BB362A389206043F08003B5
:103E5000A381009B6361019B20615BB1B4F90E10EB
:103E6000304600F02BFC28B1A38923F0030343F074
:103E70000103A381A3891D43A581CDE76D3C000803
:103E800038B50546002945D051F8043C0C1F002BDD
:103E9000B8BFE41800F034FC1F4A1368104633B969
:103EA000636014602846BDE8384000F02ABCA34295
:103EB0000CD921686218934204BF1A685B6863607A
:103EC00004BF521822600460ECE713465A680AB136
:103ED000A242FAD919685818A0420BD120680144AF
:103EE000581882421960DDD1106852685A60014446
:103EF0001960D7E702D90C232B60D3E7206821187B
:103F00008A4204BF11685268626004BF09182160C8
:103F10005C60C7E738BD00BFEC0D002070B5CD1C5C
:103F200025F0030508350C2D38BF0C25002D06465D
:103F300001DBA94203D90C233360002070BD00F0DF
:103F4000DFFB214A1468214691B9204C23681BB934
:103F5000304600F02BFB20602946304600F026FB5F
:103F6000431C24D10C233360304600F0CAFBE4E745
:103F70000B685B1B18D40B2B0FD90B60CD50CC18E2
:103F8000304600F0BEFB04F10B00231D20F00700BB
:103F9000C31AD3D05A42E250D0E78C424B6816BFC6
:103FA000636013600C46EBE70C464968CCE7C41C21
:103FB00024F00304A04205D0211A304600F0F6FA9E
:103FC0000130CFD02560DBE7EC0D0020F00D0020A4
:103FD000F8B5074614460E4621B91146BDE8F8402B
:103FE000FFF79CBF22B9FFF74BFF25462846F8BDD7
:103FF00000F088FBA0420FD221463846FFF78EFF23
:1040000005460028F2D031462246FFF704FC31462F
:104010003846FFF735FFE9E73546E7E79368013BA8
:10402000002B10B4936008DA9469A34201DB0A29DB
:1040300003D15DF8044BFFF785BC1368581C106072
:10404000197008465DF8044B7047F8B506460F46F0
:104050001446D518AC4201D1002007E03A4614F8C6
:10406000011B3046FFF7DAFF431CF3D1F8BD000017
:104070002DE9F04F0C469DB017461D46064618B177
:1040800083690BB9FFF70EFE7C4B9C4258D17468D4
:10409000A38918075ED52369002B5BD00023099301
:1040A00020238DF8293030238DF82A3003954FF0E6
:1040B000010BB846454615F8013B0BB1252B54D1F1
:1040C000B8EB070A0BD053463A4621463046FFF775
:1040D000BCFF013000F0C280099B5344099398F85B
:1040E0000030002B00F0BA8000234FF0FF32CDE902
:1040F0000523049307938DF853301A93A84605229D
:1041000018F8011B5E48FCF74BF8049B78BBD906F6
:1041100044BF20228DF853201A0744BF2B228DF86C
:1041200053202A782A2A2AD0079AA84600200A254E
:10413000414611F8013B303B092B69D960B324E0BB
:10414000504B9C4201D1B468A2E74F4B9C4208BF40
:10415000F4689DE721463046FFF746FC00289DD0D5
:104160004FF0FF301DB0BDE8F08FA846A2E7444AEB
:10417000801A0BFA00F0184304904546BEE7039AF4
:10418000111D12680391002A01DB079204E05242DC
:1041900043F002030792049398F800302E2B0ED1BF
:1041A00098F801302A2B38D1039B1A1D1B68039203
:1041B000002BB8BF4FF0FF3308F102080593334DD1
:1041C00098F8001003222846FBF7EAFF40B140238D
:1041D000401B03FA00F0049B034308F10108049319
:1041E00098F800102A488DF82810062208F10107D7
:1041F000FBF7D6FF002837D0264B1BBB039B0733AA
:1042000023F0070308330393099B4B44099350E7BA
:1042100005FB0232012088468AE7002308F10108E5
:10422000059319460A25404610F8012B303A092A11
:1042300003D9002BC3D00591C1E705FB0121012360
:104240008046F0E703AB00932246134B04A93046A7
:10425000AFF30080B0F1FF3F8146D5D1A3895B0663
:104260003FF57EAF09987DE703AB009322460A4BEA
:1042700004A9304600F088F8ECE700BF3C4A00088B
:104280007C4A00085C4A00081C4A0008824A000870
:10429000864A0008000000004B4000082DE9F04766
:1042A00091461F468A680B69DDF820809342B8BFAB
:1042B0001346C9F8003091F8432006460C4612B167
:1042C0000133C9F800302368990642BFD9F800309D
:1042D0000233C9F80030256815F0060507D104F14E
:1042E000190AE368D9F800209B1AAB4228DC94F83D
:1042F00043302268003318BF012392062DD404F105
:10430000430239463046C047013020D02368E56873
:10431000D9F8002003F00603042B08BFAD1AA368E8
:1043200022690CBF25EAE57500259342C4BF9B1A9C
:10433000ED184FF000091A344D451AD1002008E05D
:104340000123524639463046C047013003D14FF071
:10435000FF30BDE8F0870135C3E7E1185A1C302073
:1043600081F84300224494F8451082F84310023348
:10437000C5E70123224639463046C0470130E6D022
:1043800009F10109D8E700002DE9F04301F1430CE0
:104390000C46097E85B06E291746064698460C9A4B
:1043A00000F0B38022D8632936D00AD8002900F063
:1043B000B980582900F0838004F1420584F8421046
:1043C00032E0642901D06929F6D120681368050616
:1043D00003F104012AD51B681160002B03DA2D229A
:1043E0005B4284F843206F480A2239E0732900F0C9
:1043F0009D8008D86F2920D07029DDD1236843F033
:104400002003236003E0752917D07829D4D17823BD
:1044100084F84530644855E01368191D1B68116025
:1044200004F1420584F8423001238CE01B681160DE
:1044300010F0400F18BF1BB2CFE713682568181D96
:104440001060280601D51B6802E06806FBD51B88B2
:1044500054486F2914BF0A220822002184F843100F
:104460006568A560002DC0F29580216821F00401E7
:104470002160002B3DD1002D40F08E806546082A3A
:104480000BD12368DB0708D5236962689A42DEBF37
:10449000302305F8013C05F1FF35ACEB0503236142
:1044A000CDF800803B4603AA21463046FFF7F6FED2
:1044B00001304DD14FF0FF3005B0BDE8F0833948F1
:1044C00084F84510136821681D1D1B6815600A06D5
:1044D0000BD5CA0744BF41F0200121601BB92268F7
:1044E00022F0200222601022B7E74D0648BF9BB29F
:1044F000EFE76546B3FBF2F102FB1133C35C05F84D
:10450000013D0B460029F5D1B9E7136825686169BB
:10451000181D106028061B6801D5196002E06A06A4
:10452000FBD51980002323616546B9E71368191D7F
:1045300011601D68626800212846FBF731FE08B152
:10454000401B606063682361002384F84330A7E761
:1045500023692A4639463046C0470130AAD023682D
:104560009B0713D4E068039B9842B8BF1846A3E7A3
:1045700001234A4639463046C04701309AD00135BA
:10458000E368039A9B1AAB42F2DCEBE7002504F1E7
:104590001909F5E7002BACD1037884F8423004F117
:1045A00042056CE78D4A00089E4A000838B5064C63
:1045B000002305460846236000F0E6F8431C02D1BC
:1045C000236803B12B6038BDF80D002010B50C46F0
:1045D000B1F90E1000F09EF80028ABBF636DA389FF
:1045E0001B1823F48053ACBF6365A38110BD2DE974
:1045F000F0411F468B89DB0505460C46164605D55E
:1046000002230022B1F90E1000F068F8A389B4F972
:104610000E1023F48053A38132463B462846BDE862
:10462000F04100F017B810B50C46B1F90E1000F0CB
:1046300055F8431CA38915BF606523F4805343F4E8
:104640008053A38118BFA38110BDB1F90E1000F0F3
:1046500013B8000038B5074C05460846114600223D
:1046600022601A46FDF7ACFA431C02D1236803B15D
:104670002B6038BDF80D002038B5064C00230546E8
:104680000846236000F058F8431C02D1236803B1A8
:104690002B6038BDF80D002038B5074C00230546C7
:1046A00008461146236000F04FF8431C02D12368EE
:1046B00003B12B6038BD00BFF80D002038B5064CA3
:1046C000002305460846236000F046F8431C02D14B
:1046D000236803B12B6038BDF80D002038B5074CB6
:1046E000054608461146002222601A4600F03CF8B2
:1046F000431C02D1236803B12B6038BDF80D0020A4
:104700007047704751F8043C181F002BBCBF0B5872
:10471000C018704738B5074C0546084611460022B8
:1047200022601A4600F028F8431C02D1236803B126
:104730002B6038BDF80D0020024B58221A604FF054
:10474000FF307047F80D0020024B58221A604FF0DE
:10475000FF307047F80D0020024B58221A600020ED
:10476000704700BFF80D0020024B58221A604FF02E
:10477000FF307047F80D0020024B58221A604FF0AE
:10478000FF307047F80D0020044A05491368002BDC
:1047900008BF0B461844106018467047F40D0020FF
:1047A000FC0D0020FEE700BF08B5062000F02CF845
:1047B0000120FFF7F7FF1F2938B504460D4604D93D
:1047C000162303604FF0FF3038BD426C12B152F82F
:1047D00021304BB9204600F031F82A4601462046E8
:1047E000BDE8384000F018B8012B0AD0591C03D19D
:1047F000162303600120E7E7002442F825402846FD
:1048000098470020E0E70000024B01461868FFF7D8
:10481000D2BF00BF1000002038B5074C002305466A
:1048200008461146236000F013F8431C02D12368A8
:1048300003B12B6038BD00BFF80D002000F000B8B8
:10484000024B58221A604FF0FF307047F80D0020DD
:10485000024B58221A604FF0FF307047F80D0020CD
:104860000000000000000000291E0008511E000882
:104870008D1E0008951E00080000000000000000CA
:104880003F2000089D1E0008311F0008391F000846
:104890000000000000000000B9200008411F0008CF
:1048A0006D1F0008751F00080000000000000000D8
:1048B000DD200008A92100087D1F0008851F0008D1
:1048C0000000000000000000FD2C00086932000814
:1048D000392000084E6F646520696E69740000001D
:1048E000396630653938626461363539383139387E
:1048F00036646466353361666137613430653439F6
:104900000000000031316162643733316332353980
:104910003333323631636436313833626431326472
:104920003632393500000000726F73736572696149
:104930006C5F6D7367732F4C6F6700003061643577
:10494000316638386663343438393266386331302A
:1049500036383430373736343630303500000000E2
:10496000726F7373657269616C5F6D7367732F54D7
:104970006F706963496E666F00000000726F737339
:10498000657269616C5F6D7367732F5265717565D0
:104990007374506172616D004D657373616765205A
:1049A00066726F6D206465766963652064726F70EE
:1049B0007065643A206D657373616765206C617220
:1049C000676572207468616E206275666665722E16
:1049D00000000000636437313636633734633535A1
:1049E00032633331316662636332666535613762E3
:1049F00063323839000000007374645F6D7367734D
:104A00002F54696D650000007370696E4F6E6365A9
:104A100020256C640A000000140000200000000043
:104A20000000000000000000000000000000000086
:104A30000000000000000000000000000000000076
:104A40000000000000000000000000000000000066
:104A50000000000000000000000000000000000056
:104A60000000000000000000000000000000000046
:104A7000000000000000000000000000232D302B8B
:104A80002000686C4C00656667454647003031324F
:104A900033343536373839414243444546003031A6
:104AA0003233343536373839616263646566000005
:104AB000F8B500BFF8BC08BC9E467047F8B500BF0B
:084AC000F8BC08BC9E467047DB
:104AC80008B10181B0B000840000000008B1018184
:104AD800B0B000840000000008B10181B0B00084CB
:044AE80000000000CA
:104AEC0054B7FF7F01000000E8B7FF7FB0A9028038
:104AFC0084B8FF7FB0B0A880D4B8FF7F010000005D
:104B0C00E0B8FF7FB0B0AA8018B9FF7FAE71B28059
:104B1C00D8B9FF7F01000000D4B9FF7FAB3F3880CC
:104B2C002CBAFF7F0100000038BAFF7FB0B0AA801A
:104B3C0074BAFF7F0100000018BBFF7FAB0EB28080
:104B4C0080BBFF7FB0AF08804CBEFF7F0100000030
:104B5C0050BEFF7FAC3F0380C8C0FF7F0100000048
:104B6C00A4C2FF7F00840480B8C2FF7F0100000054
:104B7C00B4C2FF7FB0AD048070C5FF7FB0A80380C6
:104B8C0090C5FF7F44FFFF7F94C5FF7F48FFFF7FE9
:104B9C00A0C5FF7F01000000F4D6FF7F20FFFF7F40
:104BAC0024D7FF7FB0A90480DCD7FF7FB0AC0B808B
:104BBC0040E1FF7FB0A9068080E2FF7FB0A90A80A8
:104BCC00B4E3FF7FB0AA0B8094E6FF7FB0AD068004
:084BDC00E4EBFF7F0100000083
:084BE40075010008C13700084B
:044BEC00510100086B
:104BF00002040608020C0810010203040607080953
:104C000014000020000000003C4A00085C4A000834
:104C10001C4A000800000000000000000000000026
:104C20000000000000000000000000000000000084
:104C30000000000000000000000000000000000074
:104C40000000000000000000000000000000000064
:104C50000000000000000000000000000000000054
:044C60000000000050
:04000005080037D1E7
:00000001FF
