:020000040800F2
:1000000000C00020F5320008991D00089B1D000863
:100010009D1D00089F1D0008A11D00080000000094
:10002000000000000000000000000000A31D000808
:10003000A51D000800000000A71D0008A91D00085C
:1000400039330008393300083933000839330008E0
:1000500039330008393300083933000839330008D0
:1000600039330008393300083933000839330008C0
:1000700039330008393300083933000839330008B0
:1000800039330008393300083933000839330008A0
:100090003933000839330008393300083933000890
:1000A0003933000839330008393300083933000880
:1000B00039330008F51C00083933000839330008CB
:1000C0003933000839330008393300083933000860
:1000D0003933000839330008791B0008891B0008F0
:1000E0003933000839330008393300083933000840
:1000F0003933000839330008393300083933000830
:10010000393300083933000839330008393300081F
:10011000393300083933000839330008393300080F
:1001200039330008393300083933000839330008FF
:1001300039330008393300083933000839330008EF
:1001400039330008393300083933000839330008DF
:1001500010B5054C237833B9044B13B10448AFF301
:1001600000800123237010BD7400002000000000F7
:10017000603E000808B5034B1BB103490348AFF3C9
:10018000008008BD0000000078000020603E0008EC
:10019000034613F8012B002AFBD1181A01387047C7
:1001A00001F0FF01102A2BDB10F0070F08D010F828
:1001B000013B013A8B422DD010F0070F42B3F6D12C
:1001C000F0B441EA012141EA014122F007047FF045
:1001D00000070023F0E80256083C85EA010586EA9C
:1001E000010685FA47F5A3FA87F586FA47F6A5FAD8
:1001F00087F68EB9EED1F0BC01F0FF0102F00702E4
:1002000032B110F8013B013A83EA010313B1F8D18E
:100210000020704701387047002D06BF354603386F
:10022000073815F0010F07D1013015F4807F02BFA8
:10023000013015F4C03F0130F0BC0138704700BFF9
:1002400003685A004CBF43F0004323F000431844B6
:10025000704700BF61B32DE9F84F01F1FF3A9046B6
:100260000646D146002707EB090404EBD47464105A
:10027000E50071190846FFF7E3FFA245834605F143
:100280000800304409D0FFF7DBFFC34500F1FF3021
:1002900005D8404509D2671CE5E7C34505D9A74203
:1002A00002D004F1FF39DEE700210846BDE8F88FEF
:1002B00008467047012807D0022807D0044B0028C1
:1002C0000CBF18460020704702487047024870472C
:1002D000A1090008A5090008A909000830B5254BA7
:1002E00083B004468D1E4BB301A92846AFF30080AE
:1002F000F0B101992A46FFF7ADFF0146C0B1FFF703
:100300009FFF4B68A064012B2ED0002B01F104004D
:1003100026DBFFF795FF0023C4E913030368002BD6
:1003200012DBFFF78DFF00232061184603B030BDBC
:10033000002323610923184603B030BD0E490F483E
:10034000091AC9100191D5E7C3F30360FFF7B2FFA3
:10035000002814BF002309232061184603B030BDD4
:100360000123C4E91303D9E70023236105231846B9
:1003700003B030BD00000000A83F0008A83E000800
:100380000368DA0710B5044606D49B0700F148005D
:1003900009D500F05FFC2368590709D51A070ED567
:1003A000DB0613D510BD00F04DFC23685907F5D4CA
:1003B00004F1D00000F056FC23681A07F0D404F5CD
:1003C000A87000F057FC2368DB06EBD404F5E87056
:1003D000BDE8104000F092BC036803B10344184626
:1003E000704700BF09207047704700BF70B50446D2
:1003F0000D4608E02B6C63612A46236921460120E3
:100400009847082808D1296C2046FFF767FF064661
:100410000028EFD003F0B0FB0728FBD13046296C51
:10042000FFF7E2FF281D00F001FC00BF2DE9F047B7
:100430000C1D054617460FCCADF5727D03AE0FC6F9
:100440000FCC0FC60FCC0FC694E80F0002ACD5F846
:100450000C80D5F8189086E80F000023236021E077
:10046000236C6B614FF4F07221467AA802F065FFAD
:100470002B697AAA294630469847889BCDE90049DE
:100480008246636431462B462A460120C047074610
:10049000F8B94FF4F0727AA9204602F04EFFBAF193
:1004A000080F1CD1216C2846FFF718FF002F08BF4A
:1004B0000926074618BF0A260028D1D0A36B46F0AC
:1004C0001001CDE900492A46636401202B46C0474C
:1004D00000B1092738460DF5727DBDE8F087BAF105
:1004E000070FF6D13846216CFFF77EFF03A800F016
:1004F0009DFB00BF406C7047F0B5CB6B0B640D1DCE
:100500000F4606460FCDF9B001AC0FC40FCD0FC496
:100510000FCD0FC495E80F004FF0FF3584E80F00B2
:10052000009506E033696A46314698470828044634
:1005300008D110993046FFF7D1FE0028F2D00920EB
:1005400079B0F0BD6846FFF71BFF062CF7D139469E
:100550003046FFF74BFF00BF30B4DD6BC1608261F6
:1005600019461D64002230BC60E700BF70B5C66844
:1005700043690B64BEB903690A4604460D46014649
:1005800002209847072807D0082803D1294620468B
:10059000FFF72CFF03F0F0FA3046296CFFF724FF39
:1005A000281D00F043FB0122FFF740FF03F0E4FAAF
:1005B000C2681AB1CA6B0A64002237E79CE700BF21
:1005C000704700BF836813B1014601201847704788
:1005D000042907D8DFE801F00308060808000BB972
:1005E0000F2A03D9022070470120704700EB8202D6
:1005F00018465368009A1360704700BF10B584B066
:10060000002303AC0A4600941946FFF7E1FF039864
:1006100004B010BD042907D8DFE801F0030806087C
:1006200008000BB90F2A03D9022070470120704738
:1006300000EB8200009A126842601846704700BFC3
:1006400010B584B004AC002344F8042D0A4600948D
:100650001946FFF7DFFF04B010BD00BFF0B5D36B44
:100660001364151D07460E460FCDADF50F7D17AC73
:100670000FC40FCD0FC40FCD0FC495E80F004FF07E
:10068000FF3584E80F00169510E016A8FFF7D8FF95
:10069000314616A8B84716AA694678B9049B0820BF
:1006A0009847052804460AD0092807D026996846A5
:1006B000FFF714FE6A460C210028E6D0092416A88C
:1006C000FFF75EFE20460DF50F7DF0BD2DE9F04FE2
:1006D0000D46C96C89B00C1D164600F0030B0A6864
:1006E00006941F46002B68D0130CD9B212048DF863
:1006F0001D30022304EB810405928DF81C302B6D14
:10070000BBF1020F08BFAC6B13F0010346D101939C
:1007100000F008030093D4F80090B9F1000F00F046
:10072000F380022F45D0B4F80090B4F8028004346E
:10073000AB6C28F0010A0F2130469A44FFF75EFFA8
:10074000824534D829F001035344834294BF0020EA
:1007500001204FEA480808F0020809F0010948EAB8
:100760000908B8F1010F3AD031D3B8F1020F1AD10C
:10077000236823F0004ABBF1000F66D130B1009A24
:10078000002A6CD0BAF1000F00F09080002B00DA44
:1007900004340AF1010304EB8304BCE7304605A9E5
:1007A00000F046FB78B1092009B0BDE8F08F0020C9
:1007B000CFE7D4F804800834BAE712020323059285
:1007C000ADF81C309BE7082009B0BDE8F08FBBF105
:1007D000000F02D0002840F0B48004349BE7BBF146
:1007E000000F18D1A8B1D4E90023991C4FEAD272A6
:1007F000D9D005F158010133049100F0B580201DD6
:10080000FFF7EAFD04AB01462846AFF3008000285D
:1008100067D108347FE70D213046D5F82080FFF7F7
:10082000EDFE8045F5D1AB6A9C42F2D12046FFF740
:1008300007FD0F2102463046FFF702FF30462A46E9
:100840000021FFF7FDFE0720AEE70D213046D5F869
:100850002080FFF7D3FE804532D0236896E7BAF1B7
:10086000000F23D005F1580304F10408CDF808B0B7
:10087000DDF800900397A3461C4602E05745B946B1
:1008800040D040460494FFF7A7FD04AB0146002288
:100890002846AFF3008009F1010708F10408002899
:1008A000ECD0D1455C46DDE902B7D6D130460D210A
:1008B000FFF7A4FE049B2862C5E90934062073E70C
:1008C000AB6A9C42C9D104224FF00008A318C5E9C5
:1008D0000AA8C5E90C23236843454DDB0123019396
:1008E00057E780460D213046FFF788FEB8F1020F2A
:1008F00028623ED12B46049A43F82C2F6B62AC62DF
:10090000062051E75C46D1E705A9304600F090FA91
:1009100000287FF448AF019B002B3FF454AF0F2118
:100920003046FFF76BFE0E2102463046FFF788FE89
:1009300030461A4A0F21FFF783FE072009B0BDE8B1
:10094000F08F2046FFF77CFC04340746AC63284652
:10095000AFF3008000283FF426AF30463A460F211F
:10096000FFF76EFE07201FE730460D21FFF746FE1A
:100970002862049B6B62C2E70AF1010004EB80006D
:10098000FFF75EFC0F2102463046FFF759FE304666
:100990002A464146FFF754FE072005E70000000005
:1009A000002393E6012391E602238FE62DE9F0412F
:1009B0000546C4B0042906D8DFE801F04D2B050335
:1009C0000900032B5FD0022044B0BDE8F081002B6A
:1009D000F9D1102AF7D82B68DC0600F1F48022AC9C
:1009E0002046019200F094F9A86B019A0023012699
:1009F00006FA03F1114203D0016844F823100430D1
:100A00000133042BF4D1A863204600F077F90020CD
:100A1000DAE7012B4FEA124697B252D0052BD2D11A
:100A200006EB0708B8F1200FCDD80F2E40F29980C1
:100A3000B846002F40F0DB80AA6BAA630F2E40F26D
:100A4000BE80B8F1000F02D002A800F00BF9002020
:100A500044B0BDE8F081002BB5D1AC6B97B2281D36
:100A6000012606FA03F1394203F1010302D021689D
:100A700001600434102B00F10400F2D112F4005094
:100A8000E5D1AC63A0E7160C97B2F319102B9AD8F6
:100A90002B681A075DD422AC204600F00DF904EB58
:100AA000C601AB6B3FB103EBC702186841F8040BFA
:100AB00004339342F9D12046AB6300F0DBF8002009
:100AC00082E7F219102A3FF67EAF0F2E3FF67BAF7A
:100AD0002A68D10708D5284622F0030240F8482B9F
:100AE000019300F0B3F8019B019322AC204600F083
:100AF000ADF8A96B019B002F00F095807F0004EBFF
:100B0000C6044FF00008043C01EB870251F8040BC7
:100B100044F8040F9142F9D1B8F1000F0FD002ACA4
:100B2000102E314638BF102104EBC101843902EB8D
:100B3000C80452F8040B41F8040F9442F9D1012B78
:100B40007FF47BAF22AC0432AA63204600F07AF82F
:100B50007DE723F008032B6005F5A87000F0ACF8E2
:100B600099E7B8F1100F2A6843D9D007A8F1100807
:100B70000BD5284622F0010242F0020240F8482B31
:100B8000019300F06BF82A68019B510725D40F2EC2
:100B900004D822A8019300F061F8019B019302ACF4
:100BA000204600F063F8C6F110010029AA6B019BF2
:100BB000B6DD22AC4F0004EBC6041146A3E722A821
:100BC00000F048F83DE723F010032B6005F5E870CE
:100BD000019200F09DF8019A01E7284622F00402F4
:100BE00040F8D02B019300F041F8019BCFE72A6831
:100BF000CBE7D0070AD5284622F0010242F00202D4
:100C000040F8482B019300F029F8019B019322AC96
:100C1000204600F023F8B846A96B019B002F7FF413
:100C20006DAF0A4609E70A468DE700BF00F13401BF
:100C300091E838009C46A6464CF8045D90E8FF0F0A
:100C4000E54600BD90EC210B704700BF80EC210B06
:100C5000704700BF90EC200B704700BF80EC200B6A
:100C6000704700BFD0EC200B704700BFC0EC200BDA
:100C7000704700BFF0EC0201F0EC0211F0EC022131
:100C8000F0EC0231F0EC0241F0EC0251F0EC0261C8
:100C9000F0EC0271F0EC0281F0EC0291F0EC02A1B8
:100CA000F0EC02B1F0EC02C1F0EC02D1F0EC02E1A8
:100CB000F0EC02F1704700BFE0EC0201E0EC021141
:100CC000E0EC0221E0EC0231E0EC0241E0EC025108
:100CD000E0EC0261E0EC0271E0EC0281E0EC0291F8
:100CE000E0EC02A1E0EC02B1E0EC02C1E0EC02D1E8
:100CF000E0EC02E1E0EC02F1704700BFB0FC0181E2
:100D0000B0FC0191B0FC01A1B0FC01B1704700BF83
:100D1000A0FC0181A0FC0191A0FC01A1A0FC01B1FB
:100D2000704700BFEC4600B52DE900502DE9FF1FCC
:100D30004FF000032DE90C0001A9FFF7DDFBDDF802
:100D400040E012B0704700BFEC4600B52DE90050FE
:100D50002DE9FF1F4FF000032DE90C0001A9FFF75B
:100D600005FCDDF840E012B0704700BFEC4600B56E
:100D70002DE900502DE9FF1F4FF000032DE90C0075
:100D800001A9FFF715FCDDF840E012B0704700BF85
:100D9000EC4600B52DE900502DE9FF1F4FF0000390
:100DA0002DE90C0001ABFFF7D7FBDDF840E012B0F6
:100DB000704700BFEC4600B52DE900502DE9FF1F3C
:100DC0004FF000032DE90C0001AAFFF747FCDDF806
:100DD00040E012B0704700BF027A82B9437AABB1EB
:100DE0004268013B10B4437213680321141D017261
:100DF0001A02446002605DF8044B180E70470368E5
:100E0000013A02721A020260180E7047B020704751
:100E100000B585B003AA0023009219460C22FFF703
:100E2000D7FB039805B05DF804FB00BFF0E700BFF7
:100E30002DE9F043054685B00E464FF000083046D8
:100E4000FFF7CAFFB028044600F0B180070620D59E
:100E500000F0F003802B65D0902B36D0A02B78D0FB
:100E6000B02B47D0C02B00F08A8000F0F803D02BC5
:100E70000BD100F00702013242F4002205230121C8
:100E80002846FFF793FD0028D9D0092005B0BDE81A
:100E9000F0830DF10C09002319468700CDF800906E
:100EA0000D222846FFF794FBFFB2039BCDF800907C
:100EB000043760064CBFDF1BFF18002319460D22C4
:100EC00028460397FFF7A6FBB9E700F00D030D2BAB
:100ED000DBD003AF002300F00F021946009728462D
:100EE000FFF776FB0023009719460D222846FFF7EF
:100EF00091FBA4E7B1285FD0B22800F0CC80B328E2
:100F00007ED000F0FC03B42BBFD000F0070201320A
:100F1000012342F4002219462846FFF747FD002826
:100F20008DD0B2E73046FFF757FF24020443B4F5F3
:100F3000004FAAD024010023A2B219462846FFF789
:100F400035FD0028A1D114F4004F18BF4FF001085F
:100F500075E7C24302F007034FF47F621A410107AD
:100F600002F47F624FF0000348BF42F4804219460A
:100F70002846FFF71BFD00283FF461AF85E7C62830
:100F800051D0C7285AD000F0F803C02B69D0C82828
:100F900075D0C9287FF479AF3046FFF71DFF0203F3
:100FA00000F00F0002F470220130024366E7B8F14E
:100FB000000F14D0002069E73046FFF70DFF00282E
:100FC0003FF463AF10F0F0037FF45FAF02461946C1
:100FD0002846FFF7EBFC00283FF431AF55E703ACA0
:100FE00043460E22414600942846FFF7F1FA00944A
:100FF000284643460F224146FFF70CFB404645E793
:101000003046FFF7E9FE010300F00F0001F4702104
:10101000421C01230A4328461946FFF7C7FC002853
:101020003FF40DAF31E73046FFF7D6FE010300F085
:101030000F0001F47021421C0323EBE73046FFF759
:10104000CBFE024600283FF420AF10F0F0037FF4FF
:101050001CAF04212846FFF7A9FC00283FF4EFAE9F
:1010600013E700F00F020132032342F42022194655
:101070002846FFF79BFC00283FF4E1AE05E7304629
:10108000FFF7AAFE00F0F00200F00F031032013368
:1010900043EA0232F2E600230DF10C090D22194653
:1010A000CDF800902846FFF793FA3046FFF794FEFC
:1010B00002064FF002070CD5039B00F07F00B840FA
:1010C000034430460393FFF787FE030607F1070743
:1010D000F2D4039BCDF8009000F07F0403F5017279
:1010E000BC400023144419460D2228460394FFF700
:1010F00091FAA4E610B5C36C84B05A6803208DF849
:101100000C00DC798DF80D4012020833084601A965
:1011100001920293FFF78CFE04B010BD08B5FFF7F3
:1011200085FE806C08BD00BF08B5FFF77FFEC06C70
:10113000C37900EB8300083008BD00BF08B502F09A
:101140001BFD00BF08B5FFF7F9FF00BF82B0002309
:10115000019300932C4A136843F4803313602A4BA5
:101160001B6803F400330093019B01330193009B40
:101170001BB9019BB3F5A06FF1D1234B1B6813F48E
:10118000003F06D001230093009B012B04D002B046
:10119000704700230093F7E71B4B5A685A605A6860
:1011A00022F460525A605A6842F400525A605A68F7
:1011B00022F4E0625A605A6842F480625A605A68C7
:1011C00022F0604222F47C125A605A6842F02042B7
:1011D00042F4E8125A601A6842F080721A600A4BB0
:1011E0001B6813F0007FFAD0074B5A6822F0030205
:1011F0005A605A6842F002025A60034B5B6803F07F
:101200000C03082BF9D1C2E70010024008B5FFF724
:101210009DFF08BD10B5164CD4F8883043F4700318
:10122000C4F88830134B1A6842F001021A605968FA
:10123000114A0A405A601A6822F0847222F48032FD
:101240001A601A6822F480221A605A6822F06842F2
:1012500022F47F025A60196B084A0A401A634FF45D
:101260001F029A60FFF7D2FF4FF00063A36010BD2A
:1012700000ED00E0001002400C00FFE800FFFEFE61
:10128000F0B4CB7803F00F02154613F0100F01D025
:101290008D7815430B78E3B10668002301E04261C5
:1012A0000133072B14D801229A400C8832EA040437
:1012B000F6D19C000F27A74026EA070605FA04F49A
:1012C0002643CC78282CEAD0482CE9D10261E7E704
:1012D00006600B88FF2B20D94668002303E042619B
:1012E00016E002610133072B16D803F1080401222E
:1012F000A2400C8832EA0404F4D19C000F27A740D6
:1013000026EA070605FA04F42643CC78282CE6D012
:10131000CC78482CE6D1E4E74660F0BC704700008A
:1013200010B4454B5B6803F00C03042B44D0082B2E
:1013300045D013B1414B036001E0404B03603E4A8E
:101340005368C3F30213526812F0800F6ED03C4A08
:10135000D35CDBB2026822FA03F3436036494A6881
:10136000C2F30122496811F4806F61D034498A5C6C
:10137000D2B223FA02F282602F494A68C2F3C12234
:10138000496811F4005F55D02D498A5CD2B2D34030
:10139000C36029494A68C2F38132496811F0805F0D
:1013A00001D042F0040227498A5CD2B2B3FBF2F3C7
:1013B00003615DF8044B7047204B0360BFE71E4B91
:1013C0005A68214C1440596801F48031C4F38343B6
:1013D00043EA546312F0C04F08D102F47012B2F520
:1013E000701F01D0022202E0012200E0012213441A
:1013F00069B9164A02FB03F303600F4B5B68002BCD
:101400009DDB0268124B9A4299D9036097E70A4A1A
:10141000526812F4003F04D00C4A02FB03F303604D
:10142000EBE7064A02FB03F30360E6E7002391E7DC
:1014300000229EE70022AAE70010024000127A0074
:10144000080000200000002000003C6000093D0072
:1014500000A24A0429B9054A936923EA0000906171
:101460007047024A93691843906170470010024028
:1014700029B9054AD36923EA0000D0617047024ABE
:10148000D3691843D06170470010024030B587B06F
:1014900004460D46038A9BB2CA8823F44053134383
:1014A000038283899BB2898828896A8901430A4318
:1014B00023F4B05323F00C031343A381A38A9BB2FC
:1014C000AA8923F440731343A38201A8FFF728FFDE
:1014D0001E4B9C4224D0039BA28912F4004F21D1C1
:1014E00003EB830303EB830329688900B3FBF1F16A
:1014F000174BA3FB012358090501642300FB1313B9
:10150000A28912F4004F16D11B013233104AA2FBFC
:101510000323C3F343132B439BB2238107B030BD96
:10152000049BD9E703EB830303EB8303296849009A
:10153000B3FBF1F1DCE7DA003232054BA3FB0232F8
:10154000C2F3421242EA0503E6E700BF0038014059
:101550001F85EB5131B983899BB223F400539BB2B1
:1015600083817047838943F400538381704710B4AB
:10157000C1F3421401F01F01012303FA01F19C425F
:101580000AD0022C0AD0143052B9036823EA0101B0
:1015900001605DF8044B70470C30F5E71030F3E75D
:1015A000036819430160F4E7C1F3080181807047C3
:1015B0008088C0F30800704710B4C1F3421201F0F4
:1015C0001F040123A340012A0DD0022A0ED0828AD3
:1015D0001340090A012202FA01F10288114043B1C5
:1015E00059B9002006E082891340F2E7028A1340CD
:1015F000EFE700205DF8044B70470120FAE7000098
:1016000003889BB21F4A904216D002F500629042B6
:1016100012D0B0F1804F0FD002F5406290420BD053
:10162000A2F59E32904207D002F58062904203D02C
:1016300002F58062904204D123F070034A6813439C
:101640009BB2114A904208D002F58062904204D0C9
:1016500023F440739BB28A89134303808B68C3626F
:101660000B880385074B984207D003F50063984227
:1016700003D003F54063984201D18B7B038601239D
:1016800083827047002C01400010004031B903886C
:101690009BB223F001039BB203807047038843F0A1
:1016A00001030380704722B9838923EA0101818104
:1016B0007047838919438181704731B903889BB290
:1016C00023F080039BB203807047038843F08003BC
:1016D000038070474163704781637047C1637047FF
:1016E00001647047406A7047028A83890B40114247
:1016F00002D01BB9002070470020704701207047BE
:10170000C94389B20182704740F0BF6040F40030A5
:10171000014BD860704700BF00ED00E0C37853B9BB
:10172000037803F01F015B0901228A40203313492B
:1017300041F82320704710B4114BDA68D243C2F34A
:101740000222C2F104040F2323FA02F24178A140DD
:10175000837813400B431B010278DBB207490A442C
:1017600082F80033037803F01F005B0901228240F6
:1017700041F823205DF8044B704700BF00E100E012
:1017800000ED00E0134A144B1360144B5360144BEC
:1017900093604FF400719181D181002313825382B1
:1017A000D382138353839382D361136253620D4AAE
:1017B0000D4810600D4850600D4890609181D181B6
:1017C00013825382D382138353839382D361136230
:1017D00053627047900800200044004090040020AD
:1017E00090000020B808002000480040900600202B
:1017F00090020020012383F31088438B9BB20022C8
:1018000082F31088CBB18268038B9BB2D35C0B70E0
:10181000012383F31088038B01339BB20383C289B6
:10182000934201D300230383438B013B9BB2438349
:10183000002383F31088012070470020704730B5E3
:1018400083B026238DF8043000258DF805508DF8DF
:10185000065001248DF8074001A8FFF75FFF2723FA
:101860008DF804308DF805408DF806508DF807404E
:1018700001A8FFF753FF03B030BD70B582B000255B
:1018800008E0838A01339BB28382002383F31088AC
:101890000135ADB2954221D2012383F31088838AAA
:1018A0009BB2ADF80630002383F310888489BDF81D
:1018B00006309BB29C42EFD94468038A9BB24E5DCE
:1018C000E654012383F31088038A01339BB2038219
:1018D0008489A342D5D300230382D2E7012240F2B8
:1018E00027710068FFF743FE02B070BD10B50446D3
:1018F00040F225510068FFF75FFEF8B940F227710A
:101900002068FFF759FE002843D0A38A9BB2002B22
:1019100032D06268638A9BB2D15C2068FFF744FED4
:10192000638A01339BB26382A289934201D300236D
:101930006382A38A013B9BB2A38210BD2068FFF79C
:1019400037FEC0B2A268E38A9BB2D054E38A013367
:101950009BB2E382E289934201D30023E382638B4B
:101960009BB29A4203D9638B01339BB26383636A50
:10197000002BC3D09847C1E7002240F227712068AE
:10198000FFF7F5FD012240F226612068FFF7EFFD29
:10199000D3E740F226612068FFF70EFE0028CCD086
:1019A000A38A9BB253B9002240F226612068FFF758
:1019B000DEFD236A002BC0D09847BEE76268638AC9
:1019C0009BB2D15C2068FFF7EFFD638A01339BB2C5
:1019D0006382A289934201D300236382A38A013BDD
:1019E0009BB2A382A9E70000012803D0022803D1FB
:1019F000024870470248704700207047B80800202E
:101A00009008002010B5FFF7EFFF80B104460122D7
:101A100040F225510068FFF7AAFD012240F227712C
:101A20002068FFF7A4FD01212068FFF793FD10BD9A
:101A300070B50D461646FFF7D7FF40B10446C3699F
:101A400003B19847324629462046FFF716FF70BD7E
:101A500010B50C46FFF7C8FF18B12146FFF7CAFEC4
:101A600010BD0020FCE710B584B00C46FFF7BCFFAA
:101A700008B904B010BD00940023ADF80430ADF8EF
:101A80000630ADF80830ADF80C300C23ADF80A3054
:101A900069460068FFF7FAFCEBE7000030B583B059
:101AA00001210420FFF7D6FC01214FF40030FFF79D
:101AB000DFFC0823ADF8043004258DF807500D4CE9
:101AC0000DEB05012046FFF7DBFBADF804500223C8
:101AD0008DF8063018238DF807300DEB05012046F0
:101AE000FFF7CEFB4FF4E1310120FFF7BCFF03B05D
:101AF00030BD00BF0008014030B583B0012108208F
:101B0000FFF7A8FC01214FF48020FFF7B1FC4FF450
:101B10000063ADF8043004238DF807300D4D0DEB54
:101B200003012846FFF7ACFB4FF48063ADF80430A7
:101B300002248DF8064018238DF8073001A92846A5
:101B4000FFF79EFB4FF4E1312046FFF78CFF03B017
:101B500030BD00BF000C014008B5FFF713FEFFF7D2
:101B60009DFFFFF7C9FFFFF76AFE0120FFF74AFF5D
:101B70000220FFF747FF08BD08B50248FFF7B6FE91
:101B800008BD00BF9008002008B50248FFF7AEFE70
:101B900008BD00BFB8080020024A13680133136073
:101BA000704700BFF0080020014B1868704700BF65
:101BB000F0080020034B1A68024B1B689B1A8342F3
:101BC000FAD37047F008002070B505460C4616465B
:101BD000042900D94C1F2648FFF784FD2118012D48
:101BE00006D0022D14D0032D22D0042D30D070BD8C
:101BF000204B1E601E4C2046FFF76CFD0221204644
:101C0000FFF77EFD012202212046FFF74CFDEEE7A3
:101C1000194B1E60164C2046FFF75EFD042120463E
:101C2000FFF76EFD012204212046FFF73CFDDEE7B1
:101C3000124B1E600E4C2046FFF750FD0821204637
:101C4000FFF75EFD012208212046FFF72CFDCEE7BD
:101C50000B4B1E60064C2046FFF742FD102120462C
:101C6000FFF74EFD012210212046FFF71CFDBEE7C5
:101C700000040040E0080020E4080020E8080020FC
:101C8000EC08002070B586B001210220FFF7F0FBC0
:101C90004FF47A7604960723ADF808300024ADF8A7
:101CA00014400394114D02A92846FFF7A9FC012115
:101CB0002846FFF702FD01212846FFF7E7FC1D2318
:101CC0008DF8043004238DF805308DF8064001248A
:101CD0008DF807400DEB0300FFF720FD044A314665
:101CE0002046FFF771FF06B070BD00BF0004004042
:101CF000991B000810B502212248FFF7F5FC78B9BE
:101D000004212048FFF7F0FC90B908211D48FFF797
:101D1000EBFCD8B910211B48FFF7E6FC20BB10BD37
:101D200002211848FFF7ECFC174B1B689847E7E7C0
:101D3000144C04212046FFF7E3FC00220421204636
:101D4000FFF7B1FC114B1B689847DEE70D4C0821EB
:101D50002046FFF7D5FC002208212046FFF7A3FC10
:101D60000B4B1B689847D5E7064C10212046FFF720
:101D7000C7FC002210212046FFF795FC054B1B688D
:101D80009847CCE700040040E0080020E408002069
:101D9000E8080020EC0800207047FEE7FEE7FEE7B9
:101DA000FEE77047704770477047000030B40C681A
:101DB000630A074AA2FB0323DA09064D05FB124218
:101DC000046804EBD31303600A6030BC704700BFA3
:101DD000834B040000CA9A3B43680B7043681B0A9C
:101DE0004B70C3888B70C379CB7083680B71836829
:101DF0001B0A4B7143898B71C37ACB7108207047E2
:101E00000B7843604A7843EA022343608A7843EAC6
:101E100002434360CA7843EA026343600B798360FC
:101E20004A7943EA022383608A7943EA0243836062
:101E3000CA7943EA0263836008207047004870470C
:101E4000E83D000800487047C43D000870B40B78B6
:101E500083804A7843EA02238380D1F80250062324
:101E6000AA1D9A4204D95A1ECC5C8C540133F7E760
:101E7000053500234B554B1D83608E58141D23469A
:101E800032199A4204D95A1ECD5C8D540133F7E7BA
:101E9000531E0025CD54013C0C44C4608E580432BE
:101EA0001346B4189C4204D95C1ECD5C0D55013319
:101EB000F7E7631E0025CD54013A0A4402610B5D29
:101EC000621C8A5C43EA0223A21C8A5C43EA024346
:101ED000E21C8A5C43EA02634361201D70BC7047C8
:101EE00000487047503D0008004870472C3D0008EE
:101EF00030B40B780371D1F8015005236A1D9A4262
:101F000004D95A1ECC5C8C540133F7E70435002306
:101F10004B5504318160104630BC70470048704713
:101F2000183D000800487047F43C0008004870471E
:101F30006C3D000800487047D03C000830B40D6884
:101F400004232A1D9A4204D95A1ECC5C8C540133B6
:101F5000F7E7033500234B5503314160104630BC91
:101F600070470000004870471C3E0008004870475A
:101F7000F83D0008012800D070474FF6FF739942E2
:101F8000FAD1244A244B1360002382F81C352349DC
:101F9000C2F83015042B0CD81E4803F583720021BB
:101FA00040F82210142202FB0302A2F82C14013381
:101FB000F0E70023042B0CD8164803F59272002199
:101FC00040F82210142202FB0302A2F8A4140133E9
:101FD000F0E70023B3F5007F05D20E4A1A44002132
:101FE00011760133F6E70023B3F5007F06D2094AE4
:101FF0001A44002182F818120133F5E7054B00223C
:1020000083F83425C3F83C2583F84025C3F84825D8
:102010005A61B1E7FC080020B03C0008803C000891
:10202000704790F81C05704770B506460C4640682E
:10203000FEF7AEF80546204640F8045B2A46716874
:1020400001F07BF9281D70BD2DE9F04106460C46D4
:1020500083880B7083881B0A4B708068FEF798F8A2
:102060000746C4F802000246B168A01D01F065F9F8
:1020700007F10608F068FEF78BF8054644F80800FB
:102080000A370246F168E01901F057F92F44306928
:10209000FEF77EF80546E051043702463169E01943
:1020A00001F04BF9E81973692354190A421CA15431
:1020B000190C821CA1541B0EC21CA3540430BDE891
:1020C000F08170B506460D4603790B708068FEF707
:1020D0005FF80446C5F801000246B168681D01F0CA
:1020E0002CF9601D70BD2DE9F04105460C460379C1
:1020F0000B7000224A708A70CA70042329799142B9
:1021000010D9E96851F82210E1540E0A581C2654DF
:102110000E0C981C2654090ED81C2154043301328D
:10212000D2B2EBE7591C2A7CE254981C002262547C
:10213000D91C225404336254297C914210D9A969D4
:1021400051F82210E1540E0A581C26540E0C981C0B
:102150002654090ED81C215404330132D2B2EBE7C5
:102160005A1C297FE154991C4FF0000804F80280A2
:10217000DA1C04F801801E1D04F802802B7F434501
:1021800014D96B6A53F82800FEF702F80746A051ED
:1021900004366B6A024653F82810A01901F0CDF8F6
:1021A0003E4408F101085FFA88F8E7E73046BDE8E9
:1021B000F081F8B506460D460C780379A3421AD390
:1021C000347100220424337993421AD92B5D611CA7
:1021D000695C43EA0123A11C695C43EA0143E11CF9
:1021E000695C43EA0163B3600434F16841F822306A
:1021F0000132D2B2E7E7A100C06801F0A9F8F060AF
:10220000DEE72F5D337CBB421AD3043437740022DF
:10221000337C93421AD92B5D611C695C43EA01232C
:10222000A11C695C43EA0143E11C695C43EA016368
:1022300073610434B16941F822300132D2B2E7E768
:10224000B900B06901F084F8B061DEE72F5D337F3B
:10225000BB4204D3201D37774FF0000C12E0B900C9
:10226000706A01F075F87062F4E7431E0022EA54C8
:10227000013C2C443462736A43F82C400CF1010C8D
:102280005FFA8CFC337F63450AD92F58041D23461F
:1022900038199842E9D95A1EE95CA9540133F7E785
:1022A000F8BD0000F0B583B01D4B0024C3F808450D
:1022B000C3F80C45C3F81445C3F81045194B0093F7
:1022C000042C29DC04EB84039A00154B1344B3F867
:1022D0002C340BB10134F3E704F16902104DA7006F
:1022E0003B199E002E44A6F82C240F4BC6F8303420
:1022F000C6F834D4009B9B6868469847C6F83804F3
:10230000009BDB6868469847C6F83C043C44A10043
:1023100001F5856129440431044B196003B0F0BD17
:10232000FC080020983C0008C83C0008F808002081
:1023300030B585B0632903DD90F81C35002B50D0F3
:102340000D46044613681B6800F21F21104698478B
:10235000FF2384F81832FE2384F81932C3B284F8BC
:102360001A32C0F3072284F81B221344DBB2DB438A
:1023700084F81C3284F81D5245F3072184F81E129C
:1023800005230022C11D994205DDE11891F81812BC
:102390000A440133F6E75342D2B2DBB258BF5A4285
:1023A00000F10805D243214481F81822B5F5007FD9
:1023B00008DCAAB204F506710120FFF739FB2846B4
:1023C00005B030BD084B019303238DF80830074B4F
:1023D000039301AA07212046FFF7AAFF4FF0FF351C
:1023E000EDE70025EBE700BF683C0008883D0008EA
:1023F00030B58BB005464A4B0793002408940994E6
:102400001B6800F21F2107A89847FF2385F81832A0
:10241000FE2385F81932C3B285F81A32C0F30722B9
:1024200085F81B221344DBB2DB4385F81C320A23F8
:1024300085F81D3285F81E4205212346C41D8C42B5
:1024400005DD6A1892F8182213440131F6E75A4262
:10245000DBB2D2B258BF534200F10802DB432C4436
:1024600084F81832B2F5007F0ADC92B205F50671E5
:102470000120FFF7DDFAFFF797FBA8600BB030BD36
:10248000284B019303228DF80820274A03921B68EA
:1024900005F21F2101A89847FF2385F81832FE2373
:1024A00085F81932C3B285F81A32C0F3072285F8CD
:1024B0001B221344DBB2DB4385F81C32072385F86B
:1024C0001D32002385F81E320522C11D914205DD13
:1024D000A91891F818120B440132F6E75A42DBB200
:1024E000D2B258BF534200F10802DB43294481F8BD
:1024F0001832B2F5007F06DC92B205F506710120B4
:10250000FFF796FAB7E7074B049303238DF81430CF
:10251000054B069304AA07212846FFF709FFAAE7FF
:10252000383C0008683C0008883D00082DE9F0416F
:10253000ADF50C7DFFF738FB0446BD4BD3F82435D1
:10254000C31A42F6F822934203D9B94B002283F80A
:102550001C25B74BD3F80835002B69D0B44BD3F802
:1025600028359C4264D9B24B0022C3F808255FE0AD
:10257000AF4B93F81C3543B1AD4BD3F82035E31A7C
:1025800040F6C412934200F2D982AA4B8A93FFF715
:102590000BFB0AAC0246A849204600F0E1FE8B94F2
:1025A000A64B1B681D88632D05DDA14B93F81C35D8
:1025B000002B00F02F839E4C8A9B1B6804F21F2186
:1025C0008AA89847FF2384F81832FE2384F819322A
:1025D000C3B284F81A32C0F3072284F81B221344D2
:1025E000DBB2DB4384F81C3284F81D5245F3072527
:1025F00084F81E5205230021C41D9C4240F3F5823D
:102600008B4A1A4492F8182211440133F4E7884B9C
:10261000D3F81425501CC3F814051A441176D3F8C6
:102620000C25013AC3F80C2512B90822C3F8082575
:102630007F4B5B6933B1FFF7B7FA001B7C4B5B69DB
:102640009842A2D8FF238DF8103004A90120FFF78B
:10265000FFF900288CD09DF81010754BD3F8182581
:102660000A44C3F81825D3F80835072BCFD0B3B9DF
:10267000FF2908D16E4A0133C2F8083504F114036A
:10268000C2F82835D4E7FFF78FFA001B41F28833F0
:102690009842CDD9664B002283F81C2575E7012BA3
:1026A0003ED0022B00F0A180032B00F0AA80042B67
:1026B00000F0B280052B00F0D080062B00F0D68011
:1026C000082BB5D15A4B0021C3F808158B1AD2B28A
:1026D000DBB258BF5A42FF2AAAD1554BD3F8105546
:1026E000002D00F0D7800A2D00F02881062D00F083
:1026F00068810B2D00F01182643D05EB85024C4B87
:1027000003EB8203B3F8A434002B91D0484800EBCC
:102710008205D5F8B4344A4A13601830984787E7E1
:10272000FE2936D0424B0022C3F8082593F81C3509
:10273000002B7FF47DAF434B019315460292039229
:102740003B4E1B6806F21F2101A89847FF2386F81D
:102750001832FE2386F81932C3B286F81A32C0F353
:10276000072286F81B221344DBB2DB4386F81C32B7
:102770000A2386F81D3286F81E5205222B46C11DFB
:1027800091420BDD2A49114491F818120B44013291
:10279000F5E70133264AC2F8083549E75A42DBB269
:1027A000D2B258BF534200F10802DB432048014433
:1027B00081F81832B2F5007F0ADC92B200F506719A
:1027C0000120FFF735F9FFF7EFF9194B98602FE774
:1027D0001D4B049303238DF814301C4B069304AA5D
:1027E00007211348FFF7A4FDEDE7114AC2F80C15C5
:1027F0000020C2F814050133C2F80835C2F81815D4
:1028000016E70B4AD2F80C0500EB0121C2F80C15B3
:102810000133C2F808350BE75142D2B2C9B258BFF2
:102820004A42FF2A14D0024B0022C3F80825FFE6D3
:10283000FC080020983C0008BC3C0008F808002078
:10284000F4080020383C0008683C0008883D000877
:102850000133B44AC2F80835EAE6B24AC2F81015A4
:102860000133C2F80835C2F81815E1E6AD4BD3F8CC
:10287000102502EB0122C3F810250722C3F8082512
:10288000D3F80C35002B7FF4D3AEA64B0822C3F847
:102890000825CDE61846FFF7ABFDA34B04932E4663
:1028A00000E00136042E1FDC06EB86029D4B03EB95
:1028B0008203B3F82C34002BF3D0ADF814309948D0
:1028C00000EB8203D3F830240692D3F83824079221
:1028D000D3F83C3408934FF40073099304AA002101
:1028E000FFF726FDDDE70135042D1EDC05EB850233
:1028F0008C4B03EB8203B3F8A434002BF3D0ADF878
:102900001430884800EB8203D3F8A8240692D3F849
:10291000AC240792D3F8B03408934FF400730993B2
:1029200004AA0121FFF704FDDDE77E4B012283F8B5
:102930001C25C3F82045C3F8244526E6FFF734F9E3
:10294000784DAB68C01A2B7E6A7E43EA0223AA7ECA
:1029500043EA0243EA7E43EA0263297F6A7F41EA4F
:102960000221AA7F41EA0241EA7F41EA02616F4EF9
:10297000A6FB00729209134405934FF47A7808FB82
:1029800012036B4F07FB03130693FFF70DF9059A2C
:10299000A6FB00139B09D21A013AEA60069A08FBCB
:1029A000130307FB1323634A1A44294641F8102FE7
:1029B00005F10C00FFF7FAF9FFF7F6F8C5F8240562
:1029C00036E6584B1D7E93F834359D4223D8554B3F
:1029D00083F8345500220425524B93F83435934242
:1029E00022D9504800F118014B5D6E1C8E5D43EA00
:1029F0000623AE1C8E5D43EA0643EE1C895D43EA66
:102A00000163C0F838350435D0F83C1541F8223060
:102A10000132D2B2E0E7434EA900D6F83C0500F0FF
:102A200097FCC6F83C05D2E73E4B03F11802565D11
:102A300093F840359E4224D804353A4B83F84065DC
:102A40000022384B93F84035934224D9354800F1A1
:102A500018014B5D6E1C8E5D43EA0623AE1C8E5D35
:102A600043EA0643EE1C895D43EA016300F24451E8
:102A70000B600435D0F8481541F822300132D2B24B
:102A8000DFE7A2F11807B100D7F8480500F060FCB5
:102A9000C7F84805D0E7234B03F11802565D93F8B9
:102AA0004C359E4205D82A1D1E4B83F84C650027E5
:102AB00019E0A2F11807B100D7F8540500F048FC5E
:102AC000C7F85405EFE7174901F11803501E002617
:102AD0001E54013D1D44C1F85055D1F8543543F8FA
:102AE00027500137FFB20F4B93F84C35BB420FD93B
:102AF000114B9E58151D2B4672199A42E3D9094A6B
:102B000002F11800591E1A44127E42540133F3E7B1
:102B1000044B012283F82C258AE5024B002283F81E
:102B20001C2585E5FC080020503C0008D34D6210B0
:102B300040420F0000CA9A3B14090020614B0193E8
:102B4000002502950395604E1B6806F21F2101A81F
:102B50009847FF2386F81832FE2386F81932C3B24D
:102B600086F81A32C0F3072286F81B221344DBB220
:102B7000DB4386F81C320A2386F81D3286F81E5283
:102B800005222B4605E05049114491F818120B44D8
:102B90000132C11D9142F6DC5A42DBB2D2B258BFBB
:102BA000534200F10802DB434748014481F81832E0
:102BB000B2F5007F0CDC92B200F506710120FEF741
:102BC00037FFFEF7F1FF404B9860C3F82045DCE487
:102BD0003E4B049303238DF814303D4B069304AA17
:102BE00007213948FFF7A4FBEBE74B42C9B2DBB240
:102BF00058BF594200F10802C943334B1C4484F8C2
:102C00001812B2F5007F09DC92B203F506710120BB
:102C1000FEF70EFF0DF50C7DBDE8F0812B4B019307
:102C200003228DF808202A4A0392274C1B6804F2DD
:102C30001F2101A89847FF2384F81832FE2384F847
:102C40001932C3B284F81A32C0F3072284F81B2267
:102C50001344DBB2DB4384F81C32072384F81D32B3
:102C6000002384F81E320522C11D914206DD16495B
:102C7000114491F818120B440132F5E75A42DBB2C5
:102C8000D2B258BF534200F10802DB430E48014460
:102C900081F81832B2F5007F06DC92B200F50671B9
:102CA0000120FEF7C5FEB5E7084B049303238DF81A
:102CB0001430074B069304AA07210348FFF738FB9B
:102CC000A8E700BF383C0008FC080020683C00086A
:102CD000883D00082DE9F0438BB00446FEF764FF01
:102CE0000546D4F82435C31A42F6F822934202D995
:102CF000002384F81C35D4F8083533B3D4F82835CC
:102D00009D4222D90023C4F808351EE094F81C35F2
:102D1000002B00F0C782D4F82035EB1A40F6C4121D
:102D2000934200F269820020BCE2D4F814355A1CA8
:102D3000C4F8142523441976D4F80C35013BC4F8A3
:102D40000C3513B90823C4F80835636933B1FEF7AD
:102D50002BFF401B6369984200F2A2820AA9FF235D
:102D600001F8183D0120FEF773FE0028CED09DF833
:102D70001010D4F818250A44C4F81825D4F80835DA
:102D8000072BD2D0B3B9FF2907D10133C4F80835D6
:102D900005F11403C4F82835D7E7FEF705FF401BFB
:102DA00041F288339842D0D9002384F81C356FF063
:102DB000010077E2012B3DD0022B00F09980032B1C
:102DC00000F0A180042B00F0A880052B00F0B48057
:102DD000062B00F0B980082BB7D10023C4F80835C2
:102DE0009B1AD2B2DBB258BF5A42FF2AADD1D4F8F7
:102DF0001065002E00F0BA800A2E00F00E81062E1B
:102E000000F050810B2E00F0F381643E06EB860348
:102E100004EB8303B3F8A434002B96D006EB8606AC
:102E200004EB8606D6F8B434C94A136004F11800DE
:102E300098478AE7FE2932D00023C4F8083594F871
:102E40001C35002B81D1C34B0193002602960396BB
:102E50001B6804F21F2101A89847FF2384F8183249
:102E6000FE2384F81932C3B284F81A32C0F3072261
:102E700084F81B221344DBB2DB4384F81C320A23A0
:102E800084F81D3284F81E6205223346C11D91422A
:102E900009DDA11891F818120B440132F6E701334D
:102EA000C4F8083551E75A42DBB2D2B258BF534298
:102EB00000F10802DB43214481F81832B2F5007FAB
:102EC00009DC92B204F506710120FEF7B1FDFEF7B0
:102ED0006BFEA06039E7A04B049303238DF81430F8
:102EE0009E4B069304AA07212046FFF721FAEEE73E
:102EF000C4F80C150022C4F814250133C4F80835B1
:102F0000C4F8181521E7D4F80C2502EB0121C4F808
:102F10000C150133C4F8083517E75142D2B2C9B2D3
:102F200058BF4A42FF2A03D00023C4F808350CE7F3
:102F30000133C4F8083508E7C4F810150133C4F8A4
:102F40000835C4F8181500E7D4F8103503EB012351
:102F5000C4F810350723C4F80835D4F80C35002B15
:102F60007FF4F3AE0823C4F80835EEE62046FFF7F9
:102F70003FFA7B4B0493374600E00137042F20DCF7
:102F800007EB870304EB8303B3F82C34002BF4D056
:102F9000ADF8143007EB870304EB8303D3F8302438
:102FA0000692D3F838240792D3F83C3408934FF4B0
:102FB0000073099304AA00212046FFF7B9F9DCE762
:102FC0000136042E1FDC06EB860304EB8303B3F803
:102FD000A434002BF4D0ADF8143006EB860304EBD8
:102FE0008303D3F8A8240692D3F8AC240792D3F82D
:102FF000B03408934FF40073099304AA01212046CA
:10300000FFF796F9DCE7012384F81C35C4F8205556
:10301000C4F824554FF0FF3044E104F11806FEF7E0
:10302000C3FDA368C01A227E3346717842EA0122AA
:10303000B17842EA0142F17842EA01613279767967
:1030400042EA06229E7942EA0642DB7942EA0362BC
:10305000444EA6FB00739B09194405914FF47A78FE
:1030600008FB1303404F07FB03230693FEF79CFD69
:10307000A6FB00239B09059AD21A013AE26008FBDD
:103080001303069A07FB1323384A1A44214641F8D2
:10309000102F04F10C00FEF789FEFEF785FDC4F841
:1030A000240552E604F5A66804F11807267E98F870
:1030B00004309E421ED888F804600022042698F846
:1030C000043093421ED9BB5D711C795C43EA012335
:1030D000B11C795C43EA0143F11C795C43EA01636A
:1030E000C8F808300436D8F80C1041F82230013204
:1030F000D2B2E4E7B100D8F80C0000F029F9C8F822
:103100000C00D8E717F8069098F8103099452FD89A
:10311000043688F81090002298F81030934230D985
:10312000BB5D711C795C43EA0123B11C795C43EA05
:103130000143F11C795C43EA0163C8F8143004369A
:10314000D8F8181041F822300132D2B2E4E700BFBB
:10315000F4080020383C0008683C0008883D00085E
:10316000503C0008D34D621040420F0000CA9A3B09
:103170004FEA8901D8F8180000F0EAF8C8F81800FA
:10318000C6E717F8069098F81C30994505D8321D07
:1031900088F81C904FF0000C17E04FEA8901D8F82E
:1031A000240000F0D5F8C8F82400F0E7531E0021F1
:1031B000F954731E3B44C8F82030D8F8241041F865
:1031C0002C300CF1010C5FFA8CFC98F81C30634534
:1031D0000AD9B858161D334682199A42E6D95A1EA2
:1031E000F95CB9540133F7E7012384F82C35ACE5D9
:1031F000002384F81C35A8E52C4B01930026029689
:1032000003961B6804F21F2101A89847FF2384F846
:103210001832FE2384F81932C3B284F81A32C0F38C
:10322000072284F81B221344DBB2DB4384F81C32F0
:103230000A2384F81D3284F81E620522334604E016
:10324000A11891F818120B440132C11D9142F7DC0C
:103250005A42DBB2D2B258BF534200F10802DB43FC
:10326000214481F81832B2F5007F0CDC92B204F5EB
:1032700006710120FEF7DCFBFEF796FCA060C4F8A7
:10328000205500200EE00A4B049303238DF81430E0
:10329000084B069304AA07212046FFF749F8EBE7FD
:1032A0006FF001000BB0BDE8F08300BF383C0008B0
:1032B000683C0008883D000808B54FF6FF71012002
:1032C000FEF758FE08BD08B54FF44070FEF71CFA33
:1032D000FEF7D8FCFEF740FCFEF7E4FF08BD08B59A
:1032E000FFF7F1FFFFF722F94FF47A70FEF762FC67
:1032F000F8E70000002103E00A4B5B58435004311B
:1033000009480A4B42189A42F6D3094A02E00023C0
:1033100042F8043B074B9A42F9D3FDF77BFFFFF7D6
:10332000DEFF7047B43F000800000020740000205A
:1033300074000020640E0020FEE710B5431E0A440E
:10334000914200D110BD11F8014B03F8014FF7E78E
:10335000024B0A460146186800F022B8100000200F
:103360000EB400B59CB01DAB029006906FF000410A
:10337000094807910491094953F8042B0591006805
:10338000019302A900F08CF8029B00221A701CB075
:103390005DF804EB03B07047100000200802FFFF47
:1033A000F8B5074614460E4621B91146BDE8F84067
:1033B00000F05EBB22B900F00DFB25462846F8BDA3
:1033C00000F0B0FBA0420FD22146384600F050FB7F
:1033D00005460028F2D031462246FFF7AEFF3146BF
:1033E000384600F0F7FAE9E73546E7E72DE9F04718
:1033F0008E689E4282460C469046994637D88A8906
:1034000012F4906F31D0256809696F1A656902233B
:1034100005EB450595FBF3F509F101033B449D429E
:1034200038BF1D46530530D5294600F021FB06461E
:1034300050B90C23CAF80030A38943F04003A3819C
:103440004FF0FF30BDE8F0873A462169FFF775FF7E
:10345000A38923F4906343F08003A381266165610F
:103460003E44ED1B2660A5604E464E4500D94E46B3
:1034700032464146206800F093FAA3689B1BA36084
:1034800023681E4426600020DCE72A46FFF788FFF9
:1034900006460028E2D12169504600F09BFAC8E7B1
:1034A0002DE9F04F1D468B891F069DB080460C46C6
:1034B00016460FD50B696BB9402100F0D9FA206090
:1034C000206128B90C23C8F800304FF0FF30C8E065
:1034D000402363610023099320238DF82930302392
:1034E0008DF82A3003954FF0010B37463D4615F80D
:1034F000013B0BB1252B3ED1B7EB060A0BD053464F
:10350000324621464046FFF771FF013000F0A480AB
:10351000099B534409933B78002B00F09D800023C6
:103520004FF0FF32CDE90523049307938DF8533014
:103530001A932F46052217F8011B5048FCF730FE5E
:10354000049BD0B9D90644BF20228DF853201A0716
:1035500044BF2B228DF853202A782A2A15D0079AA7
:103560002F4600200A25394611F8013B303B092B34
:103570004DD9B8B10FE02F46B8E7404A801A0BFA90
:1035800000F0184304903D46D3E7039A111D1268DA
:103590000391002A01DB079204E0524243F0020348
:1035A000079204933B782E2B0CD17B782A2B33D1B6
:1035B000039B1A1D1B680392002BB8BF4FF0FF330B
:1035C000023705932E4D397803222846FCF7E8FD93
:1035D00038B14023401B03FA00F0049B034301373A
:1035E0000493397827488DF8281006227E1CFCF7B2
:1035F000D7FD002838D0244B13BB039B073323F09F
:10360000070308330393099B4B4409936DE705FBBC
:10361000023201200F46A6E7002301370593194621
:103620000A25384610F8012B303A092A03D9002B15
:10363000C8D00591C6E705FB012101230746F0E745
:1036400003AB00932246114B04A94046AFF3008020
:10365000B0F1FF3F8146D6D1A3895B063FF535AF78
:1036600009981DB0BDE8F08F03AB00932246074BCD
:1036700004A9404600F082F8EAE700BF2C3E0008AB
:10368000323E0008363E000800000000ED3300081E
:103690002DE9F04791461F468A680B69DDF82080C6
:1036A0009342B8BF1346C9F8003091F8432006464C
:1036B0000C4612B10133C9F800302368990642BFA5
:1036C000D9F800300233C9F80030256815F0060536
:1036D00007D104F1190AE368D9F800209B1AAB421C
:1036E00028DC94F843302268003318BF0123920687
:1036F0002DD404F1430239463046C047013020D072
:103700002368E568D9F8002003F00603042B08BFFE
:10371000AD1AA36822690CBF25EAE575002593421E
:10372000C4BF9B1AED184FF000091A344D451AD149
:10373000002008E00123524639463046C047013098
:1037400003D14FF0FF30BDE8F0870135C3E7E11842
:103750005A1C302081F84300224494F8451082F826
:1037600043100233C5E70123224639463046C0479D
:103770000130E6D009F10109D8E700002DE9F04356
:1037800001F1430C0C46097E85B06E2917460646AA
:1037900098460C9A00F0B38022D8632936D00AD814
:1037A000002900F0B980582900F0838004F1420517
:1037B00084F8421032E0642901D06929F6D12068EA
:1037C0001368050603F104012AD51B681160002B5C
:1037D00003DA2D225B4284F843206F480A2239E045
:1037E000732900F09D8008D86F2920D07029DDD181
:1037F000236843F02003236003E0752917D078295C
:10380000D4D1782384F84530644855E01368191DF5
:103810001B68116004F1420584F8423001238CE0FA
:103820001B68116010F0400F18BF1BB2CFE7136880
:103830002568181D1060280601D51B6802E068067F
:10384000FBD51B8854486F2914BF0A220822002187
:1038500084F843106568A560002DC0F2958021684A
:1038600021F004012160002B3DD1002D40F08E801D
:103870006546082A0BD12368DB0708D523696268EF
:103880009A42DEBF302305F8013C05F1FF35ACEB71
:1038900005032361CDF800803B4603AA214630464C
:1038A000FFF7F6FE01304DD14FF0FF3005B0BDE817
:1038B000F083394884F84510136821681D1D1B6882
:1038C00015600A060BD5CA0744BF41F020012160EC
:1038D0001BB9226822F0200222601022B7E74D06B1
:1038E00048BF9BB2EFE76546B3FBF2F102FB113331
:1038F000C35C05F8013D0B460029F5D1B9E7136813
:1039000025686169181D106028061B6801D51960BB
:1039100002E06A06FBD51980002323616546B9E7FA
:103920001368191D11601D68626800212846FCF7A4
:1039300037FC08B1401B606063682361002384F892
:103940004330A7E723692A4639463046C04701304D
:10395000AAD023689B0713D4E068039B9842B8BFA2
:103960001846A3E701234A4639463046C04701308E
:103970009AD00135E368039A9B1AAB42F2DCEBE77D
:10398000002504F11909F5E7002BACD1037884F880
:10399000423004F142056CE73D3E00084E3E00080F
:1039A000884210B501EB020307D8421E99420AD0A3
:1039B00011F8014B02F8014FF8E78342F5D981185D
:1039C000D21AD34200D110BD13F8014D01F8014DB8
:1039D000F7E7000038B50546002945D051F8043C0A
:1039E0000C1F002BB8BFE41800F0B4F81F4A13688E
:1039F000104633B9636014602846BDE8384000F0D3
:103A0000AAB8A3420CD921686218934204BF1A686D
:103A10005B68636004BF521822600460ECE71346E1
:103A20005A680AB1A242FAD919685818A0420BD1B3
:103A300020680144581882421960DDD1106852682C
:103A40005A6001441960D7E702D90C232B60D3E7F1
:103A5000206821188A4204BF11685268626004BF5E
:103A6000091821605C60C7E738BD00BF540E002014
:103A700070B5CD1C25F0030508350C2D38BF0C257D
:103A8000002D064601DBA94203D90C233360002038
:103A900070BD00F05FF8214A1468214691B9204CAE
:103AA00023681BB9304600F045F8206029463046AF
:103AB00000F040F8431C24D10C233360304600F062
:103AC0004AF8E4E70B685B1B18D40B2B0FD90B608B
:103AD000CD50CC18304600F03EF804F10B00231D09
:103AE00020F00700C31AD3D05A42E250D0E78C42EC
:103AF0004B6816BF636013600C46EBE70C464968E1
:103B0000CCE7C41C24F00304A04205D0211A30469F
:103B100000F010F80130CFD02560DBE7540E002014
:103B2000580E002051F8043C181F002BBCBF0B5846
:103B3000C018704738B5064C002305460846236078
:103B400000F00AF8431C02D1236803B12B6038BD92
:103B5000600E002070477047044A05491368002B27
:103B600008BF0B4618441060184670475C0E0020D2
:103B7000640E0020FEE700BF08B5062000F02CF818
:103B80000120FFF7F7FF1F2938B504460D4604D979
:103B9000162303604FF0FF3038BD426C12B152F86B
:103BA00021304BB9204600F031F82A460146204624
:103BB000BDE8384000F018B8012B0AD0591C03D1D9
:103BC000162303600120E7E7002442F82540284639
:103BD00098470020E0E70000024B01461868FFF715
:103BE000D2BF00BF1000002038B5074C00230546A7
:103BF00008461146236000F013F8431C02D12368E5
:103C000003B12B6038BD00BF600E002000F000B88B
:103C1000024B58221A604FF0FF307047600E0020B0
:103C2000024B58221A604FF0FF307047600E0020A0
:103C30000000000000000000D91D0008011E00085F
:103C40003D1E0008451E00080000000000000000A6
:103C5000492000084D1E0008E11E0008E91E00086A
:103C60000000000000000000C3200008F11E000852
:103C70001D1F0008251F00080000000000000000B4
:103C8000E7200008B32100082D1F0008351F000899
:103C90000000000000000000292000083D1F00086F
:103CA000651F00086D1F00080000000000000000F4
:103CB00021200008D52C0008232000084D696C6CD9
:103CC0006973202564000000636861747465720084
:103CD000396630653938626461363539383139389A
:103CE0003664646635336166613761343065343912
:103CF000000000003131616264373331633235399D
:103D0000333332363163643631383362643132648E
:103D10003632393500000000726F73736572696165
:103D20006C5F6D7367732F4C6F6700003061643593
:103D30003166383866633434383932663863313046
:103D400036383430373736343630303500000000FE
:103D5000726F7373657269616C5F6D7367732F54F3
:103D60006F706963496E666F00000000726F737355
:103D7000657269616C5F6D7367732F5265717565EC
:103D80007374506172616D004D6573736167652076
:103D900066726F6D206465766963652064726F700A
:103DA0007065643A206D657373616765206C61723C
:103DB000676572207468616E206275666665722E32
:103DC00000000000636437313636633734633535BD
:103DD00032633331316662636332666535613762FF
:103DE00063323839000000007374645F6D73677369
:103DF0002F54696D650000003939326365386131CF
:103E000036383763656338633862643838336563DE
:103E10003733636134316431000000007374645FD0
:103E20006D7367732F537472696E6700232D302B87
:103E30002000686C4C0065666745464700303132AB
:103E40003334353637383941424344454600303102
:103E50003233343536373839616263646566000061
:103E6000F8B500BFF8BC08BC9E467047F8B500BF67
:083E7000F8BC08BC9E46704737
:103E780008B10181B0B000840000000008B10181E0
:103E8800B0B000840000000008B10181B0B0008427
:103E98000000000008B10181B0B0008400000000FB
:103EA80098C3FF7F010000002CC4FF7FB0A90280E7
:103EB800C8C4FF7FB0B0A88018C5FF7F010000000C
:103EC80024C5FF7FB0B0AA805CC5FF7FAE71B28009
:103ED8001CC6FF7F0100000018C6FF7FAB3F38807B
:103EE80070C6FF7F010000007CC6FF7FB0B0AA80CB
:103EF800B8C6FF7F010000005CC7FF7FAB0EB28031
:103F0800C4C7FF7FB0AF088090CAFF7F01000000E0
:103F180094CAFF7FAC3F03800CCDFF7F01000000F7
:103F2800E8CEFF7F00840480FCCEFF7F0100000004
:103F3800F8CEFF7FB0AD0480B4D1FF7FB0A8038076
:103F4800D4D1FF7F44FFFF7FD8D1FF7F48FFFF7F99
:103F5800E4D1FF7F0100000044E3FF7FB0AB0280A3
:103F6800C8E3FF7FB0A9048080E4FF7FB0A90A807E
:103F7800B4E5FF7FAC0BB28054EDFF7FB0AD0A8093
:103F880030F3FF7F0100000036F3FF7FE4FEFF7F80
:103F980046F3FF7FE8FEFF7F52F3FF7F010000003A
:083FA80075010008B9320008A0
:043FB00051010008B3
:103FB40002040608020C081001020304060708099B
:103FC40014000020000000000000000000000000B9
:103FD40000000000000000000000000000000000DD
:103FE40000000000000000000000000000000000CD
:103FF40000000000000000000000000000000000BD
:1040040000000000000000000000000000000000AC
:10401400000000000000000000000000000000009C
:044024000000000098
:04000005080032F5C8
:00000001FF
