:020000040800F2
:1000000000C000202D1C00089D1B00089F1B00083D
:10001000A11B0008A31B0008A51B0008000000008E
:10002000000000000000000000000000A71B000806
:10003000A91B000800000000AB1B0008AD1B000856
:10004000711C0008711C0008711C0008711C00085C
:10005000711C0008711C0008711C0008711C00084C
:10006000711C0008711C0008711C0008711C00083C
:10007000711C0008711C0008711C0008711C00082C
:10008000711C0008711C0008711C0008711C00081C
:10009000711C0008711C0008711C0008711C00080C
:1000A000711C0008711C0008711C0008711C0008FC
:1000B000711C0008711C0008711C0008711C0008EC
:1000C000711C0008711C0008711C0008711C0008DC
:1000D000711C0008711C0008B11A0008C11A000840
:1000E000711C0008711C0008711C0008711C0008BC
:1000F000711C0008711C0008711C0008711C0008AC
:10010000711C0008711C0008711C0008711C00089B
:10011000711C0008711C0008711C0008711C00088B
:10012000711C0008711C0008711C0008711C00087B
:10013000711C0008711C0008711C0008711C00086B
:10014000711C0008711C0008711C0008711C00085B
:1001500010B5054C237833B9044B13B10448AFF301
:1001600000800123237010BD7800002000000000F3
:100170009825000808B5034B1BB103490348AFF3AA
:10018000008008BD000000007C00002098250008C9
:10019000034613F8012B002AFBD1181A01387047C7
:1001A00001F0FF01102A2BDB10F0070F08D010F828
:1001B000013B013A8B422DD010F0070F42B3F6D12C
:1001C000F0B441EA012141EA014122F007047FF045
:1001D00000070023F0E80256083C85EA010586EA9C
:1001E000010685FA47F5A3FA87F586FA47F6A5FAD8
:1001F00087F68EB9EED1F0BC01F0FF0102F00702E4
:1002000032B110F8013B013A83EA010313B1F8D18E
:100210000020704701387047002D06BF354603386F
:10022000073815F0010F07D1013015F4807F02BFA8
:10023000013015F4C03F0130F0BC0138704700BFF9
:1002400003685A004CBF43F0004323F000431844B6
:10025000704700BF61B32DE9F84F01F1FF3A9046B6
:100260000646D146002707EB090404EBD47464105A
:10027000E50071190846FFF7E3FFA245834605F143
:100280000800304409D0FFF7DBFFC34500F1FF3021
:1002900005D8404509D2671CE5E7C34505D9A74203
:1002A00002D004F1FF39DEE700210846BDE8F88FEF
:1002B00008467047012807D0022807D0044B0028C1
:1002C0000CBF18460020704702487047024870472C
:1002D000A1090008A5090008A909000830B5254BA7
:1002E00083B004468D1E4BB301A92846AFF30080AE
:1002F000F0B101992A46FFF7ADFF0146C0B1FFF703
:100300009FFF4B68A064012B2ED0002B01F104004D
:1003100026DBFFF795FF0023C4E913030368002BD6
:1003200012DBFFF78DFF00232061184603B030BDBC
:10033000002323610923184603B030BD0E490F483E
:10034000091AC9100191D5E7C3F30360FFF7B2FFA3
:10035000002814BF002309232061184603B030BDD4
:100360000123C4E91303D9E70023236105231846B9
:1003700003B030BD0000000090260008C82500082A
:100380000368DA0710B5044606D49B0700F148005D
:1003900009D500F05FFC2368590709D51A070ED567
:1003A000DB0613D510BD00F04DFC23685907F5D4CA
:1003B00004F1D00000F056FC23681A07F0D404F5CD
:1003C000A87000F057FC2368DB06EBD404F5E87056
:1003D000BDE8104000F092BC036803B10344184626
:1003E000704700BF09207047704700BF70B50446D2
:1003F0000D4608E02B6C63612A46236921460120E3
:100400009847082808D1296C2046FFF767FF064661
:100410000028EFD002F044F80728FBD13046296CC1
:10042000FFF7E2FF281D00F001FC00BF2DE9F047B7
:100430000C1D054617460FCCADF5727D03AE0FC6F9
:100440000FCC0FC60FCC0FC694E80F0002ACD5F846
:100450000C80D5F8189086E80F000023236021E077
:10046000236C6B614FF4F07221467AA801F0FCFE18
:100470002B697AAA294630469847889BCDE90049DE
:100480008246636431462B462A460120C047074610
:10049000F8B94FF4F0727AA9204601F0E5FEBAF1FE
:1004A000080F1CD1216C2846FFF718FF002F08BF4A
:1004B0000926074618BF0A260028D1D0A36B46F0AC
:1004C0001001CDE900492A46636401202B46C0474C
:1004D00000B1092738460DF5727DBDE8F087BAF105
:1004E000070FF6D13846216CFFF77EFF03A800F016
:1004F0009DFB00BF406C7047F0B5CB6B0B640D1DCE
:100500000F4606460FCDF9B001AC0FC40FCD0FC496
:100510000FCD0FC495E80F004FF0FF3584E80F00B2
:10052000009506E033696A46314698470828044634
:1005300008D110993046FFF7D1FE0028F2D00920EB
:1005400079B0F0BD6846FFF71BFF062CF7D139469E
:100550003046FFF74BFF00BF30B4DD6BC1608261F6
:1005600019461D64002230BC60E700BF70B5C66844
:1005700043690B64BEB903690A4604460D46014649
:1005800002209847072807D0082803D1294620468B
:10059000FFF72CFF01F084FF3046296CFFF724FFA2
:1005A000281D00F043FB0122FFF740FF01F078FF18
:1005B000C2681AB1CA6B0A64002237E79CE700BF21
:1005C000704700BF836813B1014601201847704788
:1005D000042907D8DFE801F00308060808000BB972
:1005E0000F2A03D9022070470120704700EB8202D6
:1005F00018465368009A1360704700BF10B584B066
:10060000002303AC0A4600941946FFF7E1FF039864
:1006100004B010BD042907D8DFE801F0030806087C
:1006200008000BB90F2A03D9022070470120704738
:1006300000EB8200009A126842601846704700BFC3
:1006400010B584B004AC002344F8042D0A4600948D
:100650001946FFF7DFFF04B010BD00BFF0B5D36B44
:100660001364151D07460E460FCDADF50F7D17AC73
:100670000FC40FCD0FC40FCD0FC495E80F004FF07E
:10068000FF3584E80F00169510E016A8FFF7D8FF95
:10069000314616A8B84716AA694678B9049B0820BF
:1006A0009847052804460AD0092807D026996846A5
:1006B000FFF714FE6A460C210028E6D0092416A88C
:1006C000FFF75EFE20460DF50F7DF0BD2DE9F04FE2
:1006D0000D46C96C89B00C1D164600F0030B0A6864
:1006E00006941F46002B68D0130CD9B212048DF863
:1006F0001D30022304EB810405928DF81C302B6D14
:10070000BBF1020F08BFAC6B13F0010346D101939C
:1007100000F008030093D4F80090B9F1000F00F046
:10072000F380022F45D0B4F80090B4F8028004346E
:10073000AB6C28F0010A0F2130469A44FFF75EFFA8
:10074000824534D829F001035344834294BF0020EA
:1007500001204FEA480808F0020809F0010948EAB8
:100760000908B8F1010F3AD031D3B8F1020F1AD10C
:10077000236823F0004ABBF1000F66D130B1009A24
:10078000002A6CD0BAF1000F00F09080002B00DA44
:1007900004340AF1010304EB8304BCE7304605A9E5
:1007A00000F046FB78B1092009B0BDE8F08F0020C9
:1007B000CFE7D4F804800834BAE712020323059285
:1007C000ADF81C309BE7082009B0BDE8F08FBBF105
:1007D000000F02D0002840F0B48004349BE7BBF146
:1007E000000F18D1A8B1D4E90023991C4FEAD272A6
:1007F000D9D005F158010133049100F0B580201DD6
:10080000FFF7EAFD04AB01462846AFF3008000285D
:1008100067D108347FE70D213046D5F82080FFF7F7
:10082000EDFE8045F5D1AB6A9C42F2D12046FFF740
:1008300007FD0F2102463046FFF702FF30462A46E9
:100840000021FFF7FDFE0720AEE70D213046D5F869
:100850002080FFF7D3FE804532D0236896E7BAF1B7
:10086000000F23D005F1580304F10408CDF808B0B7
:10087000DDF800900397A3461C4602E05745B946B1
:1008800040D040460494FFF7A7FD04AB0146002288
:100890002846AFF3008009F1010708F10408002899
:1008A000ECD0D1455C46DDE902B7D6D130460D210A
:1008B000FFF7A4FE049B2862C5E90934062073E70C
:1008C000AB6A9C42C9D104224FF00008A318C5E9C5
:1008D0000AA8C5E90C23236843454DDB0123019396
:1008E00057E780460D213046FFF788FEB8F1020F2A
:1008F00028623ED12B46049A43F82C2F6B62AC62DF
:10090000062051E75C46D1E705A9304600F090FA91
:1009100000287FF448AF019B002B3FF454AF0F2118
:100920003046FFF76BFE0E2102463046FFF788FE89
:1009300030461A4A0F21FFF783FE072009B0BDE8B1
:10094000F08F2046FFF77CFC04340746AC63284652
:10095000AFF3008000283FF426AF30463A460F211F
:10096000FFF76EFE07201FE730460D21FFF746FE1A
:100970002862049B6B62C2E70AF1010004EB80006D
:10098000FFF75EFC0F2102463046FFF759FE304666
:100990002A464146FFF754FE072005E70000000005
:1009A000002393E6012391E602238FE62DE9F0412F
:1009B0000546C4B0042906D8DFE801F04D2B050335
:1009C0000900032B5FD0022044B0BDE8F081002B6A
:1009D000F9D1102AF7D82B68DC0600F1F48022AC9C
:1009E0002046019200F094F9A86B019A0023012699
:1009F00006FA03F1114203D0016844F823100430D1
:100A00000133042BF4D1A863204600F077F90020CD
:100A1000DAE7012B4FEA124697B252D0052BD2D11A
:100A200006EB0708B8F1200FCDD80F2E40F29980C1
:100A3000B846002F40F0DB80AA6BAA630F2E40F26D
:100A4000BE80B8F1000F02D002A800F00BF9002020
:100A500044B0BDE8F081002BB5D1AC6B97B2281D36
:100A6000012606FA03F1394203F1010302D021689D
:100A700001600434102B00F10400F2D112F4005094
:100A8000E5D1AC63A0E7160C97B2F319102B9AD8F6
:100A90002B681A075DD422AC204600F00DF904EB58
:100AA000C601AB6B3FB103EBC702186841F8040BFA
:100AB00004339342F9D12046AB6300F0DBF8002009
:100AC00082E7F219102A3FF67EAF0F2E3FF67BAF7A
:100AD0002A68D10708D5284622F0030240F8482B9F
:100AE000019300F0B3F8019B019322AC204600F083
:100AF000ADF8A96B019B002F00F095807F0004EBFF
:100B0000C6044FF00008043C01EB870251F8040BC7
:100B100044F8040F9142F9D1B8F1000F0FD002ACA4
:100B2000102E314638BF102104EBC101843902EB8D
:100B3000C80452F8040B41F8040F9442F9D1012B78
:100B40007FF47BAF22AC0432AA63204600F07AF82F
:100B50007DE723F008032B6005F5A87000F0ACF8E2
:100B600099E7B8F1100F2A6843D9D007A8F1100807
:100B70000BD5284622F0010242F0020240F8482B31
:100B8000019300F06BF82A68019B510725D40F2EC2
:100B900004D822A8019300F061F8019B019302ACF4
:100BA000204600F063F8C6F110010029AA6B019BF2
:100BB000B6DD22AC4F0004EBC6041146A3E722A821
:100BC00000F048F83DE723F010032B6005F5E870CE
:100BD000019200F09DF8019A01E7284622F00402F4
:100BE00040F8D02B019300F041F8019BCFE72A6831
:100BF000CBE7D0070AD5284622F0010242F00202D4
:100C000040F8482B019300F029F8019B019322AC96
:100C1000204600F023F8B846A96B019B002F7FF413
:100C20006DAF0A4609E70A468DE700BF00F13401BF
:100C300091E838009C46A6464CF8045D90E8FF0F0A
:100C4000E54600BD90EC210B704700BF80EC210B06
:100C5000704700BF90EC200B704700BF80EC200B6A
:100C6000704700BFD0EC200B704700BFC0EC200BDA
:100C7000704700BFF0EC0201F0EC0211F0EC022131
:100C8000F0EC0231F0EC0241F0EC0251F0EC0261C8
:100C9000F0EC0271F0EC0281F0EC0291F0EC02A1B8
:100CA000F0EC02B1F0EC02C1F0EC02D1F0EC02E1A8
:100CB000F0EC02F1704700BFE0EC0201E0EC021141
:100CC000E0EC0221E0EC0231E0EC0241E0EC025108
:100CD000E0EC0261E0EC0271E0EC0281E0EC0291F8
:100CE000E0EC02A1E0EC02B1E0EC02C1E0EC02D1E8
:100CF000E0EC02E1E0EC02F1704700BFB0FC0181E2
:100D0000B0FC0191B0FC01A1B0FC01B1704700BF83
:100D1000A0FC0181A0FC0191A0FC01A1A0FC01B1FB
:100D2000704700BFEC4600B52DE900502DE9FF1FCC
:100D30004FF000032DE90C0001A9FFF7DDFBDDF802
:100D400040E012B0704700BFEC4600B52DE90050FE
:100D50002DE9FF1F4FF000032DE90C0001A9FFF75B
:100D600005FCDDF840E012B0704700BFEC4600B56E
:100D70002DE900502DE9FF1F4FF000032DE90C0075
:100D800001A9FFF715FCDDF840E012B0704700BF85
:100D9000EC4600B52DE900502DE9FF1F4FF0000390
:100DA0002DE90C0001ABFFF7D7FBDDF840E012B0F6
:100DB000704700BFEC4600B52DE900502DE9FF1F3C
:100DC0004FF000032DE90C0001AAFFF747FCDDF806
:100DD00040E012B0704700BF027A82B9437AABB1EB
:100DE0004268013B10B4437213680321141D017261
:100DF0001A02446002605DF8044B180E70470368E5
:100E0000013A02721A020260180E7047B020704751
:100E100000B585B003AA0023009219460C22FFF703
:100E2000D7FB039805B05DF804FB00BFF0E700BFF7
:100E30002DE9F043054685B00E464FF000083046D8
:100E4000FFF7CAFFB028044600F0B180070620D59E
:100E500000F0F003802B65D0902B36D0A02B78D0FB
:100E6000B02B47D0C02B00F08A8000F0F803D02BC5
:100E70000BD100F00702013242F4002205230121C8
:100E80002846FFF793FD0028D9D0092005B0BDE81A
:100E9000F0830DF10C09002319468700CDF800906E
:100EA0000D222846FFF794FBFFB2039BCDF800907C
:100EB000043760064CBFDF1BFF18002319460D22C4
:100EC00028460397FFF7A6FBB9E700F00D030D2BAB
:100ED000DBD003AF002300F00F021946009728462D
:100EE000FFF776FB0023009719460D222846FFF7EF
:100EF00091FBA4E7B1285FD0B22800F0CC80B328E2
:100F00007ED000F0FC03B42BBFD000F0070201320A
:100F1000012342F4002219462846FFF747FD002826
:100F20008DD0B2E73046FFF757FF24020443B4F5F3
:100F3000004FAAD024010023A2B219462846FFF789
:100F400035FD0028A1D114F4004F18BF4FF001085F
:100F500075E7C24302F007034FF47F621A410107AD
:100F600002F47F624FF0000348BF42F4804219460A
:100F70002846FFF71BFD00283FF461AF85E7C62830
:100F800051D0C7285AD000F0F803C02B69D0C82828
:100F900075D0C9287FF479AF3046FFF71DFF0203F3
:100FA00000F00F0002F470220130024366E7B8F14E
:100FB000000F14D0002069E73046FFF70DFF00282E
:100FC0003FF463AF10F0F0037FF45FAF02461946C1
:100FD0002846FFF7EBFC00283FF431AF55E703ACA0
:100FE00043460E22414600942846FFF7F1FA00944A
:100FF000284643460F224146FFF70CFB404645E793
:101000003046FFF7E9FE010300F00F0001F4702104
:10101000421C01230A4328461946FFF7C7FC002853
:101020003FF40DAF31E73046FFF7D6FE010300F085
:101030000F0001F47021421C0323EBE73046FFF759
:10104000CBFE024600283FF420AF10F0F0037FF4FF
:101050001CAF04212846FFF7A9FC00283FF4EFAE9F
:1010600013E700F00F020132032342F42022194655
:101070002846FFF79BFC00283FF4E1AE05E7304629
:10108000FFF7AAFE00F0F00200F00F031032013368
:1010900043EA0232F2E600230DF10C090D22194653
:1010A000CDF800902846FFF793FA3046FFF794FEFC
:1010B00002064FF002070CD5039B00F07F00B840FA
:1010C000034430460393FFF787FE030607F1070743
:1010D000F2D4039BCDF8009000F07F0403F5017279
:1010E000BC400023144419460D2228460394FFF700
:1010F00091FAA4E610B5C36C84B05A6803208DF849
:101100000C00DC798DF80D4012020833084601A965
:1011100001920293FFF78CFE04B010BD08B5FFF7F3
:1011200085FE806C08BD00BF08B5FFF77FFEC06C70
:10113000C37900EB8300083008BD00BF08B501F09B
:10114000AFF900BF08B5FFF7F9FF00BF82B0002379
:10115000019300932C4A136843F4803313602A4BA5
:101160001B6803F400330093019B01330193009B40
:101170001BB9019BB3F5A06FF1D1234B1B6813F48E
:10118000003F06D001230093009B012B04D002B046
:10119000704700230093F7E71B4B5A685A605A6860
:1011A00022F460525A605A6842F400525A605A68F7
:1011B00022F4E0625A605A6842F480625A605A68C7
:1011C00022F0604222F47C125A605A6842F02042B7
:1011D00042F4E8125A601A6842F080721A600A4BB0
:1011E0001B6813F0007FFAD0074B5A6822F0030205
:1011F0005A605A6842F002025A60034B5B6803F07F
:101200000C03082BF9D1C2E70010024008B5FFF724
:101210009DFF08BD10B5164CD4F8883043F4700318
:10122000C4F88830134B1A6842F001021A605968FA
:10123000114A0A405A601A6822F0847222F48032FD
:101240001A601A6822F480221A605A6822F06842F2
:1012500022F47F025A60196B084A0A401A634FF45D
:101260001F029A60FFF7D2FF4FF00063A36010BD2A
:1012700000ED00E0001002400C00FFE800FFFEFE61
:10128000F0B4CB7803F00F02154613F0100F01D025
:101290008D7815430B78E3B10668002301E04261C5
:1012A0000133072B14D801229A400C8832EA040437
:1012B000F6D19C000F27A74026EA070605FA04F49A
:1012C0002643CC78282CEAD0482CE9D10261E7E704
:1012D00006600B88FF2B20D94668002303E042619B
:1012E00016E002610133072B16D803F1080401222E
:1012F000A2400C8832EA0404F4D19C000F27A740D6
:1013000026EA070605FA04F42643CC78282CE6D012
:10131000CC78482CE6D1E4E74660F0BC704700008A
:1013200010B4454B5B6803F00C03042B44D0082B2E
:1013300045D013B1414B036001E0404B03603E4A8E
:101340005368C3F30213526812F0800F6ED03C4A08
:10135000D35CDBB2026822FA03F3436036494A6881
:10136000C2F30122496811F4806F61D034498A5C6C
:10137000D2B223FA02F282602F494A68C2F3C12234
:10138000496811F4005F55D02D498A5CD2B2D34030
:10139000C36029494A68C2F38132496811F0805F0D
:1013A00001D042F0040227498A5CD2B2B3FBF2F3C7
:1013B00003615DF8044B7047204B0360BFE71E4B91
:1013C0005A68214C1440596801F48031C4F38343B6
:1013D00043EA546312F0C04F08D102F47012B2F520
:1013E000701F01D0022202E0012200E0012213441A
:1013F00069B9164A02FB03F303600F4B5B68002BCD
:101400009DDB0268124B9A4299D9036097E70A4A1A
:10141000526812F4003F04D00C4A02FB03F303604D
:10142000EBE7064A02FB03F30360E6E7002391E7DC
:1014300000229EE70022AAE70010024000127A0074
:101440000C0000200400002000003C6000093D006A
:1014500000A24A0429B9054A936923EA0000906171
:101460007047024A93691843906170470010024028
:1014700029B9054AD36923EA0000D0617047024ABE
:10148000D3691843D06170470010024030B587B06F
:1014900004460D46038A9BB2CA8823F44053134383
:1014A000038283899BB2898828896A8901430A4318
:1014B00023F4B05323F00C031343A381A38A9BB2FC
:1014C000AA8923F440731343A38201A8FFF728FFDE
:1014D0001E4B9C4224D0039BA28912F4004F21D1C1
:1014E00003EB830303EB830329688900B3FBF1F16A
:1014F000174BA3FB012358090501642300FB1313B9
:10150000A28912F4004F16D11B013233104AA2FBFC
:101510000323C3F343132B439BB2238107B030BD96
:10152000049BD9E703EB830303EB8303296849009A
:10153000B3FBF1F1DCE7DA003232054BA3FB0232F8
:10154000C2F3421242EA0503E6E700BF0038014059
:101550001F85EB5131B983899BB223F400539BB2B1
:1015600083817047838943F400538381704710B4AB
:10157000C1F3421401F01F01012303FA01F19C425F
:101580000AD0022C0AD0143052B9036823EA0101B0
:1015900001605DF8044B70470C30F5E71030F3E75D
:1015A000036819430160F4E7C1F3080181807047C3
:1015B0008088C0F30800704710B4C1F3421201F0F4
:1015C0001F040123A340012A0DD0022A0ED0828AD3
:1015D0001340090A012202FA01F10288114043B1C5
:1015E00059B9002006E082891340F2E7028A1340CD
:1015F000EFE700205DF8044B70470120FAE7000098
:1016000040F0BF6040F40030014BD860704700BF2D
:1016100000ED00E0C37853B9037803F01F015B09C4
:1016200001228A402033134941F82320704710B427
:10163000114BDA68D243C2F30222C2F104040F2331
:1016400023FA02F24178A140837813400B431B0137
:101650000278DBB207490A4482F80033037803F0CA
:101660001F005B090122824041F823205DF8044BF2
:10167000704700BF00E100E000ED00E0042805D065
:10168000054A136823F0040313607047024A136885
:1016900043F004031360704710E000E0134A144B5A
:1016A0001360144B5360144B93604FF4007191819D
:1016B000D181002313825382D38213835383938275
:1016C000D361136253620D4A0D4810600D4850609B
:1016D0000D4890609181D18113825382D38213830C
:1016E00053839382D361136253627047940800203E
:1016F000004400409404002094000020BC08002016
:10170000004800409406002094020020012383F347
:101710001088438B9BB2002282F31088CBB1826881
:10172000038B9BB2D35C0B70012383F31088038B74
:1017300001339BB20383C289934201D30023038305
:10174000438B013B9BB24383002383F3108801202A
:1017500070470020704730B583B04FF4E060FFF76A
:101760004FFF26238DF8043000258DF805508DF8A5
:10177000065001248DF8074001A8FFF74BFF2723EF
:101780008DF804308DF805508DF806408DF807402F
:1017900001A8FFF73FFF03B030BD70B582B0002550
:1017A00008E0838A01339BB28382002383F310888D
:1017B0000135ADB2954221D2012383F31088838A8B
:1017C0009BB2ADF80630002383F310888489BDF8FE
:1017D00006309BB29C42EFD94468038A9BB24E5DAF
:1017E000E654012383F31088038A01339BB20382FA
:1017F0008489A342D5D300230382D2E7012240F299
:1018000027710068FFF7B3FE02B070BD10B5044643
:1018100040F225510068FFF7CFFEF8B940F227717A
:101820002068FFF7C9FE002843D0A38A9BB2002B93
:1018300032D06268638A9BB2D15C2068FFF7B4FE45
:10184000638A01339BB26382A289934201D300234E
:101850006382A38A013B9BB2A38210BD2068FFF77D
:10186000A7FEC0B2A268E38A9BB2D054E38A0133D8
:101870009BB2E382E289934201D30023E382638B2C
:101880009BB29A4203D9638B01339BB26383636A31
:10189000002BC3D09847C1E7002240F2277120688F
:1018A000FFF765FE012240F226612068FFF75FFE28
:1018B000D3E740F226612068FFF77EFE0028CCD0F7
:1018C000A38A9BB253B9002240F226612068FFF739
:1018D0004EFE236A002BC0D09847BEE76268638A39
:1018E0009BB2D15C2068FFF75FFE638A01339BB235
:1018F0006382A289934201D300236382A38A013BBE
:101900009BB2A382A9E70000012803D0022803D1DB
:10191000024870470248704700207047BC0800200A
:101920009408002010B5FFF7EFFF80B104460122B4
:1019300040F225510068FFF71AFE012240F227719C
:101940002068FFF714FE01212068FFF703FE10BD99
:1019500070B50D461646FFF7D7FF40B10446C36980
:1019600003B19847324629462046FFF716FF70BD5F
:1019700000B583B002AB03F8011D01221946FFF741
:10198000E7FF03B05DF804FB10B50C46FFF7BCFFA2
:1019900018B12146FFF7BAFE10BD0020FCE710B5D4
:1019A00084B00C46FFF7B0FF08B904B010BD009436
:1019B0000023ADF80430ADF80630ADF80830ADF8CE
:1019C0000C300C23ADF80A3069460068FFF75EFD65
:1019D000EBE7000030B583B001210420FFF73AFDAA
:1019E00001214FF40030FFF743FD0823ADF8043028
:1019F00004258DF807500D4C0DEB05012046FFF72F
:101A00003FFCADF8045002238DF8063018238DF802
:101A100007300DEB05012046FFF732FC4FF4E131B2
:101A20000120FFF7BCFF03B030BD00BF000801403C
:101A300030B583B001210820FFF70CFD01214FF4E0
:101A40008020FFF715FD4FF40063ADF80430042348
:101A50008DF807300D4D0DEB03012846FFF710FC04
:101A60004FF48063ADF8043002248DF8064018234B
:101A70008DF8073001A92846FFF702FC4FF4E13149
:101A80002046FFF78CFF03B030BD00BF000C0140C3
:101A900008B5FFF703FEFFF79DFFFFF7C9FFFFF74C
:101AA0005AFE0120FFF73EFF0220FFF73BFF08BD73
:101AB00008B50248FFF7AAFE08BD00BF9408002041
:101AC00008B50248FFF7A2FE08BD00BFBC08002011
:101AD00008B56FF00400FFF7D1FD0B4BD3ED007A92
:101AE000F8EE677ADFED096A87EEA67A084B83ED98
:101AF000007AD3ED007A9FED077A67EE877A064B7E
:101B0000C3ED007A08BD00BF00000020001B374D68
:101B1000E808002000007A44E408002022E01C4B82
:101B200093ED007A07EE900AF8EE677A67EE877A0F
:101B3000FCEEE77A174BC3ED017A0020154B00222B
:101B40009A601A6842F001021A60124B1B6803F097
:101B50000113012BF9D00F4B1A6822F001021A6011
:101B600000229A6090B1B0F5FA7FD8D9084BD3ED36
:101B7000007A9FED097A67EE877AFCEEE77A054BEB
:101B8000C3ED017AA0F5FA7080B2D7E7704700BFC5
:101B9000E408002010E000E00000FA437047FEE790
:101BA000FEE7FEE7FEE770477047704770470000AA
:101BB00070B5ADF5027DFFF78BFFFFF769FF0025DC
:101BC0002E460DE03246184902A800F053F80EE008
:101BD00035B102AB00221A550A210120FFF7C8FED9
:101BE00041F28830FFF79AFF0136002DEAD002A8B3
:101BF000FEF7CEFA82B202A90220FFF7A9FE002466
:101C000025460DF107010120FFF7BEFE0128DFD1B7
:101C10009DF80710FFF7ACFE9DF8072002AB1A55A0
:101C200001252C44EDE700BF58250008002103E002
:101C30000A4B5B584350043109480A4B42189A42F8
:101C4000F6D3094A02E0002342F8043B074B9A42CC
:101C5000F9D3FFF7DFFAFFF7ABFF704798260008CC
:101C6000000000207800002078000020FC08002000
:101C7000FEE700000EB400B59CB01DAB02900690CC
:101C80006FF00041094807910491094953F8042B6A
:101C900005910068019302A900F066F8029B0022FA
:101CA0001A701CB05DF804EB03B0704714000020FC
:101CB0000802FFFF2DE9F0478E689E4282460C46DF
:101CC0009046994637D88A8912F4906F31D02568AA
:101CD00009696F1A6569022305EB450595FBF3F564
:101CE00009F101033B449D4238BF1D46530530D5E1
:101CF000294600F02BFB064650B90C23CAF80030E9
:101D0000A38943F04003A3814FF0FF30BDE8F08783
:101D10003A46216900F0A8FAA38923F4906343F0BE
:101D20008003A381266165613E44ED1B2660A560AA
:101D30004E464E4500D94E4632464146206800F098
:101D40009EFAA3689B1BA36023681E4426600020A4
:101D5000DCE72A4600F054FB06460028E2D1216960
:101D6000504600F0A5FAC8E72DE9F04F1D468B89D3
:101D70001F069DB080460C4616460FD50B696BB901
:101D8000402100F0E3FA2060206128B90C23C8F854
:101D900000304FF0FF30C8E0402363610023099317
:101DA00020238DF8293030238DF82A3003954FF009
:101DB000010B37463D4615F8013B0BB1252B3ED1B3
:101DC000B7EB060A0BD05346324621464046FFF792
:101DD00071FF013000F0A480099B534409933B78C4
:101DE000002B00F09D8000234FF0FF32CDE905234A
:101DF000049307938DF853301A932F46052217F852
:101E0000011B5048FEF7CCF9049BD0B9D90644BF5A
:101E100020228DF853201A0744BF2B228DF853201F
:101E20002A782A2A15D0079A2F4600200A253946F3
:101E300011F8013B303B092B4DD9B8B10FE02F46CB
:101E4000B8E7404A801A0BFA00F0184304903D4668
:101E5000D3E7039A111D12680391002A01DB079250
:101E600004E0524243F00203079204933B782E2B86
:101E70000CD17B782A2B33D1039B1A1D1B6803924C
:101E8000002BB8BF4FF0FF33023705932E4D397842
:101E900003222846FEF784F938B14023401B03FA99
:101EA00000F0049B034301370493397827488DF8E9
:101EB000281006227E1CFEF773F9002838D0244B28
:101EC00013BB039B073323F0070308330393099BDA
:101ED0004B4409936DE705FB023201200F46A6E74C
:101EE00000230137059319460A25384610F8012BBF
:101EF000303A092A03D9002BC8D00591C6E705FB63
:101F0000012101230746F0E703AB00932246114B62
:101F100004A94046AFF30080B0F1FF3F8146D6D11F
:101F2000A3895B063FF535AF09981DB0BDE8F08F7A
:101F300003AB00932246074B04A9404600F082F809
:101F4000EAE700BF642500086A2500086E2500083E
:101F500000000000B51C00082DE9F04791461F461F
:101F60008A680B69DDF820809342B8BF1346C9F830
:101F7000003091F8432006460C4612B10133C9F8EF
:101F800000302368990642BFD9F800300233C9F8FF
:101F90000030256815F0060507D104F1190AE36839
:101FA000D9F800209B1AAB4228DC94F84330226811
:101FB000003318BF012392062DD404F143023946A1
:101FC0003046C047013020D02368E568D9F80020AA
:101FD00003F00603042B08BFAD1AA36822690CBFE7
:101FE00025EAE57500259342C4BF9B1AED184FF012
:101FF00000091A344D451AD1002008E00123524649
:1020000039463046C047013003D14FF0FF30BDE8BC
:10201000F0870135C3E7E1185A1C302081F84300EE
:10202000224494F8451082F843100233C5E7012397
:10203000224639463046C0470130E6D009F1010951
:10204000D8E700002DE9F04301F1430C0C46097E6E
:1020500085B06E291746064698460C9A00F0B38064
:1020600022D8632936D00AD8002900F0B98058292F
:1020700000F0838004F1420584F8421032E06429C4
:1020800001D06929F6D120681368050603F104011F
:102090002AD51B681160002B03DA2D225B4284F8DD
:1020A00043206F480A2239E0732900F09D8008D848
:1020B0006F2920D07029DDD1236843F020032360ED
:1020C00003E0752917D07829D4D1782384F84530D6
:1020D000644855E01368191D1B68116004F142053E
:1020E00084F8423001238CE01B68116010F0400F2F
:1020F00018BF1BB2CFE713682568181D10602806AB
:1021000001D51B6802E06806FBD51B8854486F297F
:1021100014BF0A220822002184F843106568A560D4
:10212000002DC0F29580216821F004012160002B70
:102130003DD1002D40F08E806546082A0BD12368E2
:10214000DB0708D5236962689A42DEBF302305F8B1
:10215000013C05F1FF35ACEB05032361CDF80080B0
:102160003B4603AA21463046FFF7F6FE01304DD12B
:102170004FF0FF3005B0BDE8F083394884F84510D2
:10218000136821681D1D1B6815600A060BD5CA0758
:1021900044BF41F0200121601BB9226822F02002D7
:1021A00022601022B7E74D0648BF9BB2EFE76546B5
:1021B000B3FBF2F102FB1133C35C05F8013D0B46A2
:1021C0000029F5D1B9E7136825686169181D106009
:1021D00028061B6801D5196002E06A06FBD5198044
:1021E000002323616546B9E71368191D11601D6856
:1021F000626800212846FDF7D3FF08B1401B6060EC
:1022000063682361002384F84330A7E723692A46E3
:1022100039463046C0470130AAD023689B0713D403
:10222000E068039B9842B8BF1846A3E701234A46DB
:1022300039463046C04701309AD00135E368039AE9
:102240009B1AAB42F2DCEBE7002504F11909F5E734
:10225000002BACD1037884F8423004F142056CE7DE
:10226000752500088625000810B5431E0A449142D2
:1022700000D110BD11F8014B03F8014FF7E7884278
:1022800010B501EB020307D8421E99420AD011F89B
:10229000014B02F8014FF8E78342F5D98118D21AB1
:1022A000D34200D110BD13F8014D01F8014DF7E7FD
:1022B00038B50546002945D051F8043C0C1F002BC9
:1022C000B8BFE41800F0D2F81F4A1368104633B9BB
:1022D000636014602846BDE8384000F0C8B8A342E7
:1022E0000CD921686218934204BF1A685B68636066
:1022F00004BF521822600460ECE713465A680AB122
:10230000A242FAD919685818A0420BD1206801449A
:10231000581882421960DDD1106852685A60014431
:102320001960D7E702D90C232B60D3E72068211866
:102330008A4204BF11685268626004BF09182160B4
:102340005C60C7E738BD00BFEC08002070B5CD1C4D
:1023500025F0030508350C2D38BF0C25002D064649
:1023600001DBA94203D90C233360002070BD00F0CB
:102370007DF8214A1468214691B9204C23681BB985
:10238000304600F063F820602946304600F05EF8E1
:10239000431C24D10C233360304600F068F8E4E796
:1023A0000B685B1B18D40B2B0FD90B60CD50CC18CE
:1023B000304600F05CF804F10B00231D20F007000C
:1023C000C31AD3D05A42E250D0E78C424B6816BFB2
:1023D000636013600C46EBE70C464968CCE7C41C0D
:1023E00024F00304A04205D0211A304600F02EF854
:1023F0000130CFD02560DBE7EC080020F00800209A
:10240000F8B5074614460E4621B91146BDE8F84016
:10241000FFF79CBF22B9FFF74BFF25462846F8BDC2
:1024200000F026F8A0420FD221463846FFF78EFF73
:1024300005460028F2D031462246FFF715FF314607
:102440003846FFF735FFE9E73546E7E738B5064C8C
:10245000002305460846236000F012F8431C02D111
:10246000236803B12B6038BDF8080020704770471F
:1024700051F8043C181F002BBCBF0B58C018704704
:10248000044A05491368002B08BF0B461844106026
:1024900018467047F4080020FC080020FEE700BF43
:1024A00008B5062000F02CF80120FFF7F7FF1F29E0
:1024B00038B504460D4604D9162303604FF0FF30AB
:1024C00038BD426C12B152F821304BB9204600F0B1
:1024D00031F82A4601462046BDE8384000F018B8D9
:1024E000012B0AD0591C03D1162303600120E7E712
:1024F000002442F82540284698470020E0E70000E5
:10250000024B01461868FFF7D2BF00BF140000203D
:1025100038B5074C0023054608461146236000F0F5
:1025200013F8431C02D1236803B12B6038BD00BFF0
:10253000F808002000F000B8024B58221A604FF053
:10254000FF307047F8080020024B58221A604FF005
:10255000FF307047F808002054657374696E672077
:1025600025640A00232D302B2000686C4C00656622
:1025700067454647003031323334353637383941D4
:1025800042434445460030313233343536373839EA
:102590006162636465660000F8B500BFF8BC08BC02
:1025A0009E467047F8B500BFF8BC08BC9E46704711
:1025B00008B10181B0B000840000000008B10181C1
:0825C000B0B00084000000002F
:1025C80078DCFF7F010000000CDDFF7FB0A90280EE
:1025D800A8DDFF7FB0B0A880F8DDFF7F0100000014
:1025E80004DEFF7FB0B0AA803CDEFF7FAE71B28010
:1025F800FCDEFF7F01000000F8DEFF7FAB3F388084
:1026080050DFFF7F010000005CDFFF7FB0B0AA80D1
:1026180098DFFF7F010000003CE0FF7FAB0EB28037
:10262800A4E0FF7FB0AF088070E3FF7F01000000E7
:1026380074E3FF7FAC3F0380ECE5FF7F01000000FF
:10264800C8E7FF7F00840480DCE7FF7F010000000B
:10265800D8E7FF7FB0AD048094EAFF7FB0A803807D
:10266800B4EAFF7F44FFFF7FB8EAFF7F48FFFF7FA0
:10267800C4EAFF7F0100000030F5FF7FAA01B280A5
:08268800A4F5FF7F0100000032
:0426900075010008C8
:0426940051010008E8
:1026980000B0710B02040608020C081001020304C2
:1026A80006070809180000200000000000000000CC
:1026B8000000000000000000000000000000000012
:1026C8000000000000000000000000000000000002
:1026D80000000000000000000000000000000000F2
:1026E80000000000000000000000000000000000E2
:1026F80000000000000000000000000000000000D2
:082708000000000000000000C9
:0400000508001C2DA6
:00000001FF
